:100000000C9449020C944A240C9423240C947102FD
:100010000C9471020C9471020C9471020C94710294
:100020000C9471020C9471020C9471020C94710284
:100030000C9471020C9471020C9471020C94710274
:100040000C94D9230C9471020C9497240C94712471
:100050000C9471020C9471020C9471020C94710254
:100060000C94C9240C9471024572726F72202D2079
:100070004C45443220466C69636B65720045727270
:100080006F72202D204C45443120466C69636B65AE
:1000900072004572726F72202D2053656E736F72FD
:1000A0002032203E20343073004572726F72202D52
:1000B0002053656E736F722031203E203430730000
:1000C000204572726F72202D2053687574746572AA
:1000D00032204472616700204572726F72202D20B9
:1000E00053687574746572312044726167002053DF
:1000F000687574746572205370656564204672611A
:100100006374696F6E200020504152414D45544543
:1001100052202020202020202020202020202020AD
:10012000202053656E736F72322020202020202003
:1001300020202053656E736F72310020466C61730E
:10014000682053796E6320286265747765656E2038
:100150007468652074776F2053656E736F727329AE
:1001600000203D3D3D3D3D3D3D3D3D3D3D3D3D3D19
:100170003D3D3D3D3D3D3D3D3D3D3D3D3D3D3D3DAF
:100180003D3D3D3D3D3D3D3D3D3D3D3D3D3D3D3D9F
:100190003D3D3D3D002041564552414745532020BD
:1001A000202020202020202020202020202020204F
:1001B00053656E736F723220202020202020202073
:1001C0002053656E736F7231006D5300457272007B
:1001D000433220004572720043312000202020204D
:1001E000202020202020202020202020202000311E
:1001F0002F00205300312F006D53004572720045CF
:10020000727200202020202020202020202020206A
:100210002020202020004200450020202000520005
:10022000426C6F636B656420002A2A5365656E2AF1
:100230002A00426C6F636B656420002A2A5365654F
:100240006E2A2A0053656E736F7232202053656EDA
:10025000736F72312020202000203038204E6F76BE
:1002600020323032340076657273696F6E205632F8
:100270002E302E302E330020202053687574746584
:100280007220546573746572003038204E6F76208A
:10029000323032340076657273696F6E2056322EBA
:1002A000302E302E330068747470733A2F2F7777A6
:1002B000772E70686F7472696F2E636F6D2F666F23
:1002C00072756D2F746872656164732F6275696CE5
:1002D000642D612D736875747465722D7465737403
:1002E00065722D666F722D666F63616C2D706C6127
:1002F0006E652D73687574746572732D63686561BE
:10030000702D656173792D69742D776F726B732E03
:100310003139373735362F0043616D6572612053AF
:10032000687574746572205465737465720020205A
:10033000205265736574204176657261676520207F
:10034000202000526573657420417665726167658F
:1003500000202D2D2D2D2D2D2D2D2D2D2D2D2D2D07
:100360002D2D2D2D2D2D2D2D2D2D2D2D2D2D2D2DBD
:100370002D2D2D2D2D2D2D2D2D2D2D2D2D2D2D2DAD
:100380002D2D2D2D002053687574746572205370C7
:10039000656564202020202020202020202020208F
:1003A00053656E736F723220202020202020202081
:1003B0002053656E736F72310053656E736F7232C6
:1003C000202053656E736F723120202020006D5302
:1003D0000043322000433120002020202020202014
:1003E0002020202020202020202020002053003109
:1003F0002F00312F0020202020202020202020200E
:1004000020202020202020006D53002020202020AC
:100410002020202020202020202020202000417685
:1004200065726765322020417665726167653120AB
:1004300020200000000000240027002A0000000007
:1004400000250028002B00000000002300260029C2
:10045000000404040404040404020202020202036D
:100460000303030303010204081020408001020477
:1004700008102001020408102000000008000201FA
:100480000000030407000000000000000000E82551
:10049000CB2A11241FBECFEFD8E0DEBFCDBF14E0C2
:1004A000A0E0B1E0EAE3F5E602C005900D92A039C4
:1004B000B107D9F726E0A0E9B4E001C01D92AF3939
:1004C000B207E1F712E0C8E4D2E004C02197FE01D0
:1004D0000E949830C734D107C9F70E943F260C9478
:1004E00090320C9400002F923F924F925F926F9245
:1004F0007F928F929F92AF92BF92CF92DF92EF92B4
:10050000FF920F931F93CF93DF9300D000D0CDB70E
:10051000DEB71C014B015A013901270196012270F7
:1005200033273A83298333E0C322DD245C834B8362
:10053000CD2851F46801C41AD50A8B819C818C0D99
:100540009D1D84159505B0F07301E00EF11E4B81E1
:100550005C81E614F704F1F06A01FFEFCF1ADF0ABD
:100560002FEF3FEFB401F70182917F01F10109956F
:10057000A601EFCFEB80FC808FEFE81AF80A2FEF8F
:100580003FEF4B815C81B40180E2F1010995FC826F
:10059000EB82D3CF8B819C81800F911F29813A817F
:1005A000232BA1F09C012A193B092415350570F471
:1005B000FC013196FA83E9832FEF3FEFAC01B401E0
:1005C00080E2F101099589819A81ECCF0F900F901B
:1005D0000F900F90DF91CF911F910F91FF90EF90AF
:1005E000DF90CF90BF90AF909F908F907F906F9053
:1005F0005F904F903F902F9008952F923F924F928F
:100600005F926F927F928F929F92AF92BF92CF92A2
:10061000DF92EF92FF920F931F93CF93DF93CDB7AB
:10062000DEB7AF970FB6F894DEBF0FBECDBF9AA767
:1006300089A77CA76BA75EA74DA7CAA2DBA2ECA2E5
:100640005F2C402E1DA3322E232EA8A689A22A9607
:100650008EAC9FAC2A9796014E2D5F2D602F712F87
:10066000832D922DA0E00E94783009F04CC092FCBE
:1006700042C080E38983E89484F866246394712CF3
:1006800081FC92C0C4018170992728962EAD3FADA0
:100690002897232BA9F0009709F486C038A53111BB
:1006A00005C094012C703327232B51F028964EADB2
:1006B0005FAD28974150510928965FAF4EAF2897FC
:1006C000E1E0F0E0EC0FFD1FE60DF71D830120E3F4
:1006D000009709F46AC028964EAD5FAD28970417BD
:1006E000150708F062C00032110509F45EC00F5F03
:1006F0001F4F2193EDCF29A1203111F4E89484F804
:10070000712C612CBDCF81E485FE81E6AE014F5F87
:100710005F4F5FA34EA3712C612C8A508FA7A9A0B5
:10072000B12CC12CD12CE12CF12C00E010E02AA13D
:100730003BA14CA1552D642D7DA1832D922D0E94AE
:10074000D72F2A3074F5205D8FEF681A780AEEA152
:10075000FFA12193FFA3EEA3A9A0B12CC12CD12C02
:10076000E12CF12C00E010E02AA13BA14CA1552D79
:10077000642D7DA1832D922D0E94D92F2AA33BA306
:100780004CA3552E462E7DA3382E292EA0E00E9484
:10079000783009F475CFF0E26F16710409F0BFCF1D
:1007A0006FCF5FA5250FD0CF8301E1E0F0E0EC0F24
:1007B000FD1FE00FF11F80E326962EAD3FAD26977B
:1007C0000217130738F40032110520F40F5F1F4F92
:1007D0008193F2CF39A1383029F46016710610F4F4
:1007E000E89484F8C40180719071892B09F447C0A2
:1007F00092FC25C00115110511F126964EAD5FAD95
:1008000026974017510739F028968EAD9FAD28974F
:1008100008171907A1F46016710608F099C0C801FD
:10082000019759F0E9A1E03109F06EC002501109B9
:100830006816790640F08C0106C010E000E0F9A1CE
:10084000F03109F062C085FC54C00032110540F55A
:10085000E1E0F0E0EC0FFD1FE00FF11F88E780837F
:100860000F5F1F4F00321105D8F4E1E0F0E0EC0F0C
:10087000FD1FE00FF11F80E380830F5F1F4F0032E9
:10088000110570F438A5332309F44EC0E1E0F0E01F
:10089000EC0FFD1FE00FF11F8DE280830F5F1F4FF4
:1008A00064012896EEACFFAC28979E012F5F3F4F66
:1008B0004DA55EA56BA57CA589A59AA50E9473028E
:1008C000AF960FB6F894DEBF0FBECDBFDF91CF91CC
:1008D0001F910F91FF90EF90DF90CF90BF90AF905E
:1008E0009F908F907F906F905F904F903F902F9050
:1008F000089500321105A0F6E1E0F0E0EC0FFD1FD5
:10090000E00FF11F88E5ABCF8C0129A1223009F05F
:10091000A9CF0032110520F6E1E0F0E0EC0FFD1F59
:10092000E00FF11F82E69BCF82FE08C0E1E0F0E01D
:10093000EC0FFD1FE00FF11F8BE2AFCF83FEB0CFB6
:10094000E1E0F0E0EC0FFD1FE00FF11F80E2A5CF2A
:1009500049A14031D1F677CF2F923F924F925F92CB
:100960006F927F928F929F92AF92BF92CF92DF92BF
:10097000EF92FF920F931F93CF93DF93CDB7DEB724
:100980006E970FB6F894DEBF0FBECDBF09871A87EA
:100990002B873C874D875E876F87788B23964EAC7D
:1009A0005FAC23978C8A9D8AAE8ABF8AC88ED98E07
:1009B000EA8EFB8E8C8F29AD3AAD232B09F49EC0B5
:1009C0000A8B1B8B6B847C844A011B01EDADFEAD51
:1009D000F3FF3EC0E4FD3CC0202F312FA301B40142
:1009E000C101A0E00E94783009F00CF49AC02AE01E
:1009F000A22EB12CC12CD12CE12CF12C00E010E066
:100A00002A893B89A301B401C1010E94A62FA0E05D
:100A10000E94783099F429AD3AAD215031093AAFAE
:100A200029AF2A893B89A301B401C1010E94A82FE3
:100A30002A8B3B8B3A014B011C01D9CF2A893B8978
:100A4000A301B401C101A0E00E94783009F469C09B
:100A500021968EAD9FAD2197840D951D9E8F8D8F14
:100A600090E24916510408F096C0E9ADFAAD31970D
:100A7000FAAFE9AFFFEF4F1A5F0A9AE0A92EB12C47
:100A8000C12CD12CE12CF12C00E010E02A893B890B
:100A9000A301B401C1010E94A62F205DED8DFE8D42
:100AA0002193FE8FED8F2A893B89A301B401C101F7
:100AB0000E94A82F2A8B3B8B3A014B011C01A0E01E
:100AC0000E94783069F62196EEADFFAD2197E40DD6
:100AD000F51D80E320E24216510409F45CC03FEFAB
:100AE000431A530A29AD3AAD2115310509F4DAC08C
:100AF0008193215031093AAF29AFECCF3DAD34FF9E
:100B000010C080E24816510408F045C02196EEADB1
:100B1000FFAD2197E40DF51D8EE28083F201319641
:100B20002F0121966EAC7FAC2197640C751CF0E20E
:100B30004F16510480F52FEF421A520A8AE0A82E70
:100B4000B12CC12CD12CE12CF12C00E010E02C892F
:100B50003D894E895F89688D798D8A8D9B8D0E9434
:100B6000A62F205DF30121933F012C893D894E89F9
:100B70005F89688D798D8A8D9B8D0E94A82F2C8B23
:100B80003D8B4E8B5F8B688F798F8A8F9B8FA0E018
:100B90000E94783061F6FDADF1FD29C0F0FF27C05D
:100BA0002BAD3CAD232B19F13C8D311106C08DAD21
:100BB0009EAD8C709927892B29F08BAD9CAD019748
:100BC0009CAF8BAF2196EEADFFAD2197E40DF51DE7
:100BD00080E32BAD3CAD4216530648F430E2431699
:100BE0005104C0F49FEF491A590A8193F2CFE0E211
:100BF0004E16510478F4FC8DFF23B1F12196EEAD31
:100C0000FFAD2197E40DF51D8DE2808392012F5FEA
:100C10003F4F2901CDACDEACEBACFCAC82012196A0
:100C20002EAD3FAD21974FA958AD6DA97EA98BA9D7
:100C30009CA90E9473026E960FB6F894DEBF0FBE99
:100C4000CDBFDF91CF911F910F91FF90EF90DF907B
:100C5000CF90BF90AF909F908F907F906F905F905C
:100C60004F903F902F9008953DAD32FF0CC02196DC
:100C7000EEADFFAD2197E40DF51D8BE28083C2013F
:100C800001962C01C7CF9DAD93FFC4CF2196EEAD49
:100C9000FFAD2197E40DF51D80E28083F2013196CE
:100CA0002F01B8CF8EE280833CCF833081F028F4CF
:100CB000813099F08230A9F008958730A9F088300A
:100CC000C9F08430B1F4809180008F7D03C08091A1
:100CD00080008F7780938000089584B58F7784BDDE
:100CE000089584B58F7DFBCF8091B0008F7780937E
:100CF000B00008958091B0008F7DF9CFCF93DF933E
:100D0000282F30E0F901E758FB4F8491F901EB59A6
:100D1000FB4FD491F901EF5AFB4FC491CC23A1F0C2
:100D200081110E945506EC2FF0E0EE0FFF1FE95BEA
:100D3000FB4FA591B491EC91ED2381E090E009F493
:100D400080E0DF91CF91089580E090E0FACF1F938B
:100D5000CF93DF93282F30E0F901E758FB4F8491C0
:100D6000F901EB59FB4FD491F901EF5AFB4FC491B4
:100D7000CC23A9F0162F81110E945506EC2FF0E02C
:100D8000EE0FFF1FE35CFB4FA591B4918FB7F89472
:100D9000EC91111108C0D095DE23DC938FBFDF9159
:100DA000CF911F910895DE2BF8CFCF93DF9390E082
:100DB000FC01EB59FB4F24918F5A9B4FFC0184910E
:100DC0008823C9F090E0880F991FFC01ED5CFB4F70
:100DD000A591B491FC01E35CFB4FC591D4916111E5
:100DE0000DC09FB7F8948C91209582238C938881B5
:100DF000282328839FBFDF91CF910895623051F45B
:100E00009FB7F8943C91822F809583238C93E8813F
:100E10002E2BEFCF8FB7F894EC912E2B2C938FBF06
:100E2000EACF3FB7F89480918A0590918B05A09105
:100E30008C05B0918D0526B5A89B05C02F3F19F0F4
:100E40000196A11DB11D3FBFBA2FA92F982F88274A
:100E5000BC01CD01620F711D811D911D42E0660F25
:100E6000771F881F991F4A95D1F708958F929F92F7
:100E7000AF92BF92CF92DF92EF92FF924B015C0153
:100E80000E9411076B017C010E9411076C197D09FA
:100E90008E099F09683E734081059105A8F321E002
:100EA000821A9108A108B10888EEC80E83E0D81E06
:100EB000E11CF11C81149104A104B10429F7FF90F5
:100EC000EF90DF90CF90BF90AF909F908F9008955C
:100ED0002FB7F894609186057091870580918805F9
:100EE000909189052FBF0895089508950895DC0114
:100EF000ED91FC910190F081E02D0994EF92FF9229
:100F00000F931F93CF93DF938C017B01D0E0C0E060
:100F1000F701EC0FFD1F6491662361F0D801ED919C
:100F2000FC910190F081E02DC8010995892B11F009
:100F30002196EECFCE01DF91CF911F910F91FF90BF
:100F4000EF900895AF92BF92CF92DF92EF92FF920F
:100F50000F931F93CF93DF936C017B018B01040FE1
:100F6000151FEB015E01AE18BF08C017D10759F07D
:100F70006991D601ED91FC910190F081E02DC601BF
:100F80000995892B79F7C501DF91CF911F910F91B9
:100F9000FF90EF90DF90CF90BF90AF900895FC014D
:100FA000538D448D252F30E0842F90E0821B930BCE
:100FB000541710F0CF96089501970895FC01918D74
:100FC000828D981761F0A28DAE0FBF2FB11D5D9677
:100FD0008C91928D9F5F9F73928F90E008958FEF19
:100FE0009FEF0895FC01918D828D981731F0828DCD
:100FF000E80FF11D858D90E008958FEF9FEF089524
:10100000FC01918D228D892F90E0805C9F4F821B87
:1010100091098F73992708958EE895E00E94000842
:1010200021E0892B09F420E0822F089580E090E0F0
:10103000892B29F00E940C0881110C94000008955E
:10104000FC01A48DA80FB92FB11DA35ABF4F2C913D
:10105000848D90E001968F739927848FA689B78934
:101060002C93A089B1898C91837080648C93938D2B
:10107000848D981306C00288F389E02D80818F7DCE
:1010800080830895EF92FF920F931F93CF93DF9386
:10109000EC0181E0888F9B8D8C8D98131AC0E889B4
:1010A000F989808185FF15C09FB7F894EE89FF8983
:1010B0006083E889F98980818370806480839FBF21
:1010C00081E090E0DF91CF911F910F91FF90EF9021
:1010D0000895F62E0B8D10E00F5F1F4F0F73112731
:1010E000E02E8C8D8E110CC00FB607FCFACFE8896C
:1010F000F989808185FFF5CFCE010E942008F1CFCC
:10110000EB8DEC0FFD2FF11DE35AFF4FF0829FB7DF
:10111000F8940B8FEA89FB8980818062CFCFCF93CF
:10112000DF93EC01888D8823B9F0AA89BB89E8890F
:10113000F9898C9185FD03C0808186FD0DC00FB6B5
:1011400007FCF7CF8C9185FFF2CF808185FFEDCF33
:10115000CE010E942008E9CFDF91CF910895FC01D4
:101160004281538141155105E9F0248535852115CA
:101170003105C1F064177507A8F484819581680F63
:10118000791F6417750710F0641B750B660F771FC6
:10119000660F771F620F731FFB016081718182816F
:1011A0009381089560E070E080EC9FE708958F924E
:1011B0009F92AF92BF92CF92DF92EF92FF920F93E6
:1011C0001F93CF93DF93EC010A811B810115110559
:1011D000E1F1EC84FD84E114F104B9F1188619867B
:1011E0001A861B86D12CC12C88849984AA84BB843E
:1011F0000C151D0591F0F70161917191819191910B
:101200007F01A50194010E94892D688779878A87CB
:101210009B87FFEFCF1ADF0AE7CFB80190E080E0AD
:101220000E94B92B9B01AC01C501B4010E94F52DB0
:10123000DF91CF911F910F91FF90EF90DF90CF90B2
:10124000BF90AF909F908F90089560E070E080EC29
:101250009FE7EECFAF92BF92CF92DF92EF92FF92D5
:101260000F931F93CF93DF93FC01A484B584A11443
:10127000B10409F466C06A017B01EC0104811581A7
:10128000C801880F991F880F991FA80EB91EF50174
:101290002081318142815381688579858A859B854A
:1012A0000E94882D688779878A879B87F501C0828D
:1012B000D182E282F382A7019601688579858A85C9
:1012C0009B850E94892D688779878A879B870F5F16
:1012D0001F4F1D830C83AE80BF800A151B0511F4C0
:1012E0001D821C820A811B810115110589F4CA8A9D
:1012F000DB8AEC8AFD8ACE86DF86E88AF98A0A15BF
:101300001B0520F40F5F1F4F1B830A8381E01AC067
:10131000A70196016E857F85888999890E942D2F66
:1013200018164CF3A70196016A897B898C899D89DF
:101330000E94B42B87FFE3CFCA8ADB8AEC8AFD8A3E
:10134000DECF80E0DF91CF911F910F91FF90EF9062
:10135000DF90CF90BF90AF900895FC01138212826E
:1013600015821482108611861286138680E090E022
:10137000A0ECBFE786879787A08BB18B828B938B7E
:10138000A48BB58B84859585009799F02081318158
:10139000F901EE0FFF1FEE0FFF1FE80FF91F2115D8
:1013A000310549F021503109129212921292129293
:1013B000F6CF80E0089581E0089508952F923F923E
:1013C0004F925F926F927F928F929F92AF92BF9255
:1013D000CF92DF92EF92FF920F931F93CF93DF9301
:1013E000CDB7DEB760970FB6F894DEBF0FBECDBFA6
:1013F000988B8F876A017B013E872D87DB01CA01AD
:101400008827B7FD83959927AA27BB27282F217006
:10141000EF85F889208B892B21F0F7FAF094F7F803
:10142000F094C701B6010E94672E29833A834B834B
:101430005C836D837E838F839887AF85B8892C9377
:1014400011963C93119712964C93129713965C93B6
:10145000139714966C93149715967C9315978F8118
:1014600016968C931697988517969C93ED85FE8516
:10147000EE0FFF1FEE0FFF1FEA5EFE4F808191818E
:10148000A281B38189879A87AB87BC878F81988532
:101490000E94D92E9B01AC01C701B6010E94882D84
:1014A00029853A854B855C850E941A2C2B013C01CD
:1014B0000E94672E822E232E342E952E5B018C01E6
:1014C000AF85B88918962C93189719963C9319975D
:1014D0001A964C931A971B965C931B971C966C93C9
:1014E0001C971D96BC921D971E968C931E971F9657
:1014F0001C930E94D92E9B01AC01C301B2010E9432
:10150000882D2B013C0120E030E040E05FE30E94A9
:101510002D2F18160CF0D0C0282D322D432D592D0B
:10152000B501C801A1E00E946C3039014A015B019C
:101530008C010E94D92E9B01AC0169857A858B852F
:101540009C850E94B42B18160CF087C0EF85F88993
:101550006086718682869386A486B58606871787FD
:10156000ED85FE85EF2B09F05DC0AF85B8891C9134
:1015700011966C90119712967C90129713968C90FE
:10158000139714969C9014971596AC9015971696F1
:10159000BC90169717960C91212F362D472D582D5C
:1015A000692D7A2D8B2D902F0E94D92E9B01AC0195
:1015B000C701B6010E94882D6B017C0120E030E05C
:1015C00040E05FE30E94B42B87FF0AC020E030E0D8
:1015D00040E05FE3C701B6010E942D2F181614F5F5
:1015E000212F217030E040E050E060E070E080E0CA
:1015F00090E0A0E00E947830A9F0212F362D472DF1
:10160000582D692D7A2D8B2D902FA1E00E946C30E2
:10161000EF85F88920833183428353836483758304
:10162000868397838F85988960960FB6F894DEBF7E
:101630000FBECDBFDF91CF911F910F91FF90EF9023
:10164000DF90CF90BF90AF909F908F907F906F90E2
:101650005F904F903F902F900895AF85B88918966E
:101660001C92189719961C9219971A961C921A9701
:101670001B961C921B971C961C921C971D961C92E5
:101680001D971E961C921E971F961C9229813A81C7
:101690004B815C816D817E818F819885A1E00E9464
:1016A0006C30EF85F88920833183428353836483D0
:1016B00075838683978354CF20E030E040E05FE37A
:1016C000C301B2010E94B42B81114ACF282D322DC3
:1016D000432D592DB501C801A0E00E94783061F07A
:1016E000217030E040E050E060E070E080E090E0A9
:1016F0000E94783009F434CF282D322D432D592DF6
:10170000B501C801A1E00E946C30AF85B889189678
:101710002C93189719963C9319971A964C931A97ED
:101720001B965C931B971C966C931C971D967C9341
:101730001D971E968C931E971F969C9311CF2F92E8
:101740003F924F925F926F927F928F929F92AF9251
:10175000BF92CF92DF92EF92FF920F931F93CF939E
:10176000DF93CDB7DEB7E6970FB6F894DEBF0FBEB6
:10177000CDBF9CA78BA76DA77EA758AB4FA70A8BA1
:101780001B8B2C8B3D8BFF8EEE8EDAAAC9AAB9A6D5
:10179000A8A68BAA9CAA2C962FAD2C972DAB2D9684
:1017A0003FAD2D973EAB8A899B89AC89BD8988273F
:1017B000B7FD83959927AA27BB278E8B9F8BA88F70
:1017C000B98F0E891F890115110549F02A893B89B6
:1017D0004C895D8950582A8B3B8B4C8B5D8B20E06C
:1017E00030E0A9016A897B898C899D890E94B42B8C
:1017F000312C212C882309F40FC18A899B89AC895B
:10180000BD89E7E1B695A79597958795EA95D1F7B4
:1018100099278F579109BC01990F880B990B0E944A
:10182000BB2B2BE930E24AE95EE30E941A2C24E448
:1018300031E544E35EE30E94892D6B017C016A89F6
:101840007B898C899D898F77992780689F6320E0A9
:1018500030E040EC5FE30E94882D2BE33DE344E958
:101860005EE30E941A2C9B01AC01C701B6010E94E5
:10187000892D0E94A32E6A8F7B8F8C8F9D8F2A8C3F
:101880003B8CB101032C000C880B990B0E94BB2BE5
:101890006B017C0128E73AE944E550E40E941A2CE8
:1018A00020E030E040E05FE30E94892D0E94A32EFB
:1018B0004B012EE83DE543E150E4C701B6010E942B
:1018C0001A2C6B017C01092C000CAA08BB08C5016D
:1018D000B4010E94BB2B28E132E741E35FE30E94A1
:1018E0001A2C9B01AC01C701B6010E94882D2B0167
:1018F0003C01AC019B010E941A2C6B017C01A301ED
:101900009201C301B2010E94892D68A379A38AA321
:101910009BA320E030E040E651E4C701B6010E94FD
:10192000F52D20E030E040E251E40E94892D9B013A
:10193000AC01C701B6010E94F52D20E030E040EC7B
:1019400050E40E94892D9B01AC01C701B6010E94A1
:10195000F52D6B017C01A301920160E070E080E055
:1019600090E40E94882D9B01AC01C701B6010E9442
:10197000892D9B01AC0168A179A18AA19BA10E943C
:10198000F52D20E030E040E85FE30E94892D3FE73D
:10199000830E911CA11CB11CA5019401F7E1220F3B
:1019A000331F441F551FFA95D1F70E941A2C2B01A3
:1019B0003C01AC019B016A897B898C899D890E94CD
:1019C000B42B87FF0DC041E0241A310820E030E03D
:1019D00040E251E4C301B2010E94F52D2B013C010C
:1019E000C101419651E05AA78332910508F01AA629
:1019F000839790F4C10137FE04C088279927821984
:101A00009309880F991F880F991FFC01EA5EFE4F0A
:101A1000408051806280738088A599A593FF8DC115
:101A2000AE8DBF8D9D01AB2B11F421E030E08E8D8A
:101A30009F8D0197BCEF2B16BFEF3B060CF467C0E0
:101A4000221633060CF063C082199309AA24A394CA
:101A50009F8F8E8F97FF02C01F8E1E8EE8A5F9A55F
:101A6000F460F9A7E8A737FE1AA6A110C1C1211496
:101A7000310409F475C18E898170898BFAA5FF2321
:101A800009F463C1A30192016A897B898C899D89CC
:101A90000E941A2C1AA50E94672E2E8B3A8F48A3FB
:101AA0005CA36DA37EA3882E9FA30E94D92E2AA596
:101AB000A301222371F192010E94F52D9B01AC013B
:101AC0006A897B898C899D890E94882D6B017C01A4
:101AD000EE8DFF8DEE0FFF1FEE0FFF1FEA5EFE4F34
:101AE00080819181A281B3818A8B9B8BAC8BBD8BD2
:101AF000112399F0A3019201BC01CD010E941A2C7F
:101B00009B01AC01C701B6010E941A2C3DC0A12C5B
:101B10009FCF92010E941A2CD1CFD301C20157E16D
:101B2000B695A795979587955A95D1F799279C01D2
:101B30002F57310937FF03C03195219531098A8923
:101B40009B89AC89BD8947E1B695A79597958795FF
:101B50004A95D1F799278F57910997FF03C091951F
:101B600081959109821793070CF07DC02A893B89E2
:101B70004C895D89C301B2010E94F52D9B01AC0126
:101B8000C701B6010E94F52D2B013C01AE8DBF8D22
:101B9000AB2B09F071C011E020E030E040E05FE3E2
:101BA0000E942D2F87FD10E0212F30E040E050E013
:101BB00060E070E080E090E0AE88BA8CC8A0DCA065
:101BC000EDA0FEA0082D1FA10E9463302E8B3A8F3E
:101BD00048A35CA36DA37EA3882E9FA320E030E0E2
:101BE00040E05FE3C301B2010E94B42B811103C046
:101BF000BE89BE7FBE8B10E0B12CC12C912CD12CA4
:101C0000E12CF12C00E02E893A8D48A15CA16DA158
:101C10007EA1882D9FA1A9E00E947830A9F0A4F0B0
:101C20003FEF231A330A10E0B12CC12C912CD12C98
:101C3000E12CF12C00E041E04E8B1A8E18A21CA280
:101C40001DA21EA2812C1FA2C1018D599F4F512C94
:101C500025E0622E712C873C910508F027C184E0B5
:101C6000682E712C23C1A30192016A897B898C891A
:101C70009D890E94F52D44CF0E94672E59016A016B
:101C80007B01082F992E0E94D92E9B01AC01C30124
:101C9000B2010E94882D2B013C0111E020E030E0D0
:101CA00040E05FE30E942D2F87FD10E0212F30E000
:101CB00040E050E060E070E080E090E0192D0E948C
:101CC0006330122FB32EC42E952ED62EE72EF82E6B
:101CD000092F20E030E040E05FE3C301B2010E9441
:101CE000B42B811101C01E7F212F3B2D4C2D592D6E
:101CF0006D2D7E2D8F2D902F0E94D92E9B01AC0132
:101D00006A897B898C899D890E94B42B18160CF4F2
:101D10007ACF2E893A8D48A15CA16DA17EA1882D34
:101D20009FA1A1E00E946C302E8B3A8F48A35CA348
:101D30006DA37EA3882E9FA35ECF37FC98CE21147F
:101D4000310471F08E898170898BA30192016A89B7
:101D50007B898C899D890E94F52D10E01AA69BCE67
:101D6000A12C012B09F046C02E8D3F8D4A895B893D
:101D70006C897D89CE0101960E94DE09F981FE8B76
:101D80002A812A8F3B8138A34C814CA35D815DA3BE
:101D90008E818EA38F8098859FA31985BA84CB846A
:101DA0009C84DD84EE84FF8408892DCF2E8D3F8DA9
:101DB0004A895B896C897D89CE0101960E94DE0982
:101DC000A981AE8BBA81BA8FEB81E8A3FC81FCA319
:101DD0002D812DA33E813EA38F8048854FA3198579
:101DE000BA84CB849C84DD84EE84FF84088927C078
:101DF000012BE1F24A895B896C897D8970582E8DAF
:101E00003F8DCE0101960E94DE09E981EE8BFA81B9
:101E1000FA8F2B8128A33C813CA34D814DA35E8189
:101E20005EA38F8088858FA31985BA84CB849C8418
:101E3000DD84EE84FF840889AA2009F4E4CE68A436
:101E400079A4662498E07922A8A5B9A555245394CD
:101E5000B3FF2CC0BFEF2B163B0624F13101EFEF8F
:101E60006E1A7E0A2E893A8D48A15CA16DA17EA1D1
:101E7000882D9FA10E94D92EF301EE0FFF1FEE0FB8
:101E8000FF1FEA5EFE4F20813181428153810E9413
:101E9000B42B811107C02E8D3F8D215031093F8F0A
:101EA0002E8F130155245394712C612C88A599A56C
:101EB000827099279B8B8A8B98A591FF03C0611430
:101EC000710441F4A9A9BAA9CD01861997096A1626
:101ED0007B0610F090E080E0BE89B983EA8DEA834A
:101EE000F8A1FB832CA12C833DA13D834EA14E8301
:101EF0008F825FA158871987BA86CB869C86DD863C
:101F0000EE86FF86088BAEA9AF93BDA9BF93ECA95F
:101F1000EF93FBA9FF9329A52F9338A53F939F9398
:101F20008F934F8D4F935E8D5F9388A98F939FA55D
:101F30009F93AEA5AF93BDA5BF93ECA5EF93FBA573
:101F4000FF9389809A80AB80BC80CD80DE80EF805B
:101F5000F88409851A852B853C854D855E856F85BE
:101F6000788989890E94AC040FB6F894DEBF0FBE51
:101F7000CDBF511067C02C013FEF431A530A48A54B
:101F8000E5E445FFE5E62FEF3FEFAC016DA57EA54B
:101F90008E2FEBA5FCA50995A32CAA1CAA24AA1C8C
:101FA0006101E32CEE0CEE08FE2C0E2D1E2DFE2DF5
:101FB000EE2D91014E2D5E2D6E2D7E2D8E2D9E2DA2
:101FC000A0E00E9478303CF40E94363069017A012A
:101FD0008B01F82FE92F1F9285E08F9321E0621A81
:101FE00071087F926F921F921F929AE0892E2F2F75
:101FF0003E2FA2016DA57EA58BA59CA50E94FD028A
:102000000F900F900F900F900F900F904A895B895F
:10201000452BC1F09C01AFA5B8A92A1B3B0BE9A930
:10202000FAA92E173F0770F48C010F5F1F4F2FEF97
:102030003FEFAC016DA57EA580E2EBA5FCA509955F
:10204000C801E8CFE6960FB6F894DEBF0FBECDBF4D
:10205000DF91CF911F910F91FF90EF90DF90CF9084
:10206000BF90AF909F908F907F906F905F904F90B8
:102070003F902F9008952F923F924F925F926F92D0
:102080007F928F929F92AF92BF92CF92DF92EF9208
:10209000FF920F931F93CF93DF93CDB7DEB7E797F0
:1020A0000FB6F894DEBF0FBECDBF1C016AAB7BAB91
:1020B0004CAB5DAB28013901CEAADFAA6501B82C73
:1020C000A9019801C301B8010E94B42B882331F102
:1020D000EEA8FFA803E010E027E931E04CA95DA9D4
:1020E0006AA97BA9C1010E947302E7960FB6F89412
:1020F000DEBF0FBECDBFDF91CF911F910F91FF903B
:10210000EF90DF90CF90BF90AF909F908F907F9097
:102110006F905F904F903F902F9008952FEF3FEF7B
:102120004FE75FEFC301B8010E94B42B87FF07C0E0
:10213000EEA8FFA804E010E02BE931E0CFCF2FEFAD
:102140003FEF4FE75FE7C301B8010E942D2F18163C
:102150006CF404E010E02EE831E0C2FC04C003E0BF
:1021600010E023E931E0EEA8FFA8B8CF9E012F5F71
:102170003F4F4901B11025C028E23BE64EE65EE440
:10218000C301B8010E942D2F181654F028E23BE637
:102190004EE65EECC301B8010E94B42B87FF11C06C
:1021A0001F921F925601CEA8DFA8930182014CA96D
:1021B0005DA96AA97BA9C1010E949F0B0F900F9096
:1021C00094CFD2FC03C086E0E82EF12CF40110E09D
:1021D00000E080E332E1E316F10448F00F5F1F4FA7
:1021E000819391E0E91AF1080032110599F7BB20BB
:1021F00019F01F930F93D6CF9701B301A201CE011F
:1022000081960E94DE091F930F939F928F92DF9217
:10221000CF922FA92F933EA93F93FF92EF928DA9C2
:102220008F939CA99F932BA92F933AA93F933F92F9
:102230002F9289A09AA0ABA0BCA0CDA0DEA0EFA059
:10224000F8A409A51AA52BA53CA54DA55EA56FA5CB
:1022500078A989A90E94AC040FB6F894DEBF0FBE1E
:10226000CDBF43CF882329F0682F8EE895E00C94EA
:102270007707089508952091F004260F3327331F20
:1022800021323105ECF420913905FC0190E080E029
:10229000243069F082E00895A091F0042191AC010E
:1022A00040535B4FA40FB52FB11D2C930196861799
:1022B00098F38091F004680F6093F00480E0089533
:1022C00081E008951092390581E0809338051092DD
:1022D000130561E082E10E94A70661E083E10E94AC
:1022E000A706E9EBF0E080818E7F808380818D7F7F
:1022F000808388E48093B80085E48093BC000895CF
:10230000CF93DF9391E09093CF048823B9F0C091ED
:10231000B800D091BA008091BC008A7B8093BC0049
:1023200060E082E10E94A70660E083E10E94A706C8
:102330000E946211D093BA00C093B800DF91CF9190
:1023400008950895E091680580916705E81730F4D5
:10235000F0E0E155FB4F808190E008958FEF9FEF13
:10236000089590916805809167052FEF3FEF9817CA
:1023700048F4E92FF0E0E155FB4F208130E09F5F0A
:1023800090936805C901089580916705909168054B
:10239000891B990B0895CF92DF92EF92FF920F93D2
:1023A0001F93CF93DF937C01CB018A0120913F05DE
:1023B000222389F0EB016B01C40ED51ECC15DD057F
:1023C00069F06991D701ED91FC910190F081E02DC8
:1023D000C7010995F3CF642F0E943B11C801DF911B
:1023E000CF911F910F91FF90EF90DF90CF900895C4
:1023F000CF93DF931F92CDB7DEB7698320913F055E
:102400002223F9F020916505203258F021E030E0D8
:10241000FC013383228390E080E00F90DF91CF9125
:10242000089580916605E82FF0E0E05CFA4F99810D
:1024300090838F5F809366058093650581E090E0CF
:10244000ECCF61E0CE0101960E943B11F7CFCF9215
:10245000DF92EF92FF920F931F93CF93DF93FC01D4
:10246000C48121E020933F05C0936005109266056A
:10247000109265058385682B8BE296E00E94F81127
:10248000D0916505D13208F092C00E9411076B010E
:102490007C0180913905811165C082E08093390506
:1024A00081E0809338058FEF8093370510923605D1
:1024B000D0933505A0E4B5E0E5E1F5E080E0D81380
:1024C00085C01092140580911405CC0FC82BC093C1
:1024D000140580911305813009F07CC0109213051A
:1024E0000E9411076B017C01809114058093BB0051
:1024F00080913B0590913C05A0913D05B0913E0532
:10250000892B8A2B8B2B99F00E94110700913B0598
:1025100010913C0520913D0530913E056C197D09D7
:102520008E099F090617170728073907E0F18091E0
:10253000BC0083FDD9CF85EC8093BC000E941107BD
:102540006B017C0180913905823009F445C080918E
:1025500037058F3F61F180913705803241F18091DD
:10256000370525C080913B0590913C05A0913D0524
:10257000B0913E05892B8A2B8B2B09F48ACF0E94C0
:10258000110700913B0510913C0520913D053091CC
:102590003E056C197D098E099F0906171707280744
:1025A000390708F076CF80913A050E948011109289
:1025B00066051092650510923F05DF91CF911F913E
:1025C0000F91FF90EF90DF90CF9008959D919193A0
:1025D0008F5F75CF85EEB0CF80913B0590913C0524
:1025E000A0913D05B0913E05892B8A2B8B2B09F4D8
:1025F000A9CF0E94110700913B0510913C05209145
:102600003D0530913E056C197D098E099F0906171D
:1026100017072807390708F095CFC5CF90E080E06D
:10262000089583E00E947E06892B41F4809179050C
:102630008F5F8093790581E080936E0583E00E942F
:102640007E06019729F4809174058F5F809374054D
:10265000089582E00E947E06892B29F480918405EA
:102660008F5F8093840582E00E947E06019729F4A3
:1026700080917F058F5F80937F050895CF92DF92D1
:10268000EF92FF92CF930E9468076B017C01C1E03B
:102690000E9468076C197D098E099F09683E734086
:1026A0008105910538F480917905833088F3C093D2
:1026B000A004EECF80918405833018F081E08093F0
:1026C000A104CF91FF90EF90DF90CF9008950F93EA
:1026D0001F93CF938C01C62F0E9427126C2F64602A
:1026E000C8010E9427126C2F6B7FC8010E9427121D
:1026F00083EC90E00197F1F7CF911F910F9108952E
:102700000F931F93CF93DF938C01D62FC42F607F3D
:10271000642B0E94671380E1D89FB00111246C2BB9
:10272000C801DF91CF911F910F910C94671340E086
:1027300061E08FE896E00E9480138BE39FE10197B0
:10274000F1F70895CF93DF93CDB7DEB728970FB693
:10275000F894DEBF0FBECDBF98E0EEE0F1E0DE0101
:10276000119601900D929A95E1F790919706961720
:1027700010F46FEF690F262F30E0220F331F41E076
:1027800050E04C0F5D1F240F351FF9016081680F69
:10279000606840E08FE896E028960FB6F894DEBFB8
:1027A0000FBECDBFDF91CF910C94801341E00E940A
:1027B000801381E090E00895CF93DF93EC018AE0ED
:1027C00090E0998388839F838E8388E290E00E94C3
:1027D0009E309D878C87892B11F419821882CE0137
:1027E000DF91CF910C94AD09FB0101900020E9F736
:1027F0003197AF01461B570BDC01ED91FC91028034
:10280000F381E02D09948F929F92AF92BF92EF9245
:10281000FF920F931F93CF93DF93CDB7DEB7A197AE
:102820000FB6F894DEBF0FBECDBF7C01FA01CB011D
:1028300019A2223008F42AE08E010F5D1F4F822E6C
:10284000912CB12CA12CBF01A50194010E94572D00
:10285000F901CA016A300CF5605DD8016E938D01F3
:10286000232B242B252B79F790E080E0109721F083
:10287000BD01C7010E94F413A1960FB6F894DEBF04
:102880000FBECDBFDF91CF911F910F91FF90EF90C1
:10289000BF90AF909F908F900895695CDECFCF92EC
:1028A000DF92EF92FF920F931F93CF93DF936B0111
:1028B000770FEE08FF08F7FE1BC0EC016DE20E94E7
:1028C00077078C0144275527BA014C195D096E0919
:1028D0007F092AE0CE010E940314800F911FDF912F
:1028E000CF911F910F91FF90EF90DF90CF900895BF
:1028F0002AE0B701A601DF91CF911F910F91FF90C0
:10290000EF90DF90CF900C940314CF93DF93BC0132
:102910008EE895E00E94F413EC0160EA71E08EE825
:1029200095E00E94F4138C0F9D1FDF91CF910895C5
:10293000CF93DF93BC018EE895E00E947E07EC0107
:1029400060EA71E08EE895E00E94F4138C0F9D1F01
:10295000DF91CF9108954F925F926F927F928F9205
:102960009F92AF92BF92CF92DF92EF92FF92C09070
:102970007505D0907605E0907705F0907805409148
:102980008005509181056091820570918305809149
:102990006D05C416D506E606F70608F0ADC0811130
:1029A000AEC080917B0590917C05A0917D05B09192
:1029B0007E058090700590907105A0907205B09092
:1029C0007305C0928005D0928105E0928205F09255
:1029D0008305409375055093760560937705709352
:1029E000780580927B0590927C05A0927D05B0923F
:1029F0007E058093700590937105A0937205B09346
:102A00007305C0907505D0907605E0907705F0903D
:102A100078058091800590918105A0918205B09103
:102A20008305C81AD90AEA0AFB0A809070059090BB
:102A30007105A0907205B090730580917B0590910F
:102A40007C05A0917D05B0917E05881A990AAA0A95
:102A5000BB0AC701B6010E94B92B20E030E04AE76B
:102A600054E40E94F52D2B013C01409294045092B5
:102A700095046092960470929704C501B4010E9477
:102A8000B92B20E030E04AE754E40E94F52D609332
:102A9000900470939104809392049093930420E0A7
:102AA00030E04AE754E4C301B2010E942D2F18160A
:102AB0000CF459C2C701B60120E230E040E050E01A
:102AC0000E94EE2C69017A0120E030E04AE754E4EC
:102AD000609190047091910480919204909193047C
:102AE0000E942D2F181674F480EC90E00E94981428
:102AF00081E08093A20403C0882309F482CFC12C13
:102B0000D12C760160917B0570917C0580917D05CB
:102B100090917E058090800590908105A09082051F
:102B2000B0908305681979098A099B096C197D0998
:102B30008E099F090E94BB2B2B013C0120E030E055
:102B40004AE754E40E94F52D4B015C018092AB04EE
:102B50009092AC04A092AD04B092AE0420E034E2B6
:102B600044E759E4C301B2010E94F52D9B01AC0179
:102B700020939C0430939D0440939E0450939F04A3
:102B800060E070E080E89FE30E94F52D20E030E0F7
:102B900040E05FE30E94892D0E94A32E70939B0466
:102BA00060939A0480916D0581114EC0609170050B
:102BB0007091710580917205909173054090750533
:102BC00050907605609077057090780564197509C6
:102BD000860997096C197D098E099F090E94BB2BF4
:102BE0006B017C0120E030E04AE754E40E94F52DBF
:102BF0006093A7047093A8048093A9049093AA04F7
:102C000020E034E244E759E4C701B6010E94F52D03
:102C10009B01AC012093A3043093A4044093A5042A
:102C20005093A60460E070E080E89FE30E94F52DD9
:102C300020E030E040E05FE30E94892D0E94A32E57
:102C4000709399046093980420E030E44CE157E4D9
:102C5000C501B4010E942D2F18165CF51092AB042B
:102C60001092AC041092AD041092AE0410929B042A
:102C700010929A0410929C0410929D0410929E044B
:102C800010929F041092940410929504109296044E
:102C90001092970410929004109291041092920452
:102CA0001092930489EA90E00E94981481E0809346
:102CB000A20420E030E44CE157E46091A704709155
:102CC000A8048091A9049091AA040E942D2F18169F
:102CD0005CF51092A7041092A8041092A904109217
:102CE000AA0410929904109298041092A3041092CE
:102CF000A4041092A5041092A604109294041092B9
:102D000095041092960410929704109290041092D9
:102D10009104109292041092930482E990E00E9430
:102D2000981481E08093A2042DEC3CEC4CEC5DE324
:102D30006091AB047091AC048091AD049091AE04AD
:102D40000E94B42B87FF3BC01092AB041092AC04DE
:102D50001092AD041092AE041092A7041092A80431
:102D60001092A9041092AA0410929B0410929A0443
:102D700010929C0410929D0410929E0410929F0445
:102D80001092A3041092A4041092A5041092A60419
:102D90001092940410929504109296041092970445
:102DA0001092900410929104109292041092930445
:102DB0008DE790E00E94981481E08093A2042DECAE
:102DC0003CEC4CEC5DE36091A7047091A804809109
:102DD000A9049091AA040E94B42B87FF43C080915C
:102DE0006D0581113FC01092AB041092AC0410929B
:102DF000AD041092AE041092A7041092A804109291
:102E0000A9041092AA0410929B0410929A041092A2
:102E100099041092980410929C0410929D041092B0
:102E20009E0410929F041092A3041092A404109286
:102E3000A5041092A6041092940410929504109286
:102E4000960410929704109290041092910410929C
:102E500092041092930488E690E00E94981481E016
:102E60008093A2048091A204811170C04091AB04B0
:102E70005091AC046091AD047091AE0489E796E086
:102E80000E942A0980916D05811124C04091A704F8
:102E90005091A8046091A9047091AA0483E696E079
:102EA0000E942A09409194045091950460919604DF
:102EB000709197048DE496E00E942A094091900455
:102EC00050919104609192047091930487E396E08D
:102ED0000E942A0989E796E00E94D70820E030E0A6
:102EE0004AE754E40E94F52D9B01AC0160E070E0DC
:102EF00080E89FE30E94F52D20E030E040E05FE3B2
:102F00000E94892D0E94A32E70936C0560936B051F
:102F100083E696E00E94D70820E030E04AE754E4D8
:102F20000E94F52D9B01AC0160E070E080E89FE31A
:102F30000E94F52D20E030E040E05FE30E94892D03
:102F40000E94A32E70936A0560936905FF90EF902D
:102F5000DF90CF90BF90AF909F908F907F906F90B9
:102F60005F904F90089587ED90E00E94981481E063
:102F70008093A204C12CD12C7601A6CD4F925F92F2
:102F80006F927F928F929F92AF92BF92CF92DF9279
:102F9000EF92FF920F931F93CF936B017C01742EDE
:102FA000AC019B010E94782F67E971E0811126C076
:102FB00046015701E894B7F82FEF3FEF4FE75FE77F
:102FC000C501B4010E94782F81110CC02FEF3FEF93
:102FD0004FE75FE7C501B4010E94B42B63EA71E0DB
:102FE000181664F02FEF3FEF4FE75FE4C701B6011B
:102FF0000E942D2F1816ACF467EA71E08FE896E076
:10300000CF911F910F91FF90EF90DF90CF90BF90E5
:10301000AF909F908F907F906F905F904F900C94A7
:10302000F4132FEF3FEF4FE75FECC701B6010E94AB
:10303000B42B87FDE1CF20E030E0A901C701B60144
:103040000E94B42B10E000E087FF0AC06DE28FE819
:1030500096E00E9477078C01F7FAF094F7F8F09465
:10306000C0E060E070E080E09FE37C1641F020E08B
:1030700030E040E251E40E94F52DCF5FF6CFA7018A
:1030800096010E94892D2B013C010E94AA2E4B0122
:103090005C012AE0BC01A4018FE896E00E940314C1
:1030A0007C01E00EF11ECC23D1F1C501B4010E94D8
:1030B000B92B9B01AC01C301B2010E94882D4B01C9
:1030C0005C016EE28FE896E00E947707E80EF91E39
:1030D000C15028F120E030E040E251E4C501B401E4
:1030E0000E941A2C2B013C010E94AA2E4B01B12CEC
:1030F000A12C2AE0B501A4018FE896E00E940314F8
:10310000E80EF91EC501B4010E94B92B9B01AC0168
:10311000C301B2010E94882D4B015C01D9CFC701C8
:10312000CF911F910F91FF90EF90DF90CF90BF90C4
:10313000AF909F908F907F906F905F904F90089589
:10314000CF92DF92EF92FF9260E081E10E94A213A2
:103150006AE172E08FE896E00E947E078091A20407
:10316000882351F060E082E10E94A21368E172E0DE
:103170008FE896E00E947E078091A004811104C030
:103180008091A104882351F060E083E10E94A213A2
:1031900066E172E08FE896E00E947E0761E080E0E1
:1031A0000E94A21363E072E08FE896E00E947E071F
:1031B00061E089E00E94A213C090AB04D090AC04FF
:1031C000E090AD04F090AE0420E030E0A901C7012A
:1031D000B6010E94B42B882309F4F1C041E0C70175
:1031E000B6010E94BE1761E080E00E94A213C09069
:1031F000A704D090A804E090A904F090AA0420E0CD
:1032000030E0A901C701B6010E94B42B882309F45C
:10321000DDC080916D058111D9C041E0C701B601C3
:103220000E94BE1761E082E10E94A21368EF71E084
:103230008FE896E00E947E0762E080E00E94A21381
:103240006BEA71E08FE896E00E94F413C0909C0452
:10325000D0909D04E0909E04F0909F0420E030E028
:1032600040E85FE3C701B6010E94B42B62E087FF2C
:10327000B4C089E00E94A21365EF71E08FE896E088
:103280000E947E0760919A0470919B048FE896E0FB
:103290000E944F1462E082E10E94A21362EF71E08B
:1032A0008FE896E00E947E07C090A304D090A4040B
:1032B000E090A504F090A60420E030E040E85FE351
:1032C000C701B6010E94B42B62E087FF8FC08091D6
:1032D0006D0581118BC00E94A2136FEE71E08FE823
:1032E00096E00E947E0760919804709199048FE89F
:1032F00096E00E944F1463E080E00E94A2136CED00
:1033000071E08FE896E00E947E0763E089E00E940A
:10331000A2132AE93FE34CE156E4609194047091D2
:10332000950480919604909197040E94B42B1816EE
:103330000CF465C068ED71E08FE896E00E947E07AE
:1033400060919404709195048091960490919704F3
:1033500041E00E94BE1763E080E00E94A2132AE9C8
:103360003FE34CE156E460919004709191048091A8
:103370009204909193040E94B42B18160CF446C04A
:1033800060ED71E08FE896E00E947E076091900406
:1033900070919104809192049091930441E00E9475
:1033A000BE1763E082E10E94A21369EC71E08FE82E
:1033B00096E0FF90EF90DF90CF900C947E076FEF38
:1033C00071E08FE896E00E947E070DCF6BEF71E011
:1033D0008FE896E00E947E0725CF89E00E94A21325
:1033E00042E0C701B6010E94BE1754CF80E00E94A0
:1033F000A21342E0C701B6010E94BE177CCF64ED64
:1034000071E08FE896E00E947E07A5CF6CEC71E03A
:103410008FE896E00E947E07C4CFFC0180819181F5
:10342000009711F00C943A310895FC01848595853C
:10343000009711F00C943A3108950F931F93CF9396
:10344000DF93EC0188819981009759F02A813B81B3
:103450002617370730F081E0DF91CF911F910F9150
:1034600008958B016F5F7F4F0E94C331009759F021
:10347000998388831B830A832C813D81232B59F7F1
:10348000FC011082E8CF80E0E7CFEF92FF920F932C
:103490001F93CF93DF93EC01FB01E080F180E114F7
:1034A000F10411F10481158101151105A9F08C8138
:1034B0009D81080F191FB801CE010E941D1A882393
:1034C00099F0288139818C819D81B701820F931FEA
:1034D0000E9489321D830C83CE01DF91CF911F9111
:1034E0000F91FF90EF90089588819981009711F0D6
:1034F0000E943A31198218821D821C821B821A8214
:10350000EBCFEF92FF920F931F93CF93DF93EC01DA
:103510007B018A01BA010E941D1A2881398181111B
:1035200014C02115310519F0C9010E943A311982E0
:1035300018821D821C821B821A82CE01DF91CF91DC
:103540001F910F91FF90EF9008951D830C83B70199
:10355000C9010E948932F1CFEF92FF920F931F931E
:10356000CF93DF93CDB7DEB762970FB6F894DEBF87
:103570000FBECDBF8C01CB01F801118210821382E6
:103580001282158214824AE09E012F5F3F4F79011B
:10359000B9010E947F2BF70101900020E9F73197D4
:1035A000AF014E195F09B701C8010E94811A6296E6
:1035B0000FB6F894DEBF0FBECDBFDF91CF911F9144
:1035C0000F91FF90EF900895FB01DC0111961C9282
:1035D0001E9213961C921E92129715961C921E9282
:1035E00014978617970749F06081718161157105FD
:1035F00021F0448155810C94811A0895FC011182B7
:1036000010821382128215821482FB010190002025
:10361000E9F73197AF01461B570B0C94811ACF93F2
:10362000DF93CDB7DEB72C970FB6F894DEBF0FBE91
:10363000CDBF1092800510928105109282051092E4
:10364000830510927B0510927C0510927D051092E7
:103650007E051092750510927605109277051092EE
:1036600078051092700510927105109272051092F3
:1036700073051092AB041092AC041092AD0410923A
:10368000AE041092A7041092A8041092A9041092FC
:10369000AA041092A3041092A4041092A5041092FC
:1036A000A6046EEB71E0CE0101960E94FE1A6EEB4D
:1036B00071E0CE0107960E94FE1A10927A051092D0
:1036C0006F0510926D051092A2041092840510925D
:1036D000790510927F051092740510926E05109274
:1036E000A1041092A004CE0107960E940D1ACE01EB
:1036F00001960E940D1A2C960FB6F894DEBF0FBEED
:10370000CDBFDF91CF910895CF92DF92EF92FF92DC
:103710000E9468076B017C010E9468076C197D0993
:103720008E099F09643F71408105910558F482E03C
:103730000E947E06892B61F383E00E947E06892B1E
:1037400039F3EACF80EC91E00E94851460E081E1DA
:103750000E94A2136EE172E08FE896E00E947E075D
:10376000FF90EF90DF90CF900C940F1B4F925F92E1
:103770006F927F92AF92BF92CF92DF92EF92FF92C1
:103780000F931F93CF93DF93FC01028113810230CB
:10379000110508F44FC0EC01B80190E080E00E94F0
:1037A000B92B9B01AC01688579858A859B850E9430
:1037B000F52D2B013C01AC84BD84D0E0C0E0C12CD0
:1037C000D12C7601F50161917191819191915F0107
:1037D000A30192010E94882D9B01AC010E941A2C2A
:1037E0009B01AC01C701B6010E94892D6B017C01D0
:1037F000CE01019608171907D9F4BE0190E080E0C8
:103800000E94B92B9B01AC01C701B6010E94F52DA6
:10381000DF91CF911F910F91FF90EF90DF90CF90AC
:10382000BF90AF907F906F905F904F900C94382F27
:10383000EC01C8CF60E070E080EC9FE7DF91CF91B2
:103840001F910F91FF90EF90DF90CF90BF90AF90BE
:103850007F906F905F904F9008952F923F924F927C
:103860005F926F927F928F929F92AF92BF92CF9210
:10387000DF92EF92FF920F931F93CF93DF93CDB719
:10388000DEB72F970FB6F894DEBF0FBECDBFFE0197
:10389000B496619071908F01312C212CD3018C91C1
:1038A000882309F4F1C3BFEF6B1A7B0A7101EFEFB4
:1038B000EE1AFE0A853209F0C6C0B12CA12C07C051
:1038C0008D3271F1803361F46894A0F83F01F30107
:1038D00081918B3241F1A4F7803241F1833249F179
:1038E00090ED980F9A3040F51B821A82F301819176
:1038F00090ED980F9A3098F54AE02A813B81429FDB
:103900007001439FF00C112490E3E91AF108D701EC
:10391000A80FB11D87FDBA95BB83AA833F01E6CFEF
:103920006894A1F8D3CF6894A2F8D0CF6894A3F894
:10393000CDCF6894A4F8CACF8A32D9F5C8010296CF
:10394000D801ED90FC90F7FE31C06894A1F82227D1
:1039500033272E193F093B832A838C013F01D30172
:103960008C918E3209F048C0C30101966894B2F878
:1039700011962C9130ED320F3A30F0F4512C412C4D
:10398000FC01219130ED320F3A3098F5BAE0B49D48
:103990007001B59DF00C112430E3E31AF108270102
:1039A000420E511C27FD5A94CF01EACFFB82EA82D6
:1039B000D4CF1B821A82D3CF2A32E9F4C8010296EF
:1039C000D8014D905C9057FE02C0512C412CB2E0C2
:1039D0006B0E711C8C0193012F5F3F4FF3018081AF
:1039E0008C36A1F064F48836D9F18A3661F09301FF
:1039F00012C03C01F0CF3C01512C412CECCF84375C
:103A000011F08A37A1F76894B1F805C081818C362E
:103A100009F16894B0F8D9018D913D01853609F41A
:103A2000EAC10CF0A4C0873409F4E5C114F585346B
:103A300009F4E1C10CF0C1C1853209F4FBC2710186
:103A4000BFEFEB1AFB0A2FEF3FEFA101BE016F5F43
:103A50007F4FFBC2B3E0BB2A93012E5F3F4FDBCF0A
:103A60008181883619F06894A7F8D5CFF0ECAF2A99
:103A7000F3CF823609F434C33CF46894A5F8883552
:103A8000F1F6F0E18F2E0DC0833609F4CBC18436F8
:103A9000B1F6E894A4F8AAE08A2E893621F084369B
:103AA00011F0B3EFAB22B2FE02C0E894A0F895018A
:103AB00022273270893619F0843609F023C1232B6E
:103AC00009F49CC0F8013896F987E887D801CC90B2
:103AD0001196DC9011971296EC9012971396FC9029
:103AE000139714969C9014971596AC91F801F68153
:103AF000FC83F801F781FA879601A701692D7A2FD7
:103B00008C819F2F0FE30E944830B22F092D1A2F6E
:103B1000FC81EA859601A701B8018F2F9E2FA0E0B6
:103B20000E9478303CF40E94363069017A018B01A2
:103B3000F82FE92FBF92AF922B812F933A813F93B9
:103B40005F924F92AB2E2F2F3E2FA101BE016F5FD0
:103B50007F4F82E391E10E94FD021C010F900F90C4
:103B60000F900F900F900F900885198597CE8F3684
:103B700009F4B3C29CF4873609F43DC10CF41DC1AD
:103B8000893609F486CF8E3609F059CFD801ED91E8
:103B9000FD918D01A6FE5DC2208280CE833709F49F
:103BA00090C12CF5803709F04ACF65016894C0F8C0
:103BB000D4F8F8013296FB83EA83D8010D911C9169
:103BC0000115110509F015C246E0E42EF12C05E0BF
:103BD00010E021ED31E0A101BE016F5F7F4F82E374
:103BE00091E10E9473021C010A811B8157CE853727
:103BF00009F44FCF883709F444CF21CFB0FE48C035
:103C0000C801049699878887D801CD90DD90ED9002
:103C1000FC90D701C6018827B7FD83959927AA276D
:103C2000BB278C879D87AE87BF87D701C601BB0F97
:103C3000880B982FDC018C839D83AE83BF83BC2DC2
:103C40009D2CEA86FB860C81102FF02FE02F960129
:103C5000A7016F2F702F802F9F2FA0E00E94783038
:103C60004CF40E943630B22F932E4A875B878B012B
:103C7000F82FE92FBF92AF929B819F93AA81AF93B8
:103C80005F924F92AC84CB2ED92CEA84FB845BCF1D
:103C9000F8013296F987E887D801A6FE30C0EC918A
:103CA0000E2E000CFF0BBF2FBB1FBB27BB1FBC83FF
:103CB0006F01EF2EEE0CEE08FE2C0E2D1E2D9E2C0D
:103CC000BE2D9F014E2D5E2D6E2D7E2D8E2D9E2D97
:103CD000A0E00E9478303CF40E94363069017A01FD
:103CE0008B01982EB92FBF92AF92EB81EF93FA819F
:103CF000FF935F924F92AC80292D3B2F26CFED9101
:103D0000FC91D1CF232B39F19801285F3F4F3987A0
:103D10002887D801CC901196DC9011971296EC90E0
:103D200012971396FC90139714969C9114971596DE
:103D30008C91159716962C91169717963C91BF92D9
:103D4000AF92BB81BF93EA81EF935F924F92A12C18
:103D5000092F182FFACE9801B0FE19C02C5F3F4FE3
:103D600039872887D8010D911D912D913C91BF92E3
:103D7000AF92BB81BF93EA81EF935F924F92A12CE8
:103D80006801790100E010E020E030E0DECE2E5F37
:103D90003F4F39872887D8010D911C91A6FC112728
:103DA000BF92AF92BB81BF93EA81EF935F924F9234
:103DB000A12C6801E12CF12CE5CF863411F4689434
:103DC000A5F898012C5F3F4F3D832C83D8010D91BE
:103DD0001D912D913C91812CCA80DB807201A10143
:103DE000BE016F5F7F4F82E391E10E943B101C0197
:103DF0000C811D8153CD982F9F7D973419F46894C1
:103E0000B3F88D7F853411F46894A5F8F8013496E1
:103E1000FD83EC83D8010D911D912D913C91882457
:103E20008394DACF4501B2E08B229924A101CC24FE
:103E3000C394D12CA1FC1AC0F12CE12CA1014E0D90
:103E40005F1D6701E2E0CE0ED11CFFEFEF1AFF0A03
:103E50002A813B81E216F30648F42FEF3FEFBE01C3
:103E60006F5F7F4F80E20E943211E8CF1A013FEF6F
:103E7000231A330A780182E0E80EF11C2FEF3FEF9E
:103E8000BE016F5F7F4FD8018C910E94321189284B
:103E9000B1F0EA81FB81CE16DF0688F481010F5F65
:103EA0001F4F2FEF3FEFA101BE016F5F7F4F80E2F9
:103EB0000E943211FFEFCF1ADF0A1801EACF870103
:103EC000EDCC98012E5F3F4F39872887D8010D919F
:103ED0001C910115110589F46501EA80FB8006E05B
:103EE00010E02AEC31E0A101BE016F5F7F4F82E359
:103EF00091E10E9473021C0137CE920141145104DA
:103F000011F42FEF3FEFF80190E080E0AF014F5F39
:103F10005F4F6081662331F08217930719F0019695
:103F2000FA01F4CFE01BF10B9501222734703D8399
:103F30002C83B2FE04C04E165F0608F4F201450160
:103F400032E0832299247F01A101A1FC18C02E1A1E
:103F50003F0AA1014E0F5F1F7F018FEFE81AF80A99
:103F6000AA81BB81EA17FB0750F42FEF3FEFBE0198
:103F70006F5F7F4F80E20E943211F701EACF6A0142
:103F8000C01AD10AA601400F511FF80181918F017B
:103F9000882391F02C813D81232B31F09201215017
:103FA0003109452849F029012FEF3FEFBE016F5F2E
:103FB0007F4F0E943211E6CF1A01892809F4D4CD2F
:103FC000E41AF50AC701820D931DAA81BB818A17E5
:103FD0009B0708F0C9CD81010F5F1F4F2FEF3FEF07
:103FE000A101BE016F5F7F4F80E20E943211180174
:103FF000E9CFDF92CF921F92B6E0BF935F924F92CC
:1040000030E1832EA12C6801E12CF12C00E010E0BE
:1040100020E030E0A101BE016F5F7F4F82E391E1BC
:104020000E94FD021C010F900F900F900F900F90B7
:104030000F90DACD7101EFEFEE1AFE0A2FEF3FEF8E
:10404000A101BE016F5F7F4F85E20E94321117010F
:1040500025CCA7FE03C03182208220CCB0FE08C050
:10406000C101B0E0A0E080839183A283B38316CC2A
:10407000B1FEF1CF4101208291821282138214821B
:104080001582168217820ACCA101EFEF2E163E068A
:1040900011F44EEF5FEF2FEF3FEFBE016F5F7F4FE9
:1040A00080E00E943211C1012F960FB6F894DEBF56
:1040B0000FBECDBFDF91CF911F910F91FF90EF9079
:1040C000DF90CF90BF90AF909F908F907F906F9038
:1040D0005F904F903F902F90089528E0822EE1CC82
:1040E00092E0892EDECCEF92FF920F931F93CF9335
:1040F000DF93CDB7DEB76E970FB6F894DEBF0FBE75
:10410000CDBF67ED71E0CE010D960E94FE1A609161
:104110006B0570916C05CE0107960E94AC1ABE012A
:10412000635F7F4FCE0101960E94E41ABE01695F72
:104130007F4FCE0101960E94451ABC01CE014396E5
:104140000E94E41ACE0101960E940D1ACE01079634
:104150000E940D1A6091690570916A05CE0107965B
:104160000E94AC1ABE01635F7F4FCE0101960E9490
:10417000E41ABE01695F7F4FCE0101960E94451A85
:10418000BC01CE0149960E94E41ACE0101960E941C
:104190000D1ACE0107960E940D1A85E991E00E9442
:1041A000981489E796E00E94D708162F072FF82E5B
:1041B000E92E83E696E00E94D708EF92FF920F93D4
:1041C0001F939F938F937F936F9380917C068F9320
:1041D00080917B068F938AED91E09F938F930E944D
:1041E0002D1C8DE496E00E94D708162F072FF82E7D
:1041F000E92E87E396E00E94D708EF92FF920F9393
:104200001F939F938F937F936F93809150068F930B
:1042100080914F068F9389E092E09F938F930E9445
:104220002D1C80917C068F9380917B068F9389E370
:1042300092E09F938F930E942D1C0FB6F894DEBFDF
:104240000FBECDBF8091690590916A0502970CF46D
:10425000CAC08A8D8F93898D8F9383E592E09F9357
:104260008F930E942D1C0F900F900F900F908091B4
:104270006B0590916C0502970CF4D0C08C898F93DC
:104280008B898F9381E692E09F938F930E942D1CE0
:104290000F900F900F900F9080918A068F938091CE
:1042A00089068F93809188068F93809187068F93DC
:1042B000809174068F93809173068F93809172061C
:1042C0008F93809171068F9380917C068F9380915C
:1042D0007B068F9382E892E09F938F930E942D1C20
:1042E00080918E068F9380918D068F9380918C069E
:1042F0008F9380918B068F93809178068F93809116
:1043000077068F93809176068F93809175068F93B1
:1043100080917C068F9380917B068F9381EB92E056
:104320009F938F930E942D1C89E796E00E94B61BF5
:10433000162F072FF82EE92E83E696E00E94B61B73
:10434000EF92FF920F931F939F938F937F936F939F
:1043500080917C068F9380917B068F9381EE92E013
:104360009F938F930E942D1C0FB6F894DEBF0FBE53
:10437000CDBF87E396E00E94B61B9F938F937F93F8
:104380006F939F938F937F936F93809150068F933A
:1043900080914F068F9381E193E09F938F930E94CA
:1043A0002D1C81E691E00E949814CE0149960E944E
:1043B0000D1ACE0143960E940D1ACE010D960E9451
:1043C0000D1A0FB6F894DEBF0FBECDBF6E960FB6B6
:1043D000F894DEBF0FBECDBFDF91CF911F910F913B
:1043E000FF90EF90089583E696E00E94D70820E0C2
:1043F00030E04AE754E40E94F52D9F938F937F931A
:104400006F9388E592E09F938F930E942D1C0F90ED
:104410000F900F900F900F900F9029CF89E796E0A3
:104420000E94D70820E030E04AE754E40E94F52DCE
:104430009F938F937F936F9380E792E09F938F93E7
:104440000E942D1C0F900F900F900F900F900F90C7
:1044500023CFCF93DF93CDB7DEB76E970FB6F89427
:10446000DEBF0FBECDBF67ED71E0CE010D960E949D
:10447000FE1A60919A0470919B04CE0107960E94E7
:10448000AC1ABE01635F7F4FCE0101960E94E41A11
:10449000BE01695F7F4FCE0101960E94451ABC01A3
:1044A000CE0143960E94E41ACE0101960E940D1A95
:1044B000CE0107960E940D1A60919804709199049C
:1044C000CE0107960E94AC1ABE01635F7F4FCE01FA
:1044D00001960E94E41ABE01695F7F4FCE010196EA
:1044E0000E94451ABC01CE0149960E94E41ACE01F1
:1044F00001960E940D1ACE0107960E940D1A809116
:10450000A004882381F0809179058250990B9F93B4
:104510008F9382E493E09F938F930E942D1C0F90C2
:104520000F900F900F908091A104882381F08091CB
:1045300084058250990B9F938F938BE693E09F9312
:104540008F930E942D1C0F900F900F900F90409111
:104550007505509176056091770570917805809189
:104560007B0590917C05A0917D05B0917E05481753
:1045700059076A077B0740F480916D05811104C0DB
:104580008BE391E00E94981487E091E00E949814D8
:104590008091AE048F938091AD048F938091AC0491
:1045A0008F938091AB048F938091AA048F93809115
:1045B000A9048F938091A8048F938091A7048F936F
:1045C00083E993E09F938F930E942D1C80919F0419
:1045D0008F9380919E048F9380919D048F938091FF
:1045E0009C048F938091A6048F938091A5048F9350
:1045F0008091A4048F938091A3048F9382EC93E025
:104600009F938F930E942D1C6EEE70E08EE895E0D4
:104610000E947E070FB6F894DEBF0FBECDBF20E02C
:1046200030E040E85FE36091A3047091A4048091BE
:10463000A5049091A6040E94B42B87FF6CC08091C2
:104640006D05811168C08A8D8F93898D8F9384EF5A
:1046500093E09F938F930E942D1C0F900F900F90CB
:104660000F9020E030E040E85FE360919C0470919F
:104670009D0480919E0490919F040E94B42B87FF1B
:1046800053C08C898F938B898F9381E692E09F939F
:104690008F930E942D1C0F900F900F900F90809180
:1046A0006D05811123C0809197048F9380919604AA
:1046B0008F93809195048F93809194048F93809130
:1046C00093048F93809192048F93809191048F93A0
:1046D000809190048F9389EF93E09F938F930E9432
:1046E0002D1C0FB6F894DEBF0FBECDBFCE0149968C
:1046F0000E940D1ACE0143960E940D1ACE010D960E
:104700000E940D1A6E960FB6F894DEBF0FBECDBF95
:10471000DF91CF91089583EB91E09F938F930E9457
:104720002D1C0F900F909DCF8EED92E09F938F9355
:104730000E942D1C0F900F90B2CF85ED8093BC008E
:1047400080913B0590913C05A0913D05B0913E05BF
:104750000796A11DB11D23E0B695A795979587955E
:104760002A95D1F72091BC0024FD03C01092390591
:10477000089540913B0550913C0560913D05709135
:104780003E05452B462B472B69F30097A105B10544
:1047900041F02AE22A95F1F700C00197A109B10979
:1047A000E1CF80913A050C9480110C94E02C0C948C
:1047B000D82C1F920F920FB60F9211242F933F9374
:1047C0008F939F93AF93BF938091860590918705B8
:1047D000A0918805B09189053091850523E0230FCC
:1047E0002D3758F50196A11DB11D209385058093A5
:1047F000860590938705A0938805B09389058091DD
:104800008A0590918B05A0918C05B0918D0501963C
:10481000A11DB11D80938A0590938B05A0938C05F3
:10482000B0938D05BF91AF919F918F913F912F9143
:104830000F900FBE0F901F90189526E8230F029639
:10484000A11DB11DD2CF1F920F920FB60F9211244E
:104850002F933F934F935F936F937F938F939F9388
:10486000AF93BF93EF93FF93E0910201F0910301A7
:104870000995FF91EF91BF91AF919F918F917F919A
:104880006F915F914F913F912F910F900FBE0F90BD
:104890001F9018951F920F920FB60F9211242F930D
:1048A0003F934F935F936F937F938F939F93AF93B8
:1048B000BF93EF93FF93E0910001F09101010995FF
:1048C000FF91EF91BF91AF919F918F917F916F91E8
:1048D0005F914F913F912F910F900FBE0F901F90BE
:1048E00018951F920F920FB60F9211242F933F939A
:1048F0004F935F936F937F938F939F93AF93BF93E8
:10490000EF93FF938EE895E00E942008FF91EF91CE
:10491000BF91AF919F918F917F916F915F914F91D7
:104920003F912F910F900FBE0F901F9018951F92DF
:104930000F920FB60F9211242F938F939F93EF93A3
:10494000FF93E0919E05F0919F058081E091A40581
:10495000F091A50582FD1BC090818091A7058F5F16
:104960008F732091A805821741F0E091A705F0E030
:10497000E257FA4F958F8093A705FF91EF919F9192
:104980008F912F910F900FBE0F901F9018958081DF
:10499000F4CF1F920F920FB60F9211242F933F93D3
:1049A0004F935F936F937F938F939F93AF93BF9337
:1049B000EF93FF938091B900887F803609F44AC055
:1049C000F0F5883209F4A7C018F5803109F49BC0CE
:1049D000B8F4882309F4F9C0883009F494C0FF9131
:1049E000EF91BF91AF919F918F917F916F915F9167
:1049F0004F913F912F910F900FBE0F901F901895E0
:104A0000883109F488C0803251F78093370514C08B
:104A1000803409F49DC040F48033B9F38833F9F64B
:104A20008093370585ECB0C0803509F485C08835A2
:104A300009F496C0883499F60E949D23D0CF883916
:104A400009F48CC038F5883729F050F4883611F015
:104A5000803729F683E0809339051092120557C0FC
:104A6000883809F47BC0803919F0803809F0B7CF55
:104A700080911205803208F071C0E091120581E04A
:104A80008E0F809312058091BB00F0E0EE50FB4F3B
:104A900080833DC0803B39F0E0F4803A09F479C06E
:104AA000883A09F09CCF84E0809339051092F10494
:104AB0001092F004E0916305F091640509958091EE
:104AC000F00481110FC081E08093F0041092D004B3
:104AD00009C0803C09F4A6CF883C09F4A3CF883BE9
:104AE00009F07DCFE091F10481E08E0F8093F10415
:104AF000F0E0E053FB4F80818093BB009091F10484
:104B00008091F00429C0809114058093BB0085EC4E
:104B10008093BC0064CF909136058091350598173D
:104B200058F5E091360581E08E0F80933605F0E070
:104B3000EB5EFA4F8081E9CFE091360581E08E0F80
:104B4000809336058091BB00F0E0EB5EFA4F8083E6
:104B500090913605809135059817C8F285E8D8CF31
:104B6000E091360581E08E0F809336058091BB0081
:104B7000F0E0EB5EFA4F80838091380581115CCFC5
:104B800081E08093130584EA8093BC00109239057C
:104B900026CF85EC8093BC001092390580911205D8
:104BA000803230F4E0911205F0E0EE50FB4F1082BD
:104BB0006091120570E0E0916105F091620582EF6D
:104BC00094E00995109212050ACF1092370534CF60
:104BD000EEE8F5E01382128288EE93E0A0E0B0E008
:104BE00084839583A683B78322E631E031832083D3
:104BF00025EC30E03587248724EC30E037872687A2
:104C000020EC30E0318B208B21EC30E0338B228B99
:104C100022EC30E0358B248B26EC30E0378B268B72
:104C2000118E128E138E148EEBE2F6E01382128236
:104C300084839583A683B78384E791E091838083FF
:104C4000EFE8F6E01382128286E891E09183808398
:104C500087E2848384E1818784E08287138689E701
:104C600096E00E94DC1383E696E00E94DC138DE45C
:104C700096E00E94DC1387E396E00C94DC137894B2
:104C800084B5826084BD84B5816084BD85B5826051
:104C900085BD85B5816085BD80916E008160809302
:104CA0006E0010928100809181008260809381006B
:104CB000809181008160809381008091800081607B
:104CC000809380008091B10084608093B1008091D6
:104CD000B00081608093B00080917A0084608093FE
:104CE0007A0080917A00826080937A0080917A00C5
:104CF000816080937A0080917A00806880937A0046
:104D00001092C10060E082E00E94D50660E083E07E
:104D10000E94D50662E08CE00E94D50662E08BE03E
:104D20000E94D50689E293E19093010180930001EE
:104D3000809169008C7F816080936900E89A81E1AD
:104D400093E1909303018093020180916900837F36
:104D5000846080936900E99AE0919E05F0919F0537
:104D600082E08083E0919A05F0919B051082E091AA
:104D70009C05F0919D0580E180831092A605E0914D
:104D8000A205F091A30586E08083E091A005F09153
:104D9000A105808180618083E091A005F091A1054B
:104DA000808188608083E091A005F091A1058081D9
:104DB00080688083E091A005F091A10580818F7DBE
:104DC000808388E193E00E94981486EA92E00E9432
:104DD000981485E992E00E94981489E892E00E9474
:104DE000981410926805109267051092660510924B
:104DF00065050E94621184E797E0909364058093B3
:104E0000630585E797E090936205809361051092B2
:104E1000940680919906823018F098E09093940659
:104E20008093970662E370E080E090E00E9436078E
:104E300060919A068FE896E00E94271268EE73E070
:104E400080E090E00E94360760E38FE896E00E94E1
:104E50006713CBE4D6E4CE010197F1F760E38FE866
:104E600096E00E9467132197F1F760E38FE896E0E0
:104E70000E94671383E592E00197F1F760E28FE803
:104E800096E00E94671360919406606240E08FE8AC
:104E900096E00E94801384E08093950640E06CE0E9
:104EA0008FE896E00E9480130E94971382E080931F
:104EB000960640E066E08FE896E00E94801340E0AE
:104EC00062E08FE896E00E9480138BE39FE10197F8
:104ED000F1F788E080939A0660E08FE896E00E9400
:104EE00027120E94971384E090E00E94D723843019
:104EF00009F4E5C086E090E00E94D7238F3F09F0D7
:104F000058C080E480937C0080917A008064809314
:104F10007A0080917A0086FDFCCF609178007091D4
:104F20007900072E000C880B990B6115710581051E
:104F3000910511F00E94762B0E94272B23EFC22EA1
:104F4000D12CE12CF12CA70196010E94EE2C655F7B
:104F50007F4F8F4F9F4F86E090E00E94D5230E94A5
:104F6000272BA70196010E94EE2C655F7F4F8F4F84
:104F70009F4F87E090E00E94D5230E94272BA70136
:104F800096010E94EE2C655F7F4F8F4F9F4F88E008
:104F900090E00E94D5230E94272BA70196010E9432
:104FA000EE2C655F7F4F8F4F9F4F89E090E00E940E
:104FB000D52386E090E00E94D723082F10E01F92AF
:104FC0008F9388E294E09F938F930E942D1C0E9400
:104FD000971360E080E00E94A21369E374E08FE819
:104FE00096E00E94F41360E08CE00E94A213B801E6
:104FF0008FE896E00E944F1462E080E00E94A213C6
:1050000066E474E08FE896E00E94F4130F900F902E
:105010000F900F90C8016AE070E00E94922F060F77
:10502000171FD0E0C0E08CE00E947E06019789F552
:105030008BE00E947E06892BB1F72196CF3027E2C4
:10504000D20711F4D0E0C0E0BE018EE895E00E94E6
:105050004F1460EA71E08EE895E00E94F41362E07C
:1050600089E00E94A21364EB71E08FE896E00E9451
:10507000F41362E089E00E94A213BE018FE896E07B
:105080000E944F1464E670E080E090E00E943607D2
:10509000CACF89E594E00C171D0739F464E084E079
:1050A00090E00E94D5238FE494E00E94851468EB81
:1050B0007BE080E090E00E9436070C9400000E94A4
:1050C000971360E080E00E94A21367E772E08FE828
:1050D00096E00E947E0762E082E00E94A21366E6EC
:1050E00072E08FE896E00E947E0763E083E00E9412
:1050F000A21369E572E08FE896E00E947E0768EBF4
:105100007BE080E090E00E9436070E940F1B0E9427
:10511000971360E080E00E94A21364E472E08FE8DD
:1051200096E00E947E078BE00E947E06892B81F527
:105130008CE00E947E06019759F582E00E947E066F
:1051400061E0892BC9F489E00E94A2136BE372E04D
:105150008FE896E00E947E0783E00E947E0661E071
:10516000892B81F480E00E94A21369E272E08FE84B
:1051700096E00E947E07DCCF89E00E94A21362E3E2
:1051800072E0E6CF80E00E94A21360E272E0EFCF0F
:105190000E94A0180E94841B00E614E080E0E82E24
:1051A00080E0F82E80918405813079F40E94110707
:1051B00060938005709381058093820590938305A9
:1051C000809184058F5F80938405C0917F05C130F5
:1051D00089F40E94110760937B0570937C0580938E
:1051E0007D0590937E0580917F058F5F80937F057D
:1051F000C0937A0580917905813079F40E94110776
:105200006093750570937605809377059093780584
:10521000809179058F5F80937905C0917405C130C5
:1052200089F40E9411076093700570937105809353
:10523000720590937305809174058F5F8093740558
:10524000C0936F058CE00E947E06892BA9F583E44C
:1052500093E00E94981489E796E00E94AD0983E6E6
:1052600096E00E94AD098DE496E00E94AD0987E3C7
:1052700096E00E94AD0910926C0510926B05109299
:105280006A051092690561E080E00E94A2136EE257
:1052900073E08FE896E00E947E078CE00E947E0615
:1052A000892BD9F30E94A0186AEF70E080E090E0AB
:1052B0000E9436070E94841B8BE00E947E06EC0150
:1052C000892B09F02DC160E080E00E94A2136EE1FD
:1052D00074E08FE896E00E947E0761E080E00E9423
:1052E000A2136BE074E08FE896E00E947E0761E015
:1052F00089E00E94A21389E796E00E94D7080E94E5
:10530000A32E8FE896E00E944F1461E080E00E9497
:10531000A21383E696E00E94D7080E94A32E8FE88E
:1053200096E00E944F1461E082E10E94A21368E0BF
:1053300074E08FE896E00E947E0762E080E00E94C1
:10534000A21365EF73E08FE896E00E947E0762E0AB
:1053500089E00E94A21380916B0590916C050297E1
:105360000CF4BAC062EF73E08FE896E00E947E070B
:1053700060916B0570916C058FE896E00E944F1468
:1053800062E080E00E94A2138091690590916A0515
:1053900002970CF4AFC06FEE73E08FE896E00E94C6
:1053A0007E076091690570916A058FE896E00E941A
:1053B0004F1462E082E10E94A2136CEE73E08FE86A
:1053C00096E00E947E0763E080E00E94A21369EDF0
:1053D00073E08FE896E00E947E0763E089E00E9418
:1053E000A21365ED73E08FE896E00E947E078DE4DE
:1053F00096E00E94D7080E94A32E8FE896E00E94B4
:105400004F1463E080E00E94A21361ED73E08FE827
:1054100096E00E947E0787E396E00E94D7080E94EC
:10542000A32E8FE896E00E944F1463E082E10E9471
:10543000A2136EEC73E08FE896E00E947E078BE08B
:105440000E947E06892BD9F36AEF70E080E090E03D
:105450000E94360760E080E00E94A21369EB73E0CF
:105460008FE896E00E947E0760EA71E08EE895E0A2
:105470000E94F41385E893E00E94981480917B06C3
:1054800090917C06C817D90708F042C0BE0189E791
:1054900096E00E94AF08D62EC72EB82EA92EBE01C8
:1054A00083E696E00E94AF08AF92BF92CF92DF9260
:1054B0009F938F937F936F93DF93CF931F930F935C
:1054C0000E942D1C21968DB79EB70C960FB6F894AE
:1054D0009EBF0FBE8DBFD2CF89E796E00E94D7084E
:1054E00020E030E04AE754E40E94F52D42E00E94BB
:1054F000BE1746CF83E696E00E94D70820E030E052
:105500004AE754E40E94F52D42E00E94BE1751CFB5
:1055100081E593E00E9498140E94A0180E94841BC9
:1055200080917A05882381F080916F058823C1F0EE
:105530000E943E130E94AB140E9429220E947320F5
:105540000E94A0180E94841BE114F10409F42ACEE1
:105550000E940C08882309F425CE0E94000022CE68
:1055600080916E058111F0CF0E94110780907B051C
:1055700090907C05A0907D05B0907E056819790912
:105580008A099B09603472448F409105E8F281E0FA
:1055900080936D05CDCF87E396E00E94151A8DE4C8
:1055A00096E00E94151A83E696E00E94151A89E794
:1055B00096E00C94151A8F929F92AF92BF92CF9261
:1055C000DF92EF92FF92CF93DF93EC0168817981B4
:1055D0008A819B81611571058105910521F464E241
:1055E00079ED8BE597E02DE133EF41E050E00E944B
:1055F000EE2C49015A019B01AC01A7EAB1E40E94DB
:105600000D2D6B017C01ACEEB4EFA50194010E945D
:105610001B2DC60ED71EE81EF91EF7FE06C081E040
:10562000C81AD108E10880E8F80AC882D982EA825B
:10563000FB82C701B6019F77DF91CF91FF90EF907A
:10564000DF90CF90BF90AF909F908F9008958F92F2
:105650009F92AF92BF92CF92DF92EF92FF926091B2
:105660000401709105018091060190910701611577
:1056700071058105910521F464E279ED8BE597E0F0
:105680002DE133EF41E050E00E94EE2C49015A0138
:105690009B01AC01A7EAB1E40E940D2D6B017C01D6
:1056A000ACEEB4EFA50194010E941B2DC60ED71ECF
:1056B000E81EF91EF7FE06C081E0C81AD108E1080D
:1056C00080E8F80AC0920401D0920501E092060138
:1056D000F0920701C701B6019F77FF90EF90DF902E
:1056E000CF90BF90AF909F908F90089560930401EA
:1056F0007093050180930601909307010895BB27DD
:105700004A3031F4992322F4BDE2909581959F4F60
:105710000C948B2BBB27FB015527AA27880F991FB9
:10572000AA1FA41710F0A41B83955051B9F7A05DD0
:10573000AA3308F0A95DA193009779F7B111B1934D
:105740001192CB010C94A42BDC01FC01672F719109
:105750007723E1F7329704C07C916D937083629157
:10576000AE17BF07C8F308950E94F62B08F481E036
:105770000895E89409C097FB3EF490958095709544
:1057800061957F4F8F4F9F4F9923A9F0F92F96E98D
:10579000BB279395F695879577956795B795F11102
:1057A000F8CFFAF4BB0F11F460FF1BC06F5F7F4F9F
:1057B0008F4F9F4F16C0882311F096E911C07723B1
:1057C00021F09EE8872F762F05C0662371F096E8BA
:1057D000862F70E060E02AF09A95660F771F881F89
:1057E000DAF7880F9695879597F90895990F00082D
:1057F000550FAA0BE0E8FEEF16161706E807F907A3
:10580000C0F012161306E407F50798F0621B730B3D
:10581000840B950B39F40A2661F0232B242B252BBE
:1058200021F408950A2609F4A140A6958FEF811D61
:10583000811D08950E942D2C0C949E2C0E94902C6A
:1058400038F00E94972C20F0952311F00C94872CAF
:105850000C948D2C11240C94D22C0E94AF2C70F33C
:10586000959FC1F3950F50E0551F629FF001729F05
:10587000BB27F00DB11D639FAA27F00DB11DAA1F14
:10588000649F6627B00DA11D661F829F2227B00D61
:10589000A11D621F739FB00DA11D621F839FA00DEC
:1058A000611D221F749F3327A00D611D231F849F3C
:1058B000600D211D822F762F6A2F11249F57504093
:1058C0009AF0F1F088234AF0EE0FFF1FBB1F661F0E
:1058D000771F881F91505040A9F79E3F510580F0D7
:1058E0000C94872C0C94D22C5F3FE4F3983ED4F3B5
:1058F000869577956795B795F795E7959F5FC1F77B
:10590000FE2B880F911D9695879597F9089597F925
:105910009F6780E870E060E008959FEF80EC089555
:1059200000240A941616170618060906089500247E
:105930000A9412161306140605060895092E0394F8
:10594000000C11F4882352F0BB0F40F4BF2B11F46C
:1059500060FF04C06F5F7F4F8F4F9F4F089557FDCB
:105960009058440F551F59F05F3F71F04795880FCD
:1059700097FB991F61F09F3F79F087950895121664
:1059800013061406551FF2CF4695F1DF08C0161610
:1059900017061806991FF1CF8695710561050894C1
:1059A0000895E894BB2766277727CB0197F90895D8
:1059B000F999FECF92BD81BDF89A992780B50895D7
:1059C000262FF999FECF1FBA92BD81BD20BD0FB61B
:1059D000F894FA9AF99A0FBE01960895052E97FB4E
:1059E0001EF400940E94052D57FD07D00E94572DEC
:1059F00007FC03D04EF40C94052D5095409530953E
:105A000021953F4F4F4F5F4F08959095809570952A
:105A100061957F4F8F4F9F4F08950E94792DA59FCD
:105A2000900DB49F900DA49F800D911D1124089599
:105A3000B7FF0C940D2D0E940D2D821B930B089522
:105A40002F923F924F925F926F927F928F929F928E
:105A5000AF92BF92CF92DF92EF92FF920F931F937C
:105A6000CF93DF93CDB7DEB7CA1BDB0B0FB6F8942D
:105A7000DEBF0FBECDBF09942A88398848885F846D
:105A80006E847D848C849B84AA84B984C884DF80DE
:105A9000EE80FD800C811B81AA81B981CE0FD11DC2
:105AA0000FB6F894DEBF0FBECDBFED010895A1E2A1
:105AB0001A2EAA1BBB1BFD010DC0AA1FBB1FEE1F88
:105AC000FF1FA217B307E407F50720F0A21BB30BD3
:105AD000E40BF50B661F771F881F991F1A9469F74F
