:100000000C9401010C9416230C94EF220C942901FA
:100010000C9429010C9429010C9429010C942901B8
:100020000C9429010C9429010C9429010C942901A8
:100030000C9429010C9429010C9429010C94290198
:100040000C94A5220C9429010C9463230C943D2359
:100050000C9429010C9429010C9429010C94290178
:100060000C9495230C94290143616C2076616C7586
:10007000652075533A2D2020002A3D3D3D3D3D3DF4
:100080003D3D3D3D3D3D3D3D3D3D3D3D3D3D3D3DA0
:100090003D3D3D3D3D3D3D3D3D3D3D3D3D3D3D3D90
:1000A0003D3D3D3D3D2A0020466C617368205379FB
:1000B0006E6320286265747765656E2074686520BC
:1000C00074776F206C6173657273290020536875B3
:1000D0007474657220537065656420467261637440
:1000E000696F6E200020504152414D4554455220C9
:1000F0002020202020202020202020202020202000
:10010000204C415345523220202020202020202006
:1001100020204C4153455231002041564552414721
:100120004553202020202020202020202020202077
:100130002020202020204C415345523220202020D6
:10014000202020202020204C415345523100526174
:10015000772044617461004C617365723220202005
:100160004C61736572312020202020005265736538
:10017000742041766572616765004C617365723207
:100180002020204C61736572312020202020004106
:1001900076657267653220204176657261676531E8
:1001A0002020200000000000240027002A0000007A
:1001B0000000250028002B0000000000230026007E
:1001C00029000404040404040404020202020202DA
:1001D000030303030303010204081020408001020B
:1001E000040810200102040810200000000800028A
:1001F0000100000304070000000000000000B42418
:10020000102811241FBECFEFD8E0DEBFCDBF26E0FF
:10021000ACEAB4E001C01D92AA3CB207E1F714E0D9
:10022000A0E0B1E0ECEBFDE502C005900D92AC3A28
:10023000B107D9F710E0C0E0D1E004C02197FE017A
:100240000E94D92CCF3FD107C9F70E940B250C94EF
:10025000D12E0C9400002F923F924F925F926F929A
:100260007F928F929F92AF92BF92CF92DF92EF9246
:10027000FF920F931F93CF93DF9300D000D0CDB7A1
:10028000DEB71C014B015A0139012701960122708A
:1002900033273A83298333E0C322DD245C834B83F5
:1002A000CD2851F46801C41AD50A8B819C818C0D2C
:1002B0009D1D84159505B0F07301E00EF11E4B8174
:1002C0005C81E614F704F1F06A01FFEFCF1ADF0A50
:1002D0002FEF3FEFB401F70182917F01F101099502
:1002E000A601EFCFEB80FC808FEFE81AF80A2FEF22
:1002F0003FEF4B815C81B40180E2F1010995FC8202
:10030000EB82D3CF8B819C81800F911F29813A8111
:10031000232BA1F09C012A193B092415350570F403
:10032000FC013196FA83E9832FEF3FEFAC01B40172
:1003300080E2F101099589819A81ECCF0F900F90AD
:100340000F900F90DF91CF911F910F91FF90EF9041
:10035000DF90CF90BF90AF909F908F907F906F90E5
:100360005F904F903F902F9008952F923F924F9221
:100370005F926F927F928F929F92AF92BF92CF9235
:10038000DF92EF92FF920F931F93CF93DF93CDB73E
:10039000DEB7AF970FB6F894DEBF0FBECDBF9AA7FA
:1003A00089A77CA76BA75EA74DA7CAA2DBA2ECA278
:1003B0005F2C402E1DA3322E232EA8A689A22A969A
:1003C0008EAC9FAC2A9796014E2D5F2D602F712F1A
:1003D000832D922DA0E00E94CD2C09F04CC092FC00
:1003E00042C080E38983E89484F866246394712C86
:1003F00081FC92C0C4018170992728962EAD3FAD33
:100400002897232BA9F0009709F486C038A531114D
:1004100005C094012C703327232B51F028964EAD44
:100420005FAD28974150510928965FAF4EAF28978E
:10043000E1E0F0E0EC0FFD1FE60DF71D830120E386
:10044000009709F46AC028964EAD5FAD289704174F
:10045000150708F062C00032110509F45EC00F5F95
:100460001F4F2193EDCF29A1203111F4E89484F896
:10047000712C612CBDCF81E485FE81E6AE014F5F1A
:100480005F4F5FA34EA3712C612C8A508FA7A9A048
:10049000B12CC12CD12CE12CF12C00E010E02AA1D0
:1004A0003BA14CA1552D642D7DA1832D922D0E9441
:1004B0002C2C2A3074F5205D8FEF681A780AEEA193
:1004C000FFA12193FFA3EEA3A9A0B12CC12CD12C95
:1004D000E12CF12C00E010E02AA13BA14CA1552D0C
:1004E000642D7DA1832D922D0E942E2C2AA33BA347
:1004F0004CA3552E462E7DA3382E292EA0E00E9417
:10050000CD2C09F475CFF0E26F16710409F0BFCF5E
:100510006FCF5FA5250FD0CF8301E1E0F0E0EC0FB6
:10052000FD1FE00FF11F80E326962EAD3FAD26970D
:100530000217130738F40032110520F40F5F1F4F24
:100540008193F2CF39A1383029F46016710610F486
:10055000E89484F8C40180719071892B09F447C034
:1005600092FC25C00115110511F126964EAD5FAD27
:1005700026974017510739F028968EAD9FAD2897E2
:1005800008171907A1F46016710608F099C0C80190
:10059000019759F0E9A1E03109F06EC0025011094C
:1005A0006816790640F08C0106C010E000E0F9A161
:1005B000F03109F062C085FC54C00032110540F5ED
:1005C000E1E0F0E0EC0FFD1FE00FF11F88E7808312
:1005D0000F5F1F4F00321105D8F4E1E0F0E0EC0F9F
:1005E000FD1FE00FF11F80E380830F5F1F4F00327C
:1005F000110570F438A5332309F44EC0E1E0F0E0B2
:10060000EC0FFD1FE00FF11F8DE280830F5F1F4F86
:1006100064012896EEACFFAC28979E012F5F3F4FF8
:100620004DA55EA56BA57CA589A59AA50E942B0169
:10063000AF960FB6F894DEBF0FBECDBFDF91CF915E
:100640001F910F91FF90EF90DF90CF90BF90AF90F0
:100650009F908F907F906F905F904F903F902F90E2
:10066000089500321105A0F6E1E0F0E0EC0FFD1F67
:10067000E00FF11F88E5ABCF8C0129A1223009F0F2
:10068000A9CF0032110520F6E1E0F0E0EC0FFD1FEC
:10069000E00FF11F82E69BCF82FE08C0E1E0F0E0B0
:1006A000EC0FFD1FE00FF11F8BE2AFCF83FEB0CF49
:1006B000E1E0F0E0EC0FFD1FE00FF11F80E2A5CFBD
:1006C00049A14031D1F677CF2F923F924F925F925E
:1006D0006F927F928F929F92AF92BF92CF92DF9252
:1006E000EF92FF920F931F93CF93DF93CDB7DEB7B7
:1006F0006E970FB6F894DEBF0FBECDBF09871A877D
:100700002B873C874D875E876F87788B23964EAC0F
:100710005FAC23978C8A9D8AAE8ABF8AC88ED98E99
:10072000EA8EFB8E8C8F29AD3AAD232B09F49EC047
:100730000A8B1B8B6B847C844A011B01EDADFEADE3
:10074000F3FF3EC0E4FD3CC0202F312FA301B401D4
:10075000C101A0E00E94CD2C09F00CF49AC02AE05F
:10076000A22EB12CC12CD12CE12CF12C00E010E0F8
:100770002A893B89A301B401C1010E94FB2BA0E09F
:100780000E94CD2C99F429AD3AAD215031093AAFF0
:1007900029AF2A893B89A301B401C1010E94FD2B25
:1007A0002A8B3B8B3A014B011C01D9CF2A893B890B
:1007B000A301B401C101A0E00E94CD2C09F469C0DD
:1007C00021968EAD9FAD2197840D951D9E8F8D8FA7
:1007D00090E24916510408F096C0E9ADFAAD3197A0
:1007E000FAAFE9AFFFEF4F1A5F0A9AE0A92EB12CDA
:1007F000C12CD12CE12CF12C00E010E02A893B899E
:10080000A301B401C1010E94FB2B205DED8DFE8D83
:100810002193FE8FED8F2A893B89A301B401C10189
:100820000E94FD2B2A8B3B8B3A014B011C01A0E05F
:100830000E94CD2C69F62196EEADFFAD2197E40D17
:10084000F51D80E320E24216510409F45CC03FEF3D
:10085000431A530A29AD3AAD2115310509F4DAC01E
:100860008193215031093AAF29AFECCF3DAD34FF30
:1008700010C080E24816510408F045C02196EEAD44
:10088000FFAD2197E40DF51D8EE28083F2013196D4
:100890002F0121966EAC7FAC2197640C751CF0E2A1
:1008A0004F16510480F52FEF421A520A8AE0A82E03
:1008B000B12CC12CD12CE12CF12C00E010E02C89C2
:1008C0003D894E895F89688D798D8A8D9B8D0E94C7
:1008D000FB2B205DF30121933F012C893D894E893B
:1008E0005F89688D798D8A8D9B8D0E94FD2B2C8B65
:1008F0003D8B4E8B5F8B688F798F8A8F9B8FA0E0AB
:100900000E94CD2C61F6FDADF1FD29C0F0FF27C09E
:100910002BAD3CAD232B19F13C8D311106C08DADB3
:100920009EAD8C709927892B29F08BAD9CAD0197DA
:100930009CAF8BAF2196EEADFFAD2197E40DF51D79
:1009400080E32BAD3CAD4216530648F430E243162B
:100950005104C0F49FEF491A590A8193F2CFE0E2A3
:100960004E16510478F4FC8DFF23B1F12196EEADC3
:10097000FFAD2197E40DF51D8DE2808392012F5F7D
:100980003F4F2901CDACDEACEBACFCAC8201219633
:100990002EAD3FAD21974FA958AD6DA97EA98BA96A
:1009A0009CA90E942B016E960FB6F894DEBF0FBE75
:1009B000CDBFDF91CF911F910F91FF90EF90DF900E
:1009C000CF90BF90AF909F908F907F906F905F90EF
:1009D0004F903F902F9008953DAD32FF0CC021966F
:1009E000EEADFFAD2197E40DF51D8BE28083C201D2
:1009F00001962C01C7CF9DAD93FFC4CF2196EEADDC
:100A0000FFAD2197E40DF51D80E28083F201319660
:100A10002F01B8CF8EE280833CCF833081F028F461
:100A2000813099F08230A9F008958730A9F088309C
:100A3000C9F08430B1F4809180008F7D03C0809133
:100A400080008F7780938000089584B58F7784BD70
:100A5000089584B58F7DFBCF8091B0008F77809310
:100A6000B00008958091B0008F7DF9CFCF93DF93D0
:100A7000282F30E0F901E651FE4F8491F901EA5246
:100A8000FE4FD491F901EE53FE4FC491CC23A1F057
:100A900081110E940D05EC2FF0E0EE0FFF1FE854CE
:100AA000FE4FA591B491EC91ED2381E090E009F423
:100AB00080E0DF91CF91089580E090E0FACF1F931E
:100AC000CF93DF93282F30E0F901E651FE4F849158
:100AD000F901EA52FE4FD491F901EE53FE4FC49151
:100AE000CC23A9F0162F81110E940D05EC2FF0E008
:100AF000EE0FFF1FE255FE4FA591B4918FB7F8940A
:100B0000EC91111108C0D095DE23DC938FBFDF91EB
:100B1000CF911F910895DE2BF8CFCF93DF9390E014
:100B2000FC01EA52FE4F24918E539E4FFC018491AA
:100B30008823C9F090E0880F991FFC01EC55FE4F07
:100B4000A591B491FC01E255FE4FC591D49161117C
:100B50000DC09FB7F8948C91209582238C93888147
:100B6000282328839FBFDF91CF910895623051F4ED
:100B70009FB7F8943C91822F809583238C93E881D2
:100B80002E2BEFCF8FB7F894EC912E2B2C938FBF99
:100B9000EACF3FB7F8948091B5059091B605A09142
:100BA000B705B091B80526B5A89B05C02F3F19F031
:100BB0000196A11DB11D3FBFBA2FA92F982F8827DD
:100BC000BC01CD01620F711D811D911D42E0660FB8
:100BD000771F881F991F4A95D1F708958F929F928A
:100BE000AF92BF92CF92DF92EF92FF924B015C01E6
:100BF0000E94C9056B017C010E94C9056C197D0921
:100C00008E099F09683E734081059105A8F321E094
:100C1000821A9108A108B10888EEC80E83E0D81E98
:100C2000E11CF11C81149104A104B10429F7FF9087
:100C3000EF90DF90CF90BF90AF909F908F900895EE
:100C4000089508950895DC01ED91FC910190F081E3
:100C5000E02D0994EF92FF920F931F93CF93DF93B0
:100C60008C017B01D0E0C0E0F701EC0FFD1F649127
:100C7000662361F0D801ED91FC910190F081E02DA7
:100C8000C8010995892B11F02196EECFCE01DF9195
:100C9000CF911F910F91FF90EF900895AF92BF9267
:100CA000CF92DF92EF92FF920F931F93CF93DF9338
:100CB0006C017B018B01040F151FEB015E01AE1867
:100CC000BF08C017D10759F06991D601ED91FC9189
:100CD0000190F081E02DC6010995892B79F7C501B6
:100CE000DF91CF911F910F91FF90EF90DF90CF9008
:100CF000BF90AF900895FC01538D448D252F30E0B7
:100D0000842F90E0821B930B541710F0CF96089518
:100D100001970895FC01918D828D981761F0A28D45
:100D2000AE0FBF2FB11D5D968C91928D9F5F9F730B
:100D3000928F90E008958FEF9FEF0895FC01918DC1
:100D4000828D981731F0828DE80FF11D858D90E02E
:100D500008958FEF9FEF0895FC01918D228D892FCB
:100D600090E0805C9F4F821B91098F7399270895B3
:100D700089EB95E00E94AC0621E0892B09F420E084
:100D8000822F089580E090E0892B29F00E94B80618
:100D900081110C9400000895FC01A48DA80FB92FB7
:100DA000B11DA35ABF4F2C91848D90E001968F7393
:100DB0009927848FA689B7892C93A089B1898C91B2
:100DC000837080648C93938D848D981306C0028801
:100DD000F389E02D80818F7D80830895EF92FF92CB
:100DE0000F931F93CF93DF93EC0181E0888F9B8D4E
:100DF0008C8D98131AC0E889F989808185FF15C008
:100E00009FB7F894EE89FF896083E889F98980812A
:100E10008370806480839FBF81E090E0DF91CF91F9
:100E20001F910F91FF90EF900895F62E0B8D10E01B
:100E30000F5F1F4F0F731127E02E8C8D8E110CC08A
:100E40000FB607FCFACFE889F989808185FFF5CFD5
:100E5000CE010E94CC06F1CFEB8DEC0FFD2FF11DE2
:100E6000E35AFF4FF0829FB7F8940B8FEA89FB8912
:100E700080818062CFCFCF93DF93EC01888D882370
:100E8000B9F0AA89BB89E889F9898C9185FD03C0ED
:100E9000808186FD0DC00FB607FCF7CF8C9185FFD2
:100EA000F2CF808185FFEDCFCE010E94CC06E9CF45
:100EB000DF91CF9108958F929F92AF92BF92EF9260
:100EC000FF920F931F93CF93DF93FC010281138155
:100ED00001151105E9F1EC011086118612861386C1
:100EE000F12CE12C88849984AA84BB840E151F05FB
:100EF000C9F0C701880F991F880F991FEC85FD85E0
:100F0000E80FF91FA50194016081718182819381AD
:100F10000E94B129688779878A879B87FFEFEF1A3C
:100F2000FF0AE0CFB80190E080E00E945A289B01C0
:100F3000AC01C501B4010E941D2ADF91CF911F9120
:100F40000F91FF90EF90BF90AF909F908F9008957A
:100F500060E070E080EC9FE7F0CFAF92BF92CF925D
:100F6000DF92EF92FF920F931F93CF93DF93FC01D9
:100F7000A484B584A114B10409F44BC06A017B01B7
:100F8000EC0104811581C801880F991F880F991FF2
:100F9000A80EB91EF50120813181428153816885F7
:100FA00079858A859B850E94B029688779878A8799
:100FB0009B87F501C082D182E282F382A70196016C
:100FC000688579858A859B850E94B129688779879C
:100FD0008A879B870F5F1F4F1D830C83AE80BF8066
:100FE0000A151B0511F41D821C820A811B81011543
:100FF0001105D1F4CA8ADB8AEC8AFD8ACE86DF86A7
:10100000E88AF98A0A151B0520F40F5F1F4F1B831E
:101010000A83DF91CF911F910F91FF90EF90DF90A6
:10102000CF90BF90AF900895A70196016E857F8500
:10103000888999890E94552B181604F3A7019601F7
:101040006A897B898C899D890E94552887FFDACF20
:10105000CA8ADB8AEC8AFD8AD5CFFC011382128210
:1010600015821482108611861286138680E090E025
:10107000A0ECBFE786879787A08BB18B828B938B81
:10108000A48BB58B4081518190E080E0BA01615022
:10109000704C4817590791F09B01281B390B220F00
:1010A000331F220F331FA485B585A20FB31F1D92D6
:1010B0001D921D921C9213970196EBCF08950895EF
:1010C0002F923F924F925F926F927F928F929F9258
:1010D000AF92BF92CF92DF92EF92FF920F931F9346
:1010E000CF93DF93CDB7DEB760970FB6F894DEBF2E
:1010F0000FBECDBF988B8F876A017B013E872D87FE
:10110000DB01CA018827B7FD83959927AA27BB274A
:10111000282F2170EF85F889208B892B21F0F7FA91
:10112000F094F7F8F094C701B6010E948F2A298342
:101130003A834B835C836D837E838F839887AF85EF
:10114000B8892C9311963C93119712964C93129751
:1011500013965C93139714966C93149715967C933F
:1011600015978F8116968C931697988517969C9352
:10117000ED85FE85EE0FFF1FEE0FFF1FEE5EFE4FAB
:1011800080819181A281B38189879A87AB87BC874F
:101190008F8198850E94012B9B01AC01C701B6018C
:1011A0000E94B02929853A854B855C850E94BB2821
:1011B0002B013C010E948F2A822E232E342E952E45
:1011C0005B018C01AF85B88918962C9318971996F6
:1011D0003C9319971A964C931A971B965C931B97FE
:1011E0001C966C931C971D96BC921D971E968C9313
:1011F0001E971F961C930E94012B9B01AC01C301FB
:10120000B2010E94B0292B013C0120E030E040E017
:101210005FE30E94552B18160CF0D0C0282D322DFC
:10122000432D592DB501C801A1E00E94C12C3901FF
:101230004A015B018C010E94012B9B01AC01698575
:101240007A858B859C850E94552818160CF087C0DE
:10125000EF85F8896086718682869386A486B58636
:1012600006871787ED85FE85EF2B09F05DC0AF85FA
:10127000B8891C9111966C90119712967C901297D8
:1012800013968C90139714969C9014971596AC9087
:1012900015971696BC90169717960C91212F362D00
:1012A000472D582D692D7A2D8B2D902F0E94012BC3
:1012B0009B01AC01C701B6010E94B0296B017C0102
:1012C00020E030E040E05FE30E94552887FF0AC03D
:1012D00020E030E040E05FE3C701B6010E94552BFB
:1012E000181614F5212F217030E040E050E060E046
:1012F00070E080E090E0A0E00E94CD2CA9F0212FCA
:10130000362D472D582D692D7A2D8B2D902FA1E04C
:101310000E94C12CEF85F889208331834283538357
:1013200064837583868397838F85988960960FB6CB
:10133000F894DEBF0FBECDBFDF91CF911F910F910B
:10134000FF90EF90DF90CF90BF90AF909F908F90E5
:101350007F906F905F904F903F902F900895AF8552
:10136000B88918961C92189719961C9219971A9674
:101370001C921A971B961C921B971C961C921C97EA
:101380001D961C921D971E961C921E971F961C92CE
:1013900029813A814B815C816D817E818F81988525
:1013A000A1E00E94C12CEF85F8892083318342831C
:1013B0005383648375838683978354CF20E030E022
:1013C00040E05FE3C301B2010E94552881114ACF7A
:1013D000282D322D432D592DB501C801A0E00E94C2
:1013E000CD2C61F0217030E040E050E060E070E032
:1013F00080E090E00E94CD2C09F434CF282D322DCE
:10140000432D592DB501C801A1E00E94C12CAF8523
:10141000B88918962C93189719963C9319971A9691
:101420004C931A971B965C931B971C966C931C9776
:101430001D967C931D971E968C931E971F969C93CA
:1014400011CF2F923F924F925F926F927F928F9225
:101450009F92AF92BF92CF92DF92EF92FF920F9343
:101460001F93CF93DF93CDB7DEB7E6970FB6F8940F
:10147000DEBF0FBECDBF9CA78BA76DA77EA758ABC5
:101480004FA70A8B1B8B2C8B3D8BFF8EEE8EDAAA1F
:10149000C9AAB9A6A8A68BAA9CAA2C962FAD2C9750
:1014A0002DAB2D963FAD2D973EAB8A899B89AC899C
:1014B000BD898827B7FD83959927AA27BB278E8BDF
:1014C0009F8BA88FB98F0E891F890115110549F0CF
:1014D0002A893B894C895D8950582A8B3B8B4C8BE0
:1014E0005D8B20E030E0A9016A897B898C899D8928
:1014F0000E945528312C212C882309F40FC18A8998
:101500009B89AC89BD89E7E1B695A79597958795A5
:10151000EA95D1F799278F579109BC01990F880B4C
:10152000990B0E945C282BE930E24AE95EE30E94B5
:10153000BB2824E431E544E35EE30E94B1296B015A
:101540007C016A897B898C899D898F77992780683E
:101550009F6320E030E040EC5FE30E94B0292BE382
:101560003DE344E95EE30E94BB289B01AC01C70157
:10157000B6010E94B1290E94CB2A6A8F7B8F8C8F83
:101580009D8F2A8C3B8CB101032C000C880B990B8E
:101590000E945C286B017C0128E73AE944E550E4AD
:1015A0000E94BB2820E030E040E05FE30E94B129C8
:1015B0000E94CB2A4B012EE83DE543E150E4C701F0
:1015C000B6010E94BB286B017C01092C000CAA0803
:1015D000BB08C501B4010E945C2828E132E741E361
:1015E0005FE30E94BB289B01AC01C701B6010E94CA
:1015F000B0292B013C01AC019B010E94BB286B016F
:101600007C01A3019201C301B2010E94B12968A328
:1016100079A38AA39BA320E030E040E651E4C70110
:10162000B6010E941D2A20E030E040E251E40E9411
:10163000B1299B01AC01C701B6010E941D2A20E01F
:1016400030E040EC50E40E94B1299B01AC01C7019D
:10165000B6010E941D2A6B017C01A301920160E08A
:1016600070E080E090E40E94B0299B01AC01C701CA
:10167000B6010E94B1299B01AC0168A179A18AA1A0
:101680009BA10E941D2A20E030E040E85FE30E9419
:10169000B1293FE7830E911CA11CB11CA501940147
:1016A000F7E1220F331F441F551FFA95D1F70E940F
:1016B000BB282B013C01AC019B016A897B898C8989
:1016C0009D890E94552887FF0DC041E0241A3108EA
:1016D00020E030E040E251E4C301B2010E941D2A43
:1016E0002B013C01C101419651E05AA7833291057B
:1016F00008F01AA6839790F4C10137FE04C088272A
:10170000992782199309880F991F880F991FFC0147
:10171000EE5EFE4F408051806280738088A599A55F
:1017200093FF8DC1AE8DBF8D9D01AB2B11F421E0D8
:1017300030E08E8D9F8D0197BCEF2B16BFEF3B06DF
:101740000CF467C0221633060CF063C082199309AB
:10175000AA24A3949F8F8E8F97FF02C01F8E1E8E88
:10176000E8A5F9A5F460F9A7E8A737FE1AA6A11025
:10177000C1C12114310409F475C18E898170898B2E
:10178000FAA5FF2309F463C1A30192016A897B8949
:101790008C899D890E94BB281AA50E948F2A2E8BB6
:1017A0003A8F48A35CA36DA37EA3882E9FA30E94BB
:1017B000012B2AA5A301222371F192010E941D2A67
:1017C0009B01AC016A897B898C899D890E94B02923
:1017D0006B017C01EE8DFF8DEE0FFF1FEE0FFF1FE3
:1017E000EE5EFE4F80819181A281B3818A8B9B8BBB
:1017F000AC8BBD8B112399F0A3019201BC01CD01EB
:101800000E94BB289B01AC01C701B6010E94BB2806
:101810003DC0A12C9FCF92010E94BB28D1CFD30104
:10182000C20157E1B695A795979587955A95D1F737
:1018300099279C012F57310937FF03C03195219516
:1018400031098A899B89AC89BD8947E1B695A795FD
:10185000979587954A95D1F799278F57910997FFC3
:1018600003C0919581959109821793070CF07DC073
:101870002A893B894C895D89C301B2010E941D2AD6
:101880009B01AC01C701B6010E941D2A2B013C013E
:10189000AE8DBF8DAB2B09F071C011E020E030E0C0
:1018A00040E05FE30E94552B87FD10E0212F30E0E0
:1018B00040E050E060E070E080E090E0AE88BA8CFC
:1018C000C8A0DCA0EDA0FEA0082D1FA10E94B82C8E
:1018D0002E8B3A8F48A35CA36DA37EA3882E9FA373
:1018E00020E030E040E05FE3C301B2010E945528F0
:1018F000811103C0BE89BE7FBE8B10E0B12CC12C0C
:10190000912CD12CE12CF12C00E02E893A8D48A1AC
:101910005CA16DA17EA1882D9FA1A9E00E94CD2C84
:10192000A9F0A4F03FEF231A330A10E0B12CC12C28
:10193000912CD12CE12CF12C00E041E04E8B1A8E41
:1019400018A21CA21DA21EA2812C1FA2C1018D598A
:101950009F4F512C25E0622E712C873C910508F099
:1019600027C184E0682E712C23C1A30192016A89EA
:101970007B898C899D890E941D2A44CF0E948F2AD1
:1019800059016A017B01082F992E0E94012B9B01AE
:10199000AC01C301B2010E94B0292B013C0111E04E
:1019A00020E030E040E05FE30E94552B87FD10E02F
:1019B000212F30E040E050E060E070E080E090E017
:1019C000192D0E94B82C122FB32EC42E952ED62E70
:1019D000E72EF82E092F20E030E040E05FE3C3015E
:1019E000B2010E945528811101C01E7F212F3B2D7D
:1019F0004C2D592D6D2D7E2D8F2D902F0E94012B5A
:101A00009B01AC016A897B898C899D890E9455283C
:101A100018160CF47ACF2E893A8D48A15CA16DA1DD
:101A20007EA1882D9FA1A1E00E94C12C2E8B3A8F10
:101A300048A35CA36DA37EA3882E9FA35ECF37FC33
:101A400098CE2114310471F08E898170898BA301A5
:101A500092016A897B898C899D890E941D2A10E0E8
:101A60001AA69BCEA12C012B09F046C02E8D3F8DCE
:101A70004A895B896C897D89CE0101960E94600844
:101A8000F981FE8B2A812A8F3B8138A34C814CA39C
:101A90005D815DA38E818EA38F8098859FA319851C
:101AA000BA84CB849C84DD84EE84FF8408892DCFA6
:101AB0002E8D3F8D4A895B896C897D89CE01019687
:101AC0000E946008A981AE8BBA81BA8FEB81E8A32E
:101AD000FC81FCA32D812DA33E813EA38F804885F0
:101AE0004FA31985BA84CB849C84DD84EE84FF8463
:101AF000088927C0012BE1F24A895B896C897D89BD
:101B000070582E8D3F8DCE0101960E946008E981AC
:101B1000EE8BFA81FA8F2B8128A33C813CA34D8167
:101B20004DA35E815EA38F8088858FA31985BA84BB
:101B3000CB849C84DD84EE84FF840889AA2009F488
:101B4000E4CE68A479A4662498E07922A8A5B9A572
:101B500055245394B3FF2CC0BFEF2B163B0624F142
:101B60003101EFEF6E1A7E0A2E893A8D48A15CA1F1
:101B70006DA17EA1882D9FA10E94012BF301EE0F84
:101B8000FF1FEE0FFF1FEE5EFE4F2081318142816D
:101B900053810E945528811107C02E8D3F8D215001
:101BA00031093F8F2E8F130155245394712C612CD2
:101BB00088A599A5827099279B8B8A8B98A591FF00
:101BC00003C06114710441F4A9A9BAA9CD01861911
:101BD00097096A167B0610F090E080E0BE89B98311
:101BE000EA8DEA83F8A1FB832CA12C833DA13D83E0
:101BF0004EA14E838F825FA158871987BA86CB8604
:101C00009C86DD86EE86FF86088BAEA9AF93BDA9C4
:101C1000BF93ECA9EF93FBA9FF9329A52F9338A5B8
:101C20003F939F938F934F8D4F935E8D5F9388A9C2
:101C30008F939FA59F93AEA5AF93BDA5BF93ECA532
:101C4000EF93FBA5FF9389809A80AB80BC80CD8009
:101C5000DE80EF80F88409851A852B853C854D85CB
:101C60005E856F85788989890E9464030FB6F89430
:101C7000DEBF0FBECDBF511067C02C013FEF431A2E
:101C8000530A48A5E5E445FFE5E62FEF3FEFAC0139
:101C90006DA57EA58E2FEBA5FCA50995A32CAA1CEE
:101CA000AA24AA1C6101E32CEE0CEE08FE2C0E2DDA
:101CB0001E2DFE2DEE2D91014E2D5E2D6E2D7E2DB5
:101CC0008E2D9E2DA0E00E94CD2C3CF40E948B2CEA
:101CD00069017A018B01F82FE92F1F9285E08F931C
:101CE00021E0621A71087F926F921F921F929AE010
:101CF000892E2F2F3E2FA2016DA57EA58BA59CA519
:101D00000E94B5010F900F900F900F900F900F90C1
:101D10004A895B89452BC1F09C01AFA5B8A92A1B54
:101D20003B0BE9A9FAA92E173F0770F48C010F5F4E
:101D30001F4F2FEF3FEFAC016DA57EA580E2EBA515
:101D4000FCA50995C801E8CFE6960FB6F894DEBF6A
:101D50000FBECDBFDF91CF911F910F91FF90EF90FC
:101D6000DF90CF90BF90AF909F908F907F906F90BB
:101D70005F904F903F902F9008952F923F924F92F7
:101D80005F926F927F928F929F92AF92BF92CF920B
:101D9000DF92EF92FF920F931F93CF93DF93CDB714
:101DA000DEB7E7970FB6F894DEBF0FBECDBF1C01BC
:101DB0006AAB7BAB4CAB5DAB28013901CEAADFAA85
:101DC0006501B82CA9019801C301B8010E945528EA
:101DD000882331F1EEA8FFA803E010E023E931E009
:101DE0004CA95DA96AA97BA9C1010E942B01E796B4
:101DF0000FB6F894DEBF0FBECDBFDF91CF911F911C
:101E00000F91FF90EF90DF90CF90BF90AF909F9099
:101E10008F907F906F905F904F903F902F9008959C
:101E20002FEF3FEF4FE75FEFC301B8010E94552846
:101E300087FF07C0EEA8FFA804E010E027E931E023
:101E4000CFCF2FEF3FEF4FE75FE7C301B8010E940D
:101E5000552B18166CF404E010E02AE831E0C2FCBF
:101E600004C003E010E02FE831E0EEA8FFA8B8CFEF
:101E70009E012F5F3F4F4901B11025C028E23BE68C
:101E80004EE65EE4C301B8010E94552B181654F0CB
:101E900028E23BE64EE65EECC301B8010E945528FD
:101EA00087FF11C01F921F925601CEA8DFA8930191
:101EB00082014CA95DA96AA97BA9C1010E94210ADE
:101EC0000F900F9094CFD2FC03C086E0E82EF12C47
:101ED000F40110E000E080E332E1E316F10448F0A1
:101EE0000F5F1F4F819391E0E91AF108003211054D
:101EF00099F7BB2019F01F930F93D6CF9701B30129
:101F0000A201CE0181960E9460081F930F939F92B9
:101F10008F92DF92CF922FA92F933EA93F93FF92EA
:101F2000EF928DA98F939CA99F932BA92F933AA9E8
:101F30003F933F922F9289A09AA0ABA0BCA0CDA0C6
:101F4000DEA0EFA0F8A409A51AA52BA53CA54DA5D8
:101F50005EA56FA578A989A90E9464030FB6F894BD
:101F6000DEBF0FBECDBF43CF882329F0682F89EB9A
:101F700095E00C9423060895089520911B05260FE3
:101F80003327331F21323105ECF420916405FC0125
:101F900090E080E0243069F082E00895A0911B0574
:101FA0002191AC0145505B4FA40FB52FB11D2C936F
:101FB0000196861798F380911B05680F60931B05A7
:101FC00080E0089581E008951092640581E0809397
:101FD000630510923E0561E082E10E945F0561E0C9
:101FE00083E10E945F05E9EBF0E080818E7F8083D2
:101FF00080818D7F808388E48093B80085E480931E
:10200000BC000895CF93DF9391E09093FA04882366
:10201000B9F0C091B800D091BA008091BC008A7B21
:102020008093BC0060E082E10E945F0560E083E194
:102030000E945F050E94E40FD093BA00C093B800DD
:10204000DF91CF9108950895E091930580919205D5
:10205000E81730F4F0E0E652FB4F808190E00895FD
:102060008FEF9FEF089590919305809192052FEF48
:102070003FEF981748F4E92FF0E0E652FB4F20813C
:1020800030E09F5F90939305C90108958091920578
:1020900090919305891B990B0895CF92DF92EF924F
:1020A000FF920F931F93CF93DF937C01CB018A01A3
:1020B00020916A05222389F0EB016B01C40ED51E25
:1020C000CC15DD0569F06991D701ED91FC91019086
:1020D000F081E02DC7010995F3CF642F0E94BD0F59
:1020E000C801DF91CF911F910F91FF90EF90DF908A
:1020F000CF900895CF93DF931F92CDB7DEB769835A
:1021000020916A052223F9F020919005203258F0A1
:1021100021E030E0FC013383228390E080E00F90E7
:10212000DF91CF91089580919105E82FF0E0E55976
:10213000FA4F998190838F5F8093910580939005EA
:1021400081E090E0ECCF61E0CE0101960E94BD0FEE
:10215000F7CFCF92DF92EF92FF920F931F93CF931F
:10216000DF93FC01C48121E020936A05C0938B05B5
:1021700010929105109290058385682B86E596E074
:102180000E947A10D0919005D13208F092C00E943E
:10219000C9056B017C0180916405811165C082E0F5
:1021A0008093640581E0809363058FEF80936205DF
:1021B00010926105D0936005ABE6B5E0E0E4F5E090
:1021C00080E0D81385C010923F0580913F05CC0F69
:1021D000C82BC0933F0580913E05813009F07CC03B
:1021E00010923E050E94C9056B017C0180913F055C
:1021F0008093BB008091660590916705A09168056A
:10220000B0916905892B8A2B8B2B99F00E94C90507
:102210000091660510916705209168053091690568
:102220006C197D098E099F090617170728073907BA
:10223000E0F18091BC0083FDD9CF85EC8093BC0098
:102240000E94C9056B017C0180916405823009F40C
:1022500045C0809162058F3F61F1809162058032B7
:1022600041F18091620525C08091660590916705D6
:10227000A0916805B0916905892B8A2B8B2B09F4F5
:102280008ACF0E94C90500916605109167052091CB
:102290006805309169056C197D098E099F0906173B
:1022A00017072807390708F076CF809165050E9447
:1022B0000210109291051092900510926A05DF911C
:1022C000CF911F910F91FF90EF90DF90CF900895E5
:1022D0009D9191938F5F75CF85EEB0CF809166050C
:1022E00090916705A0916805B0916905892B8A2BAB
:1022F0008B2B09F4A9CF0E94C905009166051091A6
:10230000670520916805309169056C197D098E0972
:102310009F09061717072807390708F095CFC5CF7B
:1023200090E080E0089583E00E943605892B41F417
:102330008091A4058F5F8093A40581E08093990527
:1023400083E00E943605019729F480919F058F5FF5
:1023500080939F05089582E00E943605892B29F419
:102360008091AF058F5F8093AF0582E00E943605B4
:10237000019729F48091AA058F5F8093AA0508959B
:102380004091D2045091D3046091D4047091D5044B
:1023900084EA96E00E94AD0780919805811124C0DF
:1023A0004091C4045091C5046091C6047091C70463
:1023B0008EE896E00E94AD074091B2045091B304BC
:1023C0006091B4047091B50488E796E00E94AD076F
:1023D0004091AE045091AF046091B0047091B1048B
:1023E00082E696E00E94AD0784EA96E00E945B07D1
:1023F00020E030E04AE754E40E941D2A9B01AC0132
:1024000060E070E080E89FE30E941D2A20E030E059
:1024100040E05FE30E94B1290E94CB2A70939705A8
:10242000609396058EE896E00E945B0720E030E01E
:102430004AE754E40E941D2A9B01AC0160E070E071
:1024400080E89FE30E941D2A20E030E040E05FE347
:102450000E94B1290E94CB2A709395056093940540
:1024600008958FB7F8944091B1055091B2056091ED
:10247000B3057091B4058FBF21E03FB7F894809108
:10248000B1059091B205A091B305B091B4053FBFDD
:10249000841B950BA60BB70B883E9340A105B10595
:1024A00038F48091A405833040F32093AC04E5CF49
:1024B0008091AF05833018F081E08093AD040895DA
:1024C0000F931F93CF938C01C62F0E94A9106C2FDE
:1024D0006460C8010E94A9106C2F6B7FC8010E9424
:1024E000A91083EC90E00197F1F7CF911F910F9124
:1024F00008950F931F93CF93DF938C01D62FC42F92
:10250000607F642B0E94601280E1D89FB00111248B
:102510006C2BC801DF91CF911F910F910C94601229
:10252000CF93DF93CDB7DEB728970FB6F894DEBF11
:102530000FBECDBF98E0EAE0F1E0DE011196019018
:102540000D929A95E1F79091C206961710F46FEFED
:10255000690F262F30E0220F331F41E050E04C0F6F
:102560005D1F240F351FF9016081680F606840E02E
:102570008AEB96E028960FB6F894DEBF0FBECDBF6B
:10258000DF91CF910C94791240E061E08AEB96E004
:102590000E9479128BE39FE10197F1F7089541E0E2
:1025A0000E94791281E090E00895CF93DF93EC01CF
:1025B0008AE090E0998388839F838E8388E290E00D
:1025C0000E94DF2C9D878C87892B11F41982188239
:1025D000CE01DF91CF910C942D08FB0101900020DA
:1025E000E9F73197AF01461B570BDC01ED91FC91E8
:1025F0000280F381E02D0994CF93DF93BC0189EB36
:1026000095E00E942A06EC016CE971E089EB95E007
:102610000E94ED128C0F9D1FDF91CF9108954F9274
:102620005F926F927F928F929F92AF92BF92CF9262
:10263000DF92EF92FF92CF93DF93CDB7DEB728976B
:102640000FB6F894DEBF0FBECDBF4091A0055091EC
:10265000A1056091A2057091A3058091AB059091B1
:10266000AC05A091AD05B091AE05B09098054817A6
:1026700059076A077B0790F5B11030C0C090A605D6
:10268000D090A705E090A805F090A90540909B0583
:1026900050909C0560909D0570909E054093AB0501
:1026A0005093AC056093AD057093AE058093A00583
:1026B0009093A105A093A205B093A3054092A6050F
:1026C0005092A7056092A8057092A905C0929B053B
:1026D000D0929C05E0929D05F0929E052091A60562
:1026E0003091A7054091A8055091A90529833A8307
:1026F0004B835C834090AB055090AC056090AD057A
:102700007090AE0569017A01C418D508E608F7088B
:10271000C092D604D092D704E092D804F092D904A3
:10272000C701B6010E945A2820E030E04AE754E48D
:102730000E941D2A6093D2047093D3048093D40422
:102740009093D504C701B6010E945C2820E034E2D2
:1027500044E759E40E941D2A9B01AC012093CE045A
:102760003093CF044093D0045093D10460E070E0E4
:1027700080E89FE30E941D2A20E030E040E05FE314
:102780000E94B1290E94CB2A7093CD046093CC049F
:10279000B1109CC0C0909B05D0909C05E0909D0519
:1027A000F0909E058091A0059091A105A091A205B1
:1027B000B091A3058D839E83AF83B88746015701EF
:1027C000881A990AAA0ABB0A8092C8049092C9047E
:1027D000A092CA04B092CB04C501B4010E945A2849
:1027E00020E030E04AE754E40E941D2A6093C404CC
:1027F0007093C5048093C6049093C704C501B401C7
:102800000E945C2820E034E244E759E40E941D2A3B
:102810009B01AC012093C0043093C1044093C204D7
:102820005093C30460E070E080E89FE30E941D2A9B
:1028300020E030E040E05FE30E94B1290E94CB2A13
:102840007093BF046093BE046D817E818F819885F3
:1028500064197509860997096093BA047093BB04DB
:102860008093BC049093BD0429813A814B815C81A3
:10287000C21AD30AE40AF50AC092B604D092B70489
:10288000E092B804F092B9040E945A2820E030E0A7
:102890004AE754E40E941D2A6093B2047093B30483
:1028A0008093B4049093B504C701B6010E945A28DE
:1028B00020E030E04AE754E40E941D2A6093AE0411
:1028C0007093AF048093B0049093B1048EE491E0D0
:1028D00028960FB6F894DEBF0FBECDBFDF91CF9123
:1028E000FF90EF90DF90CF90BF90AF909F908F9030
:1028F0007F906F905F904F900C94FC128F929F92FC
:10290000AF92BF92EF92FF920F931F93CF93DF93FB
:10291000CDB7DEB7A1970FB6F894DEBF0FBECDBF1F
:102920007C01FA01CB0119A2223008F42AE08E01C1
:102930000F5D1F4F822E912CB12CA12CBF01A50140
:1029400094010E94BA2BF901CA016A300CF5605D4E
:10295000D8016E938D01232B242B252B79F790E042
:1029600080E0109721F0BD01C7010E94ED12A196F1
:102970000FB6F894DEBF0FBECDBFDF91CF911F9190
:102980000F91FF90EF90BF90AF909F908F90089520
:10299000695CDECF8F929F92AF92BF92CF92DF920F
:1029A000EF92FF92C090A005D090A105E090A20503
:1029B000F090A3054091AB055091AC056091AD0539
:1029C0007091AE0580919805C416D506E606F70607
:1029D00008F071C1811172C18091A6059091A7057F
:1029E000A091A805B091A90580909B0590909C05A9
:1029F000A0909D05B0909E05C092AB05D092AC050D
:102A0000E092AD05F092AE054093A0055093A1056C
:102A10006093A2057093A3058092A6059092A705E6
:102A2000A092A805B092A90580939B0590939C0560
:102A3000A0939D05B0939E056091A0057091A1059E
:102A40008091A2059091A305C090AB05D090AC05F4
:102A5000E090AD05F090AE056C197D098E099F09D7
:102A60006093BA047093BB048093BC049093BD043C
:102A7000C0909B05D0909C05E0909D05F0909E0530
:102A80008090A6059090A705A090A805B090A905F4
:102A9000C818D908EA08FB08C092B604D092B70457
:102AA000E092B804F092B9040E945A2820E030E085
:102AB0004AE754E40E941D2A6093B2047093B30461
:102AC0008093B4049093B504C701B6010E945A28BC
:102AD00020E030E04AE754E40E941D2A6093AE04EF
:102AE0007093AF048093B0049093B104C701B60112
:102AF00020E230E040E050E00E94DC2B69017A01E6
:102B000068E670E089EB95E00E942A062AE0B701AA
:102B1000A601F7FE0DC06DE289EB95E00E94230649
:102B200044275527BA014C195D096E097F092AE02F
:102B300089EB95E00E947E146CE971E089EB95E0E9
:102B40000E94ED126091A6057091A7058091A805DD
:102B50009091A9058090AB059090AC05A090AD0533
:102B6000B090AE05681979098A099B096C197D092D
:102B70008E099F096093D6047093D7048093D8047C
:102B80009093D9040E945C284B015C0120E030E066
:102B90004AE754E40E941D2A6093D2047093D30440
:102BA0008093D4049093D50420E034E244E759E4C0
:102BB000C501B4010E941D2A9B01AC012093CE04E3
:102BC0003093CF044093D0045093D10460E070E080
:102BD00080E89FE30E941D2A20E030E040E05FE3B0
:102BE0000E94B1290E94CB2A7093CD046093CC043B
:102BF00080919805811156C060919B0570919C054C
:102C000080919D0590919E058090A0059090A105D2
:102C1000A090A205B090A305681979098A099B09BB
:102C20006C197D098E099F096093C8047093C904CB
:102C30008093CA049093CB040E945C286B017C01B2
:102C400020E030E04AE754E40E941D2A6093C40467
:102C50007093C5048093C6049093C70420E034E2C7
:102C600044E759E4C701B6010E941D2A9B01AC014B
:102C70002093C0043093C1044093C2045093C30412
:102C800060E070E080E89FE30E941D2A20E030E0D1
:102C900040E05FE30E94B1290E94CB2A7093BF04F9
:102CA0006093BE04FF90EF90DF90CF90BF90AF9005
:102CB0009F908F900895882309F4BECEC12CD12C0B
:102CC00076011ECFCF92DF92EF92FF92CF93DF93E8
:102CD0006C01990FEE08FF08F7FE1BC06DE28AEB4E
:102CE00096E00E942306EC0144275527BA014C19AF
:102CF0005D096E097F092AE08AEB96E00E947E1446
:102D00008C0F9D1FDF91CF91FF90EF90DF90CF90C0
:102D100008952AE0B701A6018AEB96E0DF91CF91F2
:102D2000FF90EF90DF90CF900C947E14BC018AEB63
:102D300096E00C94ED124F925F926F927F928F9279
:102D40009F92AF92BF92CF92DF92EF92FF920F933A
:102D50001F93CF936B017C01742EAC019B010E94E9
:102D6000A02B63E971E0811126C046015701E89468
:102D7000B7F82FEF3FEF4FE75FE7C501B4010E94BF
:102D8000A02B81110CC02FEF3FEF4FE75FE7C5018C
:102D9000B4010E9455286FE971E0181664F02FEF16
:102DA0003FEF4FE75FE4C701B6010E94552B1816AD
:102DB000ACF463EA71E08AEB96E0CF911F910F913A
:102DC000FF90EF90DF90CF90BF90AF909F908F904B
:102DD0007F906F905F904F900C94ED122FEF3FEF2C
:102DE0004FE75FECC701B6010E94552887FDE1CF90
:102DF00020E030E0A901C701B6010E94552810E08B
:102E000000E087FF0AC06DE28AEB96E00E9423068D
:102E10008C01F7FAF094F7F8F094C0E060E070E00D
:102E200080E09FE37C1641F020E030E040E251E496
:102E30000E941D2ACF5FF6CFA70196010E94B129FB
:102E40002B013C010E94D22A4B015C012AE0BC010B
:102E5000A4018AEB96E00E947E147C01E00EF11E34
:102E6000CC23D1F1C501B4010E945A289B01AC01C9
:102E7000C301B2010E94B0294B015C016EE28AEBF2
:102E800096E00E942306E80EF91EC15028F120E0CA
:102E900030E040E251E4C501B4010E94BB282B019F
:102EA0003C010E94D22A4B01B12CA12C2AE0B50191
:102EB000A4018AEB96E00E947E14E80EF91EC5017B
:102EC000B4010E945A289B01AC01C301B2010E94C7
:102ED000B0294B015C01D9CFC701CF911F910F9150
:102EE000FF90EF90DF90CF90BF90AF909F908F902A
:102EF0007F906F905F904F900895CF92DF92EF9206
:102F0000FF928091AC0460E0811105C08091AD0416
:102F1000882309F4FEC081E10E94901287EA91E0C3
:102F20000E94961661E080E00E9490128BEA91E088
:102F30000E94961661E089E00E949012C090D2042F
:102F4000D090D304E090D404F090D50423EF3FE474
:102F500043EC57E4C701B6010E94552818160CF43B
:102F6000DEC041E0C701B6010E949B1661E080E02F
:102F70000E949012C090C404D090C504E090C60492
:102F8000F090C70423EF3FE443EC57E4C701B601D8
:102F90000E94552818160CF4C7C041E0C701B601BD
:102FA0000E949B1661E082E10E94901282EC91E007
:102FB0000E94961662E080E00E9490128BEA91E0F7
:102FC0000E949616C090CE04D090CF04E090D0041A
:102FD000F090D10420E030E040E85FE3C701B601A3
:102FE0000E94552862E087FFA4C089E00E949012E9
:102FF00085EC91E00E9496168091CC049091CD04CE
:103000000E94621662E082E10E94901288EC91E0D8
:103010000E949616C090C004D090C104E090C204F3
:10302000F090C30420E030E040E85FE3C701B60160
:103030000E94552862E087FF85C080919805811124
:1030400081C00E94901285EC91E00E9496168091BA
:10305000BE049091BF040E94621663E080E00E946B
:1030600090128BEA91E00E94961663E089E00E943C
:1030700090122AE93FE34CE156E46091B20470916A
:10308000B3048091B4049091B5040E945528181699
:103090000CF461C08BEC91E00E9496166091B20432
:1030A0007091B3048091B4049091B50441E00E9402
:1030B0009B1663E080E00E9490122AE93FE34CE116
:1030C00056E46091AE047091AF048091B004909189
:1030D000B1040E94552818160CF442C08FEC91E000
:1030E0000E9496166091AE047091AF048091B00476
:1030F0009091B10441E00E949B1663E082E10E943E
:10310000901282EC91E0FF90EF90DF90CF900C94C2
:10311000961681E10E9490128AEB91E001CF8EEB2E
:1031200091E00E94961622CF8EEB91E00E949616B7
:1031300039CF89E00E94901242E0C701B6010E9497
:103140009B1660CF80E00E94901242E0C701B6015A
:103150000E949B1682CF8EEB91E00E949616A9CF1B
:103160008EEB91E00E949616C8CFFC018081918180
:10317000009711F00C947B2D0895FC0184859585B2
:10318000009711F00C947B2D08950F931F93CF930C
:10319000DF93EC0188819981009759F02A813B8166
:1031A0002617370730F081E0DF91CF911F910F9103
:1031B00008958B016F5F7F4F0E94042E009759F096
:1031C000998388831B830A832C813D81232B59F7A4
:1031D000FC011082E8CF80E0E7CFEF92FF920F93DF
:1031E0001F93CF93DF93EC01FB01E080F180E114AA
:1031F000F10411F10481158101151105A9F08C81EB
:103200009D81080F191FB801CE010E94C51888239F
:1032100099F0288139818C819D81B701820F931F9C
:103220000E94CA2E1D830C83CE01DF91CF911F9186
:103230000F91FF90EF90089588819981009711F088
:103240000E947B2D198218821D821C821B821A8289
:10325000EBCFEF92FF920F931F93CF93DF93EC018D
:103260007B018A01BA010E94C51828813981811128
:1032700014C02115310519F0C9010E947B2D198256
:1032800018821D821C821B821A82CE01DF91CF918F
:103290001F910F91FF90EF9008951D830C83B7014C
:1032A000C9010E94CA2EF1CFEF92FF920F931F9394
:1032B000CF93DF93CDB7DEB762970FB6F894DEBF3A
:1032C0000FBECDBF8C01CB01F80111821082138299
:1032D0001282158214824AE09E012F5F3F4F7901CE
:1032E000B9010E942028F70101900020E9F73197E9
:1032F000AF014E195F09B701C8010E9429196296F2
:103300000FB6F894DEBF0FBECDBFDF91CF911F91F6
:103310000F91FF90EF900895FB01DC0111961C9234
:103320001E9213961C921E92129715961C921E9234
:1033300014978617970749F06081718161157105AF
:1033400021F0448155810C9429190895FC011182C2
:1033500010821382128215821482FB0101900020D8
:10336000E9F73197AF01461B570B0C942919CF93FE
:10337000DF93CDB7DEB72C970FB6F894DEBF0FBE44
:10338000CDBF1092AB051092AC051092AD05109216
:10339000AE051092A6051092A7051092A8051092EE
:1033A000A9051092A0051092A1051092A2051092F5
:1033B000A30510929B0510929C0510929D051092FA
:1033C0009E051092D6041092D7041092D804109241
:1033D000D9041092C8041092C9041092CA04109221
:1033E000CB041092BA041092BB041092BC04109249
:1033F000BD041092B6041092B7041092B804109253
:10340000B9041092D2041092D3041092D4041092F2
:10341000D5041092C4041092C5041092C6041092F0
:10342000C7041092C0041092C1041092C2041092FA
:10343000C30463ED71E0CE0101960E94A61963ED0D
:1034400071E0CE0107960E94A6191092A505109270
:103450009A05109298051092AF051092A40510924B
:10346000AA0510929F05109299051092AD04109232
:10347000AC04CE0107960E94B518CE0101960E94B9
:10348000B5182C960FB6F894DEBF0FBECDBFDF91F6
:10349000CF9108954F925F926F927F92AF92BF92B9
:1034A000CF92DF92EF92FF920F931F93CF93DF9310
:1034B000FC01028113810230110508F44FC0EC01B8
:1034C000B80190E080E00E945A289B01AC01688519
:1034D00079858A859B850E941D2A2B013C01AC843D
:1034E000BD84D0E0C0E0C12CD12C7601F501619102
:1034F0007191819191915F01A30192010E94B02984
:103500009B01AC010E94BB289B01AC01C701B60125
:103510000E94B1296B017C01CE01019608171907A1
:10352000D9F4BE0190E080E00E945A289B01AC01D2
:10353000C701B6010E941D2ADF91CF911F910F9103
:10354000FF90EF90DF90CF90BF90AF907F906F9003
:103550005F904F900C94602BEC01C8CF60E070E05E
:1035600080EC9FE7DF91CF911F910F91FF90EF903B
:10357000DF90CF90BF90AF907F906F905F904F9013
:1035800008952F923F924F925F926F927F928F9207
:103590009F92AF92BF92CF92DF92EF92FF920F93E2
:1035A0001F93CF93DF93CDB7DEB72F970FB6F89465
:1035B000DEBF0FBECDBFFE01B496619071908F014A
:1035C000312C212CD3018C91882309F4F1C3BFEF56
:1035D0006B1A7B0A7101EFEFEE1AFE0A853209F0D1
:1035E000C6C0B12CA12C07C08D3271F1803361F4BB
:1035F0006894A0F83F01F30181918B3241F1A4F767
:10360000803241F1833249F190ED980F9A3040F5C4
:103610001B821A82F301819190ED980F9A3098F5F0
:103620004AE02A813B81429F7001439FF00C1124A4
:1036300090E3E91AF108D701A80FB11D87FDBA95EB
:10364000BB83AA833F01E6CF6894A1F8D3CF6894E7
:10365000A2F8D0CF6894A3F8CDCF6894A4F8CACFCD
:103660008A32D9F5C8010296D801ED90FC90F7FE98
:1036700031C06894A1F8222733272E193F093B83D4
:103680002A838C013F01D3018C918E3209F048C00E
:10369000C30101966894B2F811962C9130ED320F67
:1036A0003A30F0F4512C412CFC01219130ED320FD5
:1036B0003A3098F5BAE0B49D7001B59DF00C112434
:1036C00030E3E31AF1082701420E511C27FD5A94FA
:1036D000CF01EACFFB82EA82D4CF1B821A82D3CFFA
:1036E0002A32E9F4C8010296D8014D905C9057FE49
:1036F00002C0512C412CB2E06B0E711C8C01930165
:103700002F5F3F4FF30180818C36A1F064F488363F
:10371000D9F18A3661F0930112C03C01F0CF3C012F
:10372000512C412CECCF843711F08A37A1F76894E3
:10373000B1F805C081818C3609F16894B0F8D901DF
:103740008D913D01853609F4EAC10CF0A4C087349F
:1037500009F4E5C114F5853409F4E1C10CF0C1C1E7
:10376000853209F4FBC27101BFEFEB1AFB0A2FEFA0
:103770003FEFA101BE016F5F7F4FFBC2B3E0BB2AE9
:1037800093012E5F3F4FDBCF8181883619F068941B
:10379000A7F8D5CFF0ECAF2AF3CF823609F434C3C3
:1037A0003CF46894A5F88835F1F6F0E18F2E0DC051
:1037B000833609F4CBC18436B1F6E894A4F8AAE0C4
:1037C0008A2E893621F0843611F0B3EFAB22B2FE97
:1037D00002C0E894A0F8950122273270893619F0CA
:1037E000843609F023C1232B09F49CC0F8013896D4
:1037F000F987E887D801CC901196DC901197129642
:10380000EC9012971396FC90139714969C90149733
:103810001596AC91F801F681FC83F801F781FA87DF
:103820009601A701692D7A2F8C819F2F0FE30E94AB
:103830009D2CB22F092D1A2FFC81EA859601A70134
:10384000B8018F2F9E2FA0E00E94CD2C3CF40E9447
:103850008B2C69017A018B01F82FE92FBF92AF926F
:103860002B812F933A813F935F924F92AB2E2F2F54
:103870003E2FA101BE016F5F7F4F84EB9FE00E944E
:10388000B5011C010F900F900F900F900F900F90AB
:103890000885198597CE8F3609F4B3C29CF4873614
:1038A00009F43DC10CF41DC1893609F486CF8E366A
:1038B00009F059CFD801ED91FD918D01A6FE5DC2B1
:1038C000208280CE833709F490C12CF5803709F02F
:1038D0004ACF65016894C0F8D4F8F8013296FB83AA
:1038E000EA83D8010D911C910115110509F015C24B
:1038F00046E0E42EF12C05E010E02CED31E0A101D2
:10390000BE016F5F7F4F84EB9FE00E942B011C0183
:103910000A811B8157CE853709F44FCF883709F4C8
:1039200044CF21CFB0FE48C0C8010496998788874C
:10393000D801CD90DD90ED90FC90D701C60188278D
:10394000B7FD83959927AA27BB278C879D87AE87CC
:10395000BF87D701C601BB0F880B982FDC018C8372
:103960009D83AE83BF83BC2D9D2CEA86FB860C8194
:10397000102FF02FE02F9601A7016F2F702F802FAF
:103980009F2FA0E00E94CD2C4CF40E948B2CB22FD4
:10399000932E4A875B878B01F82FE92FBF92AF9256
:1039A0009B819F93AA81AF935F924F92AC84CB2E61
:1039B000D92CEA84FB845BCFF8013296F987E8873B
:1039C000D801A6FE30C0EC910E2E000CFF0BBF2FCD
:1039D000BB1FBB27BB1FBC836F01EF2EEE0CEE0895
:1039E000FE2C0E2D1E2D9E2CBE2D9F014E2D5E2DCC
:1039F0006E2D7E2D8E2D9E2DA0E00E94CD2C3CF4B0
:103A00000E948B2C69017A018B01982EB92FBF92ED
:103A1000AF92EB81EF93FA81FF935F924F92AC806C
:103A2000292D3B2F26CFED91FC91D1CF232B39F1BE
:103A30009801285F3F4F39872887D801CC9011968D
:103A4000DC9011971296EC9012971396FC901397B6
:103A500014969C91149715968C91159716962C9107
:103A6000169717963C91BF92AF92BB81BF93EA81A4
:103A7000EF935F924F92A12C092F182FFACE980145
:103A8000B0FE19C02C5F3F4F39872887D8010D91B0
:103A90001D912D913C91BF92AF92BB81BF93EA8162
:103AA000EF935F924F92A12C6801790100E010E042
:103AB00020E030E0DECE2E5F3F4F39872887D801E7
:103AC0000D911C91A6FC1127BF92AF92BB81BF93B1
:103AD000EA81EF935F924F92A12C6801E12CF12CC7
:103AE000E5CF863411F46894A5F898012C5F3F4F18
:103AF0003D832C83D8010D911D912D913C91812CFA
:103B0000CA80DB807201A101BE016F5F7F4F84EB31
:103B10009FE00E94BD0E1C010C811D8153CD982F8A
:103B20009F7D973419F46894B3F88D7F853411F430
:103B30006894A5F8F8013496FD83EC83D8010D91C3
:103B40001D912D913C9188248394DACF4501B2E0F8
:103B50008B229924A101CC24C394D12CA1FC1AC09E
:103B6000F12CE12CA1014E0D5F1D6701E2E0CE0EAC
:103B7000D11CFFEFEF1AFF0A2A813B81E216F30600
:103B800048F42FEF3FEFBE016F5F7F4F80E20E944E
:103B9000B40FE8CF1A013FEF231A330A780182E00D
:103BA000E80EF11C2FEF3FEFBE016F5F7F4FD80192
:103BB0008C910E94B40F8928B1F0EA81FB81CE1666
:103BC000DF0688F481010F5F1F4F2FEF3FEFA10148
:103BD000BE016F5F7F4F80E20E94B40FFFEFCF1AEC
:103BE000DF0A1801EACF8701EDCC98012E5F3F4F25
:103BF00039872887D8010D911C910115110589F489
:103C00006501EA80FB8006E010E025ED31E0A101CE
:103C1000BE016F5F7F4F84EB9FE00E942B011C0170
:103C200037CE92014114510411F42FEF3FEFF80108
:103C300090E080E0AF014F5F5F4F6081662331F01D
:103C40008217930719F00196FA01F4CFE01BF10BEC
:103C50009501222734703D832C83B2FE04C04E169A
:103C60005F0608F4F201450132E0832299247F01C6
:103C7000A101A1FC18C02E1A3F0AA1014E0F5F1F1F
:103C80007F018FEFE81AF80AAA81BB81EA17FB07C8
:103C900050F42FEF3FEFBE016F5F7F4F80E20E9435
:103CA000B40FF701EACF6A01C01AD10AA601400F8A
:103CB000511FF80181918F01882391F02C813D8162
:103CC000232B31F0920121503109452849F0290177
:103CD0002FEF3FEFBE016F5F7F4F0E94B40FE6CF23
:103CE0001A01892809F4D4CDE41AF50AC701820D16
:103CF000931DAA81BB818A179B0708F0C9CD81015A
:103D00000F5F1F4F2FEF3FEFA101BE016F5F7F4F8E
:103D100080E20E94B40F1801E9CFDF92CF921F9288
:103D2000B6E0BF935F924F9230E1832EA12C6801E1
:103D3000E12CF12C00E010E020E030E0A101BE0118
:103D40006F5F7F4F84EB9FE00E94B5011C010F90D5
:103D50000F900F900F900F900F90DACD7101EFEF51
:103D6000EE1AFE0A2FEF3FEFA101BE016F5F7F4FFA
:103D700085E20E94B40F170125CCA7FE03C0318253
:103D8000208220CCB0FE08C0C101B0E0A0E080835A
:103D90009183A283B38316CCB1FEF1CF410120827F
:103DA00091821282138214821582168217820ACCA3
:103DB000A101EFEF2E163E0611F44EEF5FEF2FEF4D
:103DC0003FEFBE016F5F7F4F80E00E94B40FC101E3
:103DD0002F960FB6F894DEBF0FBECDBFDF91CF9107
:103DE0001F910F91FF90EF90DF90CF90BF90AF9019
:103DF0009F908F907F906F905F904F903F902F900B
:103E0000089528E0822EE1CC92E0892EDECCEF925C
:103E1000FF920F931F93CF93DF93CDB7DEB76E97CB
:103E20000FB6F894DEBF0FBECDBF65EC71E0CE01DA
:103E30000D960E94A6196091960570919705CE0186
:103E400007960E945419BE01635F7F4FCE01019611
:103E50000E948C19BE01695F7F4FCE0101960E94BE
:103E6000ED18BC01CE0143960E948C19CE0101963B
:103E70000E94B518CE0107960E94B518609194056E
:103E800070919505CE0107960E945419BE01635F9B
:103E90007F4FCE0101960E948C19BE01695F7F4F52
:103EA000CE0101960E94ED18BC01CE0149960E94F8
:103EB0008C19CE0101960E94B518CE0107960E947A
:103EC000B51889E191E00E94FC1284EA96E00E9414
:103ED0005B07162F072FF82EE92E8EE896E00E943A
:103EE0005B07EF92FF920F931F939F938F937F93A4
:103EF0006F938091A7068F938091A6068F9382EE91
:103F000091E09F938F930E94C11A88E796E00E94E8
:103F10005B07162F072FF82EE92E82E696E00E9407
:103F20005B07EF92FF920F931F939F938F937F9363
:103F30006F9380917B068F9380917A068F9382E1B5
:103F400092E09F938F930E94C11A8091A7068F934E
:103F50008091A6068F9383E492E09F938F930E94B3
:103F6000C11A0FB6F894DEBF0FBECDBF8091940585
:103F70009091950502970CF4C6C08A8D8F93898D18
:103F80008F938DE592E09F938F930E94C11A0F90BB
:103F90000F900F900F908091960590919705029742
:103FA0000CF4CCC08C898F938B898F938CE692E034
:103FB0009F938F930E94C11A0F900F900F900F90B4
:103FC0008091B5068F938091B4068F938091B3064C
:103FD0008F938091B2068F9380919F068F938091EB
:103FE0009E068F9380919D068F9380919C068F9360
:103FF0008091A7068F938091A6068F938DE892E01B
:104000009F938F930E94C11A8091B9068F938091DC
:10401000B8068F938091B7068F938091B6068F93E1
:104020008091A3068F938091A2068F938091A10621
:104030008F938091A0068F938091A7068F93809194
:10404000A6068F938DEB92E09F938F930E94C11AE7
:1040500084EA96E00E944A1A162F072FF82EE92EBE
:104060008EE896E00E944A1AEF92FF920F931F93F8
:104070009F938F937F936F938091A7068F938091E7
:10408000A6068F938EEE92E09F938F930E94C11AA3
:104090000FB6F894DEBF0FBECDBF82E696E00E9459
:1040A0004A1A9F938F937F936F939F938F937F93DE
:1040B0006F9380917B068F9380917A068F938FE127
:1040C00093E09F938F930E94C11ACE0149960E945C
:1040D000B518CE0143960E94B518CE010D960E94E8
:1040E000B5180FB6F894DEBF0FBECDBF6E960FB6F3
:1040F000F894DEBF0FBECDBFDF91CF911F910F911E
:10410000FF90EF9008958EE896E00E945B0720E014
:1041100030E04AE754E40E941D2A9F938F937F93D7
:104120006F9383E692E09F938F930E94C11A0F9042
:104130000F900F900F900F900F902DCF84EA96E084
:104140000E945B0720E030E04AE754E40E941D2A09
:104150009F938F937F936F938BE792E09F938F93BF
:104160000E94C11A0F900F900F900F900F900F9018
:1041700027CFCF93DF93CDB7DEB76E970FB6F89406
:10418000DEBF0FBECDBF65EC71E0CE010D960E9483
:10419000A6196091CC047091CD04CE0107960E94BF
:1041A0005419BE01635F7F4FCE0101960E948C19A6
:1041B000BE01695F7F4FCE0101960E94ED18BC01E0
:1041C000CE0143960E948C19CE0101960E94B5182B
:1041D000CE0107960E94B5186091BE047091BF048D
:1041E000CE0107960E945419BE01635F7F4FCE0136
:1041F00001960E948C19BE01695F7F4FCE01019626
:104200000E94ED18BC01CE0149960E948C19CE0186
:1042100001960E94B518CE0107960E94B51885EE4A
:1042200090E00E94FC128091D9048F938091D80471
:104230008F938091D7048F938091D6048F93809130
:10424000CB048F938091CA048F938091C9048F937C
:104250008091C8048F9381E593E09F938F930E9490
:10426000C11A8091D5048F938091D4048F9380914B
:10427000D3048F938091D2048F938091C7048F933E
:104280008091C6048F938091C5048F938091C4045C
:104290008F938DE793E09F938F930E94C11A809133
:1042A000D1048F938091D0048F938091CF048F930A
:1042B0008091CE048F938091C3048F938091C20428
:1042C0008F938091C1048F938091C0048F938CEA67
:1042D00093E09F938F930E94C11A6CEC70E089EB7E
:1042E00095E00E942A060FB6F894DEBF0FBECDBF40
:1042F00020E030E040E85FE36091C0047091C104C9
:104300008091C2049091C3040E94552887FFD3C0B6
:10431000809198058111CFC08A8D8F93898D8F935D
:104320008EE592E09F938F930E94C11A0F900F9099
:104330000F900F9020E030E040E85FE36091CE0402
:104340007091CF048091D0049091D1040E9455289F
:1043500087FFBAC08C898F938B898F938CE692E00C
:104360009F938F930E94C11A0F900F900F900F9000
:1043700080919805811141C08091BD048F938091F7
:10438000BC048F938091BB048F938091BA048F9368
:104390008091B9048F938091B8048F938091B70472
:1043A0008F938091B6048F938EED93E09F938F93BC
:1043B0000E94C11A8091B5048F938091B4048F93A9
:1043C0008091B3048F938091B2048F938091B10454
:1043D0008F938091B0048F938091AF048F938091DD
:1043E000AE048F938AE094E09F938F930E94C11A4A
:1043F0000FB6F894DEBF0FBECDBF8091AC0488230A
:1044000081F08091A4058250990B9F938F9389E34B
:1044100094E09F938F930E94C11A0F900F900F907A
:104420000F908091AD04882381F08091AF05825078
:10443000990B9F938F938AE594E09F938F930E94AB
:10444000C11A0F900F900F900F904091A0055091BE
:10445000A1056091A2057091A3058091A605909198
:10446000A705A091A805B091A905481759076A07A3
:104470007B0740F480919805811104C087EA90E0A1
:104480000E94FC1289E790E00E94FC12CE0149963E
:104490000E94B518CE0143960E94B518CE010D9624
:1044A0000E94B5186E960FB6F894DEBF0FBECDBF52
:1044B000DF91CF91089583EB91E09F938F930E94BA
:1044C000C11A0F900F9036CF80E492E09F938F93A4
:1044D0000E94C11A0F900F904BCF85ED8093BC00C6
:1044E0008091660590916705A0916805B091690576
:1044F0000796A11DB11D23E0B695A79597958795C1
:104500002A95D1F72091BC0024FD03C010926405C8
:104510000895409166055091670560916805709116
:104520006905452B462B472B69F30097A105B1057B
:1045300041F02AE22A95F1F700C00197A109B109DB
:10454000E1CF809165050C9402101F920F920FB677
:104550000F9211242F933F938F939F93AF93BF9309
:104560008091B1059091B205A091B305B091B405C9
:104570003091B00523E0230F2D3758F50196A11D8A
:10458000B11D2093B0058093B1059093B205A0931F
:10459000B305B093B4058091B5059091B605A0918F
:1045A000B705B091B8050196A11DB11D8093B50561
:1045B0009093B605A093B705B093B805BF91AF919E
:1045C0009F918F913F912F910F900FBE0F901F9051
:1045D000189526E8230F0296A11DB11DD2CF1F9278
:1045E0000F920FB60F9211242F933F934F935F9327
:1045F0006F937F938F939F93AF93BF93EF93FF93AB
:10460000E0910201F09103010995FF91EF91BF91B3
:10461000AF919F918F917F916F915F914F913F915A
:104620002F910F900FBE0F901F9018951F920F9211
:104630000FB60F9211242F933F934F935F936F9375
:104640007F938F939F93AF93BF93EF93FF93E091EB
:104650000001F09101010995FF91EF91BF91AF9198
:104660009F918F917F916F915F914F913F912F918A
:104670000F900FBE0F901F9018951F920F920FB6BC
:104680000F9211242F933F934F935F936F937F93D8
:104690008F939F93AF93BF93EF93FF9389EB95E035
:1046A0000E94CC06FF91EF91BF91AF919F918F91A6
:1046B0007F916F915F914F913F912F910F900FBE1E
:1046C0000F901F9018951F920F920FB60F92112402
:1046D0002F938F939F93EF93FF93E091C905F091F0
:1046E000CA058081E091CF05F091D00582FD1BC005
:1046F00090818091D2058F5F8F732091D3058217AF
:1047000041F0E091D205F0E0E754FA4F958F8093A5
:10471000D205FF91EF919F918F912F910F900FBE36
:104720000F901F9018958081F4CF1F920F920FB6B3
:104730000F9211242F933F934F935F936F937F9327
:104740008F939F93AF93BF93EF93FF938091B900A3
:10475000887F803609F44AC0F0F5883209F4A7C092
:1047600018F5803109F49BC0B8F4882309F4F9C026
:10477000883009F494C0FF91EF91BF91AF919F9160
:104780008F917F916F915F914F913F912F910F90FA
:104790000FBE0F901F901895883109F488C08032A1
:1047A00051F78093620514C0803409F49DC040F431
:1047B0008033B9F38833F9F68093620585ECB0C095
:1047C000803509F485C0883509F496C0883499F697
:1047D0000E946D22D0CF883909F48CC038F5883713
:1047E00029F050F4883611F0803729F683E0809361
:1047F000640510923D0557C0883809F47BC08039A4
:1048000019F0803809F0B7CF80913D05803208F06B
:1048100071C0E0913D0581E08E0F80933D05809150
:10482000BB00F0E0E35EFA4F80833DC0803B39F08F
:10483000E0F4803A09F479C0883A09F09CCF84E02A
:104840008093640510921C0510921B05E0918E0563
:10485000F0918F05099580911B0581110FC081E0B2
:1048600080931B051092FB0409C0803C09F4A6CF7D
:10487000883C09F4A3CF883B09F07DCFE0911C056B
:1048800081E08E0F80931C05F0E0E550FB4F8081A6
:104890008093BB0090911C0580911B0529C08091DD
:1048A0003F058093BB0085EC8093BC0064CF909162
:1048B000610580916005981758F5E091610581E0E8
:1048C0008E0F80936105F0E0E05CFA4F8081E9CFC4
:1048D000E091610581E08E0F809361058091BB00BE
:1048E000F0E0E05CFA4F8083909161058091600573
:1048F0009817C8F285E8D8CFE091610581E08E0F66
:10490000809361058091BB00F0E0E05CFA4F80830A
:104910008091630581115CCF81E080933E0584EA3C
:104920008093BC001092640526CF85EC8093BC0078
:104930001092640580913D05803230F4E0913D0590
:10494000F0E0E35EFA4F108260913D0570E0E09187
:104950008C05F0918D058DE195E0099510923D054E
:104960000ACF1092620534CFE9EBF5E01382128290
:1049700088EE93E0A0E0B0E084839583A683B783BC
:104980002EE531E03183208325EC30E03587248724
:1049900024EC30E03787268720EC30E0318B208B09
:1049A00021EC30E0338B228B22EC30E0358B248BF2
:1049B00026EC30E0378B268B118E128E138E148EE0
:1049C000E6E5F6E01382128284839583A683B7839B
:1049D00080E791E091838083EAEBF6E01382128214
:1049E00082E891E09183808387E2848384E18187F8
:1049F00084E08287138684EA96E00E94D5128EE8CE
:104A000096E00E94D51288E796E00E94D51282E6D1
:104A100096E00C94D512789484B5826084BD84B5F8
:104A2000816084BD85B5826085BD85B5816085BDA9
:104A300080916E00816080936E0010928100809161
:104A400081008260809381008091810081608093E9
:104A50008100809180008160809380008091B1000E
:104A600084608093B1008091B00081608093B00039
:104A700080917A00846080937A0080917A008260CD
:104A800080937A0080917A00816080937A0080918F
:104A90007A00806880937A001092C10060E082E022
:104AA0000E948D0560E083E00E948D0562E08CE04D
:104AB0000E948D0562E08BE00E948D058BEA91E1FA
:104AC0009093010180930001809169008C7F816047
:104AD00080936900E89A83E991E1909303018093C0
:104AE000020180916900837F846080936900E99A64
:104AF000E091C905F091CA0582E08083E091C50587
:104B0000F091C6051082E091C705F091C80580E1DB
:104B100080831092D105E091CD05F091CE0586E01D
:104B20008083E091CB05F091CC058081806180830A
:104B3000E091CB05F091CC05808188608083E09185
:104B4000CB05F091CC05808180688083E091CB0516
:104B5000F091CC0580818F7D808310929305109217
:104B6000920510929105109290050E94E40F80E248
:104B700096E090938F0580938E0581E296E0909366
:104B80008D0580938C051092BF068091C4068230FB
:104B900018F098E09093BF068093C20662E370E03D
:104BA00080E090E00E94EE056091C5068AEB96E0F9
:104BB0000E94A91068EE73E080E090E00E94EE058C
:104BC00060E38AEB96E00E946012CBE4D6E4CE016B
:104BD0000197F1F760E38AEB96E00E94601221975B
:104BE000F1F760E38AEB96E00E94601283E592E0C1
:104BF0000197F1F760E28AEB96E00E946012609103
:104C0000BF06606240E08AEB96E00E94791284E081
:104C10008093C00640E06CE08AEB96E00E94791237
:104C20000E94C41282E08093C10640E066E08AEBF5
:104C300096E00E94791240E062E08AEB96E00E94E2
:104C400079128BE39FE10197F1F788E08093C50625
:104C500060E08AEB96E00E94A9100E94C41260E016
:104C600080E00E9490128AE794E00E94961662E02B
:104C700083E00E9490128CE894E00E94961668EB04
:104C80007BE080E090E00E94EE050E94B7190E9450
:104C9000C41260E080E00E94901267E571E08AEB48
:104CA00096E00E942A068BE00E943605892B39F592
:104CB00082E00E94360561E0892BA9F489E00E9418
:104CC00090128AE994E00E94961683E00E943605CD
:104CD00061E0892B71F480E00E9490128AE994E0EF
:104CE0000E949616E5CF89E00E94901283EA94E034
:104CF000EACF80E00E94901283EA94E0F1CF0E9414
:104D00007D17C0E0D0E08091AF05813079F40E943A
:104D1000C9056093AB057093AC058093AD05909386
:104D2000AE058091AF058F5F8093AF051091AA0506
:104D3000113089F40E94C9056093A6057093A705F8
:104D40008093A8059093A9058091AA058F5F809311
:104D5000AA051093A5058091A405813079F40E94DD
:104D6000C9056093A0057093A1058093A205909357
:104D7000A3058091A4058F5F8093A40510919F05E2
:104D8000113089F40E94C90560939B0570939C05BE
:104D900080939D0590939E0580919F058F5F8093E2
:104DA0009F0510939A058CE00E943605892BF9F433
:104DB0008CE691E00E94FC1284EA96E00E942D08A5
:104DC0008EE896E00E942D0888E796E00E942D0864
:104DD00082E696E00E942D088CE00E943605892B21
:104DE000D9F36AEF70E080E090E00E94EE058BE07E
:104DF0000E943605892B09F0B7C060E080E00E9470
:104E000090126FE871E08AEB96E00E942A0661E05A
:104E100080E00E9490128BEA91E00E94961661E079
:104E200089E00E94901284EA96E00E945B070E944B
:104E3000CB2ACB010E94621661E080E00E949012B2
:104E40008EE896E00E945B070E94CB2ACB010E946D
:104E5000621661E082E10E94901282EC91E00E9471
:104E6000961662E080E00E9490128BEA91E00E9428
:104E7000961662E089E00E949012809196059091CA
:104E8000970502970CF495C085EC91E00E94961668
:104E900080919605909197050E94621662E080E0ED
:104EA0000E949012809194059091950502970CF4C0
:104EB0008EC085EC91E00E949616809194059091A9
:104EC00095050E94621662E082E10E94901288ECD1
:104ED00091E00E94961663E080E00E9490128BEAB7
:104EE00091E00E94961663E089E00E9490128BEC9C
:104EF00091E00E94961688E796E00E945B070E9468
:104F0000CB2ACB010E94621663E080E00E949012DF
:104F10008FEC91E00E94961682E696E00E945B0775
:104F20000E94CB2ACB010E94621663E082E10E94BC
:104F3000901282EC91E00E9496168BE00E9436055A
:104F4000892BD9F36AEF70E080E090E00E94EE05D3
:104F500060E080E00E9490126AE771E08AEB96E0E0
:104F60000E942A060E947D178091A5058823B1F032
:104F700080919A058823C9F10E9431120E940F1373
:104F80000E94B9200E94CA140E94B9200E94C01138
:104F90000E94071F0E947D170E94B719209709F4ED
:104FA000B2CE0E94B806882309F4ADCE0E9400005C
:104FB000AACE84EA96E00E945B0720E030E04AE750
:104FC00054E40E941D2A42E00E949B1667CF8EE89F
:104FD00096E00E945B0720E030E04AE754E40E943C
:104FE0001D2A42E00E949B166ECF80919905811187
:104FF000D5CF0E94C9050091A6051091A705209163
:10500000A8053091A905601B710B820B930B6034CE
:1050100072448F40910510F281E080939805ACCFE7
:1050200082E696E00E94BD1888E796E00E94BD18CF
:105030008EE896E00E94BD1884EA96E00C94BD18B4
:10504000BB274A3031F4992322F4BDE29095819533
:105050009F4F0C942C28BB27FB015527AA27880FAC
:10506000991FAA1FA41710F0A41B83955051B9F7DC
:10507000A05DAA3308F0A95DA193009779F7B1115B
:10508000B1931192CB010C944528DC01FC01672FF0
:1050900071917723E1F7329704C07C916D9370830F
:1050A0006291AE17BF07C8F308950E94972808F4CD
:1050B00081E00895E89409C097FB3EF490958095AF
:1050C000709561957F4F8F4F9F4F9923A9F0F92FCE
:1050D00096E9BB279395F695879577956795B7954C
:1050E000F111F8CFFAF4BB0F11F460FF1BC06F5F32
:1050F0007F4F8F4F9F4F16C0882311F096E911C044
:10510000772321F09EE8872F762F05C0662371F064
:1051100096E8862F70E060E02AF09A95660F771F78
:10512000881FDAF7880F9695879597F90895990F54
:105130000008550FAA0BE0E8FEEF16161706E80761
:10514000F907C0F012161306E407F50798F0621B82
:10515000730B840B950B39F40A2661F0232B242B57
:10516000252B21F408950A2609F4A140A6958FEF76
:10517000811D811D08950E94CE280C943F290E9414
:10518000312938F00E94382920F0952311F00C9431
:1051900028290C942E2911240C9473290E9450293B
:1051A00070F3959FC1F3950F50E0551F629FF0017A
:1051B000729FBB27F00DB11D639FAA27F00DB11D93
:1051C000AA1F649F6627B00DA11D661F829F22271C
:1051D000B00DA11D621F739FB00DA11D621F839FA3
:1051E000A00D611D221F749F3327A00D611D231F79
:1051F000849F600D211D822F762F6A2F11249F57C7
:1052000050409AF0F1F088234AF0EE0FFF1FBB1FC9
:10521000661F771F881F91505040A9F79E3F510588
:1052200080F00C9428290C9473295F3FE4F3983E96
:10523000D4F3869577956795B795F795E7959F5F32
:10524000C1F7FE2B880F911D9695879597F90895C4
:1052500097F99F6780E870E060E008959FEF80EC29
:10526000089500240A9416161706180609060895CC
:1052700000240A9412161306140605060895092E32
:105280000394000C11F4882352F0BB0F40F4BF2BA1
:1052900011F460FF04C06F5F7F4F8F4F9F4F0895E1
:1052A00057FD9058440F551F59F05F3F71F04795D7
:1052B000880F97FB991F61F09F3F79F087950895BC
:1052C000121613061406551FF2CF4695F1DF08C0DB
:1052D000161617061806991FF1CF869571056105F8
:1052E00008940895E894BB2766277727CB0197F9A0
:1052F00008952F923F924F925F926F927F928F927A
:105300009F92AF92BF92CF92DF92EF92FF920F9354
:105310001F93CF93DF93CDB7DEB7CA1BDB0B0FB65E
:10532000F894DEBF0FBECDBF09942A88398848881B
:105330005F846E847D848C849B84AA84B984C884B1
:10534000DF80EE80FD800C811B81AA81B981CE0FA8
:10535000D11D0FB6F894DEBF0FBECDBFED0108958D
:105360005058BB27AA270E94C8290C943F290E94A5
:10537000312938F00E94382920F039F49F3F19F480
:1053800026F40C942E290EF4E095E7FB0C942829C2
:10539000E92F0E94502958F3BA1762077307840750
:1053A000950720F079F4A6F50C9472290EF4E09597
:1053B0000B2EBA2FA02D0B01B90190010C01CA01CF
:1053C000A0011124FF27591B99F0593F50F4503E7A
:1053D00068F11A16F040A22F232F342F4427585F6C
:1053E000F3CF469537952795A795F0405395C9F784
:1053F0007EF41F16BA0B620B730B840BBAF091503C
:10540000A1F0FF0FBB1F661F771F881FC2F70EC0DA
:10541000BA0F621F731F841F48F4879577956795AD
:10542000B795F7959E3F08F0B0CF9395880F08F099
:105430009927EE0F9795879508950E94312A0C942D
:105440003F290E94382958F00E94312940F029F460
:105450005F3F29F00C94282951110C9473290C9466
:105460002E290E94502968F39923B1F3552391F313
:10547000951B550BBB27AA2762177307840738F0C3
:105480009F5F5F4F220F331F441FAA1FA9F335D020
:105490000E2E3AF0E0E832D091505040E695001CD4
:1054A000CAF72BD0FE2F29D0660F771F881FBB1F8E
:1054B000261737074807AB07B0E809F0BB0B802D6C
:1054C000BF01FF2793585F4F3AF09E3F510578F098
:1054D0000C9428290C9473295F3FE4F3983ED4F38D
:1054E000869577956795B795F7959F5FC9F7880F6C
:1054F000911D9695879597F90895E1E0660F771FBE
:10550000881FBB1F621773078407BA0720F0621B4E
:10551000730B840BBA0BEE1F88F7E0950895BEE37A
:1055200004D008F490E80895BFE322273327A901A7
:105530000E94582960F19F5748F1B91740F1BFE325
:10554000B91B9927B8503AF4660F771F881F991F27
:10555000B395D2F316C0B8504AF0232F342F452FFD
:10556000562F672F782F8827B850BAF7B85F49F0C1
:105570008695779567955795479537952795BA9569
:10558000B9F716F40E94452B88940895889460E03A
:1055900070E0CB0108950E94D22A6894B1110C9456
:1055A000732908950E94582988F09F5798F0B92FC1
:1055B0009927B751B0F0E1F0660F771F881F991F48
:1055C0001AF0BA95C9F714C0B13091F00E9472294F
:1055D000B1E008950C947229672F782F8827B85F5F
:1055E00039F0B93FCCF3869577956795B395D9F7A0
:1055F0003EF490958095709561957F4F8F4F9F4FAA
:10560000089597FB16F40E94452B0C94082BE89400
:10561000F92F96EBFF2381F0121613061406440BA4
:105620009395F69587957795679557954040FF2315
:10563000B9F71BC099270895882351F49850D2F7E1
:10564000872B762F652F542F432F322F20E0B1F375
:10565000121613061406440B88233AF09A95440F49
:10566000551F661F771F881FCAF755234AF4440F3A
:10567000551F11F460FF04C06F5F7F4F8F4F9F4F26
:10568000880F9695879597F90895909580957095D0
:10569000609550954095309521953F4F4F4F5F4F06
:1056A0006F4F7F4F8F4F9F4F08950E94972808F4A8
:1056B0008FEF089519F416F40C942E290C94A52B51
:1056C0000E945829B8F39923C9F3B6F39F57550B95
:1056D00087FF0E94B32B0024A0E640EA9001805887
:1056E0005695979528F4805C660F771F881F20F0E9
:1056F00026173707480730F4621B730B840B2029E9
:1057000031294A2BA69517940794202531254A273D
:1057100058F7660F771F881F20F0261737074807AE
:1057200030F4620B730B840B200D311D411DA095CD
:1057300081F7B901842F9158880F96958795089520
:105740000E949728880B990B08959F3F31F0915044
:1057500020F4879577956795B795880F911D969555
:10576000879597F9089591505040660F771F881FCD
:10577000D2F70895A1E21A2EAA1BBB1BFD010DC092
:10578000AA1FBB1FEE1FFF1FA217B307E407F507F1
:1057900020F0A21BB30BE40BF50B661F771F881FCD
:1057A000991F1A9469F760957095809590959B0163
:1057B000AC01BD01CF010895052E97FB1EF40094A6
:1057C0000E94F32B57FD07D00E94BA2B07FC03D091
:1057D0004EF40C94F32B50954095309521953F4F06
:1057E0004F4F5F4F089590958095709561957F4FCD
:1057F0008F4F9F4F0895689401C0E894F92FF12BC3
:1058000012F00C942F2CA0E0B0E0E9E0FCE20C9444
:105810007F29092E059422F40E948B2C112392F4E7
:10582000F0E80F26FFEFE094F09400951095B09407
:10583000C094D094A194BF0ACF0ADF0AEF0AFF0AEE
:105840000F0B1F0B0E943A2C07FC0E948B2CCDB72C
:10585000DEB7ECE00C949B29689401C0E8948F9229
:105860009F92CF93DF930E943A2CDF91CF919F902C
:105870008F90089588249924F401E401B0E49F9363
:10588000AA279A158B049C04ED05FE05CF05D007C9
:10589000A10798F4AD2FDC2FCF2FFE2FE92D982CE8
:1058A000892E982F872F762F652F542F432F322F35
:1058B0002227B85031F7BF9127C01B2EBF91BB27BD
:1058C000220F331F441F551F661F771F881F991F04
:1058D000881C991CEE1FFF1FCC1FDD1FAA1FBB1FBA
:1058E0008A149B04EC05FD05CE05DF05A007B10772
:1058F00048F08A189B08EC09FD09CE09DF09A00BC6
:10590000B10B21601A94E1F62EF49401AF01BE01AF
:10591000CD01000C08956095709580959095309517
:105920004095509521953F4F4F4F5F4F6F4F7F4FA1
:105930008F4F9F4F089597FD1094002E083098F0D8
:105940000850232F342F452F562F672F782F892F5C
:10595000912DF4CF159497958795779567955795E1
:105960004795379527950A95AAF71124002D089594
:105970002A0D3B1D4C1D5D1D6E1D7F1D801F911F3F
:1059800008950024A7FD00942A0F301D401D501DCE
:10599000601D701D801D901D08950024A7FD0094BA
:1059A0002A173005400550056005700580059005F3
:1059B0000895EE0FFF1F0590F491E02D09940F93C9
:1059C0001F93CF93DF938230910510F482E090E033
:1059D000E091C806F091C90630E020E0B0E0A0E018
:1059E000309799F42115310509F44AC0281B390B69
:1059F00024303105D8F58A819B816115710589F1C3
:105A0000FB0193838283FE0111C040815181028199
:105A1000138148175907E0F04817590799F4109770
:105A200061F012960C93129713961C933296CF0145
:105A3000DF91CF911F910F9108950093C8061093A5
:105A4000C906F4CF2115310551F04217530738F03C
:105A5000A901DB019A01BD01DF01F801C1CFEF010E
:105A6000F9CF9093C9068093C806CDCFFE01E20F0F
:105A7000F31F819391932250310939832883D7CF23
:105A80002091C6063091C706232B41F420910601D0
:105A9000309107013093C7062093C6062091040178
:105AA000309105012115310541F42DB73EB74091E4
:105AB000080150910901241B350BE091C606F091B5
:105AC000C706E217F307A0F42E1B3F0B2817390770
:105AD00078F0AC014E5F5F4F2417350748F04E0F4A
