:100000000C9415010C9460210C9439210C943D0141
:100010000C943D010C943D010C943D010C943D0168
:100020000C943D010C943D010C943D010C943D0158
:100030000C943D010C943D010C943D010C943D0148
:100040000C94EF200C943D010C94AD210C9487216D
:100050000C943D010C943D010C943D010C943D0128
:100060000C94DF210C943D012A3D3D3D3D3D3D3D3D
:100070003D3D3D3D3D3D3D3D3D3D3D3D3D3D3D3DB0
:100080003D3D3D3D3D3D3D3D3D3D3D3D3D3D3D3DA0
:100090003D3D3D3D2A0020466C6173682053796EDA
:1000A0006320286265747765656E207468652074C6
:1000B000776F206C617365727329002053656E73CE
:1000C0006F72206F722063616D65726120697320A9
:1000D00072657665727365642E20556E61626C651B
:1000E00020746F2063616C63756C61746520637547
:1000F000727461696E2073706565640020415645B5
:10010000524147455320202020202020202020201D
:100110002020202020202020204C415345523220F6
:10012000202020202020202020204C4153455231E7
:10013000002053687574746572205370656564207F
:100140004672616374696F6E200020504152414DC8
:1001500045544552202020202020202020202020EF
:100160002020202020204C415345523220202020A6
:10017000202020202020204C4153455231004C614A
:10018000736572322020204C61736572312020200B
:100190002020005265736574204176657261676541
:1001A000004C61736572322020204C61736572319E
:1001B0002020202020004176657267653220204192
:1001C0007665726167653120202000000000002400
:1001D0000027002A0000000000250028002B000056
:1001E0000000002300260029000404040404040481
:1001F00004020202020202030303030303010204D6
:100200000810204080010204081020010204081098
:1002100020000000080002010000030407000000A5
:10022000000000000000FE22622611241FBECFEF56
:10023000D8E0DEBFCDBF26E0A2ECB4E001C01D9245
:10024000A13EB207E1F714E0A0E0B1E0E2E2FAE596
:1002500002C005900D92A23CB107D9F711E0C4E1AC
:10026000D1E004C02197FE010E940C2BC331D107BD
:10027000C9F70E9455230C94042D0C9400002F9272
:100280003F924F925F926F927F928F929F92AF9226
:10029000BF92CF92DF92EF92FF920F931F93CF9373
:1002A000DF9300D000D0CDB7DEB71C014B015A015F
:1002B000390127019601227033273A83298333E0DD
:1002C000C322DD245C834B83CD2851F46801C41A1A
:1002D000D50A8B819C818C0D9D1D84159505B0F0F0
:1002E0007301E00EF11E4B815C81E614F704F1F01E
:1002F0006A01FFEFCF1ADF0A2FEF3FEFB401F701DA
:1003000082917F01F1010995A601EFCFEB80FC807E
:100310008FEFE81AF80A2FEF3FEF4B815C81B401B1
:1003200080E2F1010995FC82EB82D3CF8B819C8125
:10033000800F911F29813A81232BA1F09C012A195A
:100340003B092415350570F4FC013196FA83E983E5
:100350002FEF3FEFAC01B40180E2F10109958981F3
:100360009A81ECCF0F900F900F900F90DF91CF916B
:100370001F910F91FF90EF90DF90CF90BF90AF90C3
:100380009F908F907F906F905F904F903F902F90B5
:1003900008952F923F924F925F926F927F928F9229
:1003A0009F92AF92BF92CF92DF92EF92FF920F9304
:1003B0001F93CF93DF93CDB7DEB7AF970FB6F89407
:1003C000DEBF0FBECDBF9AA789A77CA76BA75EA78C
:1003D0004DA7CAA2DBA2ECA25F2C402E1DA3322E99
:1003E000232EA8A689A22A968EAC9FAC2A979601A6
:1003F0004E2D5F2D602F712F832D922DA0E00E9436
:10040000002B09F04CC092FC42C080E38983E89441
:1004100084F866246394712C81FC92C0C4018170BD
:10042000992728962EAD3FAD2897232BA9F000974A
:1004300009F486C038A5311105C094012C7033270A
:10044000232B51F028964EAD5FAD289741505109AE
:1004500028965FAF4EAF2897E1E0F0E0EC0FFD1F6C
:10046000E60DF71D830120E3009709F46AC0289682
:100470004EAD5FAD28970417150708F062C0003233
:10048000110509F45EC00F5F1F4F2193EDCF29A125
:10049000203111F4E89484F8712C612CBDCF81E4F3
:1004A00085FE81E6AE014F5F5F4F5FA34EA3712CC7
:1004B000612C8A508FA7A9A0B12CC12CD12CE12C82
:1004C000F12C00E010E02AA13BA14CA1552D642D98
:1004D0007DA1832D922D0E945F2A2A3074F5205D24
:1004E0008FEF681A780AEEA1FFA12193FFA3EEA374
:1004F000A9A0B12CC12CD12CE12CF12C00E010E0F2
:100500002AA13BA14CA1552D642D7DA1832D922DB7
:100510000E94612A2AA33BA34CA3552E462E7DA3FD
:10052000382E292EA0E00E94002B09F475CFF0E2AE
:100530006F16710409F0BFCF6FCF5FA5250FD0CF25
:100540008301E1E0F0E0EC0FFD1FE00FF11F80E31D
:1005500026962EAD3FAD26970217130738F40032CA
:10056000110520F40F5F1F4F8193F2CF39A138306E
:1005700029F46016710610F4E89484F8C4018071BF
:100580009071892B09F447C092FC25C00115110513
:1005900011F126964EAD5FAD26974017510739F001
:1005A00028968EAD9FAD289708171907A1F46016FD
:1005B000710608F099C0C801019759F0E9A1E0312E
:1005C00009F06EC0025011096816790640F08C01DE
:1005D00006C010E000E0F9A1F03109F062C085FC2E
:1005E00054C00032110540F5E1E0F0E0EC0FFD1FD2
:1005F000E00FF11F88E780830F5F1F4F0032110566
:10060000D8F4E1E0F0E0EC0FFD1FE00FF11F80E314
:1006100080830F5F1F4F0032110570F438A533231C
:1006200009F44EC0E1E0F0E0EC0FFD1FE00FF11F18
:100630008DE280830F5F1F4F64012896EEACFFAC04
:1006400028979E012F5F3F4F4DA55EA56BA57CA50A
:1006500089A59AA50E943F01AF960FB6F894DEBF18
:100660000FBECDBFDF91CF911F910F91FF90EF9003
:10067000DF90CF90BF90AF909F908F907F906F90C2
:100680005F904F903F902F90089500321105A0F693
:10069000E1E0F0E0EC0FFD1FE00FF11F88E5ABCFCC
:1006A0008C0129A1223009F0A9CF0032110520F6D2
:1006B000E1E0F0E0EC0FFD1FE00FF11F82E69BCFC1
:1006C00082FE08C0E1E0F0E0EC0FFD1FE00FF11F3B
:1006D0008BE2AFCF83FEB0CFE1E0F0E0EC0FFD1F87
:1006E000E00FF11F80E2A5CF49A14031D1F677CFCD
:1006F0002F923F924F925F926F927F928F929F9232
:10070000AF92BF92CF92DF92EF92FF920F931F931F
:10071000CF93DF93CDB7DEB76E970FB6F894DEBFF9
:100720000FBECDBF09871A872B873C874D875E8711
:100730006F87788B23964EAC5FAC23978C8A9D8A0B
:10074000AE8ABF8AC88ED98EEA8EFB8E8C8F29AD79
:100750003AAD232B09F49EC00A8B1B8B6B847C84DF
:100760004A011B01EDADFEADF3FF3EC0E4FD3CC010
:10077000202F312FA301B401C101A0E00E94002B62
:1007800009F00CF49AC02AE0A22EB12CC12CD12C75
:10079000E12CF12C00E010E02A893B89A301B4018F
:1007A000C1010E942E2AA0E00E94002B99F429ADDD
:1007B0003AAD215031093AAF29AF2A893B89A301CB
:1007C000B401C1010E94302A2A8B3B8B3A014B01B4
:1007D0001C01D9CF2A893B89A301B401C101A0E042
:1007E0000E94002B09F469C021968EAD9FAD219720
:1007F000840D951D9E8F8D8F90E24916510408F04F
:1008000096C0E9ADFAAD3197FAAFE9AFFFEF4F1AF5
:100810005F0A9AE0A92EB12CC12CD12CE12CF12C2D
:1008200000E010E02A893B89A301B401C1010E94C4
:100830002E2A205DED8DFE8D2193FE8FED8F2A896E
:100840003B89A301B401C1010E94302A2A8B3B8B52
:100850003A014B011C01A0E00E94002B69F6219691
:10086000EEADFFAD2197E40DF51D80E320E24216C9
:10087000510409F45CC03FEF431A530A29AD3AAD65
:100880002115310509F4DAC08193215031093AAFBD
:1008900029AFECCF3DAD34FF10C080E248165104C3
:1008A00008F045C02196EEADFFAD2197E40DF51D92
:1008B0008EE28083F20131962F0121966EAC7FACDF
:1008C0002197640C751CF0E24F16510480F52FEF50
:1008D000421A520A8AE0A82EB12CC12CD12CE12C4C
:1008E000F12C00E010E02C893D894E895F89688DEC
:1008F000798D8A8D9B8D0E942E2A205DF301219394
:100900003F012C893D894E895F89688D798D8A8D5B
:100910009B8D0E94302A2C8B3D8B4E8B5F8B688F7A
:10092000798F8A8F9B8FA0E00E94002B61F6FDAD2E
:10093000F1FD29C0F0FF27C02BAD3CAD232B19F1F1
:100940003C8D311106C08DAD9EAD8C709927892BE1
:1009500029F08BAD9CAD01979CAF8BAF2196EEAD8E
:10096000FFAD2197E40DF51D80E32BAD3CAD4216A4
:10097000530648F430E243165104C0F49FEF491A7D
:10098000590A8193F2CFE0E24E16510478F4FC8DBF
:10099000FF23B1F12196EEADFFAD2197E40DF51DDA
:1009A0008DE2808392012F5F3F4F2901CDACDEACF9
:1009B000EBACFCAC820121962EAD3FAD21974FA947
:1009C00058AD6DA97EA98BA99CA90E943F016E9686
:1009D0000FB6F894DEBF0FBECDBFDF91CF911F9150
:1009E0000F91FF90EF90DF90CF90BF90AF909F90CE
:1009F0008F907F906F905F904F903F902F900895D1
:100A00003DAD32FF0CC02196EEADFFAD2197E40D58
:100A1000F51D8BE28083C20101962C01C7CF9DADED
:100A200093FFC4CF2196EEADFFAD2197E40DF51DE8
:100A300080E28083F20131962F01B8CF8EE280836D
:100A40003CCF833081F028F4813099F08230A9F0D6
:100A500008958730A9F08830C9F08430B1F48091CE
:100A600080008F7D03C0809180008F77809380000D
:100A7000089584B58F7784BD089584B58F7DFBCFAD
:100A80008091B0008F778093B00008958091B0007E
:100A90008F7DF9CFCF93DF93282F30E0F901EF5E00
:100AA000FD4F8491F901E350FE4FD491F901E751D4
:100AB000FE4FC491CC23A1F081110E942105EC2F9F
:100AC000F0E0EE0FFF1FE152FE4FA591B491EC91C3
:100AD000ED2381E090E009F480E0DF91CF9108956B
:100AE00080E090E0FACF1F93CF93DF93282F30E080
:100AF000F901EF5EFD4F8491F901E350FE4FD4916F
:100B0000F901E751FE4FC491CC23A9F0162F8111B2
:100B10000E942105EC2FF0E0EE0FFF1FEB52FE4F7D
:100B2000A591B4918FB7F894EC91111108C0D095AC
:100B3000DE23DC938FBFDF91CF911F910895DE2BD1
:100B4000F8CFCF93DF9390E0FC01E350FE4F249168
:100B500087519E4FFC0184918823C9F090E0880F53
:100B6000991FFC01E553FE4FA591B491FC01EB5296
:100B7000FE4FC591D49161110DC09FB7F8948C912F
:100B8000209582238C938881282328839FBFDF911F
:100B9000CF910895623051F49FB7F8943C91822F21
:100BA000809583238C93E8812E2BEFCF8FB7F89419
:100BB000EC912E2B2C938FBFEACF3FB7F894809106
:100BC000CC059091CD05A091CE05B091CF0526B56D
:100BD000A89B05C02F3F19F00196A11DB11D3FBF75
:100BE000BA2FA92F982F8827BC01CD01620F711D44
:100BF000811D911D42E0660F771F881F991F4A953E
:100C0000D1F708958F929F92AF92BF92CF92DF92C9
:100C1000EF92FF924B015C010E94DD056B017C01AC
:100C20000E94DD056C197D098E099F09683E73409D
:100C300081059105A8F321E0821A9108A108B10865
:100C400088EEC80E83E0D81EE11CF11C81149104CB
:100C5000A104B10429F7FF90EF90DF90CF90BF90EF
:100C6000AF909F908F900895089508950895EF9202
:100C7000FF920F931F93CF93DF938C017B01D0E002
:100C8000C0E0F701EC0FFD1F6491662361F0D8010D
:100C9000ED91FC910190F081E02DC8010995892B1F
:100CA00011F02196EECFCE01DF91CF911F910F91E0
:100CB000FF90EF900895AF92BF92CF92DF92EF92A4
:100CC000FF920F931F93CF93DF936C017B018B01F6
:100CD000040F151FEB015E01AE18BF08C017D10746
:100CE00059F06991D601ED91FC910190F081E02DD0
:100CF000C6010995892B79F7C501DF91CF911F9125
:100D00000F91FF90EF90DF90CF90BF90AF9008953C
:100D1000FC01538D448D252F30E0842F90E0821B01
:100D2000930B541710F0CF96089501970895FC0186
:100D3000918D828D981761F0A28DAE0FBF2FB11DDE
:100D40005D968C91928D9F5F9F73928F90E0089536
:100D50008FEF9FEF0895FC01918D828D981731F0F0
:100D6000828DE80FF11D858D90E008958FEF9FEF44
:100D70000895FC01918D228D892F90E0805C9F4F1A
:100D8000821B91098F739927089580ED95E00E9449
:100D9000B90621E0892B09F420E0822F089580E034
:100DA00090E0892B29F00E94C50681110C94000067
:100DB0000895FC01A48DA80FB92FB11DA35ABF4FF0
:100DC0002C91848D90E001968F739927848FA6894A
:100DD000B7892C93A089B1898C91837080648C939E
:100DE000938D848D981306C00288F389E02D80814D
:100DF0008F7D80830895EF92FF920F931F93CF937F
:100E0000DF93EC0181E0888F9B8D8C8D98131AC045
:100E1000E889F989808185FF15C09FB7F894EE892C
:100E2000FF896083E889F989808183708064808389
:100E30009FBF81E090E0DF91CF911F910F91FF90D4
:100E4000EF900895F62E0B8D10E00F5F1F4F0F737C
:100E50001127E02E8C8D8E110CC00FB607FCFACF37
:100E6000E889F989808185FFF5CFCE010E94D906F6
:100E7000F1CFEB8DEC0FFD2FF11DE35AFF4FF08208
:100E80009FB7F8940B8FEA89FB8980818062CFCF6E
:100E9000CF93DF93EC01888D8823B9F0AA89BB89B1
:100EA000E889F9898C9185FD03C0808186FD0DC09C
:100EB0000FB607FCF7CF8C9185FFF2CF808185FFBD
:100EC000EDCFCE010E94D906E9CFDF91CF910895F1
:100ED0008F929F92AF92BF92EF92FF920F931F93C8
:100EE000CF93DF93FC010281138101151105E9F114
:100EF000EC011086118612861386F12CE12C888471
:100F00009984AA84BB840E151F05C9F0C701880FF8
:100F1000991F880F991FEC85FD85E80FF91FA50122
:100F2000940160817181828193810E940328688786
:100F300079878A879B87FFEFEF1AFF0AE0CFB80116
:100F400090E080E00E94AC269B01AC01C501B40199
:100F50000E946F28DF91CF911F910F91FF90EF902A
:100F6000BF90AF909F908F90089560E070E080EC0C
:100F70009FE7F0CFAF92BF92CF92DF92EF92FF92B6
:100F80000F931F93CF93DF93FC01A484B584A11426
:100F9000B10409F44BC06A017B01EC0104811581A5
:100FA000C801880F991F880F991FA80EB91EF50157
:100FB0002081318142815381688579858A859B852D
:100FC0000E940228688779878A879B87F501C082FB
:100FD000D182E282F382A7019601688579858A85AC
:100FE0009B850E940328688779878A879B870F5F84
:100FF0001F4F1D830C83AE80BF800A151B0511F4A3
:101000001D821C820A811B8101151105D1F4CA8A37
:10101000DB8AEC8AFD8ACE86DF86E88AF98A0A15A1
:101020001B0520F40F5F1F4F1B830A83DF91CF91B5
:101030001F910F91FF90EF90DF90CF90BF90AF90F6
:101040000895A70196016E857F85888999890E94F8
:10105000A729181604F3A70196016A897B898C8950
:101060009D890E94A72687FFDACFCA8ADB8AEC8A8D
:10107000FD8AD5CFFC01138212821582148210865C
:1010800011861286138680E090E0A0ECBFE7868789
:101090009787A08BB18B828B938BA48BB58B408170
:1010A000518190E080E0BA016150704C48175907B7
:1010B00091F09B01281B390B220F331F220F331F86
:1010C000A485B585A20FB31F1D921D921D921C927F
:1010D00013970196EBCF089508952F923F924F9268
:1010E0005F926F927F928F929F92AF92BF92CF92B8
:1010F000DF92EF92FF920F931F93CF93DF93CDB7C1
:10110000DEB760970FB6F894DEBF0FBECDBF988BE9
:101110008F876A017B013E872D87DB01CA01882703
:10112000B7FD83959927AA27BB27282F2170EF8524
:10113000F889208B892B21F0F7FAF094F7F8F094D6
:10114000C701B6010E94E12829833A834B835C835F
:101150006D837E838F839887AF85B8892C93119692
:101160003C93119712964C93129713965C93139796
:1011700014966C93149715967C9315978F811696F9
:101180008C931697988517969C93ED85FE85EE0FA8
:10119000FF1FEE0FFF1FEE5EFE4F80819181A28147
:1011A000B38189879A87AB87BC878F8198850E9496
:1011B00053299B01AC01C701B6010E940228298571
:1011C0003A854B855C850E940D272B013C010E94CE
:1011D000E128822E232E342E952E5B018C01AF85C3
:1011E000B88918962C93189719963C9319971A96C4
:1011F0004C931A971B965C931B971C966C931C97A9
:101200001D96BC921D971E968C931E971F961C933D
:101210000E9453299B01AC01C301B2010E94022824
:101220002B013C0120E030E040E05FE30E94A72971
:1012300018160CF0D0C0282D322D432D592DB50194
:10124000C801A1E00E94F42A39014A015B018C0126
:101250000E9453299B01AC0169857A858B859C8509
:101260000E94A72618160CF087C0EF85F8896086C3
:10127000718682869386A486B58606871787ED8554
:10128000FE85EF2B09F05DC0AF85B8891C911196E2
:101290006C90119712967C90129713968C901397DE
:1012A00014969C9014971596AC9015971696BC9032
:1012B000169717960C91212F362D472D582D692DF5
:1012C0007A2D8B2D902F0E9453299B01AC01C701D1
:1012D000B6010E9402286B017C0120E030E040E072
:1012E0005FE30E94A72687FF0AC020E030E040E0CD
:1012F0005FE3C701B6010E94A729181614F5212F34
:10130000217030E040E050E060E070E080E090E08C
:10131000A0E00E94002BA9F0212F362D472D582D3B
:10132000692D7A2D8B2D902FA1E00E94F42AEF8554
:10133000F889208331834283538364837583868352
:1013400097838F85988960960FB6F894DEBF0FBE9D
:10135000CDBFDF91CF911F910F91FF90EF90DF9064
:10136000CF90BF90AF909F908F907F906F905F9045
:101370004F903F902F900895AF85B88918961C9292
:10138000189719961C9219971A961C921A971B96E1
:101390001C921B971C961C921C971D961C921D97C5
:1013A0001E961C921E971F961C9229813A814B8192
:1013B0005C816D817E818F819885A1E00E94F42AF5
:1013C000EF85F88920833183428353836483758357
:1013D0008683978354CF20E030E040E05FE3C30191
:1013E000B2010E94A72681114ACF282D322D432D0C
:1013F000592DB501C801A0E00E94002B61F02170B9
:1014000030E040E050E060E070E080E090E00E947A
:10141000002B09F434CF282D322D432D592DB50141
:10142000C801A1E00E94F42AAF85B88918962C93D0
:10143000189719963C9319971A964C931A971B96DE
:101440005C931B971C966C931C971D967C931D9721
:101450001E968C931E971F969C9311CF2F923F92AE
:101460004F925F926F927F928F929F92AF92BF92B4
:10147000CF92DF92EF92FF920F931F93CF93DF9360
:10148000CDB7DEB7E6970FB6F894DEBF0FBECDBF7F
:101490009CA78BA76DA77EA758AB4FA70A8B1B8B6A
:1014A0002C8B3D8BFF8EEE8EDAAAC9AAB9A6A8A610
:1014B0008BAA9CAA2C962FAD2C972DAB2D963FADC9
:1014C0002D973EAB8A899B89AC89BD898827B7FD5A
:1014D00083959927AA27BB278E8B9F8BA88FB98FBF
:1014E0000E891F890115110549F02A893B894C890C
:1014F0005D8950582A8B3B8B4C8B5D8B20E030E014
:10150000A9016A897B898C899D890E94A726312C33
:10151000212C882309F40FC18A899B89AC89BD8954
:10152000E7E1B695A79597958795EA95D1F799271D
:101530008F579109BC01990F880B990B0E94AE2619
:101540002BE930E24AE95EE30E940D2724E431E50D
:1015500044E35EE30E9403286B017C016A897B8976
:101560008C899D898F77992780689F6320E030E080
:1015700040EC5FE30E9402282BE33DE344E95EE395
:101580000E940D279B01AC01C701B6010E940328F0
:101590000E941D296A8F7B8F8C8F9D8F2A8C3B8C9C
:1015A000B101032C000C880B990B0E94AE266B0135
:1015B0007C0128E73AE944E550E40E940D2720E049
:1015C00030E040E05FE30E9403280E941D294B01A8
:1015D0002EE83DE543E150E4C701B6010E940D2726
:1015E0006B017C01092C000CAA08BB08C501B401E1
:1015F0000E94AE2628E132E741E35FE30E940D2717
:101600009B01AC01C701B6010E9402282B013C01DD
:10161000AC019B010E940D276B017C01A30192018B
:10162000C301B2010E94032868A379A38AA39BA3E4
:1016300020E030E040E651E4C701B6010E946F2887
:1016400020E030E040E251E40E9403289B01AC011D
:10165000C701B6010E946F2820E030E040EC50E462
:101660000E9403289B01AC01C701B6010E946F28AC
:101670006B017C01A301920160E070E080E090E4E6
:101680000E9402289B01AC01C701B6010E940328F9
:101690009B01AC0168A179A18AA19BA10E946F283E
:1016A00020E030E040E85FE30E9403283FE7830E3C
:1016B000911CA11CB11CA5019401F7E1220F331F5D
:1016C000441F551FFA95D1F70E940D272B013C01AD
:1016D000AC019B016A897B898C899D890E94A72620
:1016E00087FF0DC041E0241A310820E030E040E2DD
:1016F00051E4C301B2010E946F282B013C01C101DA
:10170000419651E05AA78332910508F01AA68397B3
:1017100090F4C10137FE04C08827992782199309E4
:10172000880F991F880F991FFC01EE5EFE4F4080C5
:1017300051806280738088A599A593FF8DC1AE8D7D
:10174000BF8D9D01AB2B11F421E030E08E8D9F8D7C
:101750000197BCEF2B16BFEF3B060CF467C02216B7
:1017600033060CF063C082199309AA24A3949F8FB7
:101770008E8F97FF02C01F8E1E8EE8A5F9A5F4601C
:10178000F9A7E8A737FE1AA6A110C1C12114310498
:1017900009F475C18E898170898BFAA5FF2309F43C
:1017A00063C1A30192016A897B898C899D890E940A
:1017B0000D271AA50E94E1282E8B3A8F48A35CA31F
:1017C0006DA37EA3882E9FA30E9453292AA5A3015F
:1017D000222371F192010E946F289B01AC016A895A
:1017E0007B898C899D890E9402286B017C01EE8D8A
:1017F000FF8DEE0FFF1FEE0FFF1FEE5EFE4F80818D
:101800009181A281B3818A8B9B8BAC8BBD8B112381
:1018100099F0A3019201BC01CD010E940D279B010B
:10182000AC01C701B6010E940D273DC0A12C9FCF7E
:1018300092010E940D27D1CFD301C20157E1B69585
:10184000A795979587955A95D1F799279C012F577A
:10185000310937FF03C03195219531098A899B8968
:10186000AC89BD8947E1B695A795979587954A9527
:10187000D1F799278F57910997FF03C091958195CB
:101880009109821793070CF07DC02A893B894C8906
:101890005D89C301B2010E946F289B01AC01C701A1
:1018A000B6010E946F282B013C01AE8DBF8DAB2B82
:1018B00009F071C011E020E030E040E05FE30E94F9
:1018C000A72987FD10E0212F30E040E050E060E0E4
:1018D00070E080E090E0AE88BA8CC8A0DCA0EDA0FB
:1018E000FEA0082D1FA10E94EB2A2E8B3A8F48A341
:1018F0005CA36DA37EA3882E9FA320E030E040E090
:101900005FE3C301B2010E94A726811103C0BE8913
:10191000BE7FBE8B10E0B12CC12C912CD12CE12CC0
:10192000F12C00E02E893A8D48A15CA16DA17EA129
:10193000882D9FA1A9E00E94002BA9F0A4F03FEF01
:10194000231A330A10E0B12CC12C912CD12CE12C9C
:10195000F12C00E041E04E8B1A8E18A21CA21DA2B1
:101960001EA2812C1FA2C1018D599F4F512C25E031
:10197000622E712C873C910508F027C184E0682E07
:10198000712C23C1A30192016A897B898C899D896D
:101990000E946F2844CF0E94E12859016A017B010F
:1019A000082F992E0E9453299B01AC01C301B2015B
:1019B0000E9402282B013C0111E020E030E040E0D1
:1019C0005FE30E94A72987FD10E0212F30E040E06F
:1019D00050E060E070E080E090E0192D0E94EB2A7A
:1019E000122FB32EC42E952ED62EE72EF82E092FA9
:1019F00020E030E040E05FE3C301B2010E94A7268F
:101A0000811101C01E7F212F3B2D4C2D592D6D2D95
:101A10007E2D8F2D902F0E9453299B01AC016A8946
:101A20007B898C899D890E94A72618160CF47ACF91
:101A30002E893A8D48A15CA16DA17EA1882D9FA120
:101A4000A1E00E94F42A2E8B3A8F48A35CA36DA3D9
:101A50007EA3882E9FA35ECF37FC98CE211431043D
:101A600071F08E898170898BA30192016A897B89CB
:101A70008C899D890E946F2810E01AA69BCEA12C0C
:101A8000012B09F046C02E8D3F8D4A895B896C89F8
:101A90007D89CE0101960E946D08F981FE8B2A8115
:101AA0002A8F3B8138A34C814CA35D815DA38E813D
:101AB0008EA38F8098859FA31985BA84CB849C843C
:101AC000DD84EE84FF8408892DCF2E8D3F8D4A89D9
:101AD0005B896C897D89CE0101960E946D08A98180
:101AE000AE8BBA81BA8FEB81E8A3FC81FCA32D8178
:101AF0002DA33E813EA38F8048854FA31985BA84CC
:101B0000CB849C84DD84EE84FF84088927C0012B6C
:101B1000E1F24A895B896C897D8970582E8D3F8DF1
:101B2000CE0101960E946D08E981EE8BFA81FA8F51
:101B30002B8128A33C813CA34D814DA35E815EA3F4
:101B40008F8088858FA31985BA84CB849C84DD849B
:101B5000EE84FF840889AA2009F4E4CE68A479A45D
:101B6000662498E07922A8A5B9A555245394B3FF1B
:101B70002CC0BFEF2B163B0624F13101EFEF6E1A9C
:101B80007E0A2E893A8D48A15CA16DA17EA1882D87
:101B90009FA10E945329F301EE0FFF1FEE0FFF1FBD
:101BA000EE5EFE4F20813181428153810E94A72643
:101BB000811107C02E8D3F8D215031093F8F2E8F0F
:101BC000130155245394712C612C88A599A582701A
:101BD00099279B8B8A8B98A591FF03C06114710490
:101BE00041F4A9A9BAA9CD01861997096A167B06FD
:101BF00010F090E080E0BE89B983EA8DEA83F8A115
:101C0000FB832CA12C833DA13D834EA14E838F826B
:101C10005FA158871987BA86CB869C86DD86EE86BB
:101C2000FF86088BAEA9AF93BDA9BF93ECA9EF9334
:101C3000FBA9FF9329A52F9338A53F939F938F93DB
:101C40004F8D4F935E8D5F9388A98F939FA59F9330
:101C5000AEA5AF93BDA5BF93ECA5EF93FBA5FF93F6
:101C600089809A80AB80BC80CD80DE80EF80F88454
:101C700009851A852B853C854D855E856F8578891C
:101C800089890E9478030FB6F894DEBF0FBECDBFDE
:101C9000511067C02C013FEF431A530A48A5E5E4F1
:101CA00045FFE5E62FEF3FEFAC016DA57EA58E2F3A
:101CB000EBA5FCA50995A32CAA1CAA24AA1C6101CA
:101CC000E32CEE0CEE08FE2C0E2D1E2DFE2DEE2D1F
:101CD00091014E2D5E2D6E2D7E2D8E2D9E2DA0E020
:101CE0000E94002B3CF40E94BE2A69017A018B01FC
:101CF000F82FE92F1F9285E08F9321E0621A710877
:101D00007F926F921F921F929AE0892E2F2F3E2F63
:101D1000A2016DA57EA58BA59CA50E94C9010F906F
:101D20000F900F900F900F900F904A895B89452B71
:101D3000C1F09C01AFA5B8A92A1B3B0BE9A9FAA9E0
:101D40002E173F0770F48C010F5F1F4F2FEF3FEFEF
:101D5000AC016DA57EA580E2EBA5FCA50995C801A7
:101D6000E8CFE6960FB6F894DEBF0FBECDBFDF9189
:101D7000CF911F910F91FF90EF90DF90CF90BF9088
:101D8000AF909F908F907F906F905F904F903F901B
:101D90002F9008952F923F924F925F926F927F9271
:101DA0008F929F92AF92BF92CF92DF92EF92FF926B
:101DB0000F931F93CF93DF93CDB7DEB7E7970FB69F
:101DC000F894DEBF0FBECDBF1C016AAB7BAB4CAB42
:101DD0005DAB28013901CEAADFAA6501B82CA901A3
:101DE0009801C301B8010E94A726882331F1EEA80B
:101DF000FFA803E010E023E931E04CA95DA96AA93E
:101E00007BA9C1010E943F01E7960FB6F894DEBF9F
:101E10000FBECDBFDF91CF911F910F91FF90EF903B
:101E2000DF90CF90BF90AF909F908F907F906F90FA
:101E30005F904F903F902F9008952FEF3FEF4FE727
:101E40005FEFC301B8010E94A72687FF07C0EEA875
:101E5000FFA804E010E027E931E0CFCF2FEF3FEFFC
:101E60004FE75FE7C301B8010E94A72918166CF479
:101E700004E010E02AE831E0C2FC04C003E010E016
:101E80002FE831E0EEA8FFA8B8CF9E012F5F3F4FAB
:101E90004901B11025C028E23BE64EE65EE4C301ED
:101EA000B8010E94A729181654F028E23BE64EE636
:101EB0005EECC301B8010E94A72687FF11C01F92E4
:101EC0001F925601CEA8DFA8930182014CA95DA9FB
:101ED0006AA97BA9C1010E942E0A0F900F9094CF8E
:101EE000D2FC03C086E0E82EF12CF40110E000E003
:101EF00080E332E1E316F10448F00F5F1F4F819356
:101F000091E0E91AF1080032110599F7BB2019F0A8
:101F10001F930F93D6CF9701B301A201CE018196F3
:101F20000E946D081F930F939F928F92DF92CF9222
:101F30002FA92F933EA93F93FF92EF928DA98F93E4
:101F40009CA99F932BA92F933AA93F933F922F923D
:101F500089A09AA0ABA0BCA0CDA0DEA0EFA0F8A461
:101F600009A51AA52BA53CA54DA55EA56FA578A929
:101F700089A90E9478030FB6F894DEBF0FBECDBFCB
:101F800043CF882329F0682F80ED95E00C94FB0661
:101F90000895089520913205260F3327331F2132EB
:101FA0003105ECF420917B05FC0190E080E02430C9
:101FB00069F082E00895A09132052191AC014E5E56
:101FC0005A4FA40FB52FB11D2C930196861798F385
:101FD00080913205680F6093320580E0089581E0BA
:101FE000089510927B0581E080937A051092550543
:101FF00061E082E10E94730561E083E10E94730564
:10200000E9EBF0E080818E7F808380818D7F80830B
:1020100088E48093B80085E48093BC000895CF9352
:10202000DF9391E0909311058823B9F0C091B80037
:10203000D091BA008091BC008A7B8093BC0060E0A4
:1020400082E10E94730560E083E10E9473050E94B3
:10205000F10FD093BA00C093B800DF91CF910895EB
:102060000895E091AA058091A905E81730F4F0E001
:10207000EF50FB4F808190E008958FEF9FEF089520
:102080009091AA058091A9052FEF3FEF981748F48A
:10209000E92FF0E0EF50FB4F208130E09F5F9093FD
:1020A000AA05C90108958091A9059091AA05891BE7
:1020B000990B0895CF92DF92EF92FF920F931F93A7
:1020C000CF93DF937C01CB018A01209181052223EC
:1020D00089F0EB016B01C40ED51ECC15DD0569F04E
:1020E0006991D701ED91FC910190F081E02DC7013C
:1020F0000995F3CF642F0E94CA0FC801DF91CF91D9
:102100001F910F91FF90EF90DF90CF900895CF93A4
:10211000DF931F92CDB7DEB769832091810522231B
:10212000F9F02091A705203258F021E030E0FC01C1
:102130003383228390E080E00F90DF91CF91089568
:102140008091A805E82FF0E0EE57FA4F998190832F
:102150008F5F8093A8058093A70581E090E0ECCF86
:1021600061E0CE0101960E94CA0FF7CFCF92DF92B5
:10217000EF92FF920F931F93CF93DF93FC01C481E3
:1021800021E020938105C093A2051092A80510922A
:10219000A7058385682B8DE696E00E948710D09175
:1021A000A705D13208F092C00E94DD056B017C01C9
:1021B00080917B05811165C082E080937B0581E081
:1021C00080937A058FEF8093790510927805D093EC
:1021D0007705A2E8B5E0E7E5F5E080E0D81385C033
:1021E0001092560580915605CC0FC82BC09356050A
:1021F00080915505813009F07CC0109255050E94F0
:10220000DD056B017C01809156058093BB008091B8
:102210007D0590917E05A0917F05B0918005892B69
:102220008A2B8B2B99F00E94DD0500917D05109182
:102230007E0520917F05309180056C197D098E09FE
:102240009F090617170728073907E0F18091BC009E
:1022500083FDD9CF85EC8093BC000E94DD056B0126
:102260007C0180917B05823009F445C0809179051D
:102270008F3F61F180917905803241F1809179053C
:1022800025C080917D0590917E05A0917F05B0913C
:102290008005892B8A2B8B2B09F48ACF0E94DD05C0
:1022A00000917D0510917E0520917F05309180057C
:1022B0006C197D098E099F0906171707280739072A
:1022C00008F076CF80917C050E940F101092A8052F
:1022D0001092A70510928105DF91CF911F910F9168
:1022E000FF90EF90DF90CF9008959D9191938F5F35
:1022F00075CF85EEB0CF80917D0590917E05A09140
:102300007F05B0918005892B8A2B8B2B09F4A9CFEF
:102310000E94DD0500917D0510917E0520917F05CD
:10232000309180056C197D098E099F0906171707E2
:102330002807390708F095CFC5CF90E080E00895D1
:1023400083E00E944A05892B41F48091BB058F5F91
:102350008093BB0581E08093B00583E00E944A052D
:10236000019729F48091B6058F5F8093B605089593
:1023700082E00E944A05892B29F48091C6058F5F6F
:102380008093C60582E00E944A05019729F4809156
:10239000C1058F5F8093C10508954F925F926F9240
:1023A0007F928F929F92AF92BF92CF92DF92EF92E5
:1023B000FF92CF93DF93CDB7DEB72D970FB6F8948A
:1023C000DEBF0FBECDBFC090B705D090B805E0907E
:1023D000B905F090BA052091C2053091C30540912E
:1023E000C4055091C50529833A834B835C83409093
:1023F000BD055090BE056090BF057090C005C21627
:10240000D306E406F50670F08091B2059091B3050D
:10241000A091B405B091B50584159505A605B7053D
:1024200008F070C181E08093D60453014201898194
:102430009A81AB81BC81881A990AAA0ABB0A809248
:10244000ED049092EE04A092EF04B092F004C50166
:10245000B4010E94AC2620E030E04AE754E40E9438
:102460006F286D837E838F8398876093DD047093DC
:10247000DE048093DF049093E004C501B4010E9460
:10248000AE2620E034E244E759E40E946F289B0125
:10249000AC012093D2043093D3044093D4045093DE
:1024A000D50460E070E080E89FE30E946F2820E0A0
:1024B00030E040E05FE30E9403280E941D297093F2
:1024C000D1046093D0049091AF059D8791111DC1F7
:1024D0002091B2053091B3054091B4055091B505F6
:1024E00029873A874B875C8749015A018C189D08D8
:1024F000AE08BF088092E9049092EA04A092EB042F
:10250000B092EC04C501B4010E94AC2620E030E09A
:102510004AE754E40E946F286093D9047093DA0468
:102520008093DB049093DC04C501B4010E94AE26C5
:1025300020E034E244E759E40E946F289B01AC019B
:102540002093CC043093CD044093CE045093CF0419
:1025500060E070E080E89FE30E946F2820E030E0B8
:1025600040E05FE30E9403280E941D297093CB0482
:102570006093CA04C701B60129813A814B815C810D
:10258000621B730B840B950B6093E5047093E60458
:102590008093E7049093E804C984DA84EB84FC8494
:1025A000C418D508E608F708C092E104D092E20406
:1025B000E092E304F092E4040E94AC2620E030E0D4
:1025C0004AE754E40E946F286093C6047093C704DE
:1025D0008093C8049093C904C701B6010E94AC2639
:1025E00020E030E04AE754E40E946F286093C20480
:1025F0007093C3048093C4049093C5044D815E819D
:102600006F8178858BEB96E00E94BA073D8531118A
:1026100028C08091D604811124C04091D9045091E2
:10262000DA046091DB047091DC0485EA96E00E9494
:10263000BA074091C6045091C7046091C8047091D4
:10264000C9048FE896E00E94BA074091C2045091F5
:10265000C3046091C4047091C50489E796E00E94A8
:10266000BA078BEB96E00E94680720E030E04AE76B
:1026700054E40E946F289B01AC0160E070E080E8A8
:102680009FE30E946F2820E030E040E05FE30E947B
:1026900003280E941D297093AE056093AD0585EA5D
:1026A00096E00E94680720E030E04AE754E40E9488
:1026B0006F289B01AC0160E070E080E89FE30E941E
:1026C0006F2820E030E040E05FE30E9403280E9492
:1026D0001D297093AC056093AB052D960FB6F89449
:1026E000DEBF0FBECDBFDF91CF91FF90EF90DF90A7
:1026F000CF90BF90AF909F908F907F906F905F90A2
:102700004F9008951092D60490CE1092E904109242
:10271000EA041092EB041092EC041092D904109287
:10272000DA041092DB041092DC041092CC041092B4
:10273000CD041092CE041092CF041092CB041092CC
:10274000CA045CCF8FB7F8944091C8055091C90571
:102750006091CA057091CB058FBF21E03FB7F89417
:102760008091C8059091C905A091CA05B091CB058B
:102770003FBF841B950BA60BB70B883E9340A1056A
:10278000B10538F48091BB05833040F32093D70422
:10279000E5CF8091C605833018F081E08093D8049E
:1027A00008950F931F93CF938C01C62F0E94B610EC
:1027B0006C2F6460C8010E94B6106C2F6B7FC8013B
:1027C0000E94B61083EC90E00197F1F7CF911F9132
:1027D0000F9108950F931F93CF93DF938C01D62F02
:1027E000C42F607F642B0E94D11380E1D89FB00179
:1027F00011246C2BC801DF91CF911F910F910C9484
:10280000D113CF93DF93CDB7DEB728970FB6F894E7
:10281000DEBF0FBECDBF98E0EAE0F1E0DE01119629
:1028200001900D929A95E1F79091D906961710F4C0
:102830006FEF690F262F30E0220F331F41E050E089
:102840004C0F5D1F240F351FF9016081680F606810
:1028500040E081ED96E028960FB6F894DEBF0FBEFB
:10286000CDBFDF91CF910C94EA1341E00E94EA13AF
:1028700081E090E0089540E061E081ED96E00E9403
:10288000EA138BE39FE10197F1F70895CF93DF936C
:10289000EC018AE090E0998388839F838E8388E2AD
:1028A00090E00E94122B9D878C87892B11F419824E
:1028B0001882CE01DF91CF910C943A08FB01019070
:1028C0000020E9F73197AF01461B570BDC01ED9172
:1028D000FC910280F381E02D0994CF93DF93BC013A
:1028E00080ED95E00E943706EC016CE971E080ED27
:1028F00095E00E945E148C0F9D1FDF91CF9108958B
:102900008F929F92AF92BF920F931F93CF93DF93BB
:10291000CDB7DEB7A1970FB6F894DEBF0FBECDBF1F
:1029200019A2423008F44AE08E010F5D1F4F842E39
:10293000912CB12CA12CA50194010E940C2AE62F08
:10294000B901CA01EA3004F5E05DD801EE938D01CA
:10295000232B242B252B79F790E080E0109729F08A
:10296000BD0181ED96E00E945E14A1960FB6F89429
:10297000DEBF0FBECDBFDF91CF911F910F91BF90F2
:10298000AF909F908F900895E95CDFCFCF92DF9258
:10299000EF92FF926C01990FEE08FF08F7FE16C048
:1029A00041E06DE281ED96E00E94EA136627772709
:1029B000CB016C197D098E099F094AE00E948014A1
:1029C0000196FF90EF90DF90CF9008954AE0C70105
:1029D000B601FF90EF90DF90CF900C948014BC0173
:1029E00081ED96E00C945E144F925F926F927F920D
:1029F0008F929F92AF92BF92CF92DF92EF92FF920F
:102A00000F931F93CF936B017C01742EAC019B013C
:102A10000E94F22963E971E0811126C04601570145
:102A2000E894B7F82FEF3FEF4FE75FE7C501B40138
:102A30000E94F22981110CC02FEF3FEF4FE75FE7B3
:102A4000C501B4010E94A7266FE971E0181664F071
:102A50002FEF3FEF4FE75FE4C701B6010E94A729C0
:102A60001816ACF463EA71E081ED96E0CF911F9106
:102A70000F91FF90EF90DF90CF90BF90AF909F901D
:102A80008F907F906F905F904F900C945E142FEF1B
:102A90003FEF4FE75FECC701B6010E94A72687FD15
:102AA000E1CF20E030E0A901C701B6010E94A726CE
:102AB00010E000E087FF0CC041E06DE281ED96E0A0
:102AC0000E94EA13F7FAF094F7F8F09401E010E0AE
:102AD000C0E060E070E080E09FE37C1641F020E021
:102AE00030E040E251E40E946F28CF5FF6CFA701AB
:102AF00096010E9403284B015C010E9424292B01AE
:102B00003C014AE00E948014080F191FCC23C9F130
:102B1000C301B2010E94AC269B01AC01C501B40106
:102B20000E9402284B015C0141E06EE281ED96E0DB
:102B30000E94EA130F5F1F4FC15018F120E030E0F0
:102B400040E251E4C501B4010E940D272B013C0174
:102B50000E9424294B01B12CA12C4AE0C501B401EB
:102B60000E948014080F191FC501B4010E94AC26F1
:102B70009B01AC01C301B2010E9402284B015C0120
:102B8000DBCFC801CF911F910F91FF90EF90DF90A5
:102B9000CF90BF90AF909F908F907F906F905F90FD
:102BA0004F900895CF92DF92EF92FF928091D704D9
:102BB00060E0811105C08091D804882309F4B2C077
:102BC00081E10E94011487EA91E00E94EF1461E024
:102BD00080E00E9401148BEA91E00E94EF1461E012
:102BE00089E00E940114C090DD04D090DE04E090E2
:102BF000DF04F090E00423EF3FE443EC57E4C70127
:102C0000B6010E94A72618160CF492C041E0C70135
:102C1000B6010E94F41461E080E00E940114C090AB
:102C2000D904D090DA04E090DB04F090DC0423EFC8
:102C30003FE443EC57E4C701B6010E94A7261816EB
:102C40000CF47BC041E0C701B6010E94F41461E0BE
:102C500082E10E94011482EC91E00E94EF1462E094
:102C600080E00E9401148BEA91E00E94EF14C09072
:102C7000D204D090D304E090D404F090D50420E0A6
:102C800030E040E85FE3C701B6010E94A72662E09A
:102C900087FF58C089E00E94011485EC91E00E94F2
:102CA000EF148091D0049091D1040E94C61462E088
:102CB00082E10E94011488EC91E00E94EF14C09020
:102CC000CC04D090CD04E090CE04F090CF0420E06E
:102CD00030E040E85FE3C701B6010E94A72662E04A
:102CE00087FF39C08091AF05811135C00E94011462
:102CF00085EC91E00E94EF148091CA049091CB047E
:102D00000E94C6148091D60463E0882369F180E0B4
:102D10000E9401148BEC91E0FF90EF90DF90CF9038
:102D20000C94EF1481E10E9401148AEB91E04DCFE5
:102D30008EEB91E00E94EF146ECF8EEB91E00E943B
:102D4000EF1485CF89E00E94011442E0C701B6016B
:102D50000E94F414ACCF80E00E94011442E0C7014D
:102D6000B6010E94F414CECF80E00E9401148BEAD9
:102D700091E00E94EF1463E089E00E9401142AE9C7
:102D80003FE34CE156E46091C6047091C704809122
:102D9000C8049091C9040E94A7261816CCF180EEB1
:102DA00091E00E94EF146091C6047091C704809175
:102DB000C8049091C90441E00E94F41463E080E0EB
:102DC0000E9401142AE93FE34CE156E46091C204F9
:102DD0007091C3048091C4049091C5040E94A726F9
:102DE0001816DCF084EE91E00E94EF146091C204AA
:102DF0007091C3048091C4049091C50441E00E9485
:102E0000F41463E082E10E94011482EC91E084CF2B
:102E10008EEB91E00E94EF14D1CF8EEB91E00E94F7
:102E2000EF14EFCFFC0180819181009711F00C9499
:102E3000AE2B0895FC0184859585009711F00C94C4
:102E4000AE2B08950F931F93CF93DF93EC018881EE
:102E50009981009759F02A813B812617370730F076
:102E600081E0DF91CF911F910F9108958B016F5FEA
:102E70007F4F0E94372C009759F0998388831B83DA
:102E80000A832C813D81232B59F7FC011082E8CF66
:102E900080E0E7CFEF92FF920F931F93CF93DF93E2
:102EA000EC01FB01E080F180E114F10411F10481F7
:102EB000158101151105A9F08C819D81080F191F3D
:102EC000B801CE010E942217882399F02881398108
:102ED0008C819D81B701820F931F0E94FD2C1D8361
:102EE0000C83CE01DF91CF911F910F91FF90EF9056
:102EF000089588819981009711F00E94AE2B198264
:102F000018821D821C821B821A82EBCFEF92FF92E5
:102F10000F931F93CF93DF93EC017B018A01BA01DA
:102F20000E94221728813981811114C02115310591
:102F300019F0C9010E94AE2B198218821D821C82D1
:102F40001B821A82CE01DF91CF911F910F91FF90CA
:102F5000EF9008951D830C83B701C9010E94FD2CD9
:102F6000F1CFEF92FF920F931F93CF93DF93CDB7E3
:102F7000DEB762970FB6F894DEBF0FBECDBF8C01EF
:102F8000CB01F80111821082138212821582148201
:102F90004AE09E012F5F3F4F7901B9010E947226DE
:102FA000F70101900020E9F73197AF014E195F0951
:102FB000B701C8010E94861762960FB6F894DEBF6B
:102FC0000FBECDBFDF91CF911F910F91FF90EF907A
:102FD0000895FB01DC0111961C921E9213961C921F
:102FE0001E92129715961C921E9214978617970799
:102FF00049F0608171816115710521F0448155812D
:103000000C9486170895FC0111821082138212829B
:1030100015821482FB0101900020E9F73197AF017E
:10302000461B570B0C948617CF93DF93CDB7DEB7B3
:103030002C970FB6F894DEBF0FBECDBF1092C2051D
:103040001092C3051092C4051092C5051092BD05DB
:103050001092BE051092BF051092C0051092B705E0
:103060001092B8051092B9051092BA051092B205E7
:103070001092B3051092B4051092B5051092ED04AC
:103080001092EE041092EF041092F0041092E904F2
:103090001092EA041092EB041092EC041092E504F2
:1030A0001092E6041092E7041092E8041092E104F2
:1030B0001092E2041092E3041092E4041092DD04F2
:1030C0001092DE041092DF041092E0041092D904F2
:1030D0001092DA041092DB041092DC0468EE71E0C6
:1030E000CE0101960E94031868EE71E0CE010796AA
:1030F0000E9403181092BC051092B1051092AF0502
:103100001092C6051092BB051092C1051092B6052B
:103110001092B0051092D8041092D7041092D604E1
:10312000CE0107960E941217CE0101960E94121737
:103130002C960FB6F894DEBF0FBECDBFDF91CF91B6
:1031400008954F925F926F927F92AF92BF92CF920B
:10315000DF92EF92FF920F931F93CF93DF93FC01C7
:10316000028113810230110508F44FC0EC01B8014F
:1031700090E080E00E94AC269B01AC0168857985D7
:103180008A859B850E946F282B013C01AC84BD84FD
:10319000D0E0C0E0C12CD12C7601F5016191719194
:1031A000819191915F01A30192010E9402289B01EC
:1031B000AC010E940D279B01AC01C701B6010E9422
:1031C00003286B017C01CE01019608171907D9F479
:1031D000BE0190E080E00E94AC269B01AC01C701DB
:1031E000B6010E946F28DF91CF911F910F91FF9040
:1031F000EF90DF90CF90BF90AF907F906F905F90F7
:103200004F900C94B229EC01C8CF60E070E080ECE4
:103210009FE7DF91CF911F910F91FF90EF90DF908B
:10322000CF90BF90AF907F906F905F904F90089538
:103230002F923F924F925F926F927F928F929F92C6
:10324000AF92BF92CF92DF92EF92FF920F931F93B4
:10325000CF93DF93CDB7DEB72F970FB6F894DEBFCD
:103260000FBECDBFFE01B496619071908F01312CDD
:10327000212CD3018C91882309F4F1C3BFEF6B1A81
:103280007B0A7101EFEFEE1AFE0A853209F0C6C023
:10329000B12CA12C07C08D3271F1803361F4689498
:1032A000A0F83F01F30181918B3241F1A4F7803204
:1032B00041F1833249F190ED980F9A3040F51B822D
:1032C0001A82F301819190ED980F9A3098F54AE0B7
:1032D0002A813B81429F7001439FF00C112490E3AF
:1032E000E91AF108D701A80FB11D87FDBA95BB8374
:1032F000AA833F01E6CF6894A1F8D3CF6894A2F8DF
:10330000D0CF6894A3F8CDCF6894A4F8CACF8A32FE
:10331000D9F5C8010296D801ED90FC90F7FE31C0B6
:103320006894A1F8222733272E193F093B832A836B
:103330008C013F01D3018C918E3209F048C0C3014A
:1033400001966894B2F811962C9130ED320F3A3014
:10335000F0F4512C412CFC01219130ED320F3A3028
:1033600098F5BAE0B49D7001B59DF00C112430E3DE
:10337000E31AF1082701420E511C27FD5A94CF0190
:10338000EACFFB82EA82D4CF1B821A82D3CF2A32C1
:10339000E9F4C8010296D8014D905C9057FE02C036
:1033A000512C412CB2E06B0E711C8C0193012F5FEC
:1033B0003F4FF30180818C36A1F064F48836D9F157
:1033C0008A3661F0930112C03C01F0CF3C01512CD0
:1033D000412CECCF843711F08A37A1F76894B1F80B
:1033E00005C081818C3609F16894B0F8D9018D91BE
:1033F0003D01853609F4EAC10CF0A4C0873409F414
:10340000E5C114F5853409F4E1C10CF0C1C1853280
:1034100009F4FBC27101BFEFEB1AFB0A2FEF3FEF7C
:10342000A101BE016F5F7F4FFBC2B3E0BB2A9301D6
:103430002E5F3F4FDBCF8181883619F06894A7F863
:10344000D5CFF0ECAF2AF3CF823609F434C33CF485
:103450006894A5F88835F1F6F0E18F2E0DC083361B
:1034600009F4CBC18436B1F6E894A4F8AAE08A2E18
:10347000893621F0843611F0B3EFAB22B2FE02C0E0
:10348000E894A0F8950122273270893619F0843625
:1034900009F023C1232B09F49CC0F8013896F98761
:1034A000E887D801CC901196DC9011971296EC9099
:1034B00012971396FC90139714969C901497159658
:1034C000AC91F801F681FC83F801F781FA87960147
:1034D000A701692D7A2F8C819F2F0FE30E94D02A9C
:1034E000B22F092D1A2FFC81EA859601A701B80198
:1034F0008F2F9E2FA0E00E94002B3CF40E94BE2A3A
:1035000069017A018B01F82FE92FBF92AF922B81CD
:103510002F933A813F935F924F92AB2E2F2F3E2FE6
:10352000A101BE016F5F7F4F81EC9FE00E94C90146
:103530001C010F900F900F900F900F900F90088527
:10354000198597CE8F3609F4B3C29CF4873609F4F7
:103550003DC10CF41DC1893609F486CF8E3609F0C1
:1035600059CFD801ED91FD918D01A6FE5DC220825B
:1035700080CE833709F490C12CF5803709F04ACF0B
:1035800065016894C0F8D4F8F8013296FB83EA83A9
:10359000D8010D911C910115110509F015C246E0E5
:1035A000E42EF12C05E010E021EF31E0A101BE0195
:1035B0006F5F7F4F81EC9FE00E943F011C010A81F9
:1035C0001B8157CE853709F44FCF883709F444CF94
:1035D00021CFB0FE48C0C801049699878887D801DA
:1035E000CD90DD90ED90FC90D701C6018827B7FD06
:1035F00083959927AA27BB278C879D87AE87BF878E
:10360000D701C601BB0F880B982FDC018C839D83EB
:10361000AE83BF83BC2D9D2CEA86FB860C81102FC8
:10362000F02FE02F9601A7016F2F702F802F9F2F73
:10363000A0E00E94002B4CF40E94BE2AB22F932ED1
:103640004A875B878B01F82FE92FBF92AF929B814E
:103650009F93AA81AF935F924F92AC84CB2ED92CCB
:10366000EA84FB845BCFF8013296F987E887D801BA
:10367000A6FE30C0EC910E2E000CFF0BBF2FBB1F1F
:10368000BB27BB1FBC836F01EF2EEE0CEE08FE2C98
:103690000E2D1E2D9E2CBE2D9F014E2D5E2D6E2DAE
:1036A0007E2D8E2D9E2DA0E00E94002B3CF40E94CA
:1036B000BE2A69017A018B01982EB92FBF92AF9271
:1036C000EB81EF93FA81FF935F924F92AC80292DAB
:1036D0003B2F26CFED91FC91D1CF232B39F19801CF
:1036E000285F3F4F39872887D801CC901196DC900E
:1036F00011971296EC9012971396FC9013971496CC
:103700009C91149715968C91159716962C91169757
:1037100017963C91BF92AF92BB81BF93EA81EF9322
:103720005F924F92A12C092F182FFACE9801B0FE6C
:1037300019C02C5F3F4F39872887D8010D911D9103
:103740002D913C91BF92AF92BB81BF93EA81EF93E1
:103750005F924F92A12C6801790100E010E020E017
:1037600030E0DECE2E5F3F4F39872887D8010D919C
:103770001C91A6FC1127BF92AF92BB81BF93EA8137
:10378000EF935F924F92A12C6801E12CF12CE5CFD1
:10379000863411F46894A5F898012C5F3F4F3D835F
:1037A0002C83D8010D911D912D913C91812CCA80C3
:1037B000DB807201A101BE016F5F7F4F81EC9FE052
:1037C0000E94CA0E1C010C811D8153CD982F9F7D34
:1037D000973419F46894B3F88D7F853411F46894A4
:1037E000A5F8F8013496FD83EC83D8010D911D9165
:1037F0002D913C9188248394DACF4501B2E08B224D
:103800009924A101CC24C394D12CA1FC1AC0F12C81
:10381000E12CA1014E0D5F1D6701E2E0CE0ED11C2F
:10382000FFEFEF1AFF0A2A813B81E216F30648F404
:103830002FEF3FEFBE016F5F7F4F80E20E94C10F0D
:10384000E8CF1A013FEF231A330A780182E0E80E2D
:10385000F11C2FEF3FEFBE016F5F7F4FD8018C91BE
:103860000E94C10F8928B1F0EA81FB81CE16DF06E4
:1038700088F481010F5F1F4F2FEF3FEFA101BE01C1
:103880006F5F7F4F80E20E94C10FFFEFCF1ADF0A08
:103890001801EACF8701EDCC98012E5F3F4F3987A1
:1038A0002887D8010D911C910115110589F4650136
:1038B000EA80FB8006E010E02AEE31E0A101BE01C3
:1038C0006F5F7F4F81EC9FE00E943F011C0137CE6C
:1038D00092014114510411F42FEF3FEFF80190E0F1
:1038E00080E0AF014F5F5F4F6081662331F0821748
:1038F000930719F00196FA01F4CFE01BF10B950143
:10390000222734703D832C83B2FE04C04E165F061E
:1039100008F4F201450132E0832299247F01A101DC
:10392000A1FC18C02E1A3F0AA1014E0F5F1F7F0194
:103930008FEFE81AF80AAA81BB81EA17FB0750F457
:103940002FEF3FEFBE016F5F7F4F80E20E94C10FFC
:10395000F701EACF6A01C01AD10AA601400F511F30
:10396000F80181918F01882391F02C813D81232BD7
:1039700031F0920121503109452849F029012FEFFA
:103980003FEFBE016F5F7F4F0E94C10FE6CF1A016C
:10399000892809F4D4CDE41AF50AC701820D931DD4
:1039A000AA81BB818A179B0708F0C9CD81010F5FEF
:1039B0001F4F2FEF3FEFA101BE016F5F7F4F80E2EE
:1039C0000E94C10F1801E9CFDF92CF921F92B6E09B
:1039D000BF935F924F9230E1832EA12C6801E12CBE
:1039E000F12C00E010E020E030E0A101BE016F5FAB
:1039F0007F4F81EC9FE00E94C9011C010F900F9046
:103A00000F900F900F900F90DACD7101EFEFEE1A3B
:103A1000FE0A2FEF3FEFA101BE016F5F7F4F85E2EE
:103A20000E94C10F170125CCA7FE03C0318220825E
:103A300020CCB0FE08C0C101B0E0A0E0808391833B
:103A4000A283B38316CCB1FEF1CF410120829182D3
:103A50001282138214821582168217820ACCA10167
:103A6000EFEF2E163E0611F44EEF5FEF2FEF3FEF14
:103A7000BE016F5F7F4F80E00E94C10FC1012F9692
:103A80000FB6F894DEBF0FBECDBFDF91CF911F916F
:103A90000F91FF90EF90DF90CF90BF90AF909F90ED
:103AA0008F907F906F905F904F903F902F900895F0
:103AB00028E0822EE1CC92E0892EDECCEF92FF92BC
:103AC0000F931F93CF93DF93CDB7DEB7AA970FB6AF
:103AD000F894DEBF0FBECDBF65EC71E0CE010D9650
:103AE0000E9403186091D0047091D104CE01079612
:103AF0000E94B117BE01635F7F4FCE0101960E9405
:103B0000E917BE01695F7F4FCE0101960E944A17F7
:103B1000BC01CE0143960E94E917CE0101960E9496
:103B20001217CE0107960E9412176091CA04709175
:103B3000CB04CE0107960E94B117BE01635F7F4F91
:103B4000CE0101960E94E917BE01695F7F4FCE0149
:103B500001960E944A17BC01CE0149960E94E917BE
:103B6000CE0101960E941217CE0107960E941217ED
:103B70006091AD057091AE05CE0107960E94B11718
:103B8000BE01635F7F4FCE0101960E94E917BE011F
:103B9000695F7F4FCE0101960E944A17BC01CE019A
:103BA0004F960E94E917CE0101960E941217CE018E
:103BB00007960E9412176091AB057091AC05CE017B
:103BC00007960E94B117BE01635F7F4FCE01019639
:103BD0000E94E917BE01695F7F4FCE0101960E94E6
:103BE0004A17BC01CE0185960E94E917CE010196C5
:103BF0000E941217CE0107960E9412178AE491E0E4
:103C00000E946D148091F0048F938091EF048F9344
:103C10008091EE048F938091ED048F938091EC045A
:103C20008F938091EB048F938091EA048F9380911E
:103C3000E9048F9387EF91E09F938F930E94181967
:103C40008091E0048F938091DF048F938091DE0454
:103C50008F938091DD048F938091DC048F9380910A
:103C6000DB048F938091DA048F938091D9048F9332
:103C700083E292E09F938F930E9418198091D5045C
:103C80008F938091D4048F938091D3048F938091EC
:103C9000D2048F938091CF048F938091CE048F9321
:103CA0008091CD048F938091CC048F9382E592E034
:103CB0009F938F930E94181961E371E080ED95E066
:103CC0000E9437060FB6F894DEBF0FBECDBF20E0CE
:103CD00030E040E85FE36091CC047091CD048091C6
:103CE000CE049091CF040E94A72687FFF8C180914F
:103CF000AF058111F4C18A8D8F93898D8F938AE6E8
:103D000093E09F938F930E9418190F900F900F903C
:103D10000F9020E030E040E85FE36091D2047091C2
:103D2000D3048091D4049091D5040E94A72687FFE4
:103D3000DFC18C898F938B898F9384E892E09F9366
:103D40008F930E9418190F900F900F900F908091F1
:103D5000AF05811145C08091D604811141C0809189
:103D6000E8048F938091E7048F938091E6048F930A
:103D70008091E5048F938091E4048F938091E30414
:103D80008F938091E2048F938091E1048F9383E974
:103D900092E09F938F930E9418198091C9048F938A
:103DA0008091C8048F938091C7048F938091C6043B
:103DB0008F938091C5048F938091C4048F938091D9
:103DC000C3048F938091C2048F938FEB92E09F93F3
:103DD0008F930E9418190FB6F894DEBF0FBECDBFA7
:103DE0008CEF90E00E946D148BEB96E00E946807C8
:103DF000162F072FF82EE92E85EA96E00E94680715
:103E0000EF92FF920F931F939F938F937F936F93E4
:103E10008091BE068F938091BD068F938EEE92E0C7
:103E20009F938F930E9418198FE896E00E9468076D
:103E3000162F072FF82EE92E89E796E00E946807D3
:103E4000EF92FF920F931F939F938F937F936F93A4
:103E5000809192068F93809191068F938EE193E0EB
:103E60009F938F930E9418198091BE068F93809123
:103E7000BD068F938FE493E09F938F930E94181950
:103E80000FB6F894DEBF0FBECDBF8091AB05909109
:103E9000AC0502970CF435C18EA18F938DA18F9341
:103EA00089E693E09F938F930E9418190F900F90CB
:103EB0000F900F908091AD059091AE0502970CF494
:103EC0003BC188A18F938F8D8F9384E892E09F935D
:103ED0008F930E9418190F900F900F900F90809160
:103EE000CC068F938091CB068F938091CA068F93D7
:103EF0008091C9068F938091B6068F938091B50605
:103F00008F938091B4068F938091B3068F938091A5
:103F1000BE068F938091BD068F938AE893E09F93AE
:103F20008F930E9418198091D0068F938091CF06AD
:103F30008F938091CE068F938091CD068F93809141
:103F4000BA068F938091B9068F938091B8068F93AC
:103F50008091B7068F938091BE068F938091BD06A6
:103F60008F938AEB93E09F938F930E9418198BEBAA
:103F700096E00E94A118162F072FF82EE92E85EA49
:103F800096E00E94A118EF92FF920F931F939F93C8
:103F90008F937F936F938091BE068F938091BD0620
:103FA0008F938BEE93E09F938F930E9418190FB617
:103FB000F894DEBF0FBECDBF89E796E00E94A1183E
:103FC0009F938F937F936F939F938F937F936F9321
:103FD000809192068F93809191068F938CE194E06B
:103FE0009F938F930E9418190FB6F894DEBF0FBEEF
:103FF000CDBF8091D704882381F08091BB0582508A
:10400000990B9F938F938EE494E09F938F930E94DC
:1040100018190F900F900F900F908091D80488235B
:1040200081F08091C6058250990B9F938F938FE604
:1040300094E09F938F930E9418190F900F900F9008
:104040000F908091AF05811108C08091D60488231C
:1040500021F08BEB90E00E946D144091B7055091D8
:10406000B8056091B9057091BA058091BD05909130
:10407000BE05A091BF05B091C005481759076A0752
:104080007B0740F48091D604811104C086E990E05A
:104090000E946D1488E690E00E946D14CE01859612
:1040A0000E941217CE014F960E941217CE01499618
:1040B0000E941217CE0143960E941217CE010D9650
:1040C0000E941217AA960FB6F894DEBF0FBECDBF9E
:1040D000DF91CF911F910F91FF90EF90089583EBA7
:1040E00091E09F938F930E9418190F900F9011CE1B
:1040F0008CE493E09F938F930E9418190F900F9078
:1041000026CE85EA96E00E94680720E030E04AE784
:1041100054E40E946F289F938F937F936F938FE651
:1041200093E09F938F930E9418190F900F900F9018
:104130000F900F900F90BECE8BEB96E00E94680719
:1041400020E030E04AE754E40E946F289F938F9369
:104150007F936F9388E793E09F938F930E94181942
:104160000F900F900F900F900F900F90B8CE85ED9D
:104170008093BC0080917D0590917E05A0917F0584
:10418000B09180050796A11DB11D23E0B695A795B6
:10419000979587952A95D1F72091BC0024FD03C0FF
:1041A00010927B05089540917D0550917E056091A8
:1041B0007F0570918005452B462B472B69F30097AF
:1041C000A105B10541F02AE22A95F1F700C0019757
:1041D000A109B109E1CF80917C050C940F101F92C9
:1041E0000F920FB60F9211242F933F938F939F93AB
:1041F000AF93BF938091C8059091C905A091CA055E
:10420000B091CB053091C70523E0230F2D3758F52A
:104210000196A11DB11D2093C7058093C8059093F9
:10422000C905A093CA05B093CB058091CC059091A8
:10423000CD05A091CE05B091CF050196A11DB11D70
:104240008093CC059093CD05A093CE05B093CF0578
:10425000BF91AF919F918F913F912F910F900FBE82
:104260000F901F90189526E8230F0296A11DB11DEF
:10427000D2CF1F920F920FB60F9211242F933F931C
:104280004F935F936F937F938F939F93AF93BF935E
:10429000EF93FF93E0910201F09103010995FF91E3
:1042A000EF91BF91AF919F918F917F916F915F91AE
:1042B0004F913F912F910F900FBE0F901F90189527
:1042C0001F920F920FB60F9211242F933F934F938B
:1042D0005F936F937F938F939F93AF93BF93EF936E
:1042E000FF93E0910001F09101010995FF91EF9199
:1042F000BF91AF919F918F917F916F915F914F91FE
:104300003F912F910F900FBE0F901F9018951F9205
:104310000F920FB60F9211242F933F934F935F93F9
:104320006F937F938F939F93AF93BF93EF93FF937D
:1043300080ED95E00E94D906FF91EF91BF91AF917A
:104340009F918F917F916F915F914F913F912F91AD
:104350000F900FBE0F901F9018951F920F920FB6DF
:104360000F9211242F938F939F93EF93FF93E091DC
:10437000E005F091E1058081E091E605F091E70527
:1043800082FD1BC090818091E9058F5F8F73209122
:10439000EA05821741F0E091E905F0E0E053FA4FB9
:1043A000958F8093E905FF91EF919F918F912F91C8
:1043B0000F900FBE0F901F9018958081F4CF1F9221
:1043C0000F920FB60F9211242F933F934F935F9349
:1043D0006F937F938F939F93AF93BF93EF93FF93CD
:1043E0008091B900887F803609F44AC0F0F58832A0
:1043F00009F4A7C018F5803109F49BC0B8F48823EC
:1044000009F4F9C0883009F494C0FF91EF91BF918D
:10441000AF919F918F917F916F915F914F913F915C
:104420002F910F900FBE0F901F901895883109F4AF
:1044300088C0803251F78093790514C0803409F424
:104440009DC040F48033B9F38833F9F68093790541
:1044500085ECB0C0803509F485C0883509F496C074
:10446000883499F60E94B720D0CF883909F48CC0DF
:1044700038F5883729F050F4883611F0803729F65E
:1044800083E080937B051092540557C0883809F467
:104490007BC0803919F0803809F0B7CF809154057E
:1044A000803208F071C0E091540581E08E0F809356
:1044B00054058091BB00F0E0EC5CFA4F80833DC076
:1044C000803B39F0E0F4803A09F479C0883A09F089
:1044D0009CCF84E080937B051092330510923205C7
:1044E000E091A505F091A60509958091320581110D
:1044F0000FC081E0809332051092120509C0803C04
:1045000009F4A6CF883C09F4A3CF883B09F07DCFFE
:10451000E091330581E08E0F80933305F0E0EE5E8D
:10452000FA4F80818093BB009091330580913205D2
:1045300029C0809156058093BB0085EC8093BC0018
:1045400064CF9091780580917705981758F5E091A0
:10455000780581E08E0F80937805F0E0E95AFA4FF4
:104560008081E9CFE091780581E08E0F8093780516
:104570008091BB00F0E0E95AFA4F80839091780572
:10458000809177059817C8F285E8D8CFE091780533
:1045900081E08E0F809378058091BB00F0E0E95AAE
:1045A000FA4F808380917A0581115CCF81E08093FE
:1045B000550584EA8093BC0010927B0526CF85ECDC
:1045C0008093BC0010927B0580915405803230F4BA
:1045D000E0915405F0E0EC5CFA4F108260915405D4
:1045E00070E0E091A305F091A40584E395E00995BE
:1045F000109254050ACF1092790534CFE0EDF5E022
:104600001382128288EE93E0A0E0B0E08483958369
:10461000A683B7832EE531E03183208325EC30E09B
:104620003587248724EC30E03787268720EC30E07C
:10463000318B208B21EC30E0338B228B22EC30E06D
:10464000358B248B26EC30E0378B268B118E128E27
:10465000138E148EEDE6F6E0138212828483958326
:10466000A683B78380E791E091838083E1EDF6E054
:104670001382128282E891E09183808387E28483AF
:1046800084E1818784E0828713868BEB96E00E9429
:10469000461485EA96E00E9446148FE896E00E9450
:1046A000461489E796E00C944614789484B58260A9
:1046B00084BD84B5816084BD85B5826085BD85B5C6
:1046C000816085BD80916E00816080936E00109244
:1046D00081008091810082608093810080918100BF
:1046E0008160809381008091800081608093800050
:1046F0008091B10084608093B1008091B0008160AE
:104700008093B00080917A00846080937A008091D9
:104710007A00826080937A0080917A008160809331
:104720007A0080917A00806880937A001092C100AC
:104730008BEB96E00E943A0885EA96E00E943A08E0
:104740008FE896E00E943A0889E796E00E943A08CE
:1047500060E082E00E94A10560E083E00E94A10584
:1047600062E08CE00E94A10562E08BE00E94A1055E
:1047700088EB91E1909301018093000180916900A1
:104780008C7F816080936900E89A80EA91E1909340
:1047900003018093020180916900837F846080938C
:1047A0006900E99AE091E005F091E10582E08083FB
:1047B000E091DC05F091DD051082E091DE05F091DD
:1047C000DF0580E180831092E805E091E405F09137
:1047D000E50586E08083E091E205F091E3058081C4
:1047E00080618083E091E205F091E305808188603B
:1047F0008083E091E205F091E30580818068808309
:10480000E091E205F091E30580818F7D8083109235
:10481000AA051092A9051092A8051092A7050E945A
:10482000F10F84E396E09093A6058093A50585E3B8
:1048300096E09093A4058093A3051092D6068091EC
:10484000DB06823018F098E09093D6068093D90664
:1048500062E370E080E090E00E9402066091DC0676
:1048600081ED96E00E94B61068EE73E080E090E083
:104870000E94020660E381ED96E00E94D113CBE432
:10488000D6E4CE010197F1F760E381ED96E00E9456
:10489000D1132197F1F760E381ED96E00E94D113E7
:1048A00083E592E00197F1F760E281ED96E00E94E6
:1048B000D1136091D606606240E081ED96E00E94DF
:1048C000EA1384E08093D70640E06CE081ED96E047
:1048D0000E94EA130E943B1482E08093D80640E0D5
:1048E00066E081ED96E00E94EA1340E062E081ED2F
:1048F00096E00E94EA138BE39FE10197F1F788E0CD
:104900008093DC0660E081ED96E00E94B6100E9484
:104910003B1460E080E00E9401148FE894E00E9464
:10492000EF1462E083E00E94011481EA94E00E94A7
:10493000EF1468EB7BE080E090E00E9402060E94AA
:1049400014180E943B1460E080E00E9401146EE79E
:1049500071E081ED96E00E9437068BE00E944A05E7
:10496000892B39F582E00E944A0561E0892BA9F480
:1049700089E00E9401148FEA94E00E94EF1483E022
:104980000E944A0561E0892B71F480E00E940114C5
:104990008FEA94E00E94EF14E5CF89E00E940114B1
:1049A00088EB94E0EACF80E00E94011488EB94E069
:1049B000F1CF0E94D215C0E0D0E08091C6058130D1
:1049C00079F40E94DD056093C2057093C30580935E
:1049D000C4059093C5058091C6058F5F8093C60579
:1049E0001091C105113089F40E94DD056093BD0569
:1049F0007093BE058093BF059093C0058091C1055B
:104A00008F5F8093C1051093BC058091BB058130F9
:104A100079F40E94DD056093B7057093B805809323
:104A2000B9059093BA058091BB058F5F8093BB0554
:104A30001091B605113089F40E94DD056093B2052E
:104A40007093B3058093B4059093B5058091B60536
:104A50008F5F8093B6051093B1058CE00E944A05E4
:104A6000892BF9F483E991E00E946D148BEB96E0B9
:104A70000E943A0885EA96E00E943A088FE896E09C
:104A80000E943A0889E796E00E943A088CE00E946A
:104A90004A05892BD9F36AEF70E080E090E00E942C
:104AA00002068BE00E944A05892B09F0B7C060E03E
:104AB00080E00E94011466EB71E081ED96E00E94B7
:104AC000370661E080E00E9401148BEA91E00E94C9
:104AD000EF1461E089E00E9401148BEB96E00E94E4
:104AE00068070E941D29CB010E94C61461E080E086
:104AF0000E94011485EA96E00E9468070E941D2921
:104B0000CB010E94C61461E082E10E94011482EC94
:104B100091E00E94EF1462E080E00E9401148BEAB1
:104B200091E00E94EF1462E089E00E9401148091FC
:104B3000AD059091AE0502970CF48DC085EC91E027
:104B40000E94EF148091AD059091AE050E94C614AD
:104B500062E080E00E9401148091AB059091AC0569
:104B600002970CF486C085EC91E00E94EF148091CE
:104B7000AB059091AC050E94C61462E082E10E94F0
:104B8000011488EC91E00E94EF1463E080E00E9441
:104B900001148BEA91E00E94EF1463E089E00E9427
:104BA000011480EE91E00E94EF148FE896E00E94DD
:104BB00068070E941D29CB010E94C61463E080E0B3
:104BC0000E94011484EE91E00E94EF1489E796E0C0
:104BD0000E9468070E941D29CB010E94C61463E051
:104BE00082E10E94011482EC91E00E94EF148BE0BC
:104BF0000E944A05892BD9F36AEF70E080E090E0CB
:104C00000E94020660E080E00E94011461EA71E007
:104C100081ED96E00E9437060E94D2158091BC0576
:104C2000882371F08091B105882389F10E94A21335
:104C30000E94CD110E945E1D0E94D2150E94141880
:104C4000209709F4BACE0E94C506882309F4B5CE90
:104C50000E940000B2CE8BEB96E00E94680720E035
:104C600030E04AE754E40E946F2842E00E94F414C6
:104C70006FCF85EA96E00E94680720E030E04AE7BF
:104C800054E40E946F2842E00E94F41476CF809191
:104C9000B0058111D5CF0E94DD050091BD051091B1
:104CA000BE052091BF053091C005601B710B820BC2
:104CB000930B603472448F40910510F281E0809331
:104CC000AF05B4CF89E796E00E941A178FE896E007
:104CD0000E941A1785EA96E00E941A178BEB96E05D
:104CE0000C941A17BB274A3031F4992322F4BDE201
:104CF000909581959F4F0C947E26BB27FB015527ED
:104D0000AA27880F991FAA1FA41710F0A41B839528
:104D10005051B9F7A05DAA3308F0A95DA19300979F
:104D200079F7B111B1931192CB010C949726DC0164
:104D3000FC01672F71917723E1F7329704C07C91D2
:104D40006D9370836291AE17BF07C8F308950E94F8
:104D5000E92608F481E00895E89409C097FB3EF441
:104D600090958095709561957F4F8F4F9F4F9923B8
:104D7000A9F0F92F96E9BB279395F6958795779536
:104D80006795B795F111F8CFFAF4BB0F11F460FFF6
:104D90001BC06F5F7F4F8F4F9F4F16C0882311F04E
:104DA00096E911C0772321F09EE8872F762F05C062
:104DB000662371F096E8862F70E060E02AF09A95FD
:104DC000660F771F881FDAF7880F9695879597F9F2
:104DD0000895990F0008550FAA0BE0E8FEEF16168C
:104DE0001706E807F907C0F012161306E407F507DF
:104DF00098F0621B730B840B950B39F40A2661F053
:104E0000232B242B252B21F408950A2609F4A140F5
:104E1000A6958FEF811D811D08950E9420270C9477
:104E200091270E94832738F00E948A2720F095233B
:104E300011F00C947A270C94802711240C94C52728
:104E40000E94A22770F3959FC1F3950F50E0551F64
:104E5000629FF001729FBB27F00DB11D639FAA27CF
:104E6000F00DB11DAA1F649F6627B00DA11D661F1E
:104E7000829F2227B00DA11D621F739FB00DA11D3F
:104E8000621F839FA00D611D221F749F3327A00DF9
:104E9000611D231F849F600D211D822F762F6A2F95
:104EA00011249F5750409AF0F1F088234AF0EE0FFA
:104EB000FF1FBB1F661F771F881F91505040A9F727
:104EC0009E3F510580F00C947A270C94C5275F3FD4
:104ED000E4F3983ED4F3869577956795B795F79563
:104EE000E7959F5FC1F7FE2B880F911D96958795DB
:104EF00097F9089597F99F6780E870E060E008955A
:104F00009FEF80EC089500240A94161617061806E1
:104F10000906089500240A941216130614060506BD
:104F20000895092E0394000C11F4882352F0BB0F4E
:104F300040F4BF2B11F460FF04C06F5F7F4F8F4FB1
:104F40009F4F089557FD9058440F551F59F05F3FEC
:104F500071F04795880F97FB991F61F09F3F79F09B
:104F600087950895121613061406551FF2CF46951D
:104F7000F1DF08C0161617061806991FF1CF86959F
:104F80007105610508940895E894BB276627772783
:104F9000CB0197F908952F923F924F925F926F92B3
:104FA0007F928F929F92AF92BF92CF92DF92EF92B9
:104FB000FF920F931F93CF93DF93CDB7DEB7CA1B3A
:104FC000DB0B0FB6F894DEBF0FBECDBF09942A8865
:104FD000398848885F846E847D848C849B84AA840D
:104FE000B984C884DF80EE80FD800C811B81AA819A
:104FF000B981CE0FD11D0FB6F894DEBF0FBECDBF65
:10500000ED0108955058BB27AA270E941A280C9436
:1050100091270E94832738F00E948A2720F039F4D4
:105020009F3F19F426F40C9480270EF4E095E7FBDB
:105030000C947A27E92F0E94A22758F3BA17620727
:1050400073078407950720F079F4A6F50C94C4271C
:105050000EF4E0950B2EBA2FA02D0B01B901900193
:105060000C01CA01A0011124FF27591B99F0593FD7
:1050700050F4503E68F11A16F040A22F232F342F1F
:105080004427585FF3CF469537952795A795F0406D
:105090005395C9F77EF41F16BA0B620B730B840B82
:1050A000BAF09150A1F0FF0FBB1F661F771F881F3A
:1050B000C2F70EC0BA0F621F731F841F48F4879592
:1050C00077956795B795F7959E3F08F0B0CF939584
:1050D000880F08F09927EE0F9795879508950E94FD
:1050E00083280C9491270E948A2758F00E948327D6
:1050F00040F029F45F3F29F00C947A2751110C9469
:10510000C5270C9480270E94A22768F39923B1F346
:10511000552391F3951B550BBB27AA2762177307DD
:10512000840738F09F5F5F4F220F331F441FAA1F71
:10513000A9F335D00E2E3AF0E0E832D0915050402D
:10514000E695001CCAF72BD0FE2F29D0660F771FDB
:10515000881FBB1F261737074807AB07B0E809F0C1
:10516000BB0B802DBF01FF2793585F4F3AF09E3F46
:10517000510578F00C947A270C94C5275F3FE4F32F
:10518000983ED4F3869577956795B795F7959F5F89
:10519000C9F7880F911D9695879597F90895E1E0D5
:1051A000660F771F881FBB1F621773078407BA0734
:1051B00020F0621B730B840BBA0BEE1F88F7E0958F
:1051C0000895BEE304D008F490E80895BFE32227D1
:1051D0003327A9010E94AA2760F19F5748F1B91708
:1051E00040F1BFE3B91B9927B8503AF4660F771F17
:1051F000881F991FB395D2F316C0B8504AF0232FD9
:10520000342F452F562F672F782F8827B850BAF79D
:10521000B85F49F086957795679557954795379587
:105220002795BA95B9F716F40E949729889408959E
:10523000889460E070E0CB0108950E94242968946E
:10524000B1110C94C52708950E94AA2788F09F5792
:1052500098F0B92F9927B751B0F0E1F0660F771F9A
:10526000881F991F1AF0BA95C9F714C0B13091F090
:105270000E94C427B1E008950C94C427672F782FAB
:105280008827B85F39F0B93FCCF386957795679555
:10529000B395D9F73EF490958095709561957F4FC1
:1052A0008F4F9F4F089597FB16F40E9497290C94F7
:1052B0005A29E894F92F96EBFF2381F01216130672
:1052C0001406440B9395F6958795779567955795B2
:1052D0004040FF23B9F71BC099270895882351F454
:1052E0009850D2F7872B762F652F542F432F322FCC
:1052F00020E0B1F3121613061406440B88233AF08B
:105300009A95440F551F661F771F881FCAF75523AC
:105310004AF4440F551F11F460FF04C06F5F7F4FC4
:105320008F4F9F4F880F9695879597F90895909581
:1053300080957095609550954095309521953F4F9B
:105340004F4F5F4F6F4F7F4F8F4F9F4F08950E947A
:10535000E92608F48FEF089519F416F40C948027C9
:105360000C94F7290E94AA27B8F39923C9F3B6F33E
:105370009F57550B87FF0E94052A0024A0E640EAAC
:10538000900180585695979528F4805C660F771F9A
:10539000881F20F026173707480730F4621B730B6D
:1053A000840B202931294A2BA69517940794202590
:1053B00031254A2758F7660F771F881F20F02617D8
:1053C0003707480730F4620B730B840B200D311D37
:1053D000411DA09581F7B901842F9158880F9695AA
:1053E000879508950E94E926880B990B08959F3FA1
:1053F00031F0915020F4879577956795B795880F90
:10540000911D9695879597F9089591505040660F94
:10541000771F881FD2F70895A1E21A2EAA1BBB1B83
:10542000FD010DC0AA1FBB1FEE1FFF1FA217B30770
:10543000E407F50720F0A21BB30BE40BF50B661F86
:10544000771F881F991F1A9469F76095709580954A
:1054500090959B01AC01BD01CF010895689401C0F6
:10546000E894F92FF12B12F00C94622AA0E0B0E03E
:10547000ECE3FAE20C94D127092E059422F40E9461
:10548000BE2A112392F4F0E80F26FFEFE094F09487
:1054900000951095B094C094D094A194BF0ACF0AFF
:1054A000DF0AEF0AFF0A0F0B1F0B0E946D2A07FC91
:1054B0000E94BE2ACDB7DEB7ECE00C94ED276894CD
:1054C00001C0E8948F929F92CF93DF930E946D2A40
:1054D000DF91CF919F908F90089588249924F401B3
:1054E000E401B0E49F93AA279A158B049C04ED0570
:1054F000FE05CF05D007A10798F4AD2FDC2FCF2FE5
:10550000FE2FE92D982C892E982F872F762F652F27
:10551000542F432F322F2227B85031F7BF9127C085
:105520001B2EBF91BB27220F331F441F551F661F21
:10553000771F881F991F881C991CEE1FFF1FCC1F07
:10554000DD1FAA1FBB1F8A149B04EC05FD05CE05B9
:10555000DF05A007B10748F08A189B08EC09FD0990
:10556000CE09DF09A00BB10B21601A94E1F62EF4ED
:105570009401AF01BE01CD01000C089560957095B6
:105580008095909530954095509521953F4F4F4F80
:105590005F4F6F4F7F4F8F4F9F4F089597FD109430
:1055A000002E083098F00850232F342F452F562F07
:1055B000672F782F892F912DF4CF15949795879584
:1055C0007795679557954795379527950A95AAF743
:1055D0001124002D08952A0D3B1D4C1D5D1D6E1DCF
:1055E0007F1D801F911F08950024A7FD00942A0F9E
:1055F000301D401D501D601D701D801D901D0895A3
:105600000024A7FD00942A173005400550056005C9
:105610007005800590050895EE0FFF1F0590F49129
:10562000E02D09940F931F93CF93DF938230910560
:1056300010F482E090E0E091DF06F091E00630E0C7
:1056400020E0B0E0A0E0309799F42115310509F48D
:105650004AC0281B390B24303105D8F58A819B813B
:105660006115710589F1FB0193838283FE0111C0ED
:10567000408151810281138148175907E0F0481792
:10568000590799F4109761F012960C93129713969C
:105690001C933296CF01DF91CF911F910F91089506
:1056A0000093DF061093E006F4CF2115310551F089
:1056B0004217530738F0A901DB019A01BD01DF0150
:1056C000F801C1CFEF01F9CF9093E0068093DF0698
:1056D000CDCFFE01E20FF31F819391932250310948
:1056E00039832883D7CF2091DD063091DE06232B26
:1056F00041F420910601309107013093DE0620939A
:10570000DD0620910401309105012115310541F498
:105710002DB73EB74091080150910901241B350B6C
:10572000E091DD06F091DE06E217F307A0F42E1BF0
:105730003F0B2817390778F0AC014E5F5F4F2417F5
:10574000350748F04E0F5F1F5093DE064093DD068D
:10575000819391939FCFF0E0E0E09CCFCF93DF93D4
:105760000097E9F0FC01329713821282A091DF06C4
:10577000B091E006ED0130E020E01097A1F4208127
:105780003181820F931F2091DD063091DE062817AC
:10579000390709F061C0F093DE06E093DD06DF9182
:1057A000CF910895EA01CE17DF07E8F54A815B81C2
:1057B0009E0141155105B1F7E901FB83EA83499147
:1057C0005991C40FD51FEC17FD0761F480819181B9
:1057D0000296840F951FE9019983888382819381C2
:1057E0009B838A83F0E0E0E012968D919C91139761
:1057F0000097B9F52D913C911197CD010296820F3A
:10580000931F2091DD063091DE062817390739F6FF
:10581000309751F51092E0061092DF06B093DE0645
:10582000A093DD06BCCFD383C28340815181840F16
:10583000951FC817D90761F44E5F5F4F8881998122
:10584000480F591F518340838A819B8193838283B0
:105850002115310509F0B0CFF093E006E093DF06A3
:105860009ECFFD01DC01C0CF13821282D7CFB0E002
:10587000A0E0EDE3FCE20C94CD278C01009751F4FD
:10588000CB010E94122B8C01C801CDB7DEB7E0E13D
:105890000C94E927FC01E60FF71F9C012250310907
:1058A000E217F30708F49DC0D901CD91DC9111975F
:1058B000C617D70798F0C530D10530F3CE0104974D
:1058C0008617970708F3C61BD70B2297C193D1936E
:1058D0006D937C93CF010E94AE2BD6CF5B01AC1AA7
:1058E000BD0A4C018C0E9D1EA091DF06B091E00612
:1058F000512C412CF12CE12C109731F58091DD06D3
:105900009091DE068815990509F05CC04616570689
:1059100008F058C08091040190910501009741F46E
:105920008DB79EB74091080150910901841B950BDA
:10593000E817F90708F055C0F093DE06E093DD069E
:10594000F90171836083A0CF8D919C91119712967C
:105950006C90129713967C901397A815B90559F57A
:105960006C0142E0C40ED11CCA14DB0420F1AC016E
:105970004A195B09DA011296159780F062827382E8
:1059800051834083D9016D937C93E114F10471F04C
:10599000D7011396FC93EE93129776CF22968C0F35
:1059A0009D1FF90191838083F301EFCFF093E0060F
:1059B000E093DF0669CF4816590608F42C017D01F3
:1059C000D3019ACFCB010E94122B7C01009749F0A2
:1059D000AE01B8010E94F42CC8010E94AE2B8701D1
:1059E00053CF10E000E050CFFB01DC0102C001907A
:1059F0000D9241505040D8F70895FB01DC01019011
:105A00000D920020E1F7089511E0C4E1D1E004C057
:105A1000FE010E940C2B2196C531D107C9F7F894DD
:025A2000FFCFB6
:105A2200360636060000E106800000004000140041
:105A320054000000803F000020410000C8420000E6
:105A42007A4400401C460050C347002474498096A3
:105A5200184B20BCBE4C286B6E4EF9021550B74352
:105A6200BA51A5D46853E784115521E6B556A95F0A
:105A72006358CA1B0E5ABCA2B15B00000000FB06B1
:105A82005B0688064807B9069706AB0600000000C9
:105A920087105A109D113010531040103110000021
:105AA200000035145B069D11C90F666E692B0066F6
:105AB2006E69006E616E00666E692D000D0A0069E6
:105AC2006E66006F766600426F550020202020200F
:105AD200202020202020202020202020200045726D
