:100000000C94F4000C9453210C942C210C941C019E
:100010000C941C010C941C010C941C010C941C01EC
:100020000C941C010C941C010C941C010C941C01DC
:100030000C941C010C941C010C941C010C941C01CC
:100040000C94E2200C941C010C94A0210C947A21B5
:100050000C941C010C941C010C941C010C941C01AC
:100060000C94D2210C941C012A3D3D3D3D3D3D3D6B
:100070003D3D3D3D3D3D3D3D3D3D3D3D3D3D3D3DB0
:100080003D3D3D3D3D3D3D3D3D3D3D3D3D3D3D3DA0
:100090003D3D3D3D2A0020466C6173682053796EDA
:1000A0006320286265747765656E207468652074C6
:1000B000776F206C617365727329002053687574C3
:1000C000746572205370656564204672616374695B
:1000D0006F6E200020504152414D45544552202022
:1000E0002020202020202020202020202020202010
:1000F0004C41534552322020202020202020202017
:10010000204C41534552310020415645524147450C
:1001100053202020202020202020202020202020AC
:1001200020202020204C41534552322020202020E6
:100130002020202020204C4153455231004C617337
:100140006572322020204C6173657231202020209E
:1001500020005265736574204176657261676500A1
:100160004C61736572322020204C617365723120BE
:10017000202020200041766572676532202041767C
:1001800065726167653120202000000000002400B6
:1001900027002A0000000000250028002B00000096
:1001A00000002300260029000404040404040404BD
:1001B0000202020202020303030303030102040812
:1001C00010204080010204081020010204081020C1
:1001D0000000000800020100000304070000000006
:1001E00000000000F122492611241FBECFEFD8E005
:1001F000DEBFCDBF26E0ACEAB4E001C01D92AA3C50
:10020000B207E1F714E0A0E0B1E0EEE2FAE502C0E7
:1002100005900D92AC3AB107D9F710E0C3EFD0E0EA
:1002200004C02197FE010E94122BC23FD107C9F7DB
:100230000E9448230C940A2D0C9400002F923F92A8
:100240004F925F926F927F928F929F92AF92BF92E6
:10025000CF92DF92EF92FF920F931F93CF93DF9392
:1002600000D000D0CDB7DEB71C014B015A013901D7
:1002700027019601227033273A83298333E0C32272
:10028000DD245C834B83CD2851F46801C41AD50A60
:100290008B819C818C0D9D1D84159505B0F073019B
:1002A000E00EF11E4B815C81E614F704F1F06A0167
:1002B000FFEFCF1ADF0A2FEF3FEFB401F701829172
:1002C0007F01F1010995A601EFCFEB80FC808FEF54
:1002D000E81AF80A2FEF3FEF4B815C81B40180E20E
:1002E000F1010995FC82EB82D3CF8B819C81800F39
:1002F000911F29813A81232BA1F09C012A193B09E6
:100300002415350570F4FC013196FA83E9832FEF4B
:100310003FEFAC01B40180E2F101099589819A8136
:10032000ECCF0F900F900F900F90DF91CF911F9116
:100330000F91FF90EF90DF90CF90BF90AF909F9084
:100340008F907F906F905F904F903F902F90089587
:100350002F923F924F925F926F927F928F929F92D5
:10036000AF92BF92CF92DF92EF92FF920F931F93C3
:10037000CF93DF93CDB7DEB7AF970FB6F894DEBF5C
:100380000FBECDBF9AA789A77CA76BA75EA74DA775
:10039000CAA2DBA2ECA25F2C402E1DA3322E232E7C
:1003A000A8A689A22A968EAC9FAC2A9796014E2DBC
:1003B0005F2D602F712F832D922DA0E00E94062BC0
:1003C00009F04CC092FC42C080E38983E89484F831
:1003D00066246394712C81FC92C0C40181709927BA
:1003E00028962EAD3FAD2897232BA9F0009709F44E
:1003F00086C038A5311105C094012C703327232BFA
:1004000051F028964EAD5FAD28974150510928967E
:100410005FAF4EAF2897E1E0F0E0EC0FFD1FE60D77
:10042000F71D830120E3009709F46AC028964EADBA
:100430005FAD28970417150708F062C00032110558
:1004400009F45EC00F5F1F4F2193EDCF29A120312A
:1004500011F4E89484F8712C612CBDCF81E485FE01
:1004600081E6AE014F5F5F4F5FA34EA3712C612CFD
:100470008A508FA7A9A0B12CC12CD12CE12CF12C32
:1004800000E010E02AA13BA14CA1552D642D7DA1D7
:10049000832D922D0E94652A2A3074F5205D8FEFFE
:1004A000681A780AEEA1FFA12193FFA3EEA3A9A0E9
:1004B000B12CC12CD12CE12CF12C00E010E02AA1B0
:1004C0003BA14CA1552D642D7DA1832D922D0E9421
:1004D000672A2AA33BA34CA3552E462E7DA3382E74
:1004E000292EA0E00E94062B09F475CFF0E26F16CA
:1004F000710409F0BFCF6FCF5FA5250FD0CF830167
:10050000E1E0F0E0EC0FFD1FE00FF11F80E3269625
:100510002EAD3FAD26970217130738F400321105B0
:1005200020F40F5F1F4F8193F2CF39A1383029F4A7
:100530006016710610F4E89484F8C401807190711B
:10054000892B09F447C092FC25C00115110511F152
:1005500026964EAD5FAD26974017510739F0289685
:100560008EAD9FAD289708171907A1F46016710684
:1005700008F099C0C801019759F0E9A1E03109F0EC
:100580006EC0025011096816790640F08C0106C051
:1005900010E000E0F9A1F03109F062C085FC54C020
:1005A0000032110540F5E1E0F0E0EC0FFD1FE00F37
:1005B000F11F88E780830F5F1F4F00321105D8F4C9
:1005C000E1E0F0E0EC0FFD1FE00FF11F80E380831E
:1005D0000F5F1F4F0032110570F438A5332309F463
:1005E0004EC0E1E0F0E0EC0FFD1FE00FF11F8DE2E7
:1005F00080830F5F1F4F64012896EEACFFAC2897F5
:100600009E012F5F3F4F4DA55EA56BA57CA589A5DB
:100610009AA50E941E01AF960FB6F894DEBF0FBEDA
:10062000CDBFDF91CF911F910F91FF90EF90DF90A1
:10063000CF90BF90AF909F908F907F906F905F9082
:100640004F903F902F90089500321105A0F6E1E001
:10065000F0E0EC0FFD1FE00FF11F88E5ABCF8C0140
:1006600029A1223009F0A9CF0032110520F6E1E0DE
:10067000F0E0EC0FFD1FE00FF11F82E69BCF82FE42
:1006800008C0E1E0F0E0EC0FFD1FE00FF11F8BE28E
:10069000AFCF83FEB0CFE1E0F0E0EC0FFD1FE00F45
:1006A000F11F80E2A5CF49A14031D1F677CF2F923B
:1006B0003F924F925F926F927F928F929F92AF92F2
:1006C000BF92CF92DF92EF92FF920F931F93CF933F
:1006D000DF93CDB7DEB76E970FB6F894DEBF0FBECF
:1006E000CDBF09871A872B873C874D875E876F8729
:1006F000788B23964EAC5FAC23978C8A9D8AAE8A0A
:10070000BF8AC88ED98EEA8EFB8E8C8F29AD3AAD0A
:10071000232B09F49EC00A8B1B8B6B847C844A01BB
:100720001B01EDADFEADF3FF3EC0E4FD3CC0202F4C
:10073000312FA301B401C101A0E00E94062B09F0F2
:100740000CF49AC02AE0A22EB12CC12CD12CE12CA1
:10075000F12C00E010E02A893B89A301B401C1011A
:100760000E94342AA0E00E94062B99F429AD3AADEC
:10077000215031093AAF29AF2A893B89A301B4013D
:10078000C1010E94362A2A8B3B8B3A014B011C0186
:10079000D9CF2A893B89A301B401C101A0E00E94FD
:1007A000062B09F469C021968EAD9FAD2197840D6B
:1007B000951D9E8F8D8F90E24916510408F096C0CA
:1007C000E9ADFAAD3197FAAFE9AFFFEF4F1A5F0A23
:1007D0009AE0A92EB12CC12CD12CE12CF12C00E0F7
:1007E00010E02A893B89A301B401C1010E94342A87
:1007F000205DED8DFE8D2193FE8FED8F2A893B8943
:10080000A301B401C1010E94362A2A8B3B8B3A0115
:100810004B011C01A0E00E94062B69F62196EEAD6B
:10082000FFAD2197E40DF51D80E320E2421651044F
:1008300009F45CC03FEF431A530A29AD3AAD2115C4
:10084000310509F4DAC08193215031093AAF29AF5B
:10085000ECCF3DAD34FF10C080E24816510408F0E3
:1008600045C02196EEADFFAD2197E40DF51D8EE25A
:100870008083F20131962F0121966EAC7FAC2197D7
:10088000640C751CF0E24F16510480F52FEF421AEC
:10089000520A8AE0A82EB12CC12CD12CE12CF12CCB
:1008A00000E010E02C893D894E895F89688D798D43
:1008B0008A8D9B8D0E94342A205DF30121933F0194
:1008C0002C893D894E895F89688D798D8A8D9B8DB4
:1008D0000E94362A2C8B3D8B4E8B5F8B688F798FD5
:1008E0008A8F9B8FA0E00E94062B61F6FDADF1FD83
:1008F00029C0F0FF27C02BAD3CAD232B19F13C8D57
:10090000311106C08DAD9EAD8C709927892B29F0D1
:100910008BAD9CAD01979CAF8BAF2196EEADFFAD3B
:100920002197E40DF51D80E32BAD3CAD4216530637
:1009300048F430E243165104C0F49FEF491A590AB3
:100940008193F2CFE0E24E16510478F4FC8DFF2340
:10095000B1F12196EEADFFAD2197E40DF51D8DE2CD
:10096000808392012F5F3F4F2901CDACDEACEBAC11
:10097000FCAC820121962EAD3FAD21974FA958AD19
:100980006DA97EA98BA99CA90E941E016E960FB627
:10099000F894DEBF0FBECDBFDF91CF911F910F91B5
:1009A000FF90EF90DF90CF90BF90AF909F908F908F
:1009B0007F906F905F904F903F902F9008953DAD46
:1009C00032FF0CC02196EEADFFAD2197E40DF51D71
:1009D0008BE28083C20101962C01C7CF9DAD93FFAE
:1009E000C4CF2196EEADFFAD2197E40DF51D80E259
:1009F0008083F20131962F01B8CF8EE280833CCF05
:100A0000833081F028F4813099F08230A9F0089584
:100A10008730A9F08830C9F08430B1F4809180002B
:100A20008F7D03C0809180008F7780938000089530
:100A300084B58F7784BD089584B58F7DFBCF809179
:100A4000B0008F778093B00008958091B0008F7DC3
:100A5000F9CFCF93DF93282F30E0F901E053FE4F19
:100A60008491F901E454FE4FD491F901E855FE4F09
:100A7000C491CC23A1F081110E940005EC2FF0E07D
:100A8000EE0FFF1FE256FE4FA591B491EC91ED23BE
:100A900081E090E009F480E0DF91CF91089580E05B
:100AA00090E0FACF1F93CF93DF93282F30E0F90126
:100AB000E053FE4F8491F901E454FE4FD491F901C3
:100AC000E855FE4FC491CC23A9F0162F81110E9446
:100AD0000005EC2FF0E0EE0FFF1FEC56FE4FA59146
:100AE000B4918FB7F894EC91111108C0D095DE2322
:100AF000DC938FBFDF91CF911F910895DE2BF8CF4C
:100B0000CF93DF9390E0FC01E454FE4F249188558D
:100B10009E4FFC0184918823C9F090E0880F991FB3
:100B2000FC01E657FE4FA591B491FC01EC56FE4F37
:100B3000C591D49161110DC09FB7F8948C91209507
:100B400082238C938881282328839FBFDF91CF91B4
:100B50000895623051F49FB7F8943C91822F8095AC
:100B600083238C93E8812E2BEFCF8FB7F894EC91F1
:100B70002E2B2C938FBFEACF3FB7F8948091B50509
:100B80009091B605A091B705B091B80526B5A89B80
:100B900005C02F3F19F00196A11DB11D3FBFBA2F0F
:100BA000A92F982F8827BC01CD01620F711D811DCF
:100BB000911D42E0660F771F881F991F4A95D1F754
:100BC00008958F929F92AF92BF92CF92DF92EF9251
:100BD000FF924B015C010E94BC056B017C010E94ED
:100BE000BC056C197D098E099F09683E734081051B
:100BF0009105A8F321E0821A9108A108B10888EEB6
:100C0000C80E83E0D81EE11CF11C81149104A104DC
:100C1000B10429F7FF90EF90DF90CF90BF90AF9095
:100C20009F908F900895089508950895EF92FF92F0
:100C30000F931F93CF93DF938C017B01D0E0C0E033
:100C4000F701EC0FFD1F6491662361F0D801ED916F
:100C5000FC910190F081E02DC8010995892B11F0DC
:100C60002196EECFCE01DF91CF911F910F91FF9092
:100C7000EF900895AF92BF92CF92DF92EF92FF92E2
:100C80000F931F93CF93DF936C017B018B01040FB4
:100C9000151FEB015E01AE18BF08C017D10759F050
:100CA0006991D601ED91FC910190F081E02DC60192
:100CB0000995892B79F7C501DF91CF911F910F918C
:100CC000FF90EF90DF90CF90BF90AF900895FC0120
:100CD000538D448D252F30E0842F90E0821B930BA1
:100CE000541710F0CF96089501970895FC01918D47
:100CF000828D981761F0A28DAE0FBF2FB11D5D964A
:100D00008C91928D9F5F9F73928F90E008958FEFEB
:100D10009FEF0895FC01918D828D981731F0828D9F
:100D2000E80FF11D858D90E008958FEF9FEF0895F6
:100D3000FC01918D228D892F90E0805C9F4F821B5A
:100D400091098F739927089589EB95E00E94980681
:100D500021E0892B09F420E0822F089580E090E0C3
:100D6000892B29F00E94A40681110C94000008959B
:100D7000FC01A48DA80FB92FB11DA35ABF4F2C9110
:100D8000848D90E001968F739927848FA689B78907
:100D90002C93A089B1898C91837080648C93938DFE
:100DA000848D981306C00288F389E02D80818F7DA1
:100DB00080830895EF92FF920F931F93CF93DF9359
:100DC000EC0181E0888F9B8D8C8D98131AC0E88987
:100DD000F989808185FF15C09FB7F894EE89FF8956
:100DE0006083E889F98980818370806480839FBFF4
:100DF00081E090E0DF91CF911F910F91FF90EF90F4
:100E00000895F62E0B8D10E00F5F1F4F0F73112703
:100E1000E02E8C8D8E110CC00FB607FCFACFE8893E
:100E2000F989808185FFF5CFCE010E94B806F1CF08
:100E3000EB8DEC0FFD2FF11DE35AFF4FF0829FB7B2
:100E4000F8940B8FEA89FB8980818062CFCFCF93A2
:100E5000DF93EC01888D8823B9F0AA89BB89E889E2
:100E6000F9898C9185FD03C0808186FD0DC00FB688
:100E700007FCF7CF8C9185FFF2CF808185FFEDCF06
:100E8000CE010E94B806E9CFDF91CF9108958F92ED
:100E90009F92AF92BF92EF92FF920F931F93CF93C7
:100EA000DF93FC010281138101151105E9F1EC01C9
:100EB0001086118612861386F12CE12C8884998481
:100EC000AA84BB840E151F05C9F0C701880F991F9E
:100ED000880F991FEC85FD85E80FF91FA501940186
:100EE00060817181828193810E94EA276887798776
:100EF0008A879B87FFEFEF1AFF0AE0CFB80190E0E7
:100F000080E00E9493269B01AC01C501B4010E94C0
:100F10005628DF91CF911F910F91FF90EF90BF90D6
:100F2000AF909F908F90089560E070E080EC9FE715
:100F3000F0CFAF92BF92CF92DF92EF92FF920F93DA
:100F40001F93CF93DF93FC01A484B584A114B10453
:100F500009F44BC06A017B01EC0104811581C801D1
:100F6000880F991F880F991FA80EB91EF5012081BF
:100F7000318142815381688579858A859B850E946C
:100F8000E927688779878A879B87F501C082D182A4
:100F9000E282F382A7019601688579858A859B851F
:100FA0000E94EA27688779878A879B870F5F1F4F90
:100FB0001D830C83AE80BF800A151B0511F41D82B2
:100FC0001C820A811B8101151105D1F4CA8ADB8AB2
:100FD000EC8AFD8ACE86DF86E88AF98A0A151B0527
:100FE00020F40F5F1F4F1B830A83DF91CF911F9166
:100FF0000F91FF90EF90DF90CF90BF90AF9008954A
:10100000A70196016E857F85888999890E948E291E
:10101000181604F3A70196016A897B898C899D893A
:101020000E948E2687FFDACFCA8ADB8AEC8AFD8A85
:10103000D5CFFC011382128215821482108611868C
:101040001286138680E090E0A0ECBFE78687978742
:10105000A08BB18B828B938BA48BB58B40815181FC
:1010600090E080E0BA016150704C4817590791F048
:101070009B01281B390B220F331F220F331FA4851E
:10108000B585A20FB31F1D921D921D921C9213973E
:101090000196EBCF089508952F923F924F925F9261
:1010A0006F927F928F929F92AF92BF92CF92DF9278
:1010B000EF92FF920F931F93CF93DF93CDB7DEB7DD
:1010C00060970FB6F894DEBF0FBECDBF988B8F87A9
:1010D0006A017B013E872D87DB01CA018827B7FDA6
:1010E00083959927AA27BB27282F2170EF85F88998
:1010F000208B892B21F0F7FAF094F7F8F094C701D0
:10110000B6010E94C82829833A834B835C836D8390
:101110007E838F839887AF85B8892C9311963C93F3
:10112000119712964C93129713965C9313971496FB
:101130006C93149715967C9315978F8116968C93C4
:101140001697988517969C93ED85FE85EE0FFF1FE9
:10115000EE0FFF1FEE5EFE4F80819181A281B38171
:1011600089879A87AB87BC878F8198850E943A29A7
:101170009B01AC01C701B6010E94E92729853A8588
:101180004B855C850E94F4262B013C010E94C828F7
:10119000822E232E342E952E5B018C01AF85B889CB
:1011A00018962C93189719963C9319971A964C9366
:1011B0001A971B965C931B971C966C931C971D9615
:1011C000BC921D971E968C931E971F961C930E948F
:1011D0003A299B01AC01C301B2010E94E9272B010E
:1011E0003C0120E030E040E05FE30E948E291816C9
:1011F0000CF0D0C0282D322D432D592DB501C8013A
:10120000A1E00E94FA2A39014A015B018C010E9487
:101210003A299B01AC0169857A858B859C850E9462
:101220008E2618160CF087C0EF85F88960867186C7
:1012300082869386A486B58606871787ED85FE8508
:10124000EF2B09F05DC0AF85B8891C9111966C90A9
:10125000119712967C90129713968C901397149670
:101260009C9014971596AC9015971696BC9016976F
:1012700017960C91212F362D472D582D692D7A2D3B
:101280008B2D902F0E943A299B01AC01C701B6011A
:101290000E94E9276B017C0120E030E040E05FE341
:1012A0000E948E2687FF0AC020E030E040E05FE326
:1012B000C701B6010E948E29181614F5212F21703E
:1012C00030E040E050E060E070E080E090E0A0E0DE
:1012D0000E94062BA9F0212F362D472D582D692D60
:1012E0007A2D8B2D902FA1E00E94FA2AEF85F889A4
:1012F00020833183428353836483758386839783FA
:101300008F85988960960FB6F894DEBF0FBECDBF6B
:10131000DF91CF911F910F91FF90EF90DF90CF90D1
:10132000BF90AF909F908F907F906F905F904F9005
:101330003F902F900895AF85B88918961C92189702
:1013400019961C9219971A961C921A971B961C9222
:101350001B971C961C921C971D961C921D971E96FF
:101360001C921E971F961C9229813A814B815C81A9
:101370006D817E818F819885A1E00E94FA2AEF8598
:10138000F889208331834283538364837583868302
:10139000978354CF20E030E040E05FE3C301B20127
:1013A0000E948E2681114ACF282D322D432D592D92
:1013B000B501C801A0E00E94062B61F0217030E069
:1013C00040E050E060E070E080E090E00E94062B9A
:1013D00009F434CF282D322D432D592DB501C801E4
:1013E000A1E00E94FA2AAF85B88918962C93189725
:1013F00019963C9319971A964C931A971B965C93DF
:101400001B971C966C931C971D967C931D971E969C
:101410008C931E971F969C9311CF2F923F924F92C1
:101420005F926F927F928F929F92AF92BF92CF9274
:10143000DF92EF92FF920F931F93CF93DF93CDB77D
:10144000DEB7E6970FB6F894DEBF0FBECDBF9CA700
:101450008BA76DA77EA758AB4FA70A8B1B8B2C8B36
:101460003D8BFF8EEE8EDAAAC9AAB9A6A8A68BAAD2
:101470009CAA2C962FAD2C972DAB2D963FAD2D977A
:101480003EAB8A899B89AC89BD898827B7FD839546
:101490009927AA27BB278E8B9F8BA88FB98F0E8980
:1014A0001F890115110549F02A893B894C895D89FD
:1014B00050582A8B3B8B4C8B5D8B20E030E0A90190
:1014C0006A897B898C899D890E948E26312C212CEA
:1014D000882309F40FC18A899B89AC89BD89E7E11A
:1014E000B695A79597958795EA95D1F799278F5740
:1014F0009109BC01990F880B990B0E9495262BE945
:1015000030E24AE95EE30E94F42624E431E544E354
:101510005EE30E94EA276B017C016A897B898C89E2
:101520009D898F77992780689F6320E030E040ECA9
:101530005FE30E94E9272BE33DE344E95EE30E9479
:10154000F4269B01AC01C701B6010E94EA270E9464
:1015500004296A8F7B8F8C8F9D8F2A8C3B8CB101E5
:10156000032C000C880B990B0E9495266B017C01C3
:1015700028E73AE944E550E40E94F42620E030E010
:1015800040E05FE30E94EA270E9404294B012EE815
:101590003DE543E150E4C701B6010E94F4266B012A
:1015A0007C01092C000CAA08BB08C501B4010E94EB
:1015B000952628E132E741E35FE30E94F4269B0190
:1015C000AC01C701B6010E94E9272B013C01AC0127
:1015D0009B010E94F4266B017C01A3019201C301CF
:1015E000B2010E94EA2768A379A38AA39BA320E003
:1015F00030E040E651E4C701B6010E94562820E0E1
:1016000030E040E251E40E94EA279B01AC01C701AF
:10161000B6010E94562820E030E040EC50E40E94E1
:10162000EA279B01AC01C701B6010E9456286B0155
:101630007C01A301920160E070E080E090E40E94F0
:10164000E9279B01AC01C701B6010E94EA279B0173
:10165000AC0168A179A18AA19BA10E94562820E033
:1016600030E040E85FE30E94EA273FE7830E911CE9
:10167000A11CB11CA5019401F7E1220F331F441FE7
:10168000551FFA95D1F70E94F4262B013C01AC01BD
:101690009B016A897B898C899D890E948E2687FFA0
:1016A0000DC041E0241A310820E030E040E251E46E
:1016B000C301B2010E9456282B013C01C101419691
:1016C00051E05AA78332910508F01AA6839790F447
:1016D000C10137FE04C08827992782199309880F12
:1016E000991F880F991FFC01EE5EFE4F40805180CC
:1016F0006280738088A599A593FF8DC1AE8DBF8D43
:101700009D01AB2B11F421E030E08E8D9F8D019770
:10171000BCEF2B16BFEF3B060CF467C02216330656
:101720000CF063C082199309AA24A3949F8F8E8F13
:1017300097FF02C01F8E1E8EE8A5F9A5F460F9A7D9
:10174000E8A737FE1AA6A110C1C12114310409F47B
:1017500075C18E898170898BFAA5FF2309F463C155
:10176000A30192016A897B898C899D890E94F42654
:101770001AA50E94C8282E8B3A8F48A35CA36DA39C
:101780007EA3882E9FA30E943A292AA5A301222383
:1017900071F192010E9456289B01AC016A897B89F4
:1017A0008C899D890E94E9276B017C01EE8DFF8D5C
:1017B000EE0FFF1FEE0FFF1FEE5EFE4F8081918147
:1017C000A281B3818A8B9B8BAC8BBD8B112399F04B
:1017D000A3019201BC01CD010E94F4269B01AC0142
:1017E000C701B6010E94F4263DC0A12C9FCF9201F3
:1017F0000E94F426D1CFD301C20157E1B695A79537
:10180000979587955A95D1F799279C012F573109BC
:1018100037FF03C03195219531098A899B89AC89AD
:10182000BD8947E1B695A795979587954A95D1F7D4
:1018300099278F57910997FF03C091958195910939
:10184000821793070CF07DC02A893B894C895D89FA
:10185000C301B2010E9456289B01AC01C701B60129
:101860000E9456282B013C01AE8DBF8DAB2B09F099
:1018700071C011E020E030E040E05FE30E948E297B
:1018800087FD10E0212F30E040E050E060E070E0A4
:1018900080E090E0AE88BA8CC8A0DCA0EDA0FEA0ED
:1018A000082D1FA10E94F12A2E8B3A8F48A35CA31A
:1018B0006DA37EA3882E9FA320E030E040E05FE38D
:1018C000C301B2010E948E26811103C0BE89BE7F72
:1018D000BE8B10E0B12CC12C912CD12CE12CF12C21
:1018E00000E02E893A8D48A15CA16DA17EA1882DD2
:1018F0009FA1A9E00E94062BA9F0A4F03FEF231AB4
:10190000330A10E0B12CC12C912CD12CE12CF12CFC
:1019100000E041E04E8B1A8E18A21CA21DA21EA24E
:10192000812C1FA2C1018D599F4F512C25E0622EA1
:10193000712C873C910508F027C184E0682E712C3A
:1019400023C1A30192016A897B898C899D890E94A8
:10195000562844CF0E94C82859016A017B01082FEC
:10196000992E0E943A299B01AC01C301B2010E9449
:10197000E9272B013C0111E020E030E040E05FE38B
:101980000E948E2987FD10E0212F30E040E050E0DA
:1019900060E070E080E090E0192D0E94F12A122FA3
:1019A000B32EC42E952ED62EE72EF82E092F20E02A
:1019B00030E040E05FE3C301B2010E948E26811156
:1019C00001C01E7F212F3B2D4C2D592D6D2D7E2DBD
:1019D0008F2D902F0E943A299B01AC016A897B8947
:1019E0008C899D890E948E2618160CF47ACF2E8938
:1019F0003A8D48A15CA16DA17EA1882D9FA1A1E097
:101A00000E94FA2A2E8B3A8F48A35CA36DA37EA373
:101A1000882E9FA35ECF37FC98CE2114310471F03D
:101A20008E898170898BA30192016A897B898C8957
:101A30009D890E94562810E01AA69BCEA12C012B4E
:101A400009F046C02E8D3F8D4A895B896C897D895E
:101A5000CE0101960E944C08F981FE8B2A812A8FC3
:101A60003B8138A34C814CA35D815DA38E818EA305
:101A70008F8098859FA31985BA84CB849C84DD844C
:101A8000EE84FF8408892DCF2E8D3F8D4A895B8996
:101A90006C897D89CE0101960E944C08A981AE8B8C
:101AA000BA81BA8FEB81E8A3FC81FCA32D812DA321
:101AB0003E813EA38F8048854FA31985BA84CB848D
:101AC0009C84DD84EE84FF84088927C0012BE1F229
:101AD0004A895B896C897D8970582E8D3F8DCE0136
:101AE00001960E944C08E981EE8BFA81FA8F2B81D6
:101AF00028A33C813CA34D814DA35E815EA38F80D2
:101B000088858FA31985BA84CB849C84DD84EE8478
:101B1000FF840889AA2009F4E4CE68A479A4662485
:101B200098E07922A8A5B9A555245394B3FF2CC0F9
:101B3000BFEF2B163B0624F13101EFEF6E1A7E0A40
:101B40002E893A8D48A15CA16DA17EA1882D9FA10F
:101B50000E943A29F301EE0FFF1FEE0FFF1FEE5E0A
:101B6000FE4F20813181428153810E948E26811156
:101B700007C02E8D3F8D215031093F8F2E8F1301CD
:101B800055245394712C612C88A599A582709927AE
:101B90009B8B8A8B98A591FF03C06114710441F45B
:101BA000A9A9BAA9CD01861997096A167B0610F072
:101BB00090E080E0BE89B983EA8DEA83F8A1FB83D7
:101BC0002CA12C833DA13D834EA14E838F825FA12A
:101BD00058871987BA86CB869C86DD86EE86FF8677
:101BE000088BAEA9AF93BDA9BF93ECA9EF93FBA956
:101BF000FF9329A52F9338A53F939F938F934F8DE4
:101C00004F935E8D5F9388A98F939FA59F93AEA5F9
:101C1000AF93BDA5BF93ECA5EF93FBA5FF93898080
:101C20009A80AB80BC80CD80DE80EF80F88409850F
:101C30001A852B853C854D855E856F8578898989D8
:101C40000E9457030FB6F894DEBF0FBECDBF5110F0
:101C500067C02C013FEF431A530A48A5E5E445FF4E
:101C6000E5E62FEF3FEFAC016DA57EA58E2FEBA52E
:101C7000FCA50995A32CAA1CAA24AA1C6101E32C8B
:101C8000EE0CEE08FE2C0E2D1E2DFE2DEE2D9101DC
:101C90004E2D5E2D6E2D7E2D8E2D9E2DA0E00E9450
:101CA000062B3CF40E94C42A69017A018B01F82FAB
:101CB000E92F1F9285E08F9321E0621A71087F92CD
:101CC0006F921F921F929AE0892E2F2F3E2FA20112
:101CD0006DA57EA58BA59CA50E94A8010F900F90D5
:101CE0000F900F900F900F904A895B89452BC1F0A0
:101CF0009C01AFA5B8A92A1B3B0BE9A9FAA92E178D
:101D00003F0770F48C010F5F1F4F2FEF3FEFAC01C7
:101D10006DA57EA580E2EBA5FCA50995C801E8CFDD
:101D2000E6960FB6F894DEBF0FBECDBFDF91CF9120
:101D30001F910F91FF90EF90DF90CF90BF90AF90E9
:101D40009F908F907F906F905F904F903F902F90DB
:101D500008952F923F924F925F926F927F928F924F
:101D60009F92AF92BF92CF92DF92EF92FF920F932A
:101D70001F93CF93DF93CDB7DEB7E7970FB6F894F5
:101D8000DEBF0FBECDBF1C016AAB7BAB4CAB5DAB06
:101D900028013901CEAADFAA6501B82CA901980152
:101DA000C301B8010E948E26882331F1EEA8FFA856
:101DB00003E010E023E931E04CA95DA96AA97BA901
:101DC000C1010E941E01E7960FB6F894DEBF0FBE58
:101DD000CDBFDF91CF911F910F91FF90EF90DF90DA
:101DE000CF90BF90AF909F908F907F906F905F90BB
:101DF0004F903F902F9008952FEF3FEF4FE75FEF09
:101E0000C301B8010E948E2687FF07C0EEA8FFA875
:101E100004E010E027E931E0CFCF2FEF3FEF4FE7AD
:101E20005FE7C301B8010E948E2918166CF404E024
:101E300010E02AE831E0C2FC04C003E010E02FE823
:101E400031E0EEA8FFA8B8CF9E012F5F3F4F4901B8
:101E5000B11025C028E23BE64EE65EE4C301B801BE
:101E60000E948E29181654F028E23BE64EE65EECFE
:101E7000C301B8010E948E2687FF11C01F921F92D6
:101E80005601CEA8DFA8930182014CA95DA96AA9D9
:101E90007BA9C1010E940D0A0F900F9094CFD2FC34
:101EA00003C086E0E82EF12CF40110E000E080E3AE
:101EB00032E1E316F10448F00F5F1F4F819391E088
:101EC000E91AF1080032110599F7BB2019F01F93A8
:101ED0000F93D6CF9701B301A201CE0181960E9444
:101EE0004C081F930F939F928F92DF92CF922FA94E
:101EF0002F933EA93F93FF92EF928DA98F939CA9B8
:101F00009F932BA92F933AA93F933F922F9289A099
:101F10009AA0ABA0BCA0CDA0DEA0EFA0F8A409A51C
:101F20001AA52BA53CA54DA55EA56FA578A989A9E5
:101F30000E9457030FB6F894DEBF0FBECDBF43CF4C
:101F4000882329F0682F89EB95E00C94DA06089530
:101F5000089520911B05260F3327331F21323105A9
:101F6000ECF420916405FC0190E080E0243069F0FD
:101F700082E00895A0911B052191AC0145505B4F73
:101F8000A40FB52FB11D2C930196861798F380915D
:101F90001B05680F60931B0580E0089581E008959C
:101FA0001092640581E08093630510923E0561E024
:101FB00082E10E94520561E083E10E945205E9EB53
:101FC000F0E080818E7F808380818D7F808388E4B4
:101FD0008093B80085E48093BC000895CF93DF938D
:101FE00091E09093FA048823B9F0C091B800D091A1
:101FF000BA008091BC008A7B8093BC0060E082E1E3
:102000000E94520560E083E10E9452050E94D00FB9
:10201000D093BA00C093B800DF91CF91089508958E
:10202000E091930580919205E81730F4F0E0E652D4
:10203000FB4F808190E008958FEF9FEF089590917E
:102040009305809192052FEF3FEF981748F4E92F01
:10205000F0E0E652FB4F208130E09F5F90939305C4
:10206000C90108958091920590919305891B990B60
:102070000895CF92DF92EF92FF920F931F93CF9329
:10208000DF937C01CB018A0120916A05222389F02C
:10209000EB016B01C40ED51ECC15DD0569F069910D
:1020A000D701ED91FC910190F081E02DC7010995D8
:1020B000F3CF642F0E94A90FC801DF91CF911F9128
:1020C0000F91FF90EF90DF90CF900895CF93DF9323
:1020D0001F92CDB7DEB7698320916A052223F9F0FC
:1020E00020919005203258F021E030E0FC0133834C
:1020F000228390E080E00F90DF91CF91089580914E
:102100009105E82FF0E0E559FA4F998190838F5FB0
:10211000809391058093900581E090E0ECCF61E0A1
:10212000CE0101960E94A90FF7CFCF92DF92EF92D6
:10213000FF920F931F93CF93DF93FC01C48121E0A3
:1021400020936A05C0938B0510929105109290051B
:102150008385682B86E596E00E946610D0919005F5
:10216000D13208F092C00E94BC056B017C018091C5
:102170006405811165C082E08093640581E08093ED
:1021800063058FEF8093620510926105D09360051F
:10219000ABE6B5E0E0E4F5E080E0D81385C010924E
:1021A0003F0580913F05CC0FC82BC0933F05809120
:1021B0003E05813009F07CC010923E050E94BC05AE
:1021C0006B017C0180913F058093BB008091660587
:1021D00090916705A0916805B0916905892B8A2BBC
:1021E0008B2B99F00E94BC05009166051091670544
:1021F00020916805309169056C197D098E099F0948
:102200000617170728073907E0F18091BC0083FD06
:10221000D9CF85EC8093BC000E94BC056B017C018A
:1022200080916405823009F445C0809162058F3F3A
:1022300061F180916205803241F18091620525C093
:102240008091660590916705A0916805B091690538
:10225000892B8A2B8B2B09F48ACF0E94BC05009115
:1022600066051091670520916805309169056C1924
:102270007D098E099F09061717072807390708F0F7
:1022800076CF809165050E94EE0F10929105109215
:10229000900510926A05DF91CF911F910F91FF90E9
:1022A000EF90DF90CF9008959D9191938F5F75CFC0
:1022B00085EEB0CF8091660590916705A091680585
:1022C000B0916905892B8A2B8B2B09F4A9CF0E9429
:1022D000BC05009166051091670520916805309155
:1022E00069056C197D098E099F09061717072807CC
:1022F000390708F095CFC5CF90E080E0089583E0DE
:102300000E942905892B41F48091A4058F5F809359
:10231000A40581E08093990583E00E942905019737
:1023200029F480919F058F5F80939F05089582E037
:102330000E942905892B29F48091AF058F5F809336
:10234000AF0582E00E942905019729F48091AA0532
:102350008F5F8093AA0508954091C6045091C704E9
:102360006091C8047091C90484EA96E00E949907BC
:1023700080919805811124C04091C2045091C304FA
:102380006091C4047091C5048EE896E00E9499079C
:102390004091B0045091B1046091B2047091B304C3
:1023A00088E796E00E9499074091AC045091AD04F3
:1023B0006091AE047091AF0482E696E00E949907A6
:1023C00084EA96E00E94470720E030E04AE754E4C0
:1023D0000E9456289B01AC0160E070E080E89FE31A
:1023E0000E94562820E030E040E05FE30E94EA27A8
:1023F0000E94042970939705609396058EE896E0F5
:102400000E94470720E030E04AE754E40E94562843
:102410009B01AC0160E070E080E89FE30E945628D9
:1024200020E030E040E05FE30E94EA270E940429B8
:10243000709395056093940508954F925F926F9203
:102440007F928F929F92AF92BF92CF92DF92EF9244
:10245000FF92CF934091A0055091A1056091A205F4
:102460007091A3058091AB059091AC05A091AD054D
:10247000B091AE05C0919805481759076A077B07C8
:1024800090F5C11130C0C090A605D090A705E0908E
:10249000A805F090A90580909B0590909C05A090C0
:1024A0009D05B0909E054093AB055093AC0560939D
:1024B000AD057093AE058093A0059093A105A09300
:1024C000A205B093A3058092A6059092A705A092BD
:1024D000A805B092A905C0929B05D0929C05E092F8
:1024E0009D05F0929E054090AB055090AC05609024
:1024F000AD057090AE05C090A605D090A705E09000
:10250000A805F090A905812C912C5401C11154C04B
:102510006091A0057091A1058091A2059091A305FD
:1025200064197509860997096093CE047093CF04E6
:102530008093D0049093D10480909B0590909C054B
:10254000A0909D05B0909E058C189D08AE08BF0810
:102550008092CA049092CB04A092CC04B092CD0495
:102560000E94932620E030E04AE754E40E94562877
:102570006093B0047093B1048093B2049093B30459
:10258000C501B4010E94932620E030E04AE754E4FC
:102590000E9456286093AC047093AD048093AE04FF
:1025A0009093AF04C501B40120E230E040E050E078
:1025B0000E94152A49015A01C418D508E608F708EF
:1025C000C701B601681979098A099B096093D60485
:1025D0007093D7048093D8049093D9040E949526D1
:1025E0006B017C0120E030E04AE754E40E94562869
:1025F0006093C6047093C7048093C8049093C90481
:1026000020E034E244E759E4C701B6010E945628AD
:102610009B01AC012093B8043093B9044093BA04F1
:102620005093BB0460E070E080E89FE30E9456286E
:1026300020E030E040E05FE30E94EA270E940429A6
:102640007093B7046093B604C11156C060919B05A6
:1026500070919C0580919D0590919E05C090A0056C
:10266000D090A105E090A205F090A3056C197D091A
:102670008E099F09681979098A099B096093D20418
:102680007093D3048093D4049093D5040E9495262C
:102690006B017C0120E030E04AE754E40E945628B8
:1026A0006093C2047093C3048093C4049093C504E0
:1026B00020E034E244E759E4C701B6010E945628FD
:1026C0009B01AC012093BE043093BF044093C0042F
:1026D0005093C10460E070E080E89FE30E945628B8
:1026E00020E030E040E05FE30E94EA270E940429F6
:1026F0007093B5046093B404CF91FF90EF90DF9096
:10270000CF90BF90AF909F908F907F906F905F9091
:102710004F9008958FB7F8944091B1055091B2054C
:102720006091B3057091B4058FBF21E03FB7F89475
:102730008091B1059091B205A091B305B091B40517
:102740003FBF841B950BA60BB70B883E9340A1059A
:10275000B10538F48091A405833040F32093BC0484
:10276000E5CF8091AF05833018F081E08093BD0400
:1027700008950F931F93CF938C01C62F0E9495103D
:102780006C2F6460C8010E9495106C2F6B7FC8018C
:102790000E94951083EC90E00197F1F7CF911F9183
:1027A0000F9108950F931F93CF93DF938C01D62F32
:1027B000C42F607F642B0E94B91380E1D89FB001C1
:1027C00011246C2BC801DF91CF911F910F910C94B4
:1027D000B913CF93DF93CDB7DEB728970FB6F89430
:1027E000DEBF0FBECDBF98E0EAE0F1E0DE0111965A
:1027F00001900D929A95E1F79091C206961710F408
:102800006FEF690F262F30E0220F331F41E050E0B9
:102810004C0F5D1F240F351FF9016081680F606840
:1028200040E08AEB96E028960FB6F894DEBF0FBE24
:10283000CDBFDF91CF910C94D21341E00E94D2130F
:1028400081E090E0089540E061E08AEB96E00E942C
:10285000D2138BE39FE10197F1F70895CF93DF93B4
:10286000EC018AE090E0998388839F838E8388E2DD
:1028700090E00E94182B9D878C87892B11F4198278
:102880001882CE01DF91CF910C941908FB010190C1
:102890000020E9F73197AF01461B570BDC01ED91A2
:1028A000FC910280F381E02D0994CF93DF93BC016A
:1028B00089EB95E00E941606EC016CE971E089EB6A
:1028C00095E00E9446148C0F9D1FDF91CF910895D3
:1028D0008F929F92AF92BF920F931F93CF93DF93EC
:1028E000CDB7DEB7A1970FB6F894DEBF0FBECDBF50
:1028F00019A2423008F44AE08E010F5D1F4F842E6A
:10290000912CB12CA12CA50194010E94F329E62F52
:10291000B901CA01EA3004F5E05DD801EE938D01FA
:10292000232B242B252B79F790E080E0109729F0BA
:10293000BD018AEB96E00E944614A1960FB6F8946A
:10294000DEBF0FBECDBFDF91CF911F910F91BF9022
:10295000AF909F908F900895E95CDFCFCF92DF9288
:10296000EF92FF926C01990FEE08FF08F7FE16C078
:1029700041E06DE28AEB96E00E94D213662777274A
:10298000CB016C197D098E099F094AE00E946814E9
:102990000196FF90EF90DF90CF9008954AE0C70135
:1029A000B601FF90EF90DF90CF900C946814BC01BB
:1029B0008AEB96E00C9446144F925F926F927F924E
:1029C0008F929F92AF92BF92CF92DF92EF92FF923F
:1029D0000F931F93CF936B017C01742EAC019B016D
:1029E0000E94D92963E971E0811126C0460157018F
:1029F000E894B7F82FEF3FEF4FE75FE7C501B40169
:102A00000E94D92981110CC02FEF3FEF4FE75FE7FC
:102A1000C501B4010E948E266FE971E0181664F0BA
:102A20002FEF3FEF4FE75FE4C701B6010E948E2909
:102A30001816ACF463EA71E08AEB96E0CF911F912F
:102A40000F91FF90EF90DF90CF90BF90AF909F904D
:102A50008F907F906F905F904F900C9446142FEF63
:102A60003FEF4FE75FECC701B6010E948E2687FD5E
:102A7000E1CF20E030E0A901C701B6010E948E2617
:102A800010E000E087FF0CC041E06DE28AEB96E0C9
:102A90000E94D213F7FAF094F7F8F09401E010E0F6
:102AA000C0E060E070E080E09FE37C1641F020E051
:102AB00030E040E251E40E945628CF5FF6CFA701F4
:102AC00096010E94EA274B015C010E940B292B0111
:102AD0003C014AE00E946814080F191FCC23C9F179
:102AE000C301B2010E9493269B01AC01C501B40150
:102AF0000E94E9274B015C0141E06EE28AEB96E01F
:102B00000E94D2130F5F1F4FC15018F120E030E038
:102B100040E251E4C501B4010E94F4262B013C01BE
:102B20000E940B294B01B12CA12C4AE0C501B40134
:102B30000E946814080F191FC501B4010E94932652
:102B40009B01AC01C301B2010E94E9274B015C016A
:102B5000DBCFC801CF911F910F91FF90EF90DF90D5
:102B6000CF90BF90AF909F908F907F906F905F902D
:102B70004F900895CF92DF92EF92FF928091BC0424
:102B800060E0811105C08091BD04882309F4FEC076
:102B900081E10E94E91387EA91E00E94D71461E085
:102BA00080E00E94E9138BEA91E00E94D71461E073
:102BB00089E00E94E913C090C604D090C704E09059
:102BC000C804F090C90423EF3FE443EC57E4C70185
:102BD000B6010E948E2618160CF4DEC041E0C70133
:102BE000B6010E94DC1461E080E00E94E913C0900D
:102BF000C204D090C304E090C404F090C50423EF55
:102C00003FE443EC57E4C701B6010E948E26181634
:102C10000CF4C7C041E0C701B6010E94DC1461E0BA
:102C200082E10E94E91382EC91E00E94D71462E0F5
:102C300080E00E94E9138BEA91E00E94D714C090D3
:102C4000B804D090B904E090BA04F090BB0420E03E
:102C500030E040E85FE3C701B6010E948E2662E0E3
:102C600087FFA4C089E00E94E91385EC91E00E94EF
:102C7000D7148091B6049091B7040E94AE1462E01C
:102C800082E10E94E91388EC91E00E94D714C09081
:102C9000BE04D090BF04E090C004F090C10420E0D6
:102CA00030E040E85FE3C701B6010E948E2662E093
:102CB00087FF85C080919805811181C00E94E9132A
:102CC00085EC91E00E94D7148091B4049091B504F2
:102CD0000E94AE1463E080E00E94E9138BEA91E069
:102CE0000E94D71463E089E00E94E9132AE93FE3D8
:102CF0004CE156E46091B0047091B1048091B2044B
:102D00009091B3040E948E2618160CF461C08BECCF
:102D100091E00E94D7146091B0047091B104809149
:102D2000B2049091B30441E00E94DC1463E080E0BF
:102D30000E94E9132AE93FE34CE156E46091AC04B8
:102D40007091AD048091AE049091AF040E948E26E4
:102D500018160CF442C08FEC91E00E94D7146091D9
:102D6000AC047091AD048091AE049091AF0441E049
:102D70000E94DC1463E082E10E94E91382EC91E09E
:102D8000FF90EF90DF90CF900C94D71481E10E94D8
:102D9000E9138AEB91E001CF8EEB91E00E94D7140A
:102DA00022CF8EEB91E00E94D71439CF89E00E94A8
:102DB000E91342E0C701B6010E94DC1460CF80E055
:102DC0000E94E91342E0C701B6010E94DC1482CFE1
:102DD0008EEB91E00E94D714A9CF8EEB91E00E9478
:102DE000D714C8CFFC0180819181009711F00C9419
:102DF000B42B0895FC0184859585009711F00C94FF
:102E0000B42B08950F931F93CF93DF93EC01888128
:102E10009981009759F02A813B812617370730F0B6
:102E200081E0DF91CF911F910F9108958B016F5F2A
:102E30007F4F0E943D2C009759F0998388831B8314
:102E40000A832C813D81232B59F7FC011082E8CFA6
:102E500080E0E7CFEF92FF920F931F93CF93DF9322
:102E6000EC01FB01E080F180E114F10411F1048137
:102E7000158101151105A9F08C819D81080F191F7D
:102E8000B801CE010E940217882399F02881398168
:102E90008C819D81B701820F931F0E94032D1D839A
:102EA0000C83CE01DF91CF911F910F91FF90EF9096
:102EB000089588819981009711F00E94B42B19829E
:102EC00018821D821C821B821A82EBCFEF92FF9226
:102ED0000F931F93CF93DF93EC017B018A01BA011B
:102EE0000E94021728813981811114C021153105F2
:102EF00019F0C9010E94B42B198218821D821C820C
:102F00001B821A82CE01DF91CF911F910F91FF900A
:102F1000EF9008951D830C83B701C9010E94032D12
:102F2000F1CFEF92FF920F931F93CF93DF93CDB723
:102F3000DEB762970FB6F894DEBF0FBECDBF8C012F
:102F4000CB01F80111821082138212821582148241
:102F50004AE09E012F5F3F4F7901B9010E94592637
:102F6000F70101900020E9F73197AF014E195F0991
:102F7000B701C8010E94661762960FB6F894DEBFCB
:102F80000FBECDBFDF91CF911F910F91FF90EF90BA
:102F90000895FB01DC0111961C921E9213961C925F
:102FA0001E92129715961C921E92149786179707D9
:102FB00049F0608171816115710521F0448155816D
:102FC0000C9466170895FC011182108213821282FC
:102FD00015821482FB0101900020E9F73197AF01BF
:102FE000461B570B0C946617CF93DF93CDB7DEB714
:102FF0002C970FB6F894DEBF0FBECDBF1092AB0575
:103000001092AC051092AD051092AE051092A60577
:103010001092A7051092A8051092A9051092A0057C
:103020001092A1051092A2051092A30510929B0583
:1030300010929C0510929D0510929E051092D60448
:103040001092D7041092D8041092D9041092D2048E
:103050001092D3041092D4041092D5041092CE048E
:103060001092CF041092D0041092D1041092CA048E
:103070001092CB041092CC041092CD041092C6048E
:103080001092C7041092C8041092C9041092C2048E
:103090001092C3041092C4041092C5041092BE048E
:1030A0001092BF041092C0041092C10463ED71E04D
:1030B000CE0101960E94E31763ED71E0CE01079601
:1030C0000E94E3171092A50510929A051092980598
:1030D0001092AF051092A4051092AA0510929F05B8
:1030E000109299051092BD041092BC04CE0107966F
:1030F0000E94F216CE0101960E94F2162C960FB68F
:10310000F894DEBF0FBECDBFDF91CF9108954F92EF
:103110005F926F927F92AF92BF92CF92DF92EF92C7
:10312000FF920F931F93CF93DF93FC0102811381D2
:103130000230110508F44FC0EC01B80190E080E0C6
:103140000E9493269B01AC01688579858A859B85C1
:103150000E9456282B013C01AC84BD84D0E0C0E025
:10316000C12CD12C7601F5016191719181919191E0
:103170005F01A30192010E94E9279B01AC010E941B
:10318000F4269B01AC01C701B6010E94EA276B013E
:103190007C01CE01019608171907D9F4BE0190E011
:1031A00080E00E9493269B01AC01C701B6010E94FA
:1031B0005628DF91CF911F910F91FF90EF90DF90F4
:1031C000CF90BF90AF907F906F905F904F900C9496
:1031D0009929EC01C8CF60E070E080EC9FE7DF91B7
:1031E000CF911F910F91FF90EF90DF90CF90BF9004
:1031F000AF907F906F905F904F9008952F923F9285
:103200004F925F926F927F928F929F92AF92BF92F6
:10321000CF92DF92EF92FF920F931F93CF93DF93A2
:10322000CDB7DEB72F970FB6F894DEBF0FBECDBF78
:10323000FE01B496619071908F01312C212CD30145
:103240008C91882309F4F1C3BFEF6B1A7B0A7101DB
:10325000EFEFEE1AFE0A853209F0C6C0B12CA12CA0
:1032600007C08D3271F1803361F46894A0F83F019A
:10327000F30181918B3241F1A4F7803241F1833225
:1032800049F190ED980F9A3040F51B821A82F301B4
:10329000819190ED980F9A3098F54AE02A813B8110
:1032A000429F7001439FF00C112490E3E91AF1084A
:1032B000D701A80FB11D87FDBA95BB83AA833F0133
:1032C000E6CF6894A1F8D3CF6894A2F8D0CF6894E1
:1032D000A3F8CDCF6894A4F8CACF8A32D9F5C80133
:1032E0000296D801ED90FC90F7FE31C06894A1F8E9
:1032F000222733272E193F093B832A838C013F0164
:10330000D3018C918E3209F048C0C30101966894B4
:10331000B2F811962C9130ED320F3A30F0F4512C76
:10332000412CFC01219130ED320F3A3098F5BAE092
:10333000B49D7001B59DF00C112430E3E31AF1083F
:103340002701420E511C27FD5A94CF01EACFFB8280
:10335000EA82D4CF1B821A82D3CF2A32E9F4C80181
:103360000296D8014D905C9057FE02C0512C412C22
:10337000B2E06B0E711C8C0193012F5F3F4FF30184
:1033800080818C36A1F064F48836D9F18A3661F0F8
:10339000930112C03C01F0CF3C01512C412CECCFE9
:1033A000843711F08A37A1F76894B1F805C081819C
:1033B0008C3609F16894B0F8D9018D913D018536BC
:1033C00009F4EAC10CF0A4C0873409F4E5C114F58E
:1033D000853409F4E1C10CF0C1C1853209F4FBC2A6
:1033E0007101BFEFEB1AFB0A2FEF3FEFA101BE0106
:1033F0006F5F7F4FFBC2B3E0BB2A93012E5F3F4F4D
:10340000DBCF8181883619F06894A7F8D5CFF0EC2E
:10341000AF2AF3CF823609F434C33CF46894A5F89C
:103420008835F1F6F0E18F2E0DC0833609F4CBC15B
:103430008436B1F6E894A4F8AAE08A2E893621F001
:10344000843611F0B3EFAB22B2FE02C0E894A0F8CC
:10345000950122273270893619F0843609F023C18C
:10346000232B09F49CC0F8013896F987E887D80126
:10347000CC901196DC9011971296EC9012971396BF
:10348000FC90139714969C9014971596AC91F801A4
:10349000F681FC83F801F781FA879601A701692D6F
:1034A0007A2F8C819F2F0FE30E94D62AB22F092DED
:1034B0001A2FFC81EA859601A701B8018F2F9E2F54
:1034C000A0E00E94062B3CF40E94C42A69017A0104
:1034D0008B01F82FE92FBF92AF922B812F933A8166
:1034E0003F935F924F92AB2E2F2F3E2FA101BE0133
:1034F0006F5F7F4F80EA9FE00E94A8011C010F9040
:103500000F900F900F900F900F900885198597CE10
:103510008F3609F4B3C29CF4873609F43DC10CF42C
:103520001DC1893609F486CF8E3609F059CFD801EE
:10353000ED91FD918D01A6FE5DC2208280CE833784
:1035400009F490C12CF5803709F04ACF65016894E1
:10355000C0F8D4F8F8013296FB83EA83D8010D91C4
:103560001C910115110509F015C246E0E42EF12C5D
:1035700005E010E02CED31E0A101BE016F5F7F4F4F
:1035800080EA9FE00E941E011C010A811B8157CE28
:10359000853709F44FCF883709F444CF21CFB0FEE7
:1035A00048C0C801049699878887D801CD90DD90DE
:1035B000ED90FC90D701C6018827B7FD8395992728
:1035C000AA27BB278C879D87AE87BF87D701C601F7
:1035D000BB0F880B982FDC018C839D83AE83BF8348
:1035E000BC2D9D2CEA86FB860C81102FF02FE02F3E
:1035F0009601A7016F2F702F802F9F2FA0E00E94B0
:10360000062B4CF40E94C42AB22F932E4A875B8764
:103610008B01F82FE92FBF92AF929B819F93AA81D4
:10362000AF935F924F92AC84CB2ED92CEA84FB846B
:103630005BCFF8013296F987E887D801A6FE30C043
:10364000EC910E2E000CFF0BBF2FBB1FBB27BB1F27
:10365000BC836F01EF2EEE0CEE08FE2C0E2D1E2DFE
:103660009E2CBE2D9F014E2D5E2D6E2D7E2D8E2DFE
:103670009E2DA0E00E94062B3CF40E94C42A690102
:103680007A018B01982EB92FBF92AF92EB81EF9305
:10369000FA81FF935F924F92AC80292D3B2F26CF6A
:1036A000ED91FC91D1CF232B39F19801285F3F4F49
:1036B00039872887D801CC901196DC901197129603
:1036C000EC9012971396FC90139714969C91149774
:1036D00015968C91159716962C91169717963C91E6
:1036E000BF92AF92BB81BF93EA81EF935F924F92FB
:1036F000A12C092F182FFACE9801B0FE19C02C5F0B
:103700003F4F39872887D8010D911D912D913C910C
:10371000BF92AF92BB81BF93EA81EF935F924F92CA
:10372000A12C6801790100E010E020E030E0DECE5D
:103730002E5F3F4F39872887D8010D911C91A6FC39
:103740001127BF92AF92BB81BF93EA81EF935F9243
:103750004F92A12C6801E12CF12CE5CF863411F4B5
:103760006894A5F898012C5F3F4F3D832C83D801C6
:103770000D911D912D913C91812CCA80DB807201AD
:10378000A101BE016F5F7F4F80EA9FE00E94A90EFA
:103790001C010C811D8153CD982F9F7D973419F406
:1037A0006894B3F88D7F853411F46894A5F8F80116
:1037B0003496FD83EC83D8010D911D912D913C91A0
:1037C00088248394DACF4501B2E08B229924A101A9
:1037D000CC24C394D12CA1FC1AC0F12CE12CA10162
:1037E0004E0D5F1D6701E2E0CE0ED11CFFEFEF1A18
:1037F000FF0A2A813B81E216F30648F42FEF3FEFE0
:10380000BE016F5F7F4F80E20E94A00FE8CF1A01D8
:103810003FEF231A330A780182E0E80EF11C2FEF04
:103820003FEFBE016F5F7F4FD8018C910E94A00FC8
:103830008928B1F0EA81FB81CE16DF0688F4810188
:103840000F5F1F4F2FEF3FEFA101BE016F5F7F4F53
:1038500080E20E94A00FFFEFCF1ADF0A1801EACF23
:103860008701EDCC98012E5F3F4F39872887D8011B
:103870000D911C910115110589F46501EA80FB8009
:1038800006E010E025ED31E0A101BE016F5F7F4F42
:1038900080EA9FE00E941E011C0137CE9201411474
:1038A000510411F42FEF3FEFF80190E080E0AF01F9
:1038B0004F5F5F4F6081662331F08217930719F0E5
:1038C0000196FA01F4CFE01BF10B95012227347029
:1038D0003D832C83B2FE04C04E165F0608F4F2014D
:1038E000450132E0832299247F01A101A1FC18C087
:1038F0002E1A3F0AA1014E0F5F1F7F018FEFE81ABA
:10390000F80AAA81BB81EA17FB0750F42FEF3FEFBB
:10391000BE016F5F7F4F80E20E94A00FF701EACFE8
:103920006A01C01AD10AA601400F511FF801819106
:103930008F01882391F02C813D81232B31F092015E
:1039400021503109452849F029012FEF3FEFBE01F1
:103950006F5F7F4F0E94A00FE6CF1A01892809F4FC
:10396000D4CDE41AF50AC701820D931DAA81BB814B
:103970008A179B0708F0C9CD81010F5F1F4F2FEFFA
:103980003FEFA101BE016F5F7F4F80E20E94A00F59
:103990001801E9CFDF92CF921F92B6E0BF935F92FA
:1039A0004F9230E1832EA12C6801E12CF12C00E034
:1039B00010E020E030E0A101BE016F5F7F4F80EAA0
:1039C0009FE00E94A8011C010F900F900F900F9094
:1039D0000F900F90DACD7101EFEFEE1AFE0A2FEF84
:1039E0003FEFA101BE016F5F7F4F85E20E94A00FF4
:1039F000170125CCA7FE03C03182208220CCB0FE67
:103A000008C0C101B0E0A0E080839183A283B383AA
:103A100016CCB1FEF1CF4101208291821282138235
:103A200014821582168217820ACCA101EFEF2E169E
:103A30003E0611F44EEF5FEF2FEF3FEFBE016F5FD9
:103A40007F4F80E00E94A00FC1012F960FB6F8941F
:103A5000DEBF0FBECDBFDF91CF911F910F91FF90C1
:103A6000EF90DF90CF90BF90AF909F908F907F901E
:103A70006F905F904F903F902F90089528E0822E96
:103A8000E1CC92E0892EDECCEF92FF920F931F9350
:103A9000CF93DF93CDB7DEB76E970FB6F894DEBF46
:103AA0000FBECDBF65EC71E0CE010D960E94E3170D
:103AB0006091960570919705CE0107960E94911727
:103AC000BE01635F7F4FCE0101960E94C917BE0100
:103AD000695F7F4FCE0101960E942A17BC01CE017B
:103AE00043960E94C917CE0101960E94F216CE019C
:103AF00007960E94F2166091940570919505CE018B
:103B000007960E949117BE01635F7F4FCE01019619
:103B10000E94C917BE01695F7F4FCE0101960E94C6
:103B20002A17BC01CE0149960E94C917CE01019601
:103B30000E94F216CE0107960E94F21688E091E0EC
:103B40000E94551484EA96E00E944707162F072F1B
:103B5000F82EE92E8EE896E00E944707EF92FF923A
:103B60000F931F939F938F937F936F938091A706DB
:103B70008F938091A6068F9382EE91E09F938F930F
:103B80000E94FE1888E796E00E944707162F072F2D
:103B9000F82EE92E82E696E00E944707EF92FF9208
:103BA0000F931F939F938F937F936F9380917B06C7
:103BB0008F9380917A068F9382E192E09F938F9307
:103BC0000E94FE188091A7068F938091A6068F937E
:103BD00083E492E09F938F930E94FE180FB6F894AF
:103BE000DEBF0FBECDBF80919405909195050297E1
:103BF0000CF4C6C08A8D8F93898D8F938DE592E0EA
:103C00009F938F930E94FE180F900F900F900F902C
:103C1000809196059091970502970CF4CCC08C8901
:103C20008F938B898F938CE692E09F938F930E9462
:103C3000FE180F900F900F900F908091B5068F9304
:103C40008091B4068F938091B3068F938091B206D2
:103C50008F9380919F068F9380919E068F93809182
:103C60009D068F9380919C068F938091A7068F93DA
:103C70008091A6068F938DE892E09F938F930E9488
:103C8000FE188091B9068F938091B8068F9380912A
:103C9000B7068F938091B6068F938091A3068F937A
:103CA0008091A2068F938091A1068F938091A006A8
:103CB0008F938091A7068F938091A6068F938DEBAB
:103CC00092E09F938F930E94FE1884EA96E00E94F0
:103CD0008718162F072FF82EE92E8EE896E00E94FF
:103CE0008718EF92FF920F931F939F938F937F9369
:103CF0006F938091A7068F938091A6068F938EEE87
:103D000092E09F938F930E94FE180FB6F894DEBF47
:103D10000FBECDBF82E696E00E9487189F938F93D7
:103D20007F936F939F938F937F936F9380917B0685
:103D30008F9380917A068F938FE193E09F938F9377
:103D40000E94FE18CE0149960E94F216CE014396BB
:103D50000E94F216CE010D960E94F2160FB6F8944C
:103D6000DEBF0FBECDBF6E960FB6F894DEBF0FBE9E
:103D7000CDBFDF91CF911F910F91FF90EF900895EC
:103D80008EE896E00E94470720E030E04AE754E4DE
:103D90000E9456289F938F937F936F9383E692E0C0
:103DA0009F938F930E94FE180F900F900F900F908B
:103DB0000F900F902DCF84EA96E00E94470720E0F5
:103DC00030E04AE754E40E9456289F938F937F93F4
:103DD0006F938BE792E09F938F930E94FE180F9052
:103DE0000F900F900F900F900F9027CFCF93DF93EE
:103DF000CDB7DEB76E970FB6F894DEBF0FBECDBF5E
:103E000065EC71E0CE010D960E94E3176091B60457
:103E10007091B704CE0107960E949117BE01635FAF
:103E20007F4FCE0101960E94C917BE01695F7F4F87
:103E3000CE0101960E942A17BC01CE0143960E9432
:103E4000C917CE0101960E94F216CE0107960E9474
:103E5000F2166091B4047091B504CE0107960E94E9
:103E60009117BE01635F7F4FCE0101960E94C91773
:103E7000BE01695F7F4FCE0101960E942A17BC01E7
:103E8000CE0149960E94C917CE0101960E94F216F2
:103E9000CE0107960E94F21684ED90E00E94551420
:103EA0008091D9048F938091D8048F938091D70407
:103EB0008F938091D6048F938091D5048F938091B6
:103EC000D4048F938091D3048F938091D2048F93E5
:103ED00081E593E09F938F930E94FE188091C9041F
:103EE0008F938091C8048F938091C7048F938091A2
:103EF000C6048F938091C5048F938091C4048F93DF
:103F00008091C3048F938091C2048F938DE793E0D7
:103F10009F938F930E94FE188091BB048F93809192
:103F2000BA048F938091B9048F938091B8048F93D2
:103F30008091C1048F938091C0048F938091BF04BE
:103F40008F938091BE048F938CEA93E09F938F931D
:103F50000E94FE186BEB70E089EB95E00E9416065C
:103F60000FB6F894DEBF0FBECDBF20E030E040E8D2
:103F70005FE36091BE047091BF048091C004909192
:103F8000C1040E948E2687FFD3C0809198058111BD
:103F9000CFC08A8D8F93898D8F938EE592E09F930A
:103FA0008F930E94FE180F900F900F900F9020E0BB
:103FB00030E040E85FE36091B8047091B90480910B
:103FC000BA049091BB040E948E2687FFBAC08C89E8
:103FD0008F938B898F938CE692E09F938F930E94AF
:103FE000FE180F900F900F900F90809198058111FF
:103FF00041C08091D1048F938091D0048F938091A0
:10400000CF048F938091CE048F938091CD048F93B2
:104010008091CC048F938091CB048F938091CA04BC
:104020008F938EED93E09F938F930E94FE18809163
:10403000B3048F938091B2048F938091B1048F93D6
:104040008091B0048F938091AF048F938091AE04E0
:104050008F938091AD048F938091AC048F938AE00D
:1040600094E09F938F930E94FE180FB6F894DEBFE2
:104070000FBECDBF8091BC04882381F08091A40540
:104080008250990B9F938F9389E394E09F938F9332
:104090000E94FE180F900F900F900F908091BD041A
:1040A000882381F08091AF058250990B9F938F9365
:1040B0008AE594E09F938F930E94FE180F900F90D3
:1040C0000F900F904091A0055091A1056091A2051D
:1040D0007091A3058091A6059091A705A091A805D0
:1040E000B091A905481759076A077B0740F48091EA
:1040F0009805811104C086E990E00E94551488E675
:1041000090E00E945514CE0149960E94F216CE010D
:1041100043960E94F216CE010D960E94F2166E96FC
:104120000FB6F894DEBF0FBECDBFDF91CF910895DB
:1041300083EB91E09F938F930E94FE180F900F9056
:1041400036CF80E492E09F938F930E94FE180F90E9
:104150000F904BCF85ED8093BC00809166059091C8
:104160006705A0916805B09169050796A11DB11D6D
:1041700023E0B695A795979587952A95D1F7209135
:10418000BC0024FD03C010926405089540916605AB
:10419000509167056091680570916905452B462B24
:1041A000472B69F30097A105B10541F02AE22A9552
:1041B000F1F700C00197A109B109E1CF8091650530
:1041C0000C94EE0F1F920F920FB60F9211242F93A3
:1041D0003F938F939F93AF93BF938091B10590913D
:1041E000B205A091B305B091B4053091B00523E0BC
:1041F000230F2D3758F50196A11DB11D2093B00551
:104200008093B1059093B205A093B305B093B40524
:104210008091B5059091B605A091B705B091B8050C
:104220000196A11DB11D8093B5059093B605A0938D
:10423000B705B093B805BF91AF919F918F913F9112
:104240002F910F900FBE0F901F90189526E8230F07
:104250000296A11DB11DD2CF1F920F920FB60F92E1
:1042600011242F933F934F935F936F937F938F937B
:104270009F93AF93BF93EF93FF93E0910201F0916F
:1042800003010995FF91EF91BF91AF919F918F919C
:104290007F916F915F914F913F912F910F900FBE42
:1042A0000F901F9018951F920F920FB60F92112426
:1042B0002F933F934F935F936F937F938F939F932E
:1042C000AF93BF93EF93FF93E0910001F091010151
:1042D0000995FF91EF91BF91AF919F918F917F9140
:1042E0006F915F914F913F912F910F900FBE0F9063
:1042F0001F9018951F920F920FB60F9211242F93B3
:104300003F934F935F936F937F938F939F93AF935D
:10431000BF93EF93FF9389EB95E00E94B806FF915E
:10432000EF91BF91AF919F918F917F916F915F912D
:104330004F913F912F910F900FBE0F901F901895A6
:104340001F920F920FB60F9211242F938F939F936A
:10435000EF93FF93E091C905F091CA058081E09148
:10436000CF05F091D00582FD1BC090818091D205D0
:104370008F5F8F732091D305821741F0E091D205B2
:10438000F0E0E754FA4F958F8093D205FF91EF91BB
:104390009F918F912F910F900FBE0F901F901895A6
:1043A0008081F4CF1F920F920FB60F9211242F939A
:1043B0003F934F935F936F937F938F939F93AF93AD
:1043C000BF93EF93FF938091B900887F803609F403
:1043D0004AC0F0F5883209F4A7C018F5803109F415
:1043E0009BC0B8F4882309F4F9C0883009F494C05C
:1043F000FF91EF91BF91AF919F918F917F916F91BD
:104400005F914F913F912F910F900FBE0F901F9092
:104410001895883109F488C0803251F7809362057D
:1044200014C0803409F49DC040F48033B9F388335C
:10443000F9F68093620585ECB0C0803509F485C03B
:10444000883509F496C0883499F60E94AA20D0CF06
:10445000883909F48CC038F5883729F050F488364B
:1044600011F0803729F683E08093640510923D05B2
:1044700057C0883809F47BC0803919F0803809F0BA
:10448000B7CF80913D05803208F071C0E0913D05C5
:1044900081E08E0F80933D058091BB00F0E0E35EEC
:1044A000FA4F80833DC0803B39F0E0F4803A09F454
:1044B00079C0883A09F09CCF84E08093640510921B
:1044C0001C0510921B05E0918E05F0918F05099552
:1044D00080911B0581110FC081E080931B05109214
:1044E000FB0409C0803C09F4A6CF883C09F4A3CFA3
:1044F000883B09F07DCFE0911C0581E08E0F809311
:104500001C05F0E0E550FB4F80818093BB0090914B
:104510001C0580911B0529C080913F058093BB003D
:1045200085EC8093BC0064CF90916105809160051B
:10453000981758F5E091610581E08E0F8093610531
:10454000F0E0E05CFA4F8081E9CFE091610581E025
:104550008E0F809361058091BB00F0E0E05CFA4F24
:10456000808390916105809160059817C8F285E875
:10457000D8CFE091610581E08E0F80936105809135
:10458000BB00F0E0E05CFA4F80838091630581110D
:104590005CCF81E080933E0584EA8093BC0010925A
:1045A000640526CF85EC8093BC0010926405809151
:1045B0003D05803230F4E0913D05F0E0E35EFA4FD6
:1045C000108260913D0570E0E0918C05F0918D05C1
:1045D0008DE195E0099510923D050ACF1092620594
:1045E00034CFE9EBF5E01382128288EE93E0A0E08D
:1045F000B0E084839583A683B7832EE531E03183D1
:10460000208325EC30E03587248724EC30E03787A1
:10461000268720EC30E0318B208B21EC30E0338B8F
:10462000228B22EC30E0358B248B26EC30E0378B6C
:10463000268B118E128E138E148EE6E5F6E0138211
:10464000128284839583A683B78380E791E0918368
:104650008083EAEBF6E01382128282E891E0918394
:10466000808387E2848384E1818784E08287138664
:1046700084EA96E00E942E148EE896E00E942E14A2
:1046800088E796E00E942E1482E696E00C942E14A1
:10469000789484B5826084BD84B5816084BD85B51D
:1046A000826085BD85B5816085BD80916E00816029
:1046B00080936E00109281008091810082608093CF
:1046C00081008091810081608093810080918000D1
:1046D0008160809380008091B10084608093B100FC
:1046E0008091B00081608093B00080917A008460F6
:1046F00080937A0080917A00826080937A00809122
:104700007A00816080937A0080917A00806880933B
:104710007A001092C10060E082E00E94800560E0B3
:1047200083E00E94800562E08CE00E94800562E0E8
:104730008BE00E94800587E991E1909301018093CD
:104740000001809169008C7F816080936900E89A04
:104750008FE791E1909303018093020180916900BA
:10476000837F846080936900E99AE091C905F091A4
:10477000CA0582E08083E091C505F091C6051082EC
:10478000E091C705F091C80580E180831092D105C2
:10479000E091CD05F091CE0586E08083E091CB05D8
:1047A000F091CC05808180618083E091CB05F09110
:1047B000CC05808188608083E091CB05F091CC05A9
:1047C000808180688083E091CB05F091CC05808169
:1047D0008F7D80831092930510929205109291051F
:1047E000109290050E94D00F83E196E090938F0580
:1047F00080938E0584E196E090938D0580938C05DF
:104800001092BF068091C406823018F098E0909311
:10481000BF068093C20662E370E080E090E00E94F1
:10482000E1056091C5068AEB96E00E94951068EE5E
:1048300073E080E090E00E94E10560E38AEB96E09F
:104840000E94B913CBE4D6E4CE010197F1F760E3FF
:104850008AEB96E00E94B9132197F1F760E38AEBA7
:1048600096E00E94B91383E592E00197F1F760E2C8
:104870008AEB96E00E94B9136091BF06606240E047
:104880008AEB96E00E94D21384E08093C00640E059
:104890006CE08AEB96E00E94D2130E94231482E01F
:1048A0008093C10640E066E08AEB96E00E94D21356
:1048B00040E062E08AEB96E00E94D2138BE39FE136
:1048C0000197F1F788E08093C50660E08AEB96E0F7
:1048D0000E9495100E94231460E080E00E94E9137A
:1048E0008AE794E00E94D71462E083E00E94E91313
:1048F0008CE894E00E94D71468EB7BE080E090E0C5
:104900000E94E1050E94F4170E94231460E080E0F9
:104910000E94E9136DE371E08AEB96E00E941606AF
:104920008BE00E942905892B39F582E00E94290538
:1049300061E0892BA9F489E00E94E9138AE994E0F7
:104940000E94D71483E00E94290561E0892B71F44D
:1049500080E00E94E9138AE994E00E94D714E5CF31
:1049600089E00E94E91383EA94E0EACF80E00E94A4
:10497000E91383EA94E0F1CF0E94BA15C0E0D0E0D9
:104980008091AF05813079F40E94BC056093AB053E
:104990007093AC058093AD059093AE058091AF0503
:1049A0008F5F8093AF051091AA05113089F40E94A2
:1049B000BC056093A6057093A7058093A805909306
:1049C000A9058091AA058F5F8093AA051093A5057C
:1049D0008091A405813079F40E94BC056093A00504
:1049E0007093A1058093A2059093A3058091A405DF
:1049F0008F5F8093A40510919F05113089F40E9468
:104A0000BC0560939B0570939C0580939D059093D6
:104A10009E0580919F058F5F80939F0510939A0557
:104A20008CE00E942905892BF9F482E591E00E942F
:104A3000551484EA96E00E9419088EE896E00E94D8
:104A4000190888E796E00E94190882E696E00E941D
:104A500019088CE00E942905892BD9F36AEF70E0D0
:104A600080E090E00E94E1058BE00E942905892BFF
:104A700009F0B7C060E080E00E94E91365E771E0EB
:104A80008AEB96E00E94160661E080E00E94E9133E
:104A90008BEA91E00E94D71461E089E00E94E9135B
:104AA00084EA96E00E9447070E940429CB010E94F5
:104AB000AE1461E080E00E94E9138EE896E00E9467
:104AC00047070E940429CB010E94AE1461E082E1F5
:104AD0000E94E91382EC91E00E94D71462E080E02A
:104AE0000E94E9138BEA91E00E94D71462E089E00A
:104AF0000E94E913809196059091970502970CF416
:104B000091C085EC91E00E94D71480919605909118
:104B100097050E94AE1462E080E00E94E913809144
:104B200094059091950502970CF48AC085EC91E06C
:104B30000E94D71480919405909195050E94AE141F
:104B400062E082E10E94E91388EC91E00E94D714B0
:104B500063E080E00E94E9138BEA91E00E94D714A1
:104B600063E089E00E94E9138BEC91E00E94D71486
:104B700088E796E00E9447070E940429CB010E9423
:104B8000AE1463E080E00E94E9138FEC91E00E9494
:104B9000D71482E696E00E9447070E940429CB01C1
:104BA0000E94AE1463E082E10E94E91382EC91E07E
:104BB0000E94D7148BE00E942905892BD9F36AEF54
:104BC00070E080E090E00E94E10560E080E00E94FB
:104BD000E91360E671E08AEB96E00E9416060E94F7
:104BE000BA158091A505882391F080919A058823B4
:104BF000A9F10E948A130E941D120E94F61E0E94B3
:104C0000AC110E94441D0E94BA150E94F41720970F
:104C100009F4B6CE0E94A406882309F4B1CE0E94FE
:104C20000000AECE84EA96E00E94470720E030E024
:104C30004AE754E40E94562842E00E94DC146BCFFD
:104C40008EE896E00E94470720E030E04AE754E40F
:104C50000E94562842E00E94DC1472CF8091990590
:104C60008111D5CF0E94BC050091A6051091A70522
:104C70002091A8053091A905601B710B820B930B45
:104C8000603472448F40910510F281E08093980562
:104C9000B0CF82E696E00E94FA1688E796E00E947E
:104CA000FA168EE896E00E94FA1684EA96E00C94D2
:104CB000FA16BB274A3031F4992322F4BDE29095CD
:104CC00081959F4F0C946526BB27FB015527AA278A
:104CD000880F991FAA1FA41710F0A41B8395505189
:104CE000B9F7A05DAA3308F0A95DA193009779F701
:104CF000B111B1931192CB010C947E26DC01FC0121
:104D0000672F71917723E1F7329704C07C916D93FF
:104D100070836291AE17BF07C8F308950E94D02632
:104D200008F481E00895E89409C097FB3EF490955B
:104D30008095709561957F4F8F4F9F4F9923A9F074
:104D4000F92F96E9BB279395F69587957795679503
:104D5000B795F111F8CFFAF4BB0F11F460FF1BC047
:104D60006F5F7F4F8F4F9F4F16C0882311F096E9DA
:104D700011C0772321F09EE8872F762F05C0662388
:104D800071F096E8862F70E060E02AF09A95660F41
:104D9000771F881FDAF7880F9695879597F90895FA
:104DA000990F0008550FAA0BE0E8FEEF161617063C
:104DB000E807F907C0F012161306E407F50798F0A4
:104DC000621B730B840B950B39F40A2661F0232BBD
:104DD000242B252B21F408950A2609F4A140A69539
:104DE0008FEF811D811D08950E9407270C9478275D
:104DF0000E946A2738F00E94712720F0952311F055
:104E00000C9461270C94672711240C94AC270E9402
:104E1000892770F3959FC1F3950F50E0551F629F4E
:104E2000F001729FBB27F00DB11D639FAA27F00D03
:104E3000B11DAA1F649F6627B00DA11D661F829F2A
:104E40002227B00DA11D621F739FB00DA11D621F0F
:104E5000839FA00D611D221F749F3327A00D611D2C
:104E6000231F849F600D211D822F762F6A2F11240E
:104E70009F5750409AF0F1F088234AF0EE0FFF1F41
:104E8000BB1F661F771F881F91505040A9F79E3F98
:104E9000510580F00C9461270C94AC275F3FE4F33C
:104EA000983ED4F3869577956795B795F795E795EE
:104EB0009F5FC1F7FE2B880F911D9695879597F9F7
:104EC000089597F99F6780E870E060E008959FEF8C
:104ED00080EC089500240A94161617061806090691
:104EE000089500240A941216130614060506089560
:104EF000092E0394000C11F4882352F0BB0F40F4E8
:104F0000BF2B11F460FF04C06F5F7F4F8F4F9F4F27
:104F1000089557FD9058440F551F59F05F3F71F0A9
:104F20004795880F97FB991F61F09F3F79F0879510
:104F30000895121613061406551FF2CF4695F1DF99
:104F400008C0161617061806991FF1CF8695710529
:104F5000610508940895E894BB2766277727CB015D
:104F600097F908952F923F924F925F926F927F929E
:104F70008F929F92AF92BF92CF92DF92EF92FF9269
:104F80000F931F93CF93DF93CDB7DEB7CA1BDB0B15
:104F90000FB6F894DEBF0FBECDBF09942A883988BA
:104FA00048885F846E847D848C849B84AA84B984C1
:104FB000C884DF80EE80FD800C811B81AA81B981CD
:104FC000CE0FD11D0FB6F894DEBF0FBECDBFED01E1
:104FD00008955058BB27AA270E9401280C947827CF
:104FE0000E946A2738F00E94712720F039F49F3F11
:104FF00019F426F40C9467270EF4E095E7FB0C9463
:105000006127E92F0E94892758F3BA1762077307AF
:105010008407950720F079F4A6F50C94AB270EF4DD
:10502000E0950B2EBA2FA02D0B01B90190010C01B8
:10503000CA01A0011124FF27591B99F0593F50F4D0
:10504000503E68F11A16F040A22F232F342F442728
:10505000585FF3CF469537952795A795F040539520
:10506000C9F77EF41F16BA0B620B730B840BBAF0F0
:105070009150A1F0FF0FBB1F661F771F881FC2F75B
:105080000EC0BA0F621F731F841F48F4879577956F
:105090006795B795F7959E3F08F0B0CF9395880F29
:1050A00008F09927EE0F9795879508950E946A2832
:1050B0000C9478270E94712758F00E946A2740F0CC
:1050C00029F45F3F29F00C94612751110C94AC270F
:1050D0000C9467270E94892768F39923B1F355231D
:1050E00091F3951B550BBB27AA27621773078407FB
:1050F00038F09F5F5F4F220F331F441FAA1FA9F391
:1051000035D00E2E3AF0E0E832D091505040E6957E
:10511000001CCAF72BD0FE2F29D0660F771F881FDF
:10512000BB1F261737074807AB07B0E809F0BB0BD2
:10513000802DBF01FF2793585F4F3AF09E3F5105E6
:1051400078F00C9461270C94AC275F3FE4F3983E11
:10515000D4F3869577956795B795F7959F5FC9F7CF
:10516000880F911D9695879597F90895E1E0660F50
:10517000771F881FBB1F621773078407BA0720F0C9
:10518000621B730B840BBA0BEE1F88F7E095089532
:10519000BEE304D008F490E80895BFE32227332744
:1051A000A9010E94912760F19F5748F1B91740F17A
:1051B000BFE3B91B9927B8503AF4660F771F881FD1
:1051C000991FB395D2F316C0B8504AF0232F342F4D
:1051D000452F562F672F782F8827B850BAF7B85F1A
:1051E00049F0869577956795579547953795279513
:1051F000BA95B9F716F40E947E2988940895889488
:1052000060E070E0CB0108950E940B296894B11111
:105210000C94AC2708950E94912788F09F5798F02E
:10522000B92F9927B751B0F0E1F0660F771F881FAB
:10523000991F1AF0BA95C9F714C0B13091F00E94C5
:10524000AB27B1E008950C94AB27672F782F882700
:10525000B85F39F0B93FCCF3869577956795B395EC
:10526000D9F73EF490958095709561957F4F8F4F5B
:105270009F4F089597FB16F40E947E290C944129B4
:10528000E894F92F96EBFF2381F01216130614060B
:10529000440B9395F695879577956795579540407C
:1052A000FF23B9F71BC099270895882351F498501C
:1052B000D2F7872B762F652F542F432F322F20E0E4
:1052C000B1F3121613061406440B88233AF09A958C
:1052D000440F551F661F771F881FCAF755234AF4CE
:1052E000440F551F11F460FF04C06F5F7F4F8F4F55
:1052F0009F4F880F9695879597F90895909580957B
:105300007095609550954095309521953F4F4F4F42
:105310005F4F6F4F7F4F8F4F9F4F08950E94D02652
:1053200008F48FEF089519F416F40C9467270C9481
:10533000DE290E949127B8F39923C9F3B6F39F574A
:10534000550B87FF0E94EC290024A0E640EA90015B
:1053500080585695979528F4805C660F771F881FB4
:1053600020F026173707480730F4621B730B840BB5
:10537000202931294A2BA6951794079420253125F9
:105380004A2758F7660F771F881F20F02617370720
:10539000480730F4620B730B840B200D311D411D47
:1053A000A09581F7B901842F9158880F969587951C
:1053B00008950E94D026880B990B08959F3F31F0E5
:1053C000915020F4879577956795B795880F911D33
:1053D0009695879597F9089591505040660F771FDD
:1053E000881FD2F70895A1E21A2EAA1BBB1BFD014C
:1053F0000DC0AA1FBB1FEE1FFF1FA217B307E407B4
:10540000F50720F0A21BB30BE40BF50B661F771F0B
:10541000881F991F1A9469F76095709580959095EB
:105420009B01AC01BD01CF010895052E97FB1EF431
:1054300000940E942C2A57FD07D00E94F32907FCF4
:1054400003D04EF40C942C2A50954095309521951C
:105450003F4F4F4F5F4F08959095809570956195A0
:105460007F4F8F4F9F4F0895689401C0E894F92FA4
:10547000F12B12F00C94682AA0E0B0E0E2E4FAE22A
:105480000C94B827092E059422F40E94C42A1123F3
:1054900092F4F0E80F26FFEFE094F0940095109559
:1054A000B094C094D094A194BF0ACF0ADF0AEF0A47
:1054B000FF0A0F0B1F0B0E94732A07FC0E94C42ACD
:1054C000CDB7DEB7ECE00C94D427689401C0E89423
:1054D0008F929F92CF93DF930E94732ADF91CF9197
:1054E0009F908F90089588249924F401E401B0E4FA
:1054F0009F93AA279A158B049C04ED05FE05CF0502
:10550000D007A10798F4AD2FDC2FCF2FFE2FE92D68
:10551000982C892E982F872F762F652F542F432F65
:10552000322F2227B85031F7BF9127C01B2EBF91D1
:10553000BB27220F331F441F551F661F771F881F6D
:10554000991F881C991CEE1FFF1FCC1FDD1FAA1F6F
:10555000BB1F8A149B04EC05FD05CE05DF05A007E3
:10556000B10748F08A189B08EC09FD09CE09DF094C
:10557000A00BB10B21601A94E1F62EF49401AF0157
:10558000BE01CD01000C08956095709580959095B1
:1055900030954095509521953F4F4F4F5F4F6F4F3E
:1055A0007F4F8F4F9F4F089597FD1094002E083026
:1055B00098F00850232F342F452F562F672F782F20
:1055C000892F912DF4CF15949795879577956795A9
:1055D00057954795379527950A95AAF71124002DD9
:1055E00008952A0D3B1D4C1D5D1D6E1D7F1D801FE6
:1055F000911F08950024A7FD00942A0F301D401D1F
:10560000501D601D701D801D901D08950024A7FD74
:1056100000942A1730054005500560057005800587
:1056200090050895EE0FFF1F0590F491E02D099469
:105630000F931F93CF93DF938230910510F482E094
:1056400090E0E091C806F091C90630E020E0B0E0BB
:10565000A0E0309799F42115310509F44AC0281BC0
:10566000390B24303105D8F58A819B81611571058C
:1056700089F1FB0193838283FE0111C04081518136
:105680000281138148175907E0F04817590799F428
:10569000109761F012960C93129713961C93329602
:1056A000CF01DF91CF911F910F9108950093C8060C
:1056B0001093C906F4CF2115310551F04217530755
:1056C00038F0A901DB019A01BD01DF01F801C1CF6A
:1056D000EF01F9CF9093C9068093C806CDCFFE01A4
:1056E000E20FF31F8193919322503109398328836C
:1056F000D7CF2091C6063091C706232B41F42091C5
:105700000601309107013093C7062093C606209109
:105710000401309105012115310541F42DB73EB743
:105720004091080150910901241B350BE091C606F8
:10573000F091C706E217F307A0F42E1B3F0B2817C2
:10574000390778F0AC014E5F5F4F2417350748F0FA
:105750004E0F5F1F5093C7064093C60681939193E7
:105760009FCFF0E0E0E09CCFCF93DF930097E9F08C
:10577000FC01329713821282A091C806B091C9062B
:10578000ED0130E020E01097A1F420813181820FFB
:10579000931F2091C6063091C7062817390709F0D4
:1057A00061C0F093C706E093C606DF91CF910895DC
:1057B000EA01CE17DF07E8F54A815B819E014115BA
:1057C0005105B1F7E901FB83EA8349915991C40F6F
:1057D000D51FEC17FD0761F4808191810296840F3B
:1057E000951FE90199838883828193819B838A83B2
:1057F000F0E0E0E012968D919C9113970097B9F537
:105800002D913C911197CD010296820F931F20910B
:10581000C6063091C7062817390739F6309751F573
:105820001092C9061092C806B093C706A093C60688
:10583000BCCFD383C28340815181840F951FC81789
:10584000D90761F44E5F5F4F88819981480F591FD6
:10585000518340838A819B81938382832115310503
:1058600009F0B0CFF093C906E093C8069ECFFD01C2
:10587000DC01C0CF13821282D7CFB0E0A0E0E3E416
:10588000FCE20C94B4278C01009751F4CB010E94E8
:10589000182B8C01C801CDB7DEB7E0E10C94D027FE
:1058A000FC01E60FF71F9C0122503109E217F307B4
:1058B00008F49DC0D901CD91DC911197C617D70787
:1058C00098F0C530D10530F3CE01049786179707BD
:1058D00008F3C61BD70B2297C193D1936D937C938A
:1058E000CF010E94B42BD6CF5B01AC1ABD0A4C018C
:1058F0008C0E9D1EA091C806B091C906512C412C5A
:10590000F12CE12C109731F58091C6069091C706D5
:105910008815990509F05CC04616570608F058C06E
:105920008091040190910501009741F48DB79EB7D5
:105930004091080150910901841B950BE817F90764
:1059400008F055C0F093C706E093C606F9017183CD
:105950006083A0CF8D919C91119712966C901297B5
:1059600013967C901397A815B90559F56C0142E080
:10597000C40ED11CCA14DB0420F1AC014A195B0926
:10598000DA011296159780F0628273825183408308
:10599000D9016D937C93E114F10471F0D701139652
:1059A000FC93EE93129776CF22968C0F9D1FF901F0
:1059B00091838083F301EFCFF093C906E093C8068B
:1059C00069CF4816590608F42C017D01D3019ACFFE
:1059D000CB010E94182B7C01009749F0AE01B80161
:1059E0000E94FA2CC8010E94B42B870153CF10E00B
:1059F00000E050CFFB01DC0102C001900D9241504C
:105A00005040D8F70895FB01DC0101900D92002071
:105A1000E1F7089510E0C3EFD0E004C0FE010E945A
:0E5A2000122B2196C43FD107C9F7F894FFCF8F
:105A2E00150615060000CA0680000000400014008E
:105A3E0054000000803F000020410000C8420000DA
:105A4E007A4400401C460050C34700247449809697
:105A5E00184B20BCBE4C286B6E4EF9021550B74346
:105A6E00BA51A5D46853E784115521E6B556A95FFE
:105A7E006358CA1B0E5ABCA2B15B00000000DA06C6
:105A8E003A0667062707980676068A060000000083
:105A9E00661039107C110F1032101F1010100000FC
:105AAE0000001D143A067C11A80F666E692B006665
:105ABE006E69006E616E00666E692D000D0A0069DA
:105ACE006E66006F766600426F5500202020202003
