:100000000C94F6000C9459210C9432210C941E018E
:100010000C941E010C941E010C941E010C941E01E4
:100020000C941E010C941E010C941E010C941E01D4
:100030000C941E010C941E010C941E010C941E01C4
:100040000C94E8200C941E010C94A6210C948021A1
:100050000C941E010C941E010C941E010C941E01A4
:100060000C94D8210C941E012A3D3D3D3D3D3D3D63
:100070003D3D3D3D3D3D3D3D3D3D3D3D3D3D3D3DB0
:100080003D3D3D3D3D3D3D3D3D3D3D3D3D3D3D3DA0
:100090003D3D3D3D2A0020466C6173682053796EDA
:1000A0006320286265747765656E207468652074C6
:1000B000776F2053656E736F7273290020536875D4
:1000C0007474657220537065656420467261637450
:1000D000696F6E200020504152414D4554455220D9
:1000E0002020202020202020202020202020202010
:1000F000204C415345523220202020202020202017
:1001000020204C4153455231002041564552414731
:100110004553202020202020202020202020202087
:100120002020202020204C415345523220202020E6
:10013000202020202020204C4153455231005200E5
:1001400053656E736F7232202053656E736F723118
:10015000202020200052657365742041766572610D
:1001600067650053656E736F7232202053656E733E
:100170006F72312020202000417665726765322041
:100180002041766572616765312020200000000003
:1001900000240027002A0000000000250028002B72
:1001A00000000000002300260029000404040404C9
:1001B0000404040202020202020303030303030114
:1001C00002040810204080010204081020010204EB
:1001D00008102000000008000201000003040700CE
:1001E0000000000000000000F7224D2711241FBE70
:1001F000CFEFD8E0DEBFCDBF14E0A0E0B1E0EEE38A
:10020000FEE502C005900D92AE39B107D9F726E0A0
:10021000AEE9B4E001C01D92AC3AB207E1F710E0DC
:10022000C5EFD0E004C02197FE010E941A2DC43F03
:10023000D107C9F70E944E230C94122F0C94000092
:100240002F923F924F925F926F927F928F929F92E6
:10025000AF92BF92CF92DF92EF92FF920F931F93D4
:10026000CF93DF9300D000D0CDB7DEB71C014B0198
:100270005A01390127019601227033273A832983D5
:1002800033E0C322DD245C834B83CD2851F4680125
:10029000C41AD50A8B819C818C0D9D1D84159505F2
:1002A000B0F07301E00EF11E4B815C81E614F7049F
:1002B000F1F06A01FFEFCF1ADF0A2FEF3FEFB40131
:1002C000F70182917F01F1010995A601EFCFEB8043
:1002D000FC808FEFE81AF80A2FEF3FEF4B815C812B
:1002E000B40180E2F1010995FC82EB82D3CF8B81CE
:1002F0009C81800F911F29813A81232BA1F09C01C1
:100300002A193B092415350570F4FC013196FA834E
:10031000E9832FEF3FEFAC01B40180E2F1010995D1
:1003200089819A81ECCF0F900F900F900F90DF9101
:10033000CF911F910F91FF90EF90DF90CF90BF90E2
:10034000AF909F908F907F906F905F904F903F9075
:100350002F9008952F923F924F925F926F927F92CB
:100360008F929F92AF92BF92CF92DF92EF92FF92C5
:100370000F931F93CF93DF93CDB7DEB7AF970FB631
:10038000F894DEBF0FBECDBF9AA789A77CA76BA745
:100390005EA74DA7CAA2DBA2ECA25F2C402E1DA334
:1003A000322E232EA8A689A22A968EAC9FAC2A971D
:1003B00096014E2D5F2D602F712F832D922DA0E081
:1003C0000E94FA2C09F04CC092FC42C080E3898361
:1003D000E89484F866246394712C81FC92C0C40173
:1003E0008170992728962EAD3FAD2897232BA9F031
:1003F000009709F486C038A5311105C094012C700E
:100400003327232B51F028964EAD5FAD28974150EE
:10041000510928965FAF4EAF2897E1E0F0E0EC0F6E
:10042000FD1FE60DF71D830120E3009709F46AC064
:1004300028964EAD5FAD28970417150708F062C0E7
:100440000032110509F45EC00F5F1F4F2193EDCFFD
:1004500029A1203111F4E89484F8712C612CBDCFCE
:1004600081E485FE81E6AE014F5F5F4F5FA34EA33F
:10047000712C612C8A508FA7A9A0B12CC12CD12C32
:10048000E12CF12C00E010E02AA13BA14CA1552D5C
:10049000642D7DA1832D922D0E94592C2A3074F554
:1004A000205D8FEF681A780AEEA1FFA12193FFA3C8
:1004B000EEA3A9A0B12CC12CD12CE12CF12C00E091
:1004C00010E02AA13BA14CA1552D642D7DA1832DC7
:1004D000922D0E945B2C2AA33BA34CA3552E462EA3
:1004E0007DA3382E292EA0E00E94FA2C09F475CFA6
:1004F000F0E26F16710409F0BFCF6FCF5FA5250F33
:10050000D0CF8301E1E0F0E0EC0FFD1FE00FF11F21
:1005100080E326962EAD3FAD26970217130738F4D9
:100520000032110520F40F5F1F4F8193F2CF39A1E4
:10053000383029F46016710610F4E89484F8C40188
:1005400080719071892B09F447C092FC25C0011578
:10055000110511F126964EAD5FAD26974017510754
:1005600039F028968EAD9FAD289708171907A1F48A
:100570006016710608F099C0C801019759F0E9A109
:10058000E03109F06EC0025011096816790640F09A
:100590008C0106C010E000E0F9A1F03109F062C062
:1005A00085FC54C00032110540F5E1E0F0E0EC0FAD
:1005B000FD1FE00FF11F88E780830F5F1F4F0032A0
:1005C0001105D8F4E1E0F0E0EC0FFD1FE00FF11FA2
:1005D00080E380830F5F1F4F0032110570F438A550
:1005E000332309F44EC0E1E0F0E0EC0FFD1FE00F13
:1005F000F11F8DE280830F5F1F4F64012896EEACE0
:10060000FFAC28979E012F5F3F4F4DA55EA56BA5C0
:100610007CA589A59AA50E942001AF960FB6F894F3
:10062000DEBF0FBECDBFDF91CF911F910F91FF9025
:10063000EF90DF90CF90BF90AF909F908F907F9082
:100640006F905F904F903F902F900895003211056A
:10065000A0F6E1E0F0E0EC0FFD1FE00FF11F88E5F0
:10066000ABCF8C0129A1223009F0A9CF00321105AE
:1006700020F6E1E0F0E0EC0FFD1FE00FF11F82E655
:100680009BCF82FE08C0E1E0F0E0EC0FFD1FE00F21
:10069000F11F8BE2AFCF83FEB0CFE1E0F0E0EC0FD3
:1006A000FD1FE00FF11F80E2A5CF49A14031D1F637
:1006B00077CF2F923F924F925F926F927F928F925D
:1006C0009F92AF92BF92CF92DF92EF92FF920F93E1
:1006D0001F93CF93DF93CDB7DEB76E970FB6F89425
:1006E000DEBF0FBECDBF09871A872B873C874D879A
:1006F0005E876F87788B23964EAC5FAC23978C8A8E
:100700009D8AAE8ABF8AC88ED98EEA8EFB8E8C8F68
:1007100029AD3AAD232B09F49EC00A8B1B8B6B8449
:100720007C844A011B01EDADFEADF3FF3EC0E4FD4C
:100730003CC0202F312FA301B401C101A0E00E94D1
:10074000FA2C09F00CF49AC02AE0A22EB12CC12C8C
:10075000D12CE12CF12C00E010E02A893B89A30187
:10076000B401C1010E94282CA0E00E94FA2C99F447
:1007700029AD3AAD215031093AAF29AF2A893B89D9
:10078000A301B401C1010E942A2C2A8B3B8B3A01A0
:100790004B011C01D9CF2A893B89A301B401C101B6
:1007A000A0E00E94FA2C09F469C021968EAD9FAD9D
:1007B0002197840D951D9E8F8D8F90E249165104CF
:1007C00008F096C0E9ADFAAD3197FAAFE9AFFFEFA7
:1007D0004F1A5F0A9AE0A92EB12CC12CD12CE12C22
:1007E000F12C00E010E02A893B89A301B401C1018A
:1007F0000E94282C205DED8DFE8D2193FE8FED8FC4
:100800002A893B89A301B401C1010E942A2C2A8BA9
:100810003B8B3A014B011C01A0E00E94FA2C69F6C7
:100820002196EEADFFAD2197E40DF51D80E320E2AA
:100830004216510409F45CC03FEF431A530A29AD34
:100840003AAD2115310509F4DAC0819321503109FF
:100850003AAF29AFECCF3DAD34FF10C080E248166F
:10086000510408F045C02196EEADFFAD2197E40D8F
:10087000F51D8EE28083F20131962F0121966EAC38
:100880007FAC2197640C751CF0E24F16510480F583
:100890002FEF421A520A8AE0A82EB12CC12CD12C7B
:1008A000E12CF12C00E010E02C893D894E895F8914
:1008B000688D798D8A8D9B8D0E94282C205DF30197
:1008C00021933F012C893D894E895F89688D798DFF
:1008D0008A8D9B8D0E942A2C2C8B3D8B4E8B5F8B9F
:1008E000688F798F8A8F9B8FA0E00E94FA2C61F627
:1008F000FDADF1FD29C0F0FF27C02BAD3CAD232B92
:1009000019F13C8D311106C08DAD9EAD8C709927CB
:10091000892B29F08BAD9CAD01979CAF8BAF2196B5
:10092000EEADFFAD2197E40DF51D80E32BAD3CADA1
:100930004216530648F430E243165104C0F49FEFC8
:10094000491A590A8193F2CFE0E24E16510478F425
:10095000FC8DFF23B1F12196EEADFFAD2197E40DA3
:10096000F51D8DE2808392012F5F3F4F2901CDACB1
:10097000DEACEBACFCAC820121962EAD3FAD2197F5
:100980004FA958AD6DA97EA98BA99CA90E942001F1
:100990006E960FB6F894DEBF0FBECDBFDF91CF913C
:1009A0001F910F91FF90EF90DF90CF90BF90AF908D
:1009B0009F908F907F906F905F904F903F902F907F
:1009C00008953DAD32FF0CC02196EEADFFAD2197ED
:1009D000E40DF51D8BE28083C20101962C01C7CF87
:1009E0009DAD93FFC4CF2196EEADFFAD2197E40DF1
:1009F000F51D80E28083F20131962F01B8CF8EE29F
:100A000080833CCF833081F028F4813099F08230AC
:100A1000A9F008958730A9F08830C9F08430B1F486
:100A2000809180008F7D03C0809180008F778093BC
:100A30008000089584B58F7784BD089584B58F7D37
:100A4000FBCF8091B0008F778093B00008958091A4
:100A5000B0008F7DF9CFCF93DF93282F30E0F901DD
:100A6000ED52FE4F8491F901E154FE4FD491F9010A
:100A7000E555FE4FC491CC23A1F081110E940205DF
:100A8000EC2FF0E0EE0FFF1FEF55FE4FA591B49154
:100A9000EC91ED2381E090E009F480E0DF91CF91CB
:100AA000089580E090E0FACF1F93CF93DF93282F33
:100AB00030E0F901ED52FE4F8491F901E154FE4F0F
:100AC000D491F901E555FE4FC491CC23A9F0162F1E
:100AD00081110E940205EC2FF0E0EE0FFF1FE95696
:100AE000FE4FA591B4918FB7F894EC91111108C005
:100AF000D095DE23DC938FBFDF91CF911F910895B6
:100B0000DE2BF8CFCF93DF9390E0FC01E154FE4F52
:100B1000249185559E4FFC0184918823C9F090E073
:100B2000880F991FFC01E357FE4FA591B491FC017A
:100B3000E956FE4FC591D49161110DC09FB7F8944D
:100B40008C91209582238C938881282328839FBFB2
:100B5000DF91CF910895623051F49FB7F8943C91A2
:100B6000822F809583238C93E8812E2BEFCF8FB734
:100B7000F894EC912E2B2C938FBFEACF3FB7F894CB
:100B80008091970590919805A0919905B0919A054B
:100B900026B5A89B05C02F3F19F00196A11DB11DD8
:100BA0003FBFBA2FA92F982F8827BC01CD01620F14
:100BB000711D811D911D42E0660F771F881F991FCF
:100BC0004A95D1F708958F929F92AF92BF92CF929C
:100BD000DF92EF92FF924B015C010E94BE056B0118
:100BE0007C010E94BE056C197D098E099F09683E33
:100BF000734081059105A8F321E0821A9108A108AC
:100C0000B10888EEC80E83E0D81EE11CF11C8114E7
:100C10009104A104B10429F7FF90EF90DF90CF90E9
:100C2000BF90AF909F908F9008952FB7F8946091E8
:100C300093057091940580919505909196052FBF2D
:100C40000895089508950895DC01ED91FC910190B7
:100C5000F081E02D0994EF92FF920F931F93CF93B1
:100C6000DF938C017B01D0E0C0E0F701EC0FFD1FAA
:100C70006491662361F0D801ED91FC910190F081BF
:100C8000E02DC8010995892B11F02196EECFCE01F8
:100C9000DF91CF911F910F91FF90EF900895AF9248
:100CA000BF92CF92DF92EF92FF920F931F93CF9359
:100CB000DF936C017B018B01040F151FEB015E01BB
:100CC000AE18BF08C017D10759F06991D601ED9150
:100CD000FC910190F081E02DC6010995892B79F7EF
:100CE000C501DF91CF911F910F91FF90EF90DF90A1
:100CF000CF90BF90AF900895FC01538D448D252F68
:100D000030E0842F90E0821B930B541710F0CF96A5
:100D1000089501970895FC01918D828D981761F0D7
:100D2000A28DAE0FBF2FB11D5D968C91928D9F5FEE
:100D30009F73928F90E008958FEF9FEF0895FC01CD
:100D4000918D828D981731F0828DE80FF11D858D80
:100D500090E008958FEF9FEF0895FC01918D228D13
:100D6000892F90E0805C9F4F821B91098F73992798
:100D700008958BE995E00E94AD0621E0892B09F4E6
:100D800020E0822F089580E090E0892B29F00E94D6
:100D9000B90681110C9400000895FC01A48DA80FE0
:100DA000B92FB11DA35ABF4F2C91848D90E00196AD
:100DB0008F739927848FA689B7892C93A089B189CD
:100DC0008C91837080648C93938D848D981306C06E
:100DD0000288F389E02D80818F7D80830895EF92D2
:100DE000FF920F931F93CF93DF93EC0181E0888FE5
:100DF0009B8D8C8D98131AC0E889F989808185FFB5
:100E000015C09FB7F894EE89FF896083E889F98956
:100E100080818370806480839FBF81E090E0DF9158
:100E2000CF911F910F91FF90EF900895F62E0B8DAB
:100E300010E00F5F1F4F0F731127E02E8C8D8E1166
:100E40000CC00FB607FCFACFE889F989808185FFCD
:100E5000F5CFCE010E94CD06F1CFEB8DEC0FFD2F2B
:100E6000F11DE35AFF4FF0829FB7F8940B8FEA8988
:100E7000FB8980818062CFCFCF93DF93EC01888D97
:100E80008823B9F0AA89BB89E889F9898C9185FD05
:100E900003C0808186FD0DC00FB607FCF7CF8C9193
:100EA00085FFF2CF808185FFEDCFCE010E94CD0678
:100EB000E9CFDF91CF9108958F929F92AF92BF9229
:100EC000CF92DF92EF92FF920F931F93CF93DF9316
:100ED000EC010A811B8101151105E1F1EC84FD840F
:100EE000E114F104B9F1188619861A861B86D12CF3
:100EF000C12C88849984AA84BB840C151D0591F0AB
:100F0000F70161917191819191917F01A501940106
:100F10000E940B2A688779878A879B87FFEFCF1A01
:100F2000DF0AE7CFB80190E080E00E943B289B01F8
:100F3000AC01C501B4010E94772ADF91CF911F91C6
:100F40000F91FF90EF90DF90CF90BF90AF909F9068
:100F50008F90089560E070E080EC9FE7EECFAF9255
:100F6000BF92CF92DF92EF92FF920F931F93CF9396
:100F7000DF93FC01A484B584A114B10409F466C014
:100F80006A017B01EC0104811581C801880F991F5A
:100F9000880F991FA80EB91EF50120813181428169
:100FA0005381688579858A859B850E940A2A68878E
:100FB00079878A879B87F501C082D182E282F3829A
:100FC000A7019601688579858A859B850E940B2AF1
:100FD000688779878A879B870F5F1F4F1D830C83E4
:100FE000AE80BF800A151B0511F41D821C820A8188
:100FF0001B810115110589F4CA8ADB8AEC8AFD8AF6
:10100000CE86DF86E88AF98A0A151B0520F40F5F71
:101010001F4F1B830A8381E01AC0A70196016E85CA
:101020007F85888999890E94AF2B18164CF3A701F8
:1010300096016A897B898C899D890E94362887FF61
:10104000E3CFCA8ADB8AEC8AFD8ADECF80E0DF91BB
:10105000CF911F910F91FF90EF90DF90CF90BF90B5
:10106000AF900895FC0113821282158214821086BB
:1010700011861286138680E090E0A0ECBFE7868799
:101080009787A08BB18B828B938BA48BB58B848538
:101090009585009799F020813181F901EE0FFF1FAE
:1010A000EE0FFF1FE80FF91F2115310549F0215000
:1010B00031091292129212921292F6CF80E00895A4
:1010C00081E0089508952F923F924F925F926F9220
:1010D0007F928F929F92AF92BF92CF92DF92EF92C8
:1010E000FF920F931F93CF93DF93CDB7DEB7609737
:1010F0000FB6F894DEBF0FBECDBF988B8F876A0105
:101100007B013E872D87DB01CA018827B7FD8395C8
:101110009927AA27BB27282F2170EF85F889208BD4
:10112000892B21F0F7FAF094F7F8F094C701B60193
:101130000E94E92A29833A834B835C836D837E83F3
:101140008F839887AF85B8892C9311963C9311971C
:1011500012964C93129713965C93139714966C9374
:10116000149715967C9315978F8116968C931697E6
:10117000988517969C93ED85FE85EE0FFF1FEE0F69
:10118000FF1FEA5EFE4F80819181A281B381898732
:101190009A87AB87BC878F8198850E945B2B9B01C8
:1011A000AC01C701B6010E940A2A29853A854B8500
:1011B0005C850E949C282B013C010E94E92A822E1A
:1011C000232E342E952E5B018C01AF85B88918969D
:1011D0002C93189719963C9319971A964C931A9733
:1011E0001B965C931B971C966C931C971D96BC9248
:1011F0001D971E968C931E971F961C930E945B2B27
:101200009B01AC01C301B2010E940A2A2B013C01DF
:1012100020E030E040E05FE30E94AF2B18160CF0B6
:10122000D0C0282D322D432D592DB501C801A1E084
:101230000E94EE2C39014A015B018C010E945B2B5C
:101240009B01AC0169857A858B859C850E94362837
:1012500018160CF087C0EF85F88960867186828643
:101260009386A486B58606871787ED85FE85EF2BC6
:1012700009F05DC0AF85B8891C9111966C901197EB
:1012800012967C90129713968C90139714969C90BC
:1012900014971596AC9015971696BC9016971796BE
:1012A0000C91212F362D472D582D692D7A2D8B2D00
:1012B000902F0E945B2B9B01AC01C701B6010E94DD
:1012C0000A2A6B017C0120E030E040E05FE30E94ED
:1012D000362887FF0AC020E030E040E05FE3C70126
:1012E000B6010E94AF2B181614F5212F217030E0A3
:1012F00040E050E060E070E080E090E0A0E00E941C
:10130000FA2CA9F0212F362D472D582D692D7A2D35
:101310008B2D902FA1E00E94EE2CEF85F889208381
:1013200031834283538364837583868397838F8558
:10133000988960960FB6F894DEBF0FBECDBFDF91DF
:10134000CF911F910F91FF90EF90DF90CF90BF90C2
:10135000AF909F908F907F906F905F904F903F9055
:101360002F900895AF85B88918961C9218971996F2
:101370001C9219971A961C921A971B961C921B97EF
:101380001C961C921C971D961C921D971E961C92D3
:101390001E971F961C9229813A814B815C816D8139
:1013A0007E818F819885A1E00E94EE2CEF85F889DF
:1013B0002083318342835383648375838683978339
:1013C00054CF20E030E040E05FE3C301B2010E946F
:1013D000362881114ACF282D322D432D592DB501A4
:1013E000C801A0E00E94FA2C61F0217030E040E0DA
:1013F00050E060E070E080E090E00E94FA2C09F498
:1014000034CF282D322D432D592DB501C801A1E02F
:101410000E94EE2CAF85B88918962C9318971996D0
:101420003C9319971A964C931A971B965C931B97AB
:101430001C966C931C971D967C931D971E968C93FF
:101440001E971F969C9311CF2F923F924F925F92BF
:101450006F927F928F929F92AF92BF92CF92DF92C4
:10146000EF92FF920F931F93CF93DF93CDB7DEB729
:10147000E6970FB6F894DEBF0FBECDBF9CA78BA733
:101480006DA77EA758AB4FA70A8B1B8B2C8B3D8B70
:10149000FF8EEE8EDAAAC9AAB9A6A8A68BAA9CAA24
:1014A0002C962FAD2C972DAB2D963FAD2D973EABA7
:1014B0008A899B89AC89BD898827B7FD839599273F
:1014C000AA27BB278E8B9F8BA88FB98F0E891F8968
:1014D0000115110549F02A893B894C895D895058CD
:1014E0002A8B3B8B4C8B5D8B20E030E0A9016A8915
:1014F0007B898C899D890E943628312C212C882358
:1015000009F40FC18A899B89AC89BD89E7E1B69549
:10151000A79597958795EA95D1F799278F579109C0
:10152000BC01990F880B990B0E943D282BE930E2F2
:101530004AE95EE30E949C2824E431E544E35EE34B
:101540000E940B2A6B017C016A897B898C899D89A9
:101550008F77992780689F6320E030E040EC5FE35D
:101560000E940A2A2BE33DE344E95EE30E949C28A3
:101570009B01AC01C701B6010E940B2A0E94252BDA
:101580006A8F7B8F8C8F9D8F2A8C3B8CB101032CB3
:10159000000C880B990B0E943D286B017C0128E709
:1015A0003AE944E550E40E949C2820E030E040E025
:1015B0005FE30E940B2A0E94252B4B012EE83DE59C
:1015C00043E150E4C701B6010E949C286B017C01F5
:1015D000092C000CAA08BB08C501B4010E943D28D3
:1015E00028E132E741E35FE30E949C289B01AC01C4
:1015F000C701B6010E940A2A2B013C01AC019B01E4
:101600000E949C286B017C01A3019201C301B201DD
:101610000E940B2A68A379A38AA39BA320E030E051
:1016200040E651E4C701B6010E94772A20E030E08D
:1016300040E251E40E940B2A9B01AC01C701B601B4
:101640000E94772A20E030E040EC50E40E940B2A10
:101650009B01AC01C701B6010E94772A6B017C0196
:10166000A301920160E070E080E090E40E940A2A09
:101670009B01AC01C701B6010E940B2A9B01AC0182
:1016800068A179A18AA19BA10E94772A20E030E07D
:1016900040E85FE30E940B2A3FE7830E911CA11CE8
:1016A000B11CA5019401F7E1220F331F441F551F00
:1016B000FA95D1F70E949C282B013C01AC019B01BB
:1016C0006A897B898C899D890E94362887FF0DC095
:1016D00041E0241A310820E030E040E251E4C30147
:1016E000B2010E94772A2B013C01C101419651E0D1
:1016F0005AA78332910508F01AA6839790F4C10186
:1017000037FE04C08827992782199309880F991FEB
:10171000880F991FFC01EA5EFE4F40805180628075
:10172000738088A599A593FF8DC1AE8DBF8D9D0156
:10173000AB2B11F421E030E08E8D9F8D0197BCEF33
:101740002B16BFEF3B060CF467C0221633060CF0D5
:1017500063C082199309AA24A3949F8F8E8F97FF49
:1017600002C01F8E1E8EE8A5F9A5F460F9A7E8A7B0
:1017700037FE1AA6A110C1C12114310409F475C1A4
:101780008E898170898BFAA5FF2309F463C1A301B7
:1017900092016A897B898C899D890E949C281AA55F
:1017A0000E94E92A2E8B3A8F48A35CA36DA37EA3E7
:1017B000882E9FA30E945B2B2AA5A301222371F1EF
:1017C00092010E94772A9B01AC016A897B898C89EE
:1017D0009D890E940A2A6B017C01EE8DFF8DEE0F20
:1017E000FF1FEE0FFF1FEA5EFE4F80819181A281F5
:1017F000B3818A8B9B8BAC8BBD8B112399F0A3019A
:101800009201BC01CD010E949C289B01AC01C70143
:10181000B6010E949C283DC0A12C9FCF92010E943E
:101820009C28D1CFD301C20157E1B695A7959795D2
:1018300087955A95D1F799279C012F57310937FF82
:1018400003C03195219531098A899B89AC89BD896D
:1018500047E1B695A795979587954A95D1F799272A
:101860008F57910997FF03C0919581959109821730
:1018700093070CF07DC02A893B894C895D89C3019F
:10188000B2010E94772A9B01AC01C701B6010E94F8
:10189000772A2B013C01AE8DBF8DAB2B09F071C0B7
:1018A00011E020E030E040E05FE30E94AF2B87FDD5
:1018B00010E0212F30E040E050E060E070E080E098
:1018C00090E0AE88BA8CC8A0DCA0EDA0FEA0082DE8
:1018D0001FA10E94E52C2E8B3A8F48A35CA36DA319
:1018E0007EA3882E9FA320E030E040E05FE3C301A9
:1018F000B2010E943628811103C0BE89BE7FBE8B13
:1019000010E0B12CC12C912CD12CE12CF12C00E059
:101910002E893A8D48A15CA16DA17EA1882D9FA141
:10192000A9E00E94FA2CA9F0A4F03FEF231A330A91
:1019300010E0B12CC12C912CD12CE12CF12C00E029
:1019400041E04E8B1A8E18A21CA21DA21EA2812C51
:101950001FA2C1018D599F4F512C25E0622E712C81
:10196000873C910508F027C184E0682E712C23C1C3
:10197000A30192016A897B898C899D890E94772ABB
:1019800044CF0E94E92A59016A017B01082F992E50
:101990000E945B2B9B01AC01C301B2010E940A2A89
:1019A0002B013C0111E020E030E040E05FE30E94C9
:1019B000AF2B87FD10E0212F30E040E050E060E0E9
:1019C00070E080E090E0192D0E94E52C122FB32EDC
:1019D000C42E952ED62EE72EF82E092F20E030E0CB
:1019E00040E05FE3C301B2010E943628811101C0CB
:1019F0001E7F212F3B2D4C2D592D6D2D7E2D8F2D92
:101A0000902F0E945B2B9B01AC016A897B898C899A
:101A10009D890E94362818160CF47ACF2E893A8DAB
:101A200048A15CA16DA17EA1882D9FA1A1E00E948B
:101A3000EE2C2E8B3A8F48A35CA36DA37EA3882E39
:101A40009FA35ECF37FC98CE2114310471F08E89AC
:101A50008170898BA30192016A897B898C899D8918
:101A60000E94772A10E01AA69BCEA12C012B09F028
:101A700046C02E8D3F8D4A895B896C897D89CE0158
:101A800001960E946308F981FE8B2A812A8F3B818F
:101A900038A34C814CA35D815DA38E818EA38F8082
:101AA00098859FA31985BA84CB849C84DD84EE84B9
:101AB000FF8408892DCF2E8D3F8D4A895B896C89E3
:101AC0007D89CE0101960E946308A981AE8BBA81FF
:101AD000BA8FEB81E8A3FC81FCA32D812DA33E816D
:101AE0003EA38F8048854FA31985BA84CB849C84FC
:101AF000DD84EE84FF84088927C0012BE1F24A8946
:101B00005B896C897D8970582E8D3F8DCE01019641
:101B10000E946308E981EE8BFA81FA8F2B8128A35A
:101B20003C813CA34D814DA35E815EA38F8088855F
:101B30008FA31985BA84CB849C84DD84EE84FF84D2
:101B40000889AA2009F4E4CE68A479A4662498E060
:101B50007922A8A5B9A555245394B3FF2CC0BFEF93
:101B60002B163B0624F13101EFEF6E1A7E0A2E8907
:101B70003A8D48A15CA16DA17EA1882D9FA10E94F4
:101B80005B2BF301EE0FFF1FEE0FFF1FEA5EFE4F10
:101B900020813181428153810E943628811107C002
:101BA0002E8D3F8D215031093F8F2E8F13015524EB
:101BB0005394712C612C88A599A5827099279B8BD1
:101BC0008A8B98A591FF03C06114710441F4A9A9FF
:101BD000BAA9CD01861997096A167B0610F090E024
:101BE00080E0BE89B983EA8DEA83F8A1FB832CA14A
:101BF0002C833DA13D834EA14E838F825FA15887E8
:101C00001987BA86CB869C86DD86EE86FF86088B92
:101C1000AEA9AF93BDA9BF93ECA9EF93FBA9FF9326
:101C200029A52F9338A53F939F938F934F8D4F9363
:101C30005E8D5F9388A98F939FA59F93AEA5AF9369
:101C4000BDA5BF93ECA5EF93FBA5FF9389809A8078
:101C5000AB80BC80CD80DE80EF80F88409851A855A
:101C60002B853C854D855E856F85788989890E94A5
:101C700059030FB6F894DEBF0FBECDBF511067C039
:101C80002C013FEF431A530A48A5E5E445FFE5E67A
:101C90002FEF3FEFAC016DA57EA58E2FEBA5FCA528
:101CA0000995A32CAA1CAA24AA1C6101E32CEE0C02
:101CB000EE08FE2C0E2D1E2DFE2DEE2D91014E2D2B
:101CC0005E2D6E2D7E2D8E2D9E2DA0E00E94FA2C75
:101CD0003CF40E94B82C69017A018B01F82FE92F9E
:101CE0001F9285E08F9321E0621A71087F926F92B4
:101CF0001F921F929AE0892E2F2F3E2FA2016DA5D1
:101D00007EA58BA59CA50E94AA010F900F900F9015
:101D10000F900F900F904A895B89452BC1F09C0171
:101D2000AFA5B8A92A1B3B0BE9A9FAA92E173F07B3
:101D300070F48C010F5F1F4F2FEF3FEFAC016DA5CB
:101D40007EA580E2EBA5FCA50995C801E8CFE69643
:101D50000FB6F894DEBF0FBECDBFDF91CF911F91BC
:101D60000F91FF90EF90DF90CF90BF90AF909F903A
:101D70008F907F906F905F904F903F902F9008953D
:101D80002F923F924F925F926F927F928F929F928B
:101D9000AF92BF92CF92DF92EF92FF920F931F9379
:101DA000CF93DF93CDB7DEB7E7970FB6F894DEBFDA
:101DB0000FBECDBF1C016AAB7BAB4CAB5DAB28014A
:101DC0003901CEAADFAA6501B82CA9019801C30187
:101DD000B8010E943628882331F1EEA8FFA803E05D
:101DE00010E027E931E04CA95DA96AA97BA9C101EE
:101DF0000E942001E7960FB6F894DEBF0FBECDBF5C
:101E0000DF91CF911F910F91FF90EF90DF90CF90D6
:101E1000BF90AF909F908F907F906F905F904F900A
:101E20003F902F9008952FEF3FEF4FE75FEFC301F3
:101E3000B8010E94362887FF07C0EEA8FFA804E07B
:101E400010E02BE931E0CFCF2FEF3FEF4FE75FE717
:101E5000C301B8010E94AF2B18166CF404E010E027
:101E60002EE831E0C2FC04C003E010E023E931E0D9
:101E7000EEA8FFA8B8CF9E012F5F3F4F4901B110D8
:101E800025C028E23BE64EE65EE4C301B8010E94AD
:101E9000AF2B181654F028E23BE64EE65EECC30189
:101EA000B8010E94362887FF11C01F921F92560169
:101EB000CEA8DFA8930182014CA95DA96AA97BA9DC
:101EC000C1010E94240A0F900F9094CFD2FC03C04E
:101ED00086E0E82EF12CF40110E000E080E332E12E
:101EE000E316F10448F00F5F1F4F819391E0E91A68
:101EF000F1080032110599F7BB2019F01F930F93D9
:101F0000D6CF9701B301A201CE0181960E9463084A
:101F10001F930F939F928F92DF92CF922FA92F93AF
:101F20003EA93F93FF92EF928DA98F939CA99F9317
:101F30002BA92F933AA93F933F922F9289A09AA061
:101F4000ABA0BCA0CDA0DEA0EFA0F8A409A51AA567
:101F50002BA53CA54DA55EA56FA578A989A90E94D2
:101F600059030FB6F894DEBF0FBECDBF43CF882311
:101F700029F0682F8BE995E00C94240608950895C4
:101F80002091FD04260F3327331F21323105ECF455
:101F900020914605FC0190E080E0243069F082E069
:101FA0000895A091FD042191AC0143525B4FA40F11
:101FB000B52FB11D2C930196861798F38091FD04DF
:101FC000680F6093FD0480E0089581E00895109209
:101FD000460581E0809345051092200561E082E18D
:101FE0000E94540561E083E10E945405E9EBF0E0B2
:101FF00080818E7F808380818D7F808388E4809341
:10200000B80085E48093BC000895CF93DF9391E0FE
:102010009093DC048823B9F0C091B800D091BA0045
:102020008091BC008A7B8093BC0060E082E10E94CA
:10203000540560E083E10E9454050E94E70FD093AD
:10204000BA00C093B800DF91CF9108950895E09150
:10205000750580917405E81730F4F0E0E454FB4F07
:10206000808190E008958FEF9FEF0895909175051E
:10207000809174052FEF3FEF981748F4E92FF0E0B7
:10208000E454FB4F208130E09F5F90937505C901B8
:1020900008958091740590917505891B990B089599
:1020A000CF92DF92EF92FF920F931F93CF93DF9324
:1020B0007C01CB018A0120914C05222389F0EB01A0
:1020C0006B01C40ED51ECC15DD0569F06991D701F1
:1020D000ED91FC910190F081E02DC7010995F3CFBE
:1020E000642F0E94C00FC801DF91CF911F910F9103
:1020F000FF90EF90DF90CF900895CF93DF931F92E2
:10210000CDB7DEB7698320914C052223F9F02091E9
:102110007205203258F021E030E0FC013383228345
:1021200090E080E00F90DF91CF910895809173054A
:10213000E82FF0E0E35BFA4F998190838F5F809303
:1021400073058093720581E090E0ECCF61E0CE01F1
:1021500001960E94C00FF7CFCF92DF92EF92FF92CD
:102160000F931F93CF93DF93FC01C48121E0209351
:102170004C05C0936D05109273051092720583850E
:10218000682B88E396E00E947D10D0917205D132D1
:1021900008F092C00E94BE056B017C01809146054B
:1021A000811165C082E08093460581E080934505FA
:1021B0008FEF8093440510924305D0934205ADE420
:1021C000B5E0E2E2F5E080E0D81385C01092210589
:1021D00080912105CC0FC82BC0932105809120054B
:1021E000813009F07CC0109220050E94BE056B0171
:1021F0007C01809121058093BB00809148059091DE
:102200004905A0914A05B0914B05892B8A2B8B2B50
:1022100099F00E94BE050091480510914905209152
:102220004A0530914B056C197D098E099F090617E7
:10223000170728073907E0F18091BC0083FDD9CF4B
:1022400085EC8093BC000E94BE056B017C018091EF
:102250004605823009F445C0809144058F3F61F105
:1022600080914405803241F18091440525C08091E0
:10227000480590914905A0914A05B0914B05892BDD
:102280008A2B8B2B09F48ACF0E94BE05009148054A
:102290001091490520914A0530914B056C197D0933
:1022A0008E099F09061717072807390708F076CF08
:1022B000809147050E9405101092730510927205D7
:1022C00010924C05DF91CF911F910F91FF90EF90ED
:1022D000DF90CF9008959D9191938F5F75CF85EE9C
:1022E000B0CF8091480590914905A0914A05B091E1
:1022F0004B05892B8A2B8B2B09F4A9CF0E94BE0595
:10230000009148051091490520914A0530914B05EF
:102310006C197D098E099F090617170728073907C9
:1023200008F095CFC5CF90E080E0089583E00E944B
:102330002B05892B41F4809186058F5F809386055C
:1023400081E080937B0583E00E942B05019729F4AF
:10235000809181058F5F80938105089582E00E94BE
:102360002B05892B29F4809191058F5F809391052E
:1023700082E00E942B05019729F480918C058F5FE4
:1023800080938C0508954091B2045091B3046091FC
:10239000B4047091B50486E896E00E94AF0780917E
:1023A0007A05811124C04091AE045091AF04609130
:1023B000B0047091B10480E796E00E94AF074091AD
:1023C000A2045091A3046091A4047091A5048AE52D
:1023D00096E00E94AF0740919E0450919F04609147
:1023E000A0047091A10484E496E00E94AF0786E8FF
:1023F00096E00E945C0720E030E04AE754E40E9447
:10240000772A9B01AC0160E070E080E89FE30E94C6
:10241000772A20E030E040E05FE30E940B2A0E9430
:10242000252B709379056093780580E796E00E94EC
:102430005C0720E030E04AE754E40E94772A9B01E1
:10244000AC0160E070E080E89FE30E94772A20E022
:1024500030E040E05FE30E940B2A0E94252B70933E
:1024600077056093760508954F925F926F927F9201
:102470008F929F92AF92BF92CF92DF92EF92FF9294
:10248000CF93DF9300D000D01F92CDB7DEB740913D
:102490008205509183056091840570918505809136
:1024A0008D0590918E05A0918F05B091900520919A
:1024B0007A052D83481759076A077B0790F5211184
:1024C00030C0C0908805D0908905E0908A05F090D2
:1024D0008B0580907D0590907E05A0907F05B09043
:1024E000800540938D0550938E0560938F05709302
:1024F00090058093820590938305A0938405B09303
:1025000085058092880590928905A0928A05B092EF
:102510008B05C0927D05D0927E05E0927F05F092FA
:10252000800580918D0590918E05A0918F05B091C9
:10253000900589839A83AB83BC83C0908805D09033
:102540008905E0908A05F0908B059D81812C912C66
:10255000540191114AC08090820590908305A0900B
:102560008405B090850589819A81AB81BC81881AE8
:10257000990AAA0ABB0A40907D0550907E0560909A
:102580007F05709080054C185D086E087F08C501B6
:10259000B4010E943B2820E030E04AE754E40E9466
:1025A000772A6093A2047093A3048093A404909369
:1025B000A504C301B2010E943B2820E030E04AE7B5
:1025C00054E40E94772A60939E0470939F04809342
:1025D000A0049093A104C501B40120E230E040E0E2
:1025E00050E00E94702949015A0189819A81AB818A
:1025F000BC81C81AD90AEA0AFB0AC701B6016819E0
:1026000079098A099B090E943D286B017C0120E021
:1026100030E04AE754E40E94772A6093B204709352
:10262000B3048093B4049093B50420E034E244E70B
:1026300059E4C701B6010E94772A9B01AC0120939F
:10264000AA043093AB044093AC045093AD0460E013
:1026500070E080E89FE30E94772A20E030E040E0CD
:102660005FE30E940B2A0E94252B7093A9046093BC
:10267000A8049D8191114EC060917D0570917E05E9
:1026800080917F0590918005C0908205D090830550
:10269000E0908405F09085056C197D098E099F09ED
:1026A000681979098A099B090E943D286B017C0100
:1026B00020E030E04AE754E40E94772A6093AE04B9
:1026C0007093AF048093B0049093B10420E034E29F
:1026D00044E759E4C701B6010E94772A9B01AC0187
:1026E0002093B8043093B9044093BA045093BB04C8
:1026F00060E070E080E89FE30E94772A20E030E00D
:1027000040E05FE30E940B2A0E94252B7093A704F0
:102710006093A6040F900F900F900F900F90DF9191
:10272000CF91FF90EF90DF90CF90BF90AF909F90B0
:102730008F907F906F905F904F900895CF92DF922F
:10274000EF92FF92CF930E9415066B017C01C1E0CE
:102750000E9415066C197D098E099F09683E734019
:102760008105910538F480918605833088F3C09304
:10277000B604EECF80919105833018F081E080930C
:10278000B704CF91FF90EF90DF90CF9008950F9313
:102790001F93CF938C01C62F0E94AC106C2F6460E6
:1027A000C8010E94AC106C2F6B7FC8010E94AC1056
:1027B00083EC90E00197F1F7CF911F910F9108956D
:1027C0000F931F93CF93DF938C01D62FC42F607F7D
:1027D000642B0E94C71380E1D89FB00111246C2B99
:1027E000C801DF91CF911F910F910C94C71340E066
:1027F00061E08CE996E00E94E0138BE39FE1019792
:10280000F1F70895CF93DF93CDB7DEB728970FB6D2
:10281000F894DEBF0FBECDBF98E0EEE0F1E0DE0140
:10282000119601900D929A95E1F79091A406961752
:1028300010F46FEF690F262F30E0220F331F41E0B5
:1028400050E04C0F5D1F240F351FF9016081680FA8
:10285000606840E08CE996E028960FB6F894DEBFF9
:102860000FBECDBFDF91CF910C94E01341E00E94E9
:10287000E01381E090E00895CF93DF93EC018AE0CC
:1028800090E0998388839F838E8388E290E00E9402
:10289000202D9D878C87892B11F419821882CE01F7
:1028A000DF91CF910C943208FB0101900020E9F7F1
:1028B0003197AF01461B570BDC01ED91FC91028073
:1028C000F381E02D09948F929F92AF92BF92EF9285
:1028D000FF920F931F93CF93DF93CDB7DEB7A197EE
:1028E0000FB6F894DEBF0FBECDBF7C01FA01CB015D
:1028F00019A2223008F42AE08E010F5D1F4F822EAC
:10290000912CB12CA12CBF01A50194010E94D929C1
:10291000F901CA016A300CF5605DD8016E938D0132
:10292000232B242B252B79F790E080E0109721F0C2
:10293000BD01C7010E945414A1960FB6F894DEBFE2
:102940000FBECDBFDF91CF911F910F91FF90EF9000
:10295000BF90AF909F908F900895695CDECFCF922B
:10296000DF92EF92FF920F931F93CF93DF936B0150
:10297000770FEE08FF08F7FE1BC0EC016DE20E9426
:1029800024068C0144275527BA014C195D096E09AC
:102990007F092AE0CE010E946314800F911FDF910E
:1029A000CF911F910F91FF90EF90DF90CF900895FE
:1029B0002AE0B701A601DF91CF911F910F91FF90FF
:1029C000EF90DF90CF900C946314BC018CE996E0FB
:1029D0000C945414CF93DF93BC018BE995E00E94D3
:1029E0005414EC0160EA71E08BE995E00E94541404
:1029F0008C0F9D1FDF91CF910895CF93DF93BC0182
:102A00008BE995E00E942B06EC0160EA71E08BE90E
:102A100095E00E9454148C0F9D1FDF91CF91089573
:102A20004F925F926F927F928F929F92AF92BF92DE
:102A3000CF92DF92EF92FF920F931F93CF936B0190
:102A40007C01742EAC019B010E94FA2B67E971E0B6
:102A5000811126C046015701E894B7F82FEF3FEFE8
:102A60004FE75FE7C501B4010E94FA2B81110CC04A
:102A70002FEF3FEF4FE75FE7C501B4010E94362813
:102A800063EA71E0181664F02FEF3FEF4FE75FE461
:102A9000C701B6010E94AF2B1816ACF467EA71E0CB
:102AA0008CE996E0CF911F910F91FF90EF90DF900E
:102AB000CF90BF90AF909F908F907F906F905F90DE
:102AC0004F900C9454142FEF3FEF4FE75FECC7018A
:102AD000B6010E94362887FDE1CF20E030E0A90151
:102AE000C701B6010E94362810E000E087FF0AC047
:102AF0006DE28CE996E00E9424068C01F7FAF094CE
:102B0000F7F8F094C0E060E070E080E09FE37C16AE
:102B100041F020E030E040E251E40E94772ACF5FAC
:102B2000F6CFA70196010E940B2A2B013C010E94BF
:102B30002C2B4B015C012AE0BC01A4018CE996E03E
:102B40000E9463147C01E00EF11ECC23D1F1C5017B
:102B5000B4010E943B289B01AC01C301B2010E9459
:102B60000A2A4B015C016EE28CE996E00E94240681
:102B7000E80EF91EC15028F120E030E040E251E4B7
:102B8000C501B4010E949C282B013C010E942C2B02
:102B90004B01B12CA12C2AE0B501A4018CE996E0EF
:102BA0000E946314E80EF91EC501B4010E943B287F
:102BB0009B01AC01C301B2010E940A2A4B015C01D6
:102BC000D9CFC701CF911F910F91FF90EF90DF9068
:102BD000CF90BF90AF909F908F907F906F905F90BD
:102BE0004F900895CF92DF92EF92FF928091B604BA
:102BF00060E0811105C08091B704882309F402C107
:102C000081E10E9402148BEA91E00E94E51461E0E8
:102C100080E00E9402148FEA91E00E94E51461E0D6
:102C200089E00E940214C090B204D090B304E090F6
:102C3000B404F090B50423EF3FE443EC57E4C7013C
:102C4000B6010E94362818160CF4E2C041E0C70114
:102C5000B6010E94101561E080E00E940214C0904D
:102C6000AE04D090AF04E090B004F090B10423EF34
:102C70003FE443EC57E4C701B6010E94362818161A
:102C80000CF4CBC041E0C701B6010E94101561E011
:102C900082E10E94021486EC91E00E94E51462E059
:102CA00080E00E9402148FEA91E00E94E514C09037
:102CB000AA04D090AB04E090AC04F090AD0420E006
:102CC00030E040E85FE3C701B6010E94362862E0C9
:102CD00087FFA8C089E00E94021489EC91E00E945D
:102CE000E5146091A8047091A9048CE996E00E9413
:102CF000AF1462E082E10E9402148CEC91E00E9429
:102D0000E514C090B804D090B904E090BA04F090F3
:102D1000BB0420E030E040E85FE3C701B6010E9459
:102D2000362862E087FF87C080917A05811183C0D1
:102D30000E94021489EC91E00E94E5146091A604BF
:102D40007091A7048CE996E00E94AF1463E080E0E4
:102D50000E9402148FEA91E00E94E51463E089E08A
:102D60000E9402142AE93FE34CE156E46091A20478
:102D70007091A3048091A4049091A5040E94362828
:102D800018160CF461C08FEC91E00E94E51460917C
:102D9000A2047091A3048091A4049091A50441E041
:102DA0000E94101563E080E00E9402142AE93FE3CC
:102DB0004CE156E460919E0470919F048091A004C0
:102DC0009091A1040E94362818160CF442C083ED9D
:102DD00091E00E94E51460919E0470919F0480919F
:102DE000A0049091A10441E00E94101563E082E1EB
:102DF0000E94021486EC91E0FF90EF90DF90CF905C
:102E00000C94E51481E10E9402148EEB91E0FDCE5A
:102E100082EC91E00E94E5141ECF82EC91E00E94CA
:102E2000E51435CF89E00E94021442E0C701B601E3
:102E30000E9410155ECF80E00E94021442E0C7019C
:102E4000B6010E94101582CF82EC91E00E94E51439
:102E5000A9CF82EC91E00E94E514C8CFFC018081EB
:102E60009181009711F00C94BC2D0895FC0184858C
:102E70009585009711F00C94BC2D08950F931F9326
:102E8000CF93DF93EC0188819981009759F02A81D3
:102E90003B812617370730F081E0DF91CF911F91FA
:102EA0000F9108958B016F5F7F4F0E94452E009711
:102EB00059F0998388831B830A832C813D81232BBE
:102EC00059F7FC011082E8CF80E0E7CFEF92FF9244
:102ED0000F931F93CF93DF93EC01FB01E080F18010
:102EE000E114F10411F10481158101151105A9F016
:102EF0008C819D81080F191FB801CE010E943E17D9
:102F0000882399F0288139818C819D81B701820FB6
:102F1000931F0E940B2F1D830C83CE01DF91CF9155
:102F20001F910F91FF90EF900895888199810097EC
:102F300011F00E94BC2D198218821D821C821B82F6
:102F40001A82EBCFEF92FF920F931F93CF93DF93F1
:102F5000EC017B018A01BA010E943E172881398168
:102F6000811114C02115310519F0C9010E94BC2D31
:102F7000198218821D821C821B821A82CE01DF9167
:102F8000CF911F910F91FF90EF9008951D830C83B7
:102F9000B701C9010E940B2FF1CFEF92FF920F935F
:102FA0001F93CF93DF93CDB7DEB762970FB6F89438
:102FB000DEBF0FBECDBF8C01CB01F80111821082A4
:102FC00013821282158214824AE09E012F5F3F4FC6
:102FD0007901B9010E940128F70101900020E9F769
:102FE0003197AF014E195F09B701C8010E94A217BE
:102FF00062960FB6F894DEBF0FBECDBFDF91CF91C2
:103000001F910F91FF90EF900895FB01DC01119645
:103010001C921E9213961C921E92129715961C9249
:103020001E9214978617970749F060817181611588
:10303000710521F0448155810C94A2170895FC017B
:10304000118210821382128215821482FB01019078
:103050000020E9F73197AF01461B570B0C94A217DC
:10306000CF93DF93CDB7DEB72C970FB6F894DEBFC2
:103070000FBECDBF10928D0510928E0510928F0558
:1030800010929005109288051092890510928A0579
:1030900010928B0510928205109283051092840580
:1030A0001092850510927D0510927E0510927F0585
:1030B000109280051092B8041092B9041092BA04CC
:1030C0001092BB0467ED71E0CE0101960E941F18BB
:1030D00067ED71E0CE0107960E941F1810928705D8
:1030E00010927C0510927A05109291051092860537
:1030F00010928C051092810510927B051092B704F6
:103100001092B604CE0107960E942E17CE010196AA
:103110000E942E172C960FB6F894DEBF0FBECDBFBF
:10312000DF91CF910895CF92DF92EF92FF920E94AC
:1031300015066B017C010E9415066C197D098E092C
:103140009F09643F71408105910558F482E00E9417
:103150002B05892B61F382E00E942B05892B39F323
:10316000EACF89ED91E00E94EA1460E081E10E94DB
:1031700002146EE371E08CE996E00E942B06FF904A
:10318000EF90DF90CF900C9430184F925F926F9237
:103190007F92AF92BF92CF92DF92EF92FF920F9306
:1031A0001F93CF93DF93FC0102811381023011053D
:1031B00008F44FC0EC01B80190E080E00E943B2889
:1031C0009B01AC01688579858A859B850E94772A59
:1031D0002B013C01AC84BD84D0E0C0E0C12CD12CDB
:1031E0007601F50161917191819191915F01A30146
:1031F00092010E940A2A9B01AC010E949C289B011B
:10320000AC01C701B6010E940B2A6B017C01CE0103
:10321000019608171907D9F4BE0190E080E00E94DA
:103220003B289B01AC01C701B6010E94772ADF91C0
:10323000CF911F910F91FF90EF90DF90CF90BF90B3
:10324000AF907F906F905F904F900C94BA2BEC01F1
:10325000C8CF60E070E080EC9FE7DF91CF911F91D5
:103260000F91FF90EF90DF90CF90BF90AF907F9045
:103270006F905F904F9008952F923F924F925F9280
:103280006F927F928F929F92AF92BF92CF92DF9276
:10329000EF92FF920F931F93CF93DF93CDB7DEB7DB
:1032A0002F970FB6F894DEBF0FBECDBFFE01B496C8
:1032B000619071908F01312C212CD3018C91882346
:1032C00009F4F1C3BFEF6B1A7B0A7101EFEFEE1A3D
:1032D000FE0A853209F0C6C0B12CA12C07C08D3280
:1032E00071F1803361F46894A0F83F01F30181919A
:1032F0008B3241F1A4F7803241F1833249F190EDF4
:10330000980F9A3040F51B821A82F301819190ED5B
:10331000980F9A3098F54AE02A813B81429F7001CC
:10332000439FF00C112490E3E91AF108D701A80F8C
:10333000B11D87FDBA95BB83AA833F01E6CF689490
:10334000A1F8D3CF6894A2F8D0CF6894A3F8CDCFDA
:103350006894A4F8CACF8A32D9F5C8010296D80178
:10336000ED90FC90F7FE31C06894A1F82227332736
:103370002E193F093B832A838C013F01D3018C9195
:103380008E3209F048C0C30101966894B2F81196D4
:103390002C9130ED320F3A30F0F4512C412CFC01DD
:1033A000219130ED320F3A3098F5BAE0B49D7001BA
:1033B000B59DF00C112430E3E31AF1082701420E09
:1033C000511C27FD5A94CF01EACFFB82EA82D4CF69
:1033D0001B821A82D3CF2A32E9F4C8010296D8019F
:1033E0004D905C9057FE02C0512C412CB2E06B0E08
:1033F000711C8C0193012F5F3F4FF30180818C364C
:10340000A1F064F48836D9F18A3661F0930112C0D4
:103410003C01F0CF3C01512C412CECCF843711F012
:103420008A37A1F76894B1F805C081818C3609F11B
:103430006894B0F8D9018D913D01853609F4EAC14F
:103440000CF0A4C0873409F4E5C114F5853409F4FF
:10345000E1C10CF0C1C1853209F4FBC27101BFEFBB
:10346000EB1AFB0A2FEF3FEFA101BE016F5F7F4F09
:10347000FBC2B3E0BB2A93012E5F3F4FDBCF8181BC
:10348000883619F06894A7F8D5CFF0ECAF2AF3CFBF
:10349000823609F434C33CF46894A5F88835F1F613
:1034A000F0E18F2E0DC0833609F4CBC18436B1F61E
:1034B000E894A4F8AAE08A2E893621F0843611F027
:1034C000B3EFAB22B2FE02C0E894A0F89501222728
:1034D0003270893619F0843609F023C1232B09F4A0
:1034E0009CC0F8013896F987E887D801CC901196EE
:1034F000DC9011971296EC9012971396FC9013970C
:1035000014969C9014971596AC91F801F681FC8363
:10351000F801F781FA879601A701692D7A2F8C812E
:103520009F2F0FE30E94CA2CB22F092D1A2FFC8166
:10353000EA859601A701B8018F2F9E2FA0E00E9477
:10354000FA2C3CF40E94B82C69017A018B01F82F07
:10355000E92FBF92AF922B812F933A813F935F92D5
:103560004F92AB2E2F2F3E2FA101BE016F5F7F4FD9
:1035700087EB9FE00E94AA011C010F900F900F9013
:103580000F900F900F900885198597CE8F3609F40C
:10359000B3C29CF4873609F43DC10CF41DC18936D1
:1035A00009F486CF8E3609F059CFD801ED91FD91FF
:1035B0008D01A6FE5DC2208280CE833709F490C1C2
:1035C0002CF5803709F04ACF65016894C0F8D4F82B
:1035D000F8013296FB83EA83D8010D911C91011505
:1035E000110509F015C246E0E42EF12C05E010E0CB
:1035F0002AEE31E0A101BE016F5F7F4F87EB9FE0B4
:103600000E9420011C010A811B8157CE853709F4D5
:103610004FCF883709F444CF21CFB0FE48C0C8014E
:10362000049699878887D801CD90DD90ED90FC9025
:10363000D701C6018827B7FD83959927AA27BB27FD
:103640008C879D87AE87BF87D701C601BB0F880BCC
:10365000982FDC018C839D83AE83BF83BC2D9D2C72
:10366000EA86FB860C81102FF02FE02F9601A70130
:103670006F2F702F802F9F2FA0E00E94FA2C4CF408
:103680000E94B82CB22F932E4A875B878B01F82FAC
:10369000E92FBF92AF929B819F93AA81AF935F92D4
:1036A0004F92AC84CB2ED92CEA84FB845BCFF801FB
:1036B0003296F987E887D801A6FE30C0EC910E2E2D
:1036C000000CFF0BBF2FBB1FBB27BB1FBC836F01B1
:1036D000EF2EEE0CEE08FE2C0E2D1E2D9E2CBE2D78
:1036E0009F014E2D5E2D6E2D7E2D8E2D9E2DA0E0E8
:1036F0000E94FA2C3CF40E94B82C69017A018B01DB
:10370000982EB92FBF92AF92EB81EF93FA81FF937E
:103710005F924F92AC80292D3B2F26CFED91FC91EB
:10372000D1CF232B39F19801285F3F4F3987288764
:10373000D801CC901196DC9011971296EC901297CC
:103740001396FC90139714969C91149715968C9150
:10375000159716962C91169717963C91BF92AF929B
:10376000BB81BF93EA81EF935F924F92A12C092F07
:10377000182FFACE9801B0FE19C02C5F3F4F398741
:103780002887D8010D911D912D913C91BF92AF9248
:10379000BB81BF93EA81EF935F924F92A12C6801A6
:1037A000790100E010E020E030E0DECE2E5F3F4FF8
:1037B00039872887D8010D911C91A6FC1127BF924B
:1037C000AF92BB81BF93EA81EF935F924F92A12C9E
:1037D0006801E12CF12CE5CF863411F46894A5F84A
:1037E00098012C5F3F4F3D832C83D8010D911D9193
:1037F0002D913C91812CCA80DB807201A101BE0118
:103800006F5F7F4F87EB9FE00E94C00E1C010C8111
:103810001D8153CD982F9F7D973419F46894B3F888
:103820008D7F853411F46894A5F8F8013496FD83F2
:10383000EC83D8010D911D912D913C9188248394A6
:10384000DACF4501B2E08B229924A101CC24C394A4
:10385000D12CA1FC1AC0F12CE12CA1014E0D5F1D51
:103860006701E2E0CE0ED11CFFEFEF1AFF0A2A81BA
:103870003B81E216F30648F42FEF3FEFBE016F5F86
:103880007F4F80E20E94B70FE8CF1A013FEF231A63
:10389000330A780182E0E80EF11C2FEF3FEFBE0102
:1038A0006F5F7F4FD8018C910E94B70F8928B1F0CC
:1038B000EA81FB81CE16DF0688F481010F5F1F4F7E
:1038C0002FEF3FEFA101BE016F5F7F4F80E20E94AB
:1038D000B70FFFEFCF1ADF0A1801EACF8701EDCC4F
:1038E00098012E5F3F4F39872887D8010D911C9191
:1038F0000115110589F46501EA80FB8006E010E0FE
:1039000023EE31E0A101BE016F5F7F4F87EB9FE0A7
:103910000E9420011C0137CE92014114510411F480
:103920002FEF3FEFF80190E080E0AF014F5F5F4F76
:103930006081662331F08217930719F00196FA012E
:10394000F4CFE01BF10B9501222734703D832C83CB
:10395000B2FE04C04E165F0608F4F201450132E0E3
:10396000832299247F01A101A1FC18C02E1A3F0ACD
:10397000A1014E0F5F1F7F018FEFE81AF80AAA819D
:10398000BB81EA17FB0750F42FEF3FEFBE016F5FDB
:103990007F4F80E20E94B70FF701EACF6A01C01A99
:1039A000D10AA601400F511FF80181918F01882390
:1039B00091F02C813D81232B31F09201215031096E
:1039C000452849F029012FEF3FEFBE016F5F7F4F80
:1039D0000E94B70FE6CF1A01892809F4D4CDE41A62
:1039E000F50AC701820D931DAA81BB818A179B0727
:1039F00008F0C9CD81010F5F1F4F2FEF3FEFA101ED
:103A0000BE016F5F7F4F80E20E94B70F1801E9CFC0
:103A1000DF92CF921F92B6E0BF935F924F9230E158
:103A2000832EA12C6801E12CF12C00E010E020E0B5
:103A300030E0A101BE016F5F7F4F87EB9FE00E94E6
:103A4000AA011C010F900F900F900F900F900F90F4
:103A5000DACD7101EFEFEE1AFE0A2FEF3FEFA10171
:103A6000BE016F5F7F4F85E20E94B70F170125CC23
:103A7000A7FE03C03182208220CCB0FE08C0C10165
:103A8000B0E0A0E080839183A283B38316CCB1FE23
:103A9000F1CF410120829182128213821482158219
:103AA000168217820ACCA101EFEF2E163E0611F402
:103AB0004EEF5FEF2FEF3FEFBE016F5F7F4F80E074
:103AC0000E94B70FC1012F960FB6F894DEBF0FBE4C
:103AD000CDBFDF91CF911F910F91FF90EF90DF90BD
:103AE000CF90BF90AF909F908F907F906F905F909E
:103AF0004F903F902F90089528E0822EE1CC92E0E5
:103B0000892EDECCEF92FF920F931F93CF93DF931A
:103B1000CDB7DEB76E970FB6F894DEBF0FBECDBF40
:103B200069EC71E0CE010D960E941F186091780536
:103B300070917905CE0107960E94CD17BE01635F93
:103B40007F4FCE0101960E940518BE01695F7F4F2D
:103B5000CE0101960E946617BC01CE0143960E94D9
:103B60000518CE0101960E942E17CE0107960E94DD
:103B70002E176091760570917705CE0107960E9409
:103B8000CD17BE01635F7F4FCE0101960E940518DD
:103B9000BE01695F7F4FCE0101960E946617BC018E
:103BA000CE0149960E940518CE0101960E942E175B
:103BB000CE0107960E942E1789E091E00E94FD1425
:103BC00086E896E00E945C07162F072FF82EE92E54
:103BD00080E796E00E945C07EF92FF920F931F939D
:103BE0009F938F937F936F93809189068F9380919A
:103BF00088068F9380EF91E09F938F930E943C19EA
:103C00008AE596E00E945C07162F072FF82EE92E12
:103C100084E496E00E945C07EF92FF920F931F935B
:103C20009F938F937F936F9380915D068F93809185
:103C30005C068F9380E292E09F938F930E943C19E1
:103C4000809189068F93809188068F9381E592E019
:103C50009F938F930E943C190FB6F894DEBF0FBE5E
:103C6000CDBF809176059091770502970CF4C6C080
:103C70008A8D8F93898D8F938BE692E09F938F939C
:103C80000E943C190F900F900F900F908091780533
:103C90009091790502970CF4CCC08C898F938B8915
:103CA0008F938AE792E09F938F930E943C190F9025
:103CB0000F900F900F90809197068F9380919606AA
:103CC0008F93809195068F93809194068F93809126
:103CD00081068F93809180068F9380917F068F93CA
:103CE00080917E068F93809189068F9380918806BC
:103CF0008F938BE992E09F938F930E943C19809160
:103D00009B068F9380919A068F93809199068F934B
:103D1000809198068F93809185068F938091840679
:103D20008F93809183068F93809182068F938091E9
:103D300089068F93809188068F938BEC92E09F93F6
:103D40008F930E943C1986E896E00E94C518162FB2
:103D5000072FF82EE92E80E796E00E94C518EF9213
:103D6000FF920F931F939F938F937F936F938091F5
:103D700089068F93809188068F938CEF92E09F93B2
:103D80008F930E943C190FB6F894DEBF0FBECDBFD3
:103D900084E496E00E94C5189F938F937F936F935E
:103DA0009F938F937F936F9380915D068F93809104
:103DB0005C068F938DE293E09F938F930E943C1952
:103DC000CE0149960E942E17CE0143960E942E17CF
:103DD000CE010D960E942E170FB6F894DEBF0FBECF
:103DE000CDBF6E960FB6F894DEBF0FBECDBFDF918C
:103DF000CF911F910F91FF90EF90089580E796E08B
:103E00000E945C0720E030E04AE754E40E94772AF1
:103E10009F938F937F936F9381E792E09F938F930C
:103E20000E943C190F900F900F900F900F900F90E1
:103E30002DCF86E896E00E945C0720E030E04AE75C
:103E400054E40E94772A9F938F937F936F9389E81E
:103E500092E09F938F930E943C190F900F900F90C8
:103E60000F900F900F9027CFCF93DF93CDB7DEB792
:103E70006E970FB6F894DEBF0FBECDBF69EC71E050
:103E8000CE010D960E941F186091A8047091A9049C
:103E9000CE0107960E94CD17BE01635F7F4FCE0112
:103EA00001960E940518BE01695F7F4FCE01019601
:103EB0000E946617BC01CE0143960E940518CE01F0
:103EC00001960E942E17CE0107960E942E17609130
:103ED000A6047091A704CE0107960E94CD17BE01DB
:103EE000635F7F4FCE0101960E940518BE01695F96
:103EF0007F4FCE0101960E946617BC01CE01499604
:103F00000E940518CE0101960E942E17CE01079639
:103F10000E942E1785ED90E00E94FD148091B5045B
:103F20008F938091B4048F938091B3048F93809189
:103F3000B2048F938091B1048F938091B0048F93DA
:103F40008091AF048F938091AE048F938FE593E0BF
:103F50009F938F930E943C198091AD048F93809121
:103F6000AC048F938091AB048F938091AA048F93BC
:103F70008091BB048F938091BA048F938091B90490
:103F80008F938091B8048F938EE893E09F938F93E3
:103F90000E943C196CEB70E08BE995E00E942B06C7
:103FA0000FB6F894DEBF0FBECDBF20E030E040E892
:103FB0005FE36091B8047091B9048091BA04909164
:103FC000BB040E94362887FFB5C080917A05811115
:103FD000B1C08A8D8F93898D8F938CE692E09F93E9
:103FE0008F930E943C190F900F900F900F9020E03C
:103FF00030E040E85FE36091AA047091AB048091E7
:10400000AC049091AD040E94362887FF9CC08C8937
:104010008F938B898F938AE792E09F938F930E946F
:104020003C190F900F900F900F9080917A0581119D
:1040300023C08091A5048F938091A4048F938091D5
:10404000A3048F938091A2048F938091A1048F93F6
:104050008091A0048F9380919F048F9380919E0400
:104060008F9380EC93E09F938F930E943C190FB63F
:10407000F894DEBF0FBECDBF8091B604882381F0D7
:10408000809186058250990B9F938F938FEE93E0DA
:104090009F938F930E943C190F900F900F900F9059
:1040A0008091B704882381F0809191058250990B0B
:1040B0009F938F9380E194E09F938F930E943C198C
:1040C0000F900F900F900F904091820550918305B3
:1040D000609184057091850580918805909189058E
:1040E000A0918A05B0918B05481759076A077B078D
:1040F00040F480917A05811104C086E990E00E9425
:10410000FD1488E690E00E94FD14CE0149960E94BD
:104110002E17CE0143960E942E17CE010D960E94B7
:104120002E176E960FB6F894DEBF0FBECDBFDF918F
:10413000CF91089587EB91E09F938F930E943C1954
:104140000F900F9054CF8EE492E09F938F930E9434
:104150003C190F900F9069CF85ED8093BC00809142
:10416000480590914905A0914A05B0914B050796E5
:10417000A11DB11D23E0B695A795979587952A9522
:10418000D1F72091BC0024FD03C01092460508958C
:10419000409148055091490560914A0570914B0541
:1041A000452B462B472B69F30097A105B10541F03C
:1041B0002AE22A95F1F700C00197A109B109E1CFE0
:1041C000809147050C9405100C9462290C945A298F
:1041D0001F920F920FB60F9211242F933F938F933C
:1041E0009F93AF93BF938091930590919405A09175
:1041F0009505B09196053091920523E0230F2D3758
:1042000058F50196A11DB11D209392058093930549
:1042100090939405A0939505B0939605809197058A
:1042200090919805A0919905B0919A050196A11DCC
:10423000B11D8093970590939805A0939905B0932D
:104240009A05BF91AF919F918F913F912F910F90C0
:104250000FBE0F901F90189526E8230F0296A11D00
:10426000B11DD2CF1F920F920FB60F9211242F9330
:104270003F934F935F936F937F938F939F93AF93EE
:10428000BF93EF93FF93E0910201F0910301099531
:10429000FF91EF91BF91AF919F918F917F916F911E
:1042A0005F914F913F912F910F900FBE0F901F90F4
:1042B00018951F920F920FB60F9211242F933F93D0
:1042C0004F935F936F937F938F939F93AF93BF931E
:1042D000EF93FF93E0910001F09101010995FF91A7
:1042E000EF91BF91AF919F918F917F916F915F916E
:1042F0004F913F912F910F900FBE0F901F901895E7
:104300001F920F920FB60F9211242F933F934F934A
:104310005F936F937F938F939F93AF93BF93EF932D
:10432000FF938BE995E00E94CD06FF91EF91BF913D
:10433000AF919F918F917F916F915F914F913F913D
:104340002F910F900FBE0F901F9018951F920F92F4
:104350000FB60F9211242F938F939F93EF93FF9398
:10436000E091AB05F091AC058081E091B105F09151
:10437000B20582FD1BC090818091B4058F5F8F7361
:104380002091B505821741F0E091B405F0E0E556C3
:10439000FA4F958F8093B405FF91EF919F918F9184
:1043A0002F910F900FBE0F901F9018958081F4CF22
:1043B0001F920F920FB60F9211242F933F934F939A
:1043C0005F936F937F938F939F93AF93BF93EF937D
:1043D000FF938091B900887F803609F44AC0F0F5D8
:1043E000883209F4A7C018F5803109F49BC0B8F4ED
:1043F000882309F4F9C0883009F494C0FF91EF9143
:10440000BF91AF919F918F917F916F915F914F91EC
:104410003F912F910F900FBE0F901F9018958831EC
:1044200009F488C0803251F78093440514C0803469
:1044300009F49DC040F48033B9F38833F9F68093D2
:10444000440585ECB0C0803509F485C0883509F491
:1044500096C0883499F60E94AC20D0CF883909F4F0
:104460008CC038F5883729F050F4883611F0803741
:1044700029F683E08093460510921F0557C08838BF
:1044800009F47BC0803919F0803809F0B7CF8091EA
:104490001F05803208F071C0E0911F0581E08E0F8A
:1044A00080931F058091BB00F0E0E150FB4F8083BB
:1044B0003DC0803B39F0E0F4803A09F479C0883A95
:1044C00009F09CCF84E0809346051092FE04109280
:1044D000FD04E0917005F091710509958091FD044E
:1044E00081110FC081E08093FD041092DD0409C0AA
:1044F000803C09F4A6CF883C09F4A3CF883B09F09F
:104500007DCFE091FE0481E08E0F8093FE04F0E009
:10451000E352FB4F80818093BB009091FE04809119
:10452000FD0429C0809121058093BB0085EC809318
:10453000BC0064CF9091430580914205981758F5CF
:10454000E091430581E08E0F80934305F0E0EE5D3E
:10455000FA4F8081E9CFE091430581E08E0F80938F
:1045600043058091BB00F0E0EE5DFA4F80839091AF
:104570004305809142059817C8F285E8D8CFE091AD
:10458000430581E08E0F809343058091BB00F0E0EE
:10459000EE5DFA4F80838091450581115CCF81E00B
:1045A0008093200584EA8093BC001092460526CFB4
:1045B00085EC8093BC001092460580911F058032E7
:1045C00030F4E0911F05F0E0E150FB4F1082609164
:1045D0001F0570E0E0916E05F0916F058FEF94E09C
:1045E000099510921F050ACF1092440534CFEBE9CC
:1045F000F5E01382128288EE93E0A0E0B0E08483BD
:104600009583A683B78322E631E03183208325ECAE
:1046100030E03587248724EC30E03787268720EC8C
:1046200030E0318B208B21EC30E0338B228B22EC7D
:1046300030E0358B248B26EC30E0378B268B118EC7
:10464000128E138E148EE8E3F6E0138212828483B6
:104650009583A683B78384E791E091838083ECE917
:10466000F6E01382128286E891E09183808387E2EC
:10467000848384E1818784E08287138686E896E0DC
:104680000E943C1480E796E00E943C148AE596E084
:104690000E943C1484E496E00C943C14789484B515
:1046A000826084BD84B5816084BD85B5826085BD2E
:1046B00085B5816085BD80916E00816080936E00BC
:1046C00010928100809181008260809381008091AE
:1046D000810081608093810080918000816080935F
:1046E00080008091B10084608093B1008091B0001F
:1046F00081608093B00080917A00846080937A001A
:1047000080917A00826080937A0080917A00816043
:1047100080937A0080917A00806880937A0010926A
:10472000C10060E082E00E94820560E083E00E94B8
:10473000820562E08CE00E94820562E08BE00E94CC
:1047400082058EEA91E190930101809300018091AE
:1047500069008C7F816080936900E89A86E991E125
:10476000909303018093020180916900837F8460AC
:1047700080936900E99AE091AB05F091AC0582E085
:104780008083E091A705F091A8051082E091A9052A
:10479000F091AA0580E180831092B305E091AF0506
:1047A000F091B00586E08083E091AD05F091AE0513
:1047B000808180618083E091AD05F091AE058081BC
:1047C00088608083E091AD05F091AE0580818068BE
:1047D0008083E091AD05F091AE0580818F7D80836F
:1047E000109275051092740510927305109272055F
:1047F0000E94E70F81E296E0909371058093700527
:1048000082E296E090936F0580936E051092A10668
:104810008091A606823018F098E09093A1068093CC
:10482000A40662E370E080E090E00E94E3056091FE
:10483000A7068CE996E00E94AC1068EE73E080E079
:1048400090E00E94E30560E38CE996E00E94C713C4
:10485000CBE4D6E4CE010197F1F760E38CE996E072
:104860000E94C7132197F1F760E38CE996E00E945C
:10487000C71383E592E00197F1F760E28CE996E0D7
:104880000E94C7136091A106606240E08CE996E047
:104890000E94E01384E08093A20640E06CE08CE983
:1048A00096E00E94E0130E94F71382E08093A30633
:1048B00040E066E08CE996E00E94E01340E062E0B0
:1048C0008CE996E00E94E0138BE39FE10197F1F7FA
:1048D00088E08093A70660E08CE996E00E94AC1027
:1048E0000E94F71384E090E00E94E620843009F4EF
:1048F000DFC086E090E00E94E6208F3F09F058C0BC
:1049000080E480937C0080917A00806480937A00B8
:1049100080917A0086FDFCCF6091780070917900DB
:10492000072E000C880B990B611571058105910507
:1049300011F00E94F8270E94A92723EFC22ED12C44
:10494000E12CF12CA70196010E947029655F7F4F31
:104950008F4F9F4F86E090E00E94E4200E94A9279D
:10496000A70196010E947029655F7F4F8F4F9F4F6F
:1049700087E090E00E94E4200E94A927A701960109
:104980000E947029655F7F4F8F4F9F4F88E090E0B6
:104990000E94E4200E94A927A70196010E94702985
:1049A000655F7F4F8F4F9F4F89E090E00E94E4202A
:1049B00086E090E00E94E620E82EF12C1F928F9373
:1049C00080E394E09F938F930E943C190E94F71319
:1049D00060E080E00E94021481E494E00E94E5140B
:1049E00060E08CE00E940214B7018CE996E00E941E
:1049F000AF1462E080E00E9402148EE494E00E9412
:104A0000E5140F900F900F900F90C7016AE070E0CF
:104A10000E94142CE60EF71ED0E0C0E08CE00E944D
:104A20002B05019779F58BE00E942B05892BB1F7B7
:104A30002196CF3027E2D20711F4D0E0C0E0BE01CA
:104A40008BE995E00E94AF1460EA71E08BE995E094
:104A50000E94541462E089E00E94021488EB91E005
:104A60000E94E51462E089E00E940214BE018CE914
:104A700096E00E94AF1464E670E080E090E00E944F
:104A8000E305CCCF81E694E0EC16FD0639F464E052
:104A900084E090E00E94E42087E594E00E94EA141C
:104AA00068EB7BE080E090E00E94E3050C9400005E
:104AB0000E94F71360E080E00E94021488E694E010
:104AC0000E94E51462E082E00E9402148AE794E00A
:104AD0000E94E51468EB7BE080E090E00E94E30533
:104AE0000E9430180E94F71360E080E00E940214D8
:104AF00060E471E08CE996E00E942B068BE00E9456
:104B00002B05892B39F582E00E942B0561E0892B6A
:104B1000A9F489E00E9402148BE894E00E94E51455
:104B200083E00E942B0561E0892B71F480E00E94F4
:104B300002148BE894E00E94E514E5CF89E00E941E
:104B4000021484E994E0EACF80E00E94021484E930
:104B500094E0F1CF0E94F2150E949318C0E0D0E0DB
:104B600080919105813079F40E94BE0560938D0596
:104B700070938E0580938F05909390058091910599
:104B80008F5F8093910510918C05113089F40E94FC
:104B9000BE05609388057093890580938A0590937C
:104BA0008B0580918C058F5F80938C051093870512
:104BB00080918605813079F40E94BE05609382055C
:104BC0007093830580938405909385058091860575
:104BD0008F5F8093860510918105113089F40E94C2
:104BE000BE0560937D0570937E0580937F0590934D
:104BF0008005809181058F5F8093810510937C05EE
:104C00008CE00E942B05892B49F585E591E00E94F7
:104C1000FD1486E896E00E94320880E796E00E9444
:104C200032088AE596E00E94320884E496E00E9409
:104C3000320810927905109278051092770510923B
:104C400076058CE00E942B05892BD9F36AEF70E082
:104C500080E090E00E94E3050E9493188BE00E94A0
:104C60002B05892B09F0C1C060E080E00E9402148E
:104C700068E771E08CE996E00E942B0661E080E035
:104C80000E9402148FEA91E00E94E51461E089E03D
:104C90000E94021486E896E00E945C070E94252B81
:104CA0008CE996E00E94AF1461E080E00E9402145B
:104CB00080E796E00E945C070E94252B8CE996E035
:104CC0000E94AF1461E082E10E94021486EC91E040
:104CD0000E94E51462E080E00E9402148FEA91E0F5
:104CE0000E94E51462E089E00E9402148091780538
:104CF0009091790502970CF499C089EC91E00E949B
:104D0000E51460917805709179058CE996E00E9430
:104D1000AF1462E080E00E940214809176059091C9
:104D2000770502970CF490C089EC91E00E94E5149D
:104D300060917605709177058CE996E00E94AF143A
:104D400062E082E10E9402148CEC91E00E94E51482
:104D500063E080E00E9402148FEA91E00E94E51473
:104D600063E089E00E9402148FEC91E00E94E51458
:104D70008AE596E00E945C070E94252B8CE996E06C
:104D80000E94AF1463E080E00E94021483ED91E082
:104D90000E94E51484E496E00E945C070E94252BA3
:104DA0008CE996E00E94AF1463E082E10E94021455
:104DB00086EC91E00E94E5148BE00E942B05892B84
:104DC000D9F36AEF70E080E090E00E94E30560E0D4
:104DD00080E00E94021463E671E08CE996E00E9494
:104DE0002B060E94F2150E94931880918705882354
:104DF00091F080917C058823A9F10E949E130E9466
:104E000034120E94341F0E94C3110E94821D0E940E
:104E1000F2150E949318209709F4A2CE0E94B906B9
:104E2000882309F49DCE0E9400009ACE86E896E081
:104E30000E945C0720E030E04AE754E40E94772AB1
:104E400042E00E94101565CF80E796E00E945C0763
:104E500020E030E04AE754E40E94772A42E00E94D2
:104E600010156ECF80917B058111D5CF0E94BE05B4
:104E7000C0908805D0908905E0908A05F0908B0558
:104E80006C197D098E099F09603472448F40910529
:104E900010F281E080937A05B0CF84E496E00E941E
:104EA00036178AE596E00E94361780E796E00E9462
:104EB000361786E896E00C9436178F929F92AF9241
:104EC000BF92CF92DF92EF92FF92CF93DF93EC01EC
:104ED000688179818A819B816115710581059105C0
:104EE00021F464E279ED8BE597E02DE133EF41E0C9
:104EF00050E00E94702949015A019B01AC01A7EAC8
:104F0000B1E40E948F296B017C01ACEEB4EFA501E6
:104F100094010E949D29C60ED71EE81EF91EF7FEB9
:104F200006C081E0C81AD108E10880E8F80AC88202
:104F3000D982EA82FB82C701B6019F77DF91CF91C8
:104F4000FF90EF90DF90CF90BF90AF909F908F90A9
:104F500008958F929F92AF92BF92CF92DF92EF927D
:104F6000FF9260910401709105018091060190917A
:104F70000701611571058105910521F464E279ED60
:104F80008BE597E02DE133EF41E050E00E9470297E
:104F900049015A019B01AC01A7EAB1E40E948F29A3
:104FA0006B017C01ACEEB4EFA50194010E949D2938
:104FB000C60ED71EE81EF91EF7FE06C081E0C81A0D
:104FC000D108E10880E8F80AC0920401D0920501F6
:104FD000E0920601F0920701C701B6019F77FF90AA
:104FE000EF90DF90CF90BF90AF909F908F900895FB
:104FF000609304017093050180930601909307016B
:105000000895BB274A3031F4992322F4BDE29095EC
:1050100081959F4F0C940D28BB27FB015527AA278C
:10502000880F991FAA1FA41710F0A41B8395505135
:10503000B9F7A05DAA3308F0A95DA193009779F7AD
:10504000B111B1931192CB010C942628DC01FC0123
:10505000672F71917723E1F7329704C07C916D93AC
:1050600070836291AE17BF07C8F308950E94782835
:1050700008F481E00895E89409C097FB3EF4909508
:105080008095709561957F4F8F4F9F4F9923A9F021
:10509000F92F96E9BB279395F695879577956795B0
:1050A000B795F111F8CFFAF4BB0F11F460FF1BC0F4
:1050B0006F5F7F4F8F4F9F4F16C0882311F096E987
:1050C00011C0772321F09EE8872F762F05C0662335
:1050D00071F096E8862F70E060E02AF09A95660FEE
:1050E000771F881FDAF7880F9695879597F90895A7
:1050F000990F0008550FAA0BE0E8FEEF16161706E9
:10510000E807F907C0F012161306E407F50798F050
:10511000621B730B840B950B39F40A2661F0232B69
:10512000242B252B21F408950A2609F4A140A695E5
:105130008FEF811D811D08950E94AF280C942029B6
:105140000E94122938F00E94192920F0952311F0AD
:105150000C9409290C940F2911240C9454290E94B1
:10516000312970F3959FC1F3950F50E0551F629F51
:10517000F001729FBB27F00DB11D639FAA27F00DB0
:10518000B11DAA1F649F6627B00DA11D661F829FD7
:105190002227B00DA11D621F739FB00DA11D621FBC
:1051A000839FA00D611D221F749F3327A00D611DD9
:1051B000231F849F600D211D822F762F6A2F1124BB
:1051C0009F5750409AF0F1F088234AF0EE0FFF1FEE
:1051D000BB1F661F771F881F91505040A9F79E3F45
:1051E000510580F00C9409290C9454295F3FE4F395
:1051F000983ED4F3869577956795B795F795E7959B
:105200009F5FC1F7FE2B880F911D9695879597F9A3
:10521000089597F99F6780E870E060E008959FEF38
:1052200080EC089500240A9416161706180609063D
:10523000089500240A94121613061406050608950C
:10524000092E0394000C11F4882352F0BB0F40F494
:10525000BF2B11F460FF04C06F5F7F4F8F4F9F4FD4
:10526000089557FD9058440F551F59F05F3F71F056
:105270004795880F97FB991F61F09F3F79F08795BD
:105280000895121613061406551FF2CF4695F1DF46
:1052900008C0161617061806991FF1CF86957105D6
:1052A000610508940895E894BB2766277727CB010A
:1052B00097F90895F999FECF92BD81BDF89A992783
:1052C00080B50895262FF999FECF1FBA92BD81BDF2
:1052D00020BD0FB6F894FA9AF99A0FBE0196089578
:1052E000052E97FB1EF400940E94872957FD07D0D6
:1052F0000E94D92907FC03D04EF40C9487295095BD
:105300004095309521953F4F4F4F5F4F08959095B1
:105310008095709561957F4F8F4F9F4F08950E94A4
:10532000FB29A59F900DB49F900DA49F800D911D0A
:1053300011240895B7FF0C948F290E948F29821B96
:10534000930B08952F923F924F925F926F927F92AC
:105350008F929F92AF92BF92CF92DF92EF92FF9285
:105360000F931F93CF93DF93CDB7DEB7CA1BDB0B31
:105370000FB6F894DEBF0FBECDBF09942A883988D6
:1053800048885F846E847D848C849B84AA84B984DD
:10539000C884DF80EE80FD800C811B81AA81B981E9
:1053A000CE0FD11D0FB6F894DEBF0FBECDBFED01FD
:1053B0000895A1E21A2EAA1BBB1BFD010DC0AA1F56
:1053C000BB1FEE1FFF1FA217B307E407F50720F06E
:1053D000A21BB30BE40BF50B661F771F881F991FE9
:1053E0001A9469F760957095809590959B01AC0132
:1053F000BD01CF010895A29FB001B39FC001A39F3B
:10540000700D811D1124911DB29F700D811D1124FD
:10541000911D08955058BB27AA270E94222A0C9458
:1054200020290E94122938F00E94192920F039F40D
:105430009F3F19F426F40C940F290EF4E095E7FB36
:105440000C940929E92F0E94312958F3BA176207F1
:1054500073078407950720F079F4A6F50C94532977
:105460000EF4E0950B2EBA2FA02D0B01B90190017F
:105470000C01CA01A0011124FF27591B99F0593FC3
:1054800050F4503E68F11A16F040A22F232F342F0B
:105490004427585FF3CF469537952795A795F04059
:1054A0005395C9F77EF41F16BA0B620B730B840B6E
:1054B000BAF09150A1F0FF0FBB1F661F771F881F26
:1054C000C2F70EC0BA0F621F731F841F48F487957E
:1054D00077956795B795F7959E3F08F0B0CF939570
:1054E000880F08F09927EE0F9795879508950E94E9
:1054F0008B2A0C9420290E94192958F00E94122905
:1055000040F029F45F3F29F00C94092951110C94C3
:1055100054290C940F290E94312968F39923B1F37F
:10552000552391F3951B550BBB27AA2762177307C9
:10553000840738F09F5F5F4F220F331F441FAA1F5D
:10554000A9F335D00E2E3AF0E0E832D09150504019
:10555000E695001CCAF72BD0FE2F29D0660F771FC7
:10556000881FBB1F261737074807AB07B0E809F0AD
:10557000BB0B802DBF01FF2793585F4F3AF09E3F32
:10558000510578F00C9409290C9454295F3FE4F3F9
:10559000983ED4F3869577956795B795F7959F5F75
:1055A000C9F7880F911D9695879597F90895E1E0C1
:1055B000660F771F881FBB1F621773078407BA0720
:1055C00020F0621B730B840BBA0BEE1F88F7E0957B
:1055D0000895BEE304D008F490E80895BFE32227BD
:1055E0003327A9010E94392960F19F5748F1B91763
:1055F00040F1BFE3B91B9927B8503AF4660F771F03
:10560000881F991FB395D2F316C0B8504AF0232FC4
:10561000342F452F562F672F782F8827B850BAF789
:10562000B85F49F086957795679557954795379573
:105630002795BA95B9F716F40E949F2B8894089580
:10564000889460E070E0CB0108950E942C2B689450
:10565000B1110C94542908950E94392988F09F575C
:1056600098F0B92F9927B751B0F0E1F0660F771F86
:10567000881F991F1AF0BA95C9F714C0B13091F07C
:105680000E945329B1E008950C945329672F782F75
:105690008827B85F39F0B93FCCF386957795679541
:1056A000B395D9F73EF490958095709561957F4FAD
:1056B0008F4F9F4F089597FB16F40E949F2B0C94D9
:1056C000622BE894F92F96EBFF2381F01216130654
:1056D0001406440B9395F69587957795679557959E
:1056E0004040FF23B9F71BC099270895882351F440
:1056F0009850D2F7872B762F652F542F432F322FB8
:1057000020E0B1F3121613061406440B88233AF076
:105710009A95440F551F661F771F881FCAF7552398
:105720004AF4440F551F11F460FF04C06F5F7F4FB0
:105730008F4F9F4F880F9695879597F9089590956D
:1057400080957095609550954095309521953F4F87
:105750004F4F5F4F6F4F7F4F8F4F9F4F08950E9466
:10576000782808F48FEF089519F416F40C940F2993
:105770000C94FF2B0E943929B8F39923C9F3B6F38F
:105780009F57550B87FF0E940D2C0024A0E640EA8E
:10579000900180585695979528F4805C660F771F86
:1057A000881F20F026173707480730F4621B730B59
:1057B000840B202931294A2BA6951794079420257C
:1057C00031254A2758F7660F771F881F20F02617C4
:1057D0003707480730F4620B730B840B200D311D23
:1057E000411DA09581F7B901842F9158880F969596
:1057F000879508950E947828880B990B08959F3FFC
:1058000031F0915020F4879577956795B795880F7B
:10581000911D9695879597F9089591505040660F80
:10582000771F881FD2F7089597FB072E16F4009470
:1058300007D077FD09D00E94062D07FC05D03EF465
:10584000909581959F4F0895709561957F4F08952C
:10585000689401C0E894F92FF12B12F00C945C2CA1
:10586000A0E0B0E0E6E3FCE20C94A829092E059440
:1058700022F40E94B82C112392F4F0E80F26FFEFD7
:10588000E094F09400951095B094C094D094A194B5
:10589000BF0ACF0ADF0AEF0AFF0A0F0B1F0B0E9495
:1058A000672C07FC0E94B82CCDB7DEB7ECE00C9457
:1058B000C429689401C0E8948F929F92CF93DF939C
:1058C0000E94672CDF91CF919F908F90089588243C
:1058D0009924F401E401B0E49F93AA279A158B045C
:1058E0009C04ED05FE05CF05D007A10798F4AD2F68
:1058F000DC2FCF2FFE2FE92D982C892E982F872F64
:10590000762F652F542F432F322F2227B85031F78F
:10591000BF9127C01B2EBF91BB27220F331F441FEF
:10592000551F661F771F881F991F881C991CEE1F23
:10593000FF1FCC1FDD1FAA1FBB1F8A149B04EC0591
:10594000FD05CE05DF05A007B10748F08A189B08C2
:10595000EC09FD09CE09DF09A00BB10B21601A94F7
:10596000E1F62EF49401AF01BE01CD01000C0895C3
:1059700060957095809590953095409550952195BE
:105980003F4F4F4F5F4F6F4F7F4F8F4F9F4F089548
:1059900097FD1094002E083098F00850232F342FD4
:1059A000452F562F672F782F892F912DF4CF1594DF
:1059B0009795879577956795579547953795279547
:1059C0000A95AAF71124002D08952A0D3B1D4C1DA0
:1059D0005D1D6E1D7F1D801F911F08950024A7FD72
:1059E00000942A0F301D401D501D601D701D801D2C
:1059F000901D08950024A7FD00942A173005400546
:105A0000500560057005800590050895AA1BBB1B15
:105A100051E107C0AA1FBB1FA617B70710F0A61BAE
:105A2000B70B881F991F5A95A9F780959095BC01CF
:105A3000CD010895EE0FFF1F0590F491E02D09941C
:105A40000F931F93CF93DF938230910510F482E080
:105A500090E0E091AA06F091AB0630E020E0B0E0E3
:105A6000A0E0309799F42115310509F44AC0281BAC
:105A7000390B24303105D8F58A819B816115710578
:105A800089F1FB0193838283FE0111C04081518122
:105A90000281138148175907E0F04817590799F414
:105AA000109761F012960C93129713961C933296EE
:105AB000CF01DF91CF911F910F9108950093AA0616
:105AC0001093AB06F4CF2115310551F0421753075F
:105AD00038F0A901DB019A01BD01DF01F801C1CF56
