:100000000C94F4000C94FD200C94D6200C941C014C
:100010000C941C010C941C010C941C010C941C01EC
:100020000C941C010C941C010C941C010C941C01DC
:100030000C941C010C941C010C941C010C941C01CC
:100040000C948C200C941C010C944A210C942421B7
:100050000C941C010C941C010C941C010C941C01AC
:100060000C947C210C941C012A3D3D3D3D3D3D3DC1
:100070003D3D3D3D3D3D3D3D3D3D3D3D3D3D3D3DB0
:100080003D3D3D3D3D3D3D3D3D3D3D3D3D3D3D3DA0
:100090003D3D3D3D2A0020466C6173682053796EDA
:1000A0006320286265747765656E207468652074C6
:1000B000776F206C617365727329002053687574C3
:1000C000746572205370656564204672616374695B
:1000D0006F6E200020504152414D45544552202022
:1000E0002020202020202020202020202020202010
:1000F0004C41534552322020202020202020202017
:10010000204C41534552310020415645524147450C
:1001100053202020202020202020202020202020AC
:1001200020202020204C41534552322020202020E6
:100130002020202020204C4153455231004C617337
:100140006572322020204C6173657231202020209E
:1001500020005265736574204176657261676500A1
:100160004C61736572322020204C617365723120BE
:10017000202020200041766572676532202041767C
:1001800065726167653120202000000000002400B6
:1001900027002A0000000000250028002B00000096
:1001A00000002300260029000404040404040404BD
:1001B0000202020202020303030303030102040812
:1001C00010204080010204081020010204081020C1
:1001D0000000000800020100000304070000000006
:1001E000000000009B22BD2611241FBECFEFD8E0E7
:1001F000DEBFCDBF14E0A0E0B1E0EEE1FDE502C05E
:1002000005900D92A439B107D9F726E0A4E9B4E02E
:1002100001C01D92A23AB207E1F710E0C3EFD0E0AF
:1002200004C02197FE010E948A2CC23FD107C9F762
:100230000E94F2220C94822E0C9400002F923F9286
:100240004F925F926F927F928F929F92AF92BF92E6
:10025000CF92DF92EF92FF920F931F93CF93DF9392
:1002600000D000D0CDB7DEB71C014B015A013901D7
:1002700027019601227033273A83298333E0C32272
:10028000DD245C834B83CD2851F46801C41AD50A60
:100290008B819C818C0D9D1D84159505B0F073019B
:1002A000E00EF11E4B815C81E614F704F1F06A0167
:1002B000FFEFCF1ADF0A2FEF3FEFB401F701829172
:1002C0007F01F1010995A601EFCFEB80FC808FEF54
:1002D000E81AF80A2FEF3FEF4B815C81B40180E20E
:1002E000F1010995FC82EB82D3CF8B819C81800F39
:1002F000911F29813A81232BA1F09C012A193B09E6
:100300002415350570F4FC013196FA83E9832FEF4B
:100310003FEFAC01B40180E2F101099589819A8136
:10032000ECCF0F900F900F900F90DF91CF911F9116
:100330000F91FF90EF90DF90CF90BF90AF909F9084
:100340008F907F906F905F904F903F902F90089587
:100350002F923F924F925F926F927F928F929F92D5
:10036000AF92BF92CF92DF92EF92FF920F931F93C3
:10037000CF93DF93CDB7DEB7AF970FB6F894DEBF5C
:100380000FBECDBF9AA789A77CA76BA75EA74DA775
:10039000CAA2DBA2ECA25F2C402E1DA3322E232E7C
:1003A000A8A689A22A968EAC9FAC2A9796014E2DBC
:1003B0005F2D602F712F832D922DA0E00E946A2C5B
:1003C00009F04CC092FC42C080E38983E89484F831
:1003D00066246394712C81FC92C0C40181709927BA
:1003E00028962EAD3FAD2897232BA9F0009709F44E
:1003F00086C038A5311105C094012C703327232BFA
:1004000051F028964EAD5FAD28974150510928967E
:100410005FAF4EAF2897E1E0F0E0EC0FFD1FE60D77
:10042000F71D830120E3009709F46AC028964EADBA
:100430005FAD28970417150708F062C00032110558
:1004400009F45EC00F5F1F4F2193EDCF29A120312A
:1004500011F4E89484F8712C612CBDCF81E485FE01
:1004600081E6AE014F5F5F4F5FA34EA3712C612CFD
:100470008A508FA7A9A0B12CC12CD12CE12CF12C32
:1004800000E010E02AA13BA14CA1552D642D7DA1D7
:10049000832D922D0E94C92B2A3074F5205D8FEF99
:1004A000681A780AEEA1FFA12193FFA3EEA3A9A0E9
:1004B000B12CC12CD12CE12CF12C00E010E02AA1B0
:1004C0003BA14CA1552D642D7DA1832D922D0E9421
:1004D000CB2B2AA33BA34CA3552E462E7DA3382E0F
:1004E000292EA0E00E946A2C09F475CFF0E26F1665
:1004F000710409F0BFCF6FCF5FA5250FD0CF830167
:10050000E1E0F0E0EC0FFD1FE00FF11F80E3269625
:100510002EAD3FAD26970217130738F400321105B0
:1005200020F40F5F1F4F8193F2CF39A1383029F4A7
:100530006016710610F4E89484F8C401807190711B
:10054000892B09F447C092FC25C00115110511F152
:1005500026964EAD5FAD26974017510739F0289685
:100560008EAD9FAD289708171907A1F46016710684
:1005700008F099C0C801019759F0E9A1E03109F0EC
:100580006EC0025011096816790640F08C0106C051
:1005900010E000E0F9A1F03109F062C085FC54C020
:1005A0000032110540F5E1E0F0E0EC0FFD1FE00F37
:1005B000F11F88E780830F5F1F4F00321105D8F4C9
:1005C000E1E0F0E0EC0FFD1FE00FF11F80E380831E
:1005D0000F5F1F4F0032110570F438A5332309F463
:1005E0004EC0E1E0F0E0EC0FFD1FE00FF11F8DE2E7
:1005F00080830F5F1F4F64012896EEACFFAC2897F5
:100600009E012F5F3F4F4DA55EA56BA57CA589A5DB
:100610009AA50E941E01AF960FB6F894DEBF0FBEDA
:10062000CDBFDF91CF911F910F91FF90EF90DF90A1
:10063000CF90BF90AF909F908F907F906F905F9082
:100640004F903F902F90089500321105A0F6E1E001
:10065000F0E0EC0FFD1FE00FF11F88E5ABCF8C0140
:1006600029A1223009F0A9CF0032110520F6E1E0DE
:10067000F0E0EC0FFD1FE00FF11F82E69BCF82FE42
:1006800008C0E1E0F0E0EC0FFD1FE00FF11F8BE28E
:10069000AFCF83FEB0CFE1E0F0E0EC0FFD1FE00F45
:1006A000F11F80E2A5CF49A14031D1F677CF2F923B
:1006B0003F924F925F926F927F928F929F92AF92F2
:1006C000BF92CF92DF92EF92FF920F931F93CF933F
:1006D000DF93CDB7DEB76E970FB6F894DEBF0FBECF
:1006E000CDBF09871A872B873C874D875E876F8729
:1006F000788B23964EAC5FAC23978C8A9D8AAE8A0A
:10070000BF8AC88ED98EEA8EFB8E8C8F29AD3AAD0A
:10071000232B09F49EC00A8B1B8B6B847C844A01BB
:100720001B01EDADFEADF3FF3EC0E4FD3CC0202F4C
:10073000312FA301B401C101A0E00E946A2C09F08D
:100740000CF49AC02AE0A22EB12CC12CD12CE12CA1
:10075000F12C00E010E02A893B89A301B401C1011A
:100760000E94982BA0E00E946A2C99F429AD3AAD22
:10077000215031093AAF29AF2A893B89A301B4013D
:10078000C1010E949A2B2A8B3B8B3A014B011C0121
:10079000D9CF2A893B89A301B401C101A0E00E94FD
:1007A0006A2C09F469C021968EAD9FAD2197840D06
:1007B000951D9E8F8D8F90E24916510408F096C0CA
:1007C000E9ADFAAD3197FAAFE9AFFFEF4F1A5F0A23
:1007D0009AE0A92EB12CC12CD12CE12CF12C00E0F7
:1007E00010E02A893B89A301B401C1010E94982B22
:1007F000205DED8DFE8D2193FE8FED8F2A893B8943
:10080000A301B401C1010E949A2B2A8B3B8B3A01B0
:100810004B011C01A0E00E946A2C69F62196EEAD06
:10082000FFAD2197E40DF51D80E320E2421651044F
:1008300009F45CC03FEF431A530A29AD3AAD2115C4
:10084000310509F4DAC08193215031093AAF29AF5B
:10085000ECCF3DAD34FF10C080E24816510408F0E3
:1008600045C02196EEADFFAD2197E40DF51D8EE25A
:100870008083F20131962F0121966EAC7FAC2197D7
:10088000640C751CF0E24F16510480F52FEF421AEC
:10089000520A8AE0A82EB12CC12CD12CE12CF12CCB
:1008A00000E010E02C893D894E895F89688D798D43
:1008B0008A8D9B8D0E94982B205DF30121933F012F
:1008C0002C893D894E895F89688D798D8A8D9B8DB4
:1008D0000E949A2B2C8B3D8B4E8B5F8B688F798F70
:1008E0008A8F9B8FA0E00E946A2C61F6FDADF1FD1E
:1008F00029C0F0FF27C02BAD3CAD232B19F13C8D57
:10090000311106C08DAD9EAD8C709927892B29F0D1
:100910008BAD9CAD01979CAF8BAF2196EEADFFAD3B
:100920002197E40DF51D80E32BAD3CAD4216530637
:1009300048F430E243165104C0F49FEF491A590AB3
:100940008193F2CFE0E24E16510478F4FC8DFF2340
:10095000B1F12196EEADFFAD2197E40DF51D8DE2CD
:10096000808392012F5F3F4F2901CDACDEACEBAC11
:10097000FCAC820121962EAD3FAD21974FA958AD19
:100980006DA97EA98BA99CA90E941E016E960FB627
:10099000F894DEBF0FBECDBFDF91CF911F910F91B5
:1009A000FF90EF90DF90CF90BF90AF909F908F908F
:1009B0007F906F905F904F903F902F9008953DAD46
:1009C00032FF0CC02196EEADFFAD2197E40DF51D71
:1009D0008BE28083C20101962C01C7CF9DAD93FFAE
:1009E000C4CF2196EEADFFAD2197E40DF51D80E259
:1009F0008083F20131962F01B8CF8EE280833CCF05
:100A0000833081F028F4813099F08230A9F0089584
:100A10008730A9F08830C9F08430B1F4809180002B
:100A20008F7D03C0809180008F7780938000089530
:100A300084B58F7784BD089584B58F7DFBCF809179
:100A4000B0008F778093B00008958091B0008F7DC3
:100A5000F9CFCF93DF93282F30E0F901E053FE4F19
:100A60008491F901E454FE4FD491F901E855FE4F09
:100A7000C491CC23A1F081110E940005EC2FF0E07D
:100A8000EE0FFF1FE256FE4FA591B491EC91ED23BE
:100A900081E090E009F480E0DF91CF91089580E05B
:100AA00090E0FACF1F93CF93DF93282F30E0F90126
:100AB000E053FE4F8491F901E454FE4FD491F901C3
:100AC000E855FE4FC491CC23A9F0162F81110E9446
:100AD0000005EC2FF0E0EE0FFF1FEC56FE4FA59146
:100AE000B4918FB7F894EC91111108C0D095DE2322
:100AF000DC938FBFDF91CF911F910895DE2BF8CF4C
:100B0000CF93DF9390E0FC01E454FE4F249188558D
:100B10009E4FFC0184918823C9F090E0880F991FB3
:100B2000FC01E657FE4FA591B491FC01EC56FE4F37
:100B3000C591D49161110DC09FB7F8948C91209507
:100B400082238C938881282328839FBFDF91CF91B4
:100B50000895623051F49FB7F8943C91822F8095AC
:100B600083238C93E8812E2BEFCF8FB7F894EC91F1
:100B70002E2B2C938FBFEACF3FB7F89480918D0531
:100B800090918E05A0918F05B091900526B5A89BF8
:100B900005C02F3F19F00196A11DB11D3FBFBA2F0F
:100BA000A92F982F8827BC01CD01620F711D811DCF
:100BB000911D42E0660F771F881F991F4A95D1F754
:100BC00008958F929F92AF92BF92CF92DF92EF9251
:100BD000FF924B015C010E94BC056B017C010E94ED
:100BE000BC056C197D098E099F09683E734081051B
:100BF0009105A8F321E0821A9108A108B10888EEB6
:100C0000C80E83E0D81EE11CF11C81149104A104DC
:100C1000B10429F7FF90EF90DF90CF90BF90AF9095
:100C20009F908F900895089508950895DC01ED91A7
:100C3000FC910190F081E02D0994EF92FF920F93C7
:100C40001F93CF93DF938C017B01D0E0C0E0F701CD
:100C5000EC0FFD1F6491662361F0D801ED91FC91CA
:100C60000190F081E02DC8010995892B11F02196A2
:100C7000EECFCE01DF91CF911F910F91FF90EF90BA
:100C80000895AF92BF92CF92DF92EF92FF920F93AF
:100C90001F93CF93DF936C017B018B01040F151F12
:100CA000EB015E01AE18BF08C017D10759F069917A
:100CB000D601ED91FC910190F081E02DC6010995DE
:100CC000892B79F7C501DF91CF911F910F91FF908B
:100CD000EF90DF90CF90BF90AF900895FC01538DBF
:100CE000448D252F30E0842F90E0821B930B541706
:100CF00010F0CF96089501970895FC01918D828D93
:100D0000981761F0A28DAE0FBF2FB11D5D968C912B
:100D1000928D9F5F9F73928F90E008958FEF9FEF6A
:100D20000895FC01918D828D981731F0828DE80F26
:100D3000F11D858D90E008958FEF9FEF0895FC01E0
:100D4000918D228D892F90E0805C9F4F821B9109AD
:100D50008F739927089581E995E00E949F0621E00D
:100D6000892B09F420E0822F089580E090E0892B00
:100D700029F00E94AB0681110C9400000895FC013B
:100D8000A48DA80FB92FB11DA35ABF4F2C91848DEC
:100D900090E001968F739927848FA689B7892C9349
:100DA000A089B1898C91837080648C93938D848D9C
:100DB000981306C00288F389E02D80818F7D80839F
:100DC0000895EF92FF920F931F93CF93DF93EC015F
:100DD00081E0888F9B8D8C8D98131AC0E889F989E2
:100DE000808185FF15C09FB7F894EE89FF896083E5
:100DF000E889F98980818370806480839FBF81E066
:100E000090E0DF91CF911F910F91FF90EF900895A7
:100E1000F62E0B8D10E00F5F1F4F0F731127E02E82
:100E20008C8D8E110CC00FB607FCFACFE889F989BA
:100E3000808185FFF5CFCE010E94BF06F1CFEB8DFB
:100E4000EC0FFD2FF11DE35AFF4FF0829FB7F8948E
:100E50000B8FEA89FB8980818062CFCFCF93DF93AC
:100E6000EC01888D8823B9F0AA89BB89E889F989C2
:100E70008C9185FD03C0808186FD0DC00FB607FCF7
:100E8000F7CF8C9185FFF2CF808185FFEDCFCE012A
:100E90000E94BF06E9CFDF91CF9108958F929F9274
:100EA000AF92BF92CF92DF92EF92FF920F931F9378
:100EB000CF93DF93EC010A811B8101151105E1F14C
:100EC000EC84FD84E114F104B9F1188619861A86C0
:100ED0001B86D12CC12C88849984AA84BB840C15D0
:100EE0001D0591F0F70161917191819191917F01BF
:100EF000A50194010E947B29688779878A879B874F
:100F0000FFEFCF1ADF0AE7CFB80190E080E00E9440
:100F1000AB279B01AC01C501B4010E94E729DF9119
:100F2000CF911F910F91FF90EF90DF90CF90BF90E6
:100F3000AF909F908F90089560E070E080EC9FE705
:100F4000EECFAF92BF92CF92DF92EF92FF920F93CC
:100F50001F93CF93DF93FC01A484B584A114B10443
:100F600009F466C06A017B01EC0104811581C801A6
:100F7000880F991F880F991FA80EB91EF5012081AF
:100F8000318142815381688579858A859B850E945C
:100F90007A29688779878A879B87F501C082D18201
:100FA000E282F382A7019601688579858A859B850F
:100FB0000E947B29688779878A879B870F5F1F4FED
:100FC0001D830C83AE80BF800A151B0511F41D82A2
:100FD0001C820A811B810115110589F4CA8ADB8AEA
:100FE000EC8AFD8ACE86DF86E88AF98A0A151B0517
:100FF00020F40F5F1F4F1B830A8381E01AC0A701F3
:1010000096016E857F85888999890E941F2B181605
:101010004CF3A70196016A897B898C899D890E947E
:10102000A62787FFE3CFCA8ADB8AEC8AFD8ADECF58
:1010300080E0DF91CF911F910F91FF90EF90DF90B3
:10104000CF90BF90AF900895FC0113821282158259
:101050001482108611861286138680E090E0A0EC40
:10106000BFE786879787A08BB18B828B938BA48BEE
:10107000B58B84859585009799F020813181F901A0
:10108000EE0FFF1FEE0FFF1FE80FF91F21153105AF
:1010900049F0215031091292129212921292F6CF17
:1010A00080E0089581E0089508952F923F924F9235
:1010B0005F926F927F928F929F92AF92BF92CF92E8
:1010C000DF92EF92FF920F931F93CF93DF93CDB7F1
:1010D000DEB760970FB6F894DEBF0FBECDBF988B1A
:1010E0008F876A017B013E872D87DB01CA01882734
:1010F000B7FD83959927AA27BB27282F2170EF8555
:10110000F889208B892B21F0F7FAF094F7F8F09406
:10111000C701B6010E94592A29833A834B835C8315
:101120006D837E838F839887AF85B8892C931196C2
:101130003C93119712964C93129713965C931397C6
:1011400014966C93149715967C9315978F81169629
:101150008C931697988517969C93ED85FE85EE0FD8
:10116000FF1FEE0FFF1FEA5EFE4F80819181A2817B
:10117000B38189879A87AB87BC878F8198850E94C6
:10118000CB2A9B01AC01C701B6010E947A292985AF
:101190003A854B855C850E940C282B013C010E94FE
:1011A000592A822E232E342E952E5B018C01AF8579
:1011B000B88918962C93189719963C9319971A96F4
:1011C0004C931A971B965C931B971C966C931C97D9
:1011D0001D96BC921D971E968C931E971F961C936E
:1011E0000E94CB2A9B01AC01C301B2010E947A2963
:1011F0002B013C0120E030E040E05FE30E941F2B28
:1012000018160CF0D0C0282D322D432D592DB501C4
:10121000C801A1E00E945E2C39014A015B018C01EA
:101220000E94CB2A9B01AC0169857A858B859C85C0
:101230000E94A62718160CF087C0EF85F8896086F3
:10124000718682869386A486B58606871787ED8584
:10125000FE85EF2B09F05DC0AF85B8891C91119612
:101260006C90119712967C90129713968C9013970E
:1012700014969C9014971596AC9015971696BC9062
:10128000169717960C91212F362D472D582D692D25
:101290007A2D8B2D902F0E94CB2A9B01AC01C70188
:1012A000B6010E947A296B017C0120E030E040E029
:1012B0005FE30E94A62787FF0AC020E030E040E0FD
:1012C0005FE3C701B6010E941F2B181614F5212FEA
:1012D000217030E040E050E060E070E080E090E0BD
:1012E000A0E00E946A2CA9F0212F362D472D582D01
:1012F000692D7A2D8B2D902FA1E00E945E2CEF8519
:10130000F889208331834283538364837583868382
:1013100097838F85988960960FB6F894DEBF0FBECD
:10132000CDBFDF91CF911F910F91FF90EF90DF9094
:10133000CF90BF90AF909F908F907F906F905F9075
:101340004F903F902F900895AF85B88918961C92C2
:10135000189719961C9219971A961C921A971B9611
:101360001C921B971C961C921C971D961C921D97F5
:101370001E961C921E971F961C9229813A814B81C2
:101380005C816D817E818F819885A1E00E945E2CB9
:10139000EF85F88920833183428353836483758387
:1013A0008683978354CF20E030E040E05FE3C301C1
:1013B000B2010E94A62781114ACF282D322D432D3C
:1013C000592DB501C801A0E00E946A2C61F021707E
:1013D00030E040E050E060E070E080E090E00E94AB
:1013E0006A2C09F434CF282D322D432D592DB50107
:1013F000C801A1E00E945E2CAF85B88918962C9395
:10140000189719963C9319971A964C931A971B960E
:101410005C931B971C966C931C971D967C931D9751
:101420001E968C931E971F969C9311CF2F923F92DE
:101430004F925F926F927F928F929F92AF92BF92E4
:10144000CF92DF92EF92FF920F931F93CF93DF9390
:10145000CDB7DEB7E6970FB6F894DEBF0FBECDBFAF
:101460009CA78BA76DA77EA758AB4FA70A8B1B8B9A
:101470002C8B3D8BFF8EEE8EDAAAC9AAB9A6A8A640
:101480008BAA9CAA2C962FAD2C972DAB2D963FADF9
:101490002D973EAB8A899B89AC89BD898827B7FD8A
:1014A00083959927AA27BB278E8B9F8BA88FB98FEF
:1014B0000E891F890115110549F02A893B894C893C
:1014C0005D8950582A8B3B8B4C8B5D8B20E030E044
:1014D000A9016A897B898C899D890E94A627312C64
:1014E000212C882309F40FC18A899B89AC89BD8985
:1014F000E7E1B695A79597958795EA95D1F799274E
:101500008F579109BC01990F880B990B0E94AD2749
:101510002BE930E24AE95EE30E940C2824E431E53D
:1015200044E35EE30E947B296B017C016A897B892D
:101530008C899D898F77992780689F6320E030E0B0
:1015400040EC5FE30E947A292BE33DE344E95EE34C
:101550000E940C289B01AC01C701B6010E947B29A7
:101560000E94952A6A8F7B8F8C8F9D8F2A8C3B8C53
:10157000B101032C000C880B990B0E94AD276B0165
:101580007C0128E73AE944E550E40E940C2820E079
:1015900030E040E05FE30E947B290E94952A4B01E6
:1015A0002EE83DE543E150E4C701B6010E940C2856
:1015B0006B017C01092C000CAA08BB08C501B40111
:1015C0000E94AD2728E132E741E35FE30E940C2847
:1015D0009B01AC01C701B6010E947A292B013C0195
:1015E000AC019B010E940C286B017C01A3019201BC
:1015F000C301B2010E947B2968A379A38AA39BA39C
:1016000020E030E040E651E4C701B6010E94E7293E
:1016100020E030E040E251E40E947B299B01AC01D4
:10162000C701B6010E94E72920E030E040EC50E419
:101630000E947B299B01AC01C701B6010E94E729EA
:101640006B017C01A301920160E070E080E090E416
:101650000E947A299B01AC01C701B6010E947B2937
:101660009B01AC0168A179A18AA19BA10E94E729F5
:1016700020E030E040E85FE30E947B293FE7830EF3
:10168000911CA11CB11CA5019401F7E1220F331F8D
:10169000441F551FFA95D1F70E940C282B013C01DD
:1016A000AC019B016A897B898C899D890E94A62750
:1016B00087FF0DC041E0241A310820E030E040E20D
:1016C00051E4C301B2010E94E7292B013C01C10191
:1016D000419651E05AA78332910508F01AA68397E4
:1016E00090F4C10137FE04C0882799278219930915
:1016F000880F991F880F991FFC01EA5EFE4F4080FA
:1017000051806280738088A599A593FF8DC1AE8DAD
:10171000BF8D9D01AB2B11F421E030E08E8D9F8DAC
:101720000197BCEF2B16BFEF3B060CF467C02216E7
:1017300033060CF063C082199309AA24A3949F8FE7
:101740008E8F97FF02C01F8E1E8EE8A5F9A5F4604C
:10175000F9A7E8A737FE1AA6A110C1C121143104C8
:1017600009F475C18E898170898BFAA5FF2309F46C
:1017700063C1A30192016A897B898C899D890E943A
:101780000C281AA50E94592A2E8B3A8F48A35CA3D5
:101790006DA37EA3882E9FA30E94CB2A2AA5A30116
:1017A000222371F192010E94E7299B01AC016A8911
:1017B0007B898C899D890E947A296B017C01EE8D41
:1017C000FF8DEE0FFF1FEE0FFF1FEA5EFE4F8081C1
:1017D0009181A281B3818A8B9B8BAC8BBD8B1123B2
:1017E00099F0A3019201BC01CD010E940C289B013C
:1017F000AC01C701B6010E940C283DC0A12C9FCFAF
:1018000092010E940C28D1CFD301C20157E1B695B5
:10181000A795979587955A95D1F799279C012F57AA
:10182000310937FF03C03195219531098A899B8998
:10183000AC89BD8947E1B695A795979587954A9557
:10184000D1F799278F57910997FF03C091958195FB
:101850009109821793070CF07DC02A893B894C8936
:101860005D89C301B2010E94E7299B01AC01C70158
:10187000B6010E94E7292B013C01AE8DBF8DAB2B39
:1018800009F071C011E020E030E040E05FE30E9429
:101890001F2B87FD10E0212F30E040E050E060E09A
:1018A00070E080E090E0AE88BA8CC8A0DCA0EDA02B
:1018B000FEA0082D1FA10E94552C2E8B3A8F48A305
:1018C0005CA36DA37EA3882E9FA320E030E040E0C0
:1018D0005FE3C301B2010E94A627811103C0BE8944
:1018E000BE7FBE8B10E0B12CC12C912CD12CE12CF1
:1018F000F12C00E02E893A8D48A15CA16DA17EA15A
:10190000882D9FA1A9E00E946A2CA9F0A4F03FEFC6
:10191000231A330A10E0B12CC12C912CD12CE12CCC
:10192000F12C00E041E04E8B1A8E18A21CA21DA2E1
:101930001EA2812C1FA2C1018D599F4F512C25E061
:10194000622E712C873C910508F027C184E0682E37
:10195000712C23C1A30192016A897B898C899D899D
:101960000E94E72944CF0E94592A59016A017B014C
:10197000082F992E0E94CB2A9B01AC01C301B20112
:101980000E947A292B013C0111E020E030E040E088
:101990005FE30E941F2B87FD10E0212F30E040E025
:1019A00050E060E070E080E090E0192D0E94552C3E
:1019B000122FB32EC42E952ED62EE72EF82E092FD9
:1019C00020E030E040E05FE3C301B2010E94A627BF
:1019D000811101C01E7F212F3B2D4C2D592D6D2DC6
:1019E0007E2D8F2D902F0E94CB2A9B01AC016A89FE
:1019F0007B898C899D890E94A62718160CF47ACFC2
:101A00002E893A8D48A15CA16DA17EA1882D9FA150
:101A1000A1E00E945E2C2E8B3A8F48A35CA36DA39D
:101A20007EA3882E9FA35ECF37FC98CE211431046D
:101A300071F08E898170898BA30192016A897B89FB
:101A40008C899D890E94E72910E01AA69BCEA12CC3
:101A5000012B09F046C02E8D3F8D4A895B896C8928
:101A60007D89CE0101960E945508F981FE8B2A815D
:101A70002A8F3B8138A34C814CA35D815DA38E816D
:101A80008EA38F8098859FA31985BA84CB849C846C
:101A9000DD84EE84FF8408892DCF2E8D3F8D4A8909
:101AA0005B896C897D89CE0101960E945508A981C8
:101AB000AE8BBA81BA8FEB81E8A3FC81FCA32D81A8
:101AC0002DA33E813EA38F8048854FA31985BA84FC
:101AD000CB849C84DD84EE84FF84088927C0012B9D
:101AE000E1F24A895B896C897D8970582E8D3F8D22
:101AF000CE0101960E945508E981EE8BFA81FA8F9A
:101B00002B8128A33C813CA34D814DA35E815EA324
:101B10008F8088858FA31985BA84CB849C84DD84CB
:101B2000EE84FF840889AA2009F4E4CE68A479A48D
:101B3000662498E07922A8A5B9A555245394B3FF4B
:101B40002CC0BFEF2B163B0624F13101EFEF6E1ACC
:101B50007E0A2E893A8D48A15CA16DA17EA1882DB7
:101B60009FA10E94CB2AF301EE0FFF1FEE0FFF1F74
:101B7000EA5EFE4F20813181428153810E94A62777
:101B8000811107C02E8D3F8D215031093F8F2E8F3F
:101B9000130155245394712C612C88A599A582704A
:101BA00099279B8B8A8B98A591FF03C061147104C0
:101BB00041F4A9A9BAA9CD01861997096A167B062D
:101BC00010F090E080E0BE89B983EA8DEA83F8A145
:101BD000FB832CA12C833DA13D834EA14E838F829C
:101BE0005FA158871987BA86CB869C86DD86EE86EC
:101BF000FF86088BAEA9AF93BDA9BF93ECA9EF9365
:101C0000FBA9FF9329A52F9338A53F939F938F930B
:101C10004F8D4F935E8D5F9388A98F939FA59F9360
:101C2000AEA5AF93BDA5BF93ECA5EF93FBA5FF9326
:101C300089809A80AB80BC80CD80DE80EF80F88484
:101C400009851A852B853C854D855E856F8578894C
:101C500089890E9457030FB6F894DEBF0FBECDBF2F
:101C6000511067C02C013FEF431A530A48A5E5E421
:101C700045FFE5E62FEF3FEFAC016DA57EA58E2F6A
:101C8000EBA5FCA50995A32CAA1CAA24AA1C6101FA
:101C9000E32CEE0CEE08FE2C0E2D1E2DFE2DEE2D4F
:101CA00091014E2D5E2D6E2D7E2D8E2D9E2DA0E050
:101CB0000E946A2C3CF40E94282C69017A018B0155
:101CC000F82FE92F1F9285E08F9321E0621A7108A7
:101CD0007F926F921F921F929AE0892E2F2F3E2F94
:101CE000A2016DA57EA58BA59CA50E94A8010F90C1
:101CF0000F900F900F900F900F904A895B89452BA2
:101D0000C1F09C01AFA5B8A92A1B3B0BE9A9FAA910
:101D10002E173F0770F48C010F5F1F4F2FEF3FEF1F
:101D2000AC016DA57EA580E2EBA5FCA50995C801D7
:101D3000E8CFE6960FB6F894DEBF0FBECDBFDF91B9
:101D4000CF911F910F91FF90EF90DF90CF90BF90B8
:101D5000AF909F908F907F906F905F904F903F904B
:101D60002F9008952F923F924F925F926F927F92A1
:101D70008F929F92AF92BF92CF92DF92EF92FF929B
:101D80000F931F93CF93DF93CDB7DEB7E7970FB6CF
:101D9000F894DEBF0FBECDBF1C016AAB7BAB4CAB72
:101DA0005DAB28013901CEAADFAA6501B82CA901D3
:101DB0009801C301B8010E94A627882331F1EEA83B
:101DC000FFA803E010E027E931E04CA95DA96AA96A
:101DD0007BA9C1010E941E01E7960FB6F894DEBFF1
:101DE0000FBECDBFDF91CF911F910F91FF90EF906C
:101DF000DF90CF90BF90AF909F908F907F906F902B
:101E00005F904F903F902F9008952FEF3FEF4FE757
:101E10005FEFC301B8010E94A62787FF07C0EEA8A5
:101E2000FFA804E010E02BE931E0CFCF2FEF3FEF28
:101E30004FE75FE7C301B8010E941F2B18166CF42F
:101E400004E010E02EE831E0C2FC04C003E010E042
:101E500023E931E0EEA8FFA8B8CF9E012F5F3F4FE6
:101E60004901B11025C028E23BE64EE65EE4C3011D
:101E7000B8010E941F2B181654F028E23BE64EE6EC
:101E80005EECC301B8010E94A62787FF11C01F9214
:101E90001F925601CEA8DFA8930182014CA95DA92B
:101EA0006AA97BA9C1010E94160A0F900F9094CFD6
:101EB000D2FC03C086E0E82EF12CF40110E000E033
:101EC00080E332E1E316F10448F00F5F1F4F819386
:101ED00091E0E91AF1080032110599F7BB2019F0D9
:101EE0001F930F93D6CF9701B301A201CE01819624
:101EF0000E9455081F930F939F928F92DF92CF926B
:101F00002FA92F933EA93F93FF92EF928DA98F9314
:101F10009CA99F932BA92F933AA93F933F922F926D
:101F200089A09AA0ABA0BCA0CDA0DEA0EFA0F8A491
:101F300009A51AA52BA53CA54DA55EA56FA578A959
:101F400089A90E9457030FB6F894DEBF0FBECDBF1C
:101F500043CF882329F0682F81E995E00C94160679
:101F6000089508952091F304260F3327331F21325B
:101F70003105ECF420913C05FC0190E080E0243038
:101F800069F082E00895A091F3042191AC014D52D3
:101F90005B4FA40FB52FB11D2C930196861798F3B4
:101FA0008091F304680F6093F30480E0089581E06A
:101FB000089510923C0581E080933B051092160530
:101FC00061E082E10E94520561E083E10E945205D6
:101FD000E9EBF0E080818E7F808380818D7F80833C
:101FE00088E48093B80085E48093BC000895CF9383
:101FF000DF9391E09093D2048823B9F0C091B800A8
:10200000D091BA008091BC008A7B8093BC0060E0D4
:1020100082E10E94520560E083E10E9452050E9425
:10202000D90FD093BA00C093B800DF91CF91089533
:102030000895E0916B0580916A05E81730F4F0E0AF
:10204000EE54FB4F808190E008958FEF9FEF08954D
:1020500090916B0580916A052FEF3FEF981748F438
:10206000E92FF0E0EE54FB4F208130E09F5F90932A
:102070006B05C901089580916A0590916B05891BD4
:10208000990B0895CF92DF92EF92FF920F931F93D7
:10209000CF93DF937C01CB018A012091420522235B
:1020A00089F0EB016B01C40ED51ECC15DD0569F07E
:1020B0006991D701ED91FC910190F081E02DC7016C
:1020C0000995F3CF642F0E94B20FC801DF91CF9121
:1020D0001F910F91FF90EF90DF90CF900895CF93D5
:1020E000DF931F92CDB7DEB769832091420522238B
:1020F000F9F020916805203258F021E030E0FC0131
:102100003383228390E080E00F90DF91CF91089598
:1021100080916905E82FF0E0ED5BFA4F998190839B
:102120008F5F809369058093680581E090E0ECCF34
:1021300061E0CE0101960E94B20FF7CFCF92DF92FD
:10214000EF92FF920F931F93CF93DF93FC01C48113
:1021500021E020934205C093630510926905109217
:1021600068058385682B8EE296E00E946F10D091FF
:102170006805D13208F092C00E94BC056B017C0159
:1021800080913C05811165C082E080933C0581E02F
:1021900080933B058FEF80933A0510923905D093D9
:1021A0003805A3E4B5E0E8E1F5E080E0D81385C0A8
:1021B0001092170580911705CC0FC82BC0931705F7
:1021C00080911605813009F07CC0109216050E949E
:1021D000BC056B017C01809117058093BB00809149
:1021E0003E0590913F05A0914005B0914105892B96
:1021F0008A2B8B2B99F00E94BC0500913E05109113
:102200003F0520914005309141056C197D098E09EB
:102210009F090617170728073907E0F18091BC00CE
:1022200083FDD9CF85EC8093BC000E94BC056B0177
:102230007C0180913C05823009F445C080913A05CB
:102240008F3F61F180913A05803241F180913A05EA
:1022500025C080913E0590913F05A0914005B09129
:102260004105892B8A2B8B2B09F48ACF0E94BC0550
:1022700000913E0510913F052091400530914105A8
:102280006C197D098E099F0906171707280739075A
:1022900008F076CF80913D050E94F70F10926905F6
:1022A0001092680510924205DF91CF911F910F9116
:1022B000FF90EF90DF90CF9008959D9191938F5F65
:1022C00075CF85EEB0CF80913E0590913F05A091EE
:1022D0004005B0914105892B8A2B8B2B09F4A9CF9E
:1022E0000E94BC0500913E0510913F0520914005DC
:1022F000309141056C197D098E099F090617170752
:102300002807390708F095CFC5CF90E080E0089501
:1023100083E00E942905892B41F480917C058F5F21
:1023200080937C0581E08093710583E00E942905FC
:10233000019729F4809177058F5F80937705089541
:1023400082E00E942905892B29F4809187058F5FFF
:102350008093870582E00E942905019729F48091E6
:1023600082058F5F8093820508954091AE0450915D
:10237000AF046091B0047091B1048CE796E00E94C4
:10238000A10780917005811124C04091AA04509149
:10239000AB046091AC047091AD0486E696E00E94B7
:1023A000A107409198045091990460919A0470910A
:1023B0009B0480E596E00E94A1074091940450910F
:1023C000950460919604709197048AE396E00E94C8
:1023D000A1078CE796E00E944E0720E030E04AE734
:1023E00054E40E94E7299B01AC0160E070E080E8C2
:1023F0009FE30E94E72920E030E040E05FE30E9495
:102400007B290E94952A70936F0560936E0586E67E
:1024100096E00E944E0720E030E04AE754E40E9434
:10242000E7299B01AC0160E070E080E89FE30E9437
:10243000E72920E030E040E05FE30E947B290E9432
:10244000952A70936D0560936C0508954F925F9285
:102450006F927F928F929F92AF92BF92CF92DF92B4
:10246000EF92FF92CF93409178055091790560915A
:102470007A0570917B058091830590918405A091E8
:102480008505B0918605C0917005481759076A0700
:102490007B0790F5C11130C0C0907E05D0907F05BC
:1024A000E0908005F0908105809073059090740510
:1024B000A0907505B09076054093830550938405F0
:1024C00060938505709386058093780590937905D0
:1024D000A0937A05B0937B0580927E0590927F054C
:1024E000A0928005B0928105C0927305D0927405C8
:1024F000E0927505F0927605409083055090840532
:102500006090850570908605C0907E05D0907F050F
:10251000E0908005F0908105812C912C5401C1112F
:1025200044C08090730590907405A0907505B0909C
:1025300076058C189D08AE08BF08609178057091EB
:10254000790580917A0590917B0564197509860952
:1025500097090E94AB2720E030E04AE754E40E944C
:10256000E729609398047093990480939A04909358
:102570009B04C501B4010E94AB2720E030E04AE78C
:1025800054E40E94E7296093940470939504809327
:10259000960490939704C501B40120E230E040E036
:1025A00050E00E94E02849015A01C418D508E60805
:1025B000F708C701B601681979098A099B090E94C1
:1025C000AD276B017C0120E030E04AE754E40E9433
:1025D000E7296093AE047093AF048093B0049093A6
:1025E000B10420E034E244E759E4C701B6010E9497
:1025F000E7299B01AC012093A0043093A1044093F0
:10260000A2045093A30460E070E080E89FE30E947E
:10261000E72920E030E040E05FE30E947B290E9450
:10262000952A70939F0460939E04C1114EC06091DF
:102630007305709174058091750590917605C09031
:102640007805D0907905E0907A05F0907B056C19BB
:102650007D098E099F09681979098A099B090E94D9
:10266000AD276B017C0120E030E04AE754E40E9492
:10267000E7296093AA047093AB048093AC04909311
:10268000AD0420E034E244E759E4C701B6010E94FA
:10269000E7299B01AC012093A6043093A704409343
:1026A000A8045093A90460E070E080E89FE30E94D2
:1026B000E72920E030E040E05FE30E947B290E94B0
:1026C000952A70939D0460939C04CF91FF90EF90A6
:1026D000DF90CF90BF90AF909F908F907F906F9042
:1026E0005F904F9008958FB7F8944091890550916D
:1026F0008A0560918B0570918C058FBF21E03FB7F3
:10270000F8948091890590918A05A0918B05B091EC
:102710008C053FBF841B950BA60BB70B883E9340DF
:10272000A105B10538F480917C05833040F32093F6
:10273000A404E5CF80918705833018F081E0809371
:10274000A50408950F931F93CF938C01C62F0E9469
:102750009E106C2F6460C8010E949E106C2F6B7FCE
:10276000C8010E949E1083EC90E00197F1F7CF9191
:102770001F910F9108950F931F93CF93DF938C01B7
:10278000D62FC42F607F642B0E94A21380E1D89FB4
:10279000B00111246C2BC801DF91CF911F910F91D3
:1027A0000C94A21340E061E082E996E00E94BB1322
:1027B0008BE39FE10197F1F70895CF93DF93CDB7B6
:1027C000DEB728970FB6F894DEBF0FBECDBF98E0F6
:1027D000EEE0F1E0DE01119601900D929A95E1F79D
:1027E00090919A06961710F46FEF690F262F30E03C
:1027F000220F331F41E050E04C0F5D1F240F351FA7
:10280000F9016081680F606840E082E996E02896EF
:102810000FB6F894DEBF0FBECDBFDF91CF910C9401
:10282000BB1341E00E94BB1381E090E00895CF9379
:10283000DF93EC018AE090E0998388839F838E8305
:1028400088E290E00E94902C9D878C87892B11F460
:1028500019821882CE01DF91CF910C942408FB01DC
:1028600001900020E9F73197AF01461B570BDC01BF
:10287000ED91FC910280F381E02D09948F929F925B
:10288000AF92BF92EF92FF920F931F93CF93DF937C
:10289000CDB7DEB7A1970FB6F894DEBF0FBECDBFA0
:1028A0007C01FA01CB0119A2223008F42AE08E0142
:1028B0000F5D1F4F822E912CB12CA12CBF01A501C1
:1028C00094010E944929F901CA016A300CF5605D42
:1028D000D8016E938D01232B242B252B79F790E0C3
:1028E00080E0109721F0BD01C7010E942F14A1962E
:1028F0000FB6F894DEBF0FBECDBFDF91CF911F9111
:102900000F91FF90EF90BF90AF909F908F900895A0
:10291000695CDECFCF92DF92EF92FF920F931F930D
:10292000CF93DF936B01770FEE08FF08F7FE1BC014
:10293000EC016DE20E9416068C0144275527BA016E
:102940004C195D096E097F092AE0CE010E943E14F0
:10295000800F911FDF91CF911F910F91FF90EF900A
:10296000DF90CF9008952AE0B701A601DF91CF91C3
:102970001F910F91FF90EF90DF90CF900C943E1439
:10298000BC0182E996E00C942F14CF93DF93BC0135
:1029900081E995E00E941D06EC0160EA71E081E9A1
:1029A00095E00E942F148C0F9D1FDF91CF91089509
:1029B0004F925F926F927F928F929F92AF92BF924F
:1029C000CF92DF92EF92FF920F931F93CF936B0101
:1029D0007C01742EAC019B010E946A2B67E971E0B7
:1029E000811126C046015701E894B7F82FEF3FEF59
:1029F0004FE75FE7C501B4010E946A2B81110CC04B
:102A00002FEF3FEF4FE75FE7C501B4010E94A62714
:102A100063EA71E0181664F02FEF3FEF4FE75FE4D1
:102A2000C701B6010E941F2B1816ACF467EA71E0CB
:102A300082E996E0CF911F910F91FF90EF90DF9088
:102A4000CF90BF90AF909F908F907F906F905F904E
:102A50004F900C942F142FEF3FEF4FE75FECC7011F
:102A6000B6010E94A62787FDE1CF20E030E0A90152
:102A7000C701B6010E94A62710E000E087FF0AC048
:102A80006DE282E996E00E9416068C01F7FAF09456
:102A9000F7F8F094C0E060E070E080E09FE37C161F
:102AA00041F020E030E040E251E40E94E729CF5FAE
:102AB000F6CFA70196010E947B292B013C010E94C1
:102AC0009C2A4B015C012AE0BC01A40182E996E04A
:102AD0000E943E147C01E00EF11ECC23D1F1C50111
:102AE000B4010E94AB279B01AC01C301B2010E945B
:102AF0007A294B015C016EE282E996E00E9416069B
:102B0000E80EF91EC15028F120E030E040E251E427
:102B1000C501B4010E940C282B013C010E949C2A93
:102B20004B01B12CA12C2AE0B501A40182E996E069
:102B30000E943E14E80EF91EC501B4010E94AB27A5
:102B40009B01AC01C301B2010E947A294B015C01D7
:102B5000D9CFC701CF911F910F91FF90EF90DF90D8
:102B6000CF90BF90AF909F908F907F906F905F902D
:102B70004F900895CF92DF92EF92FF928091A4043C
:102B800060E0811105C08091A504882309F402C189
:102B900081E10E94DD138BEA91E00E94C01461E0A4
:102BA00080E00E94DD138FEA91E00E94C01461E092
:102BB00089E00E94DD13C090AE04D090AF04E09095
:102BC000B004F090B10423EF3FE443EC57E4C701B5
:102BD000B6010E94A62718160CF4E2C041E0C70116
:102BE000B6010E94D81461E080E00E94DD13C0901D
:102BF000AA04D090AB04E090AC04F090AD0423EFB5
:102C00003FE443EC57E4C701B6010E94A62718161B
:102C10000CF4CBC041E0C701B6010E94D81461E0BA
:102C200082E10E94DD1386EC91E00E94C01462E014
:102C300080E00E94DD138FEA91E00E94C014C090F2
:102C4000A004D090A104E090A204F090A30420E09E
:102C500030E040E85FE3C701B6010E94A62762E0CA
:102C600087FFA8C089E00E94DD1389EC91E00E94F3
:102C7000C01460919E0470919F0482E996E00E94C6
:102C80008A1462E082E10E94DD138CEC91E00E94E4
:102C9000C014C090A604D090A704E090A804F090BF
:102CA000A90420E030E040E85FE3C701B6010E94DC
:102CB000A62762E087FF87C080917005811183C0DD
:102CC0000E94DD1389EC91E00E94C01460919C0485
:102CD00070919D0482E996E00E948A1463E080E08E
:102CE0000E94DD138FEA91E00E94C01463E089E046
:102CF0000E94DD132AE93FE34CE156E46091980419
:102D00007091990480919A0490919B040E94A62747
:102D100018160CF461C08FEC91E00E94C014609111
:102D200098047091990480919A0490919B0441E0D9
:102D30000E94D81463E080E00E94DD132AE93FE39B
:102D40004CE156E46091940470919504809196044E
:102D5000909197040E94A62718160CF442C083EDA8
:102D600091E00E94C0146091940470919504809148
:102D700096049091970441E00E94D81463E082E1A8
:102D80000E94DD1386EC91E0FF90EF90DF90CF90F2
:102D90000C94C01481E10E94DD138EEB91E0FDCE16
:102DA00082EC91E00E94C0141ECF82EC91E00E9460
:102DB000C01435CF89E00E94DD1342E0C701B6019F
:102DC0000E94D8145ECF80E00E94DD1342E0C7016C
:102DD000B6010E94D81482CF82EC91E00E94C01408
:102DE000A9CF82EC91E00E94C014C8CFFC01808181
:102DF0009181009711F00C942C2D0895FC0184858D
:102E00009585009711F00C942C2D08950F931F9326
:102E1000CF93DF93EC0188819981009759F02A8143
:102E20003B812617370730F081E0DF91CF911F916A
:102E30000F9108958B016F5F7F4F0E94B52D009712
:102E400059F0998388831B830A832C813D81232B2E
:102E500059F7FC011082E8CF80E0E7CFEF92FF92B4
:102E60000F931F93CF93DF93EC01FB01E080F18080
:102E7000E114F10411F10481158101151105A9F086
:102E80008C819D81080F191FB801CE010E94061781
:102E9000882399F0288139818C819D81B701820F27
:102EA000931F0E947B2E1D830C83CE01DF91CF9157
:102EB0001F910F91FF90EF9008958881998100975D
:102EC00011F00E942C2D198218821D821C821B82F7
:102ED0001A82EBCFEF92FF920F931F93CF93DF9362
:102EE000EC017B018A01BA010E9406172881398111
:102EF000811114C02115310519F0C9010E942C2D32
:102F0000198218821D821C821B821A82CE01DF91D7
:102F1000CF911F910F91FF90EF9008951D830C8327
:102F2000B701C9010E947B2EF1CFEF92FF920F9360
:102F30001F93CF93DF93CDB7DEB762970FB6F894A8
:102F4000DEBF0FBECDBF8C01CB01F8011182108214
:102F500013821282158214824AE09E012F5F3F4F36
:102F60007901B9010E947127F70101900020E9F76A
:102F70003197AF014E195F09B701C8010E946A1766
:102F800062960FB6F894DEBF0FBECDBFDF91CF9132
:102F90001F910F91FF90EF900895FB01DC011196B6
:102FA0001C921E9213961C921E92129715961C92BA
:102FB0001E9214978617970749F0608171816115F9
:102FC000710521F0448155810C946A170895FC0124
:102FD000118210821382128215821482FB010190E9
:102FE0000020E9F73197AF01461B570B0C946A1785
:102FF000CF93DF93CDB7DEB72C970FB6F894DEBF33
:103000000FBECDBF109283051092840510928505E6
:103010001092860510927E0510927F051092800511
:1030200010928105109278051092790510927A0518
:1030300010927B051092730510927405109275051D
:10304000109276051092AE041092AF041092B00464
:103050001092B1041092AA041092AB041092AC0426
:103060001092AD041092A6041092A7041092A80426
:103070001092A90467ED71E0CE0101960E94E71756
:1030800067ED71E0CE0107960E94E71710927D056B
:1030900010927205109270051092870510927C05AF
:1030A0001092820510927705109271051092A50476
:1030B0001092A404CE0107960E94F616CE01019646
:1030C0000E94F6162C960FB6F894DEBF0FBECDBF49
:1030D000DF91CF9108954F925F926F927F92AF925E
:1030E000BF92CF92DF92EF92FF920F931F93CF93F5
:1030F000DF93FC01028113810230110508F44FC0F7
:10310000EC01B80190E080E00E94AB279B01AC018C
:10311000688579858A859B850E94E7292B013C017A
:10312000AC84BD84D0E0C0E0C12CD12C7601F50187
:1031300061917191819191915F01A30192010E942E
:103140007A299B01AC010E940C289B01AC01C701AC
:10315000B6010E947B296B017C01CE010196081704
:103160001907D9F4BE0190E080E00E94AB279B01D3
:10317000AC01C701B6010E94E729DF91CF911F91F1
:103180000F91FF90EF90DF90CF90BF90AF907F9026
:103190006F905F904F900C942A2BEC01C8CF60E0A9
:1031A00070E080EC9FE7DF91CF911F910F91FF902E
:1031B000EF90DF90CF90BF90AF907F906F905F9037
:1031C0004F9008952F923F924F925F926F927F920D
:1031D0008F929F92AF92BF92CF92DF92EF92FF9227
:1031E0000F931F93CF93DF93CDB7DEB72F970FB613
:1031F000F894DEBF0FBECDBFFE01B4966190719012
:103200008F01312C212CD3018C91882309F4F1C337
:10321000BFEF6B1A7B0A7101EFEFEE1AFE0A8532DF
:1032200009F0C6C0B12CA12C07C08D3271F18033DA
:1032300061F46894A0F83F01F30181918B3241F170
:10324000A4F7803241F1833249F190ED980F9A3022
:1032500040F51B821A82F301819190ED980F9A300C
:1032600098F54AE02A813B81429F7001439FF00C10
:10327000112490E3E91AF108D701A80FB11D87FDC9
:10328000BA95BB83AA833F01E6CF6894A1F8D3CF58
:103290006894A2F8D0CF6894A3F8CDCF6894A4F82E
:1032A000CACF8A32D9F5C8010296D801ED90FC90B8
:1032B000F7FE31C06894A1F8222733272E193F0961
:1032C0003B832A838C013F01D3018C918E3209F01C
:1032D00048C0C30101966894B2F811962C9130ED64
:1032E000320F3A30F0F4512C412CFC01219130ED99
:1032F000320F3A3098F5BAE0B49D7001B59DF00CEC
:10330000112430E3E31AF1082701420E511C27FD76
:103310005A94CF01EACFFB82EA82D4CF1B821A8271
:10332000D3CF2A32E9F4C8010296D8014D905C90BF
:1033300057FE02C0512C412CB2E06B0E711C8C0167
:1033400093012F5F3F4FF30180818C36A1F064F42D
:103350008836D9F18A3661F0930112C03C01F0CF72
:103360003C01512C412CECCF843711F08A37A1F766
:103370006894B1F805C081818C3609F16894B0F881
:10338000D9018D913D01853609F4EAC10CF0A4C044
:10339000873409F4E5C114F5853409F4E1C10CF072
:1033A000C1C1853209F4FBC27101BFEFEB1AFB0A00
:1033B0002FEF3FEFA101BE016F5F7F4FFBC2B3E074
:1033C000BB2A93012E5F3F4FDBCF8181883619F0F6
:1033D0006894A7F8D5CFF0ECAF2AF3CF823609F482
:1033E00034C33CF46894A5F88835F1F6F0E18F2EEB
:1033F0000DC0833609F4CBC18436B1F6E894A4F845
:10340000AAE08A2E893621F0843611F0B3EFAB2280
:10341000B2FE02C0E894A0F89501222732708936E6
:1034200019F0843609F023C1232B09F49CC0F8015C
:103430003896F987E887D801CC901196DC901197DF
:103440001296EC9012971396FC90139714969C90FA
:1034500014971596AC91F801F681FC83F801F78179
:10346000FA879601A701692D7A2F8C819F2F0FE390
:103470000E943A2CB22F092D1A2FFC81EA85960161
:10348000A701B8018F2F9E2FA0E00E946A2C3CF468
:103490000E94282C69017A018B01F82FE92FBF9235
:1034A000AF922B812F933A813F935F924F92AB2E35
:1034B0002F2F3E2FA101BE016F5F7F4F89EA9FE052
:1034C0000E94A8011C010F900F900F900F900F9079
:1034D0000F900885198597CE8F3609F4B3C29CF4F6
:1034E000873609F43DC10CF41DC1893609F486CF35
:1034F0008E3609F059CFD801ED91FD918D01A6FED0
:103500005DC2208280CE833709F490C12CF58037CC
:1035100009F04ACF65016894C0F8D4F8F8013296F2
:10352000FB83EA83D8010D911C910115110509F067
:1035300015C246E0E42EF12C05E010E020EE31E06B
:10354000A101BE016F5F7F4F89EA9FE00E941E01CB
:103550001C010A811B8157CE853709F44FCF88376C
:1035600009F444CF21CFB0FE48C0C8010496998722
:103570008887D801CD90DD90ED90FC90D701C601F1
:103580008827B7FD83959927AA27BB278C879D8716
:10359000AE87BF87D701C601BB0F880B982FDC0110
:1035A0008C839D83AE83BF83BC2D9D2CEA86FB86D6
:1035B0000C81102FF02FE02F9601A7016F2F702F95
:1035C000802F9F2FA0E00E946A2C4CF40E94282C90
:1035D000B22F932E4A875B878B01F82FE92FBF927A
:1035E000AF929B819F93AA81AF935F924F92AC84DD
:1035F000CB2ED92CEA84FB845BCFF8013296F98775
:10360000E887D801A6FE30C0EC910E2E000CFF0B0F
:10361000BF2FBB1FBB27BB1FBC836F01EF2EEE0C60
:10362000EE08FE2C0E2D1E2D9E2CBE2D9F014E2D24
:103630005E2D6E2D7E2D8E2D9E2DA0E00E946A2C7B
:103640003CF40E94282C69017A018B01982EB92F35
:10365000BF92AF92EB81EF93FA81FF935F924F920B
:10366000AC80292D3B2F26CFED91FC91D1CF232B80
:1036700039F19801285F3F4F39872887D801CC90CE
:103680001196DC9011971296EC9012971396FC907D
:10369000139714969C91149715968C9115971696DE
:1036A0002C91169717963C91BF92AF92BB81BF9316
:1036B000EA81EF935F924F92A12C092F182FFACE37
:1036C0009801B0FE19C02C5F3F4F39872887D80179
:1036D0000D911D912D913C91BF92AF92BB81BF93F3
:1036E000EA81EF935F924F92A12C6801790100E08B
:1036F00010E020E030E0DECE2E5F3F4F3987288794
:10370000D8010D911C91A6FC1127BF92AF92BB81ED
:10371000BF93EA81EF935F924F92A12C6801E12C55
:10372000F12CE5CF863411F46894A5F898012C5F4C
:103730003F4F3D832C83D8010D911D912D913C91DC
:10374000812CCA80DB807201A101BE016F5F7F4FB7
:1037500089EA9FE00E94B20E1C010C811D8153CDAD
:10376000982F9F7D973419F46894B3F88D7F853432
:1037700011F46894A5F8F8013496FD83EC83D80120
:103780000D911D912D913C9188248394DACF4501B0
:10379000B2E08B229924A101CC24C394D12CA1FCAA
:1037A0001AC0F12CE12CA1014E0D5F1D6701E2E072
:1037B000CE0ED11CFFEFEF1AFF0A2A813B81E216E1
:1037C000F30648F42FEF3FEFBE016F5F7F4F80E2BB
:1037D0000E94A90FE8CF1A013FEF231A330A78019C
:1037E00082E0E80EF11C2FEF3FEFBE016F5F7F4FCD
:1037F000D8018C910E94A90F8928B1F0EA81FB8140
:10380000CE16DF0688F481010F5F1F4F2FEF3FEFC9
:10381000A101BE016F5F7F4F80E20E94A90FFFEF01
:10382000CF1ADF0A1801EACF8701EDCC98012E5F8D
:103830003F4F39872887D8010D911C91011511053B
:1038400089F46501EA80FB8006E010E029ED31E0B3
:10385000A101BE016F5F7F4F89EA9FE00E941E01B8
:103860001C0137CE92014114510411F42FEF3FEFA8
:10387000F80190E080E0AF014F5F5F4F6081662309
:1038800031F08217930719F00196FA01F4CFE01B8B
:10389000F10B9501222734703D832C83B2FE04C0C6
:1038A0004E165F0608F4F201450132E083229924A6
:1038B0007F01A101A1FC18C02E1A3F0AA1014E0FE1
:1038C0005F1F7F018FEFE81AF80AAA81BB81EA1710
:1038D000FB0750F42FEF3FEFBE016F5F7F4F80E299
:1038E0000E94A90FF701EACF6A01C01AD10AA60106
:1038F000400F511FF80181918F01882391F02C8195
:103900003D81232B31F0920121503109452849F0A6
:1039100029012FEF3FEFBE016F5F7F4F0E94A90F7C
:10392000E6CF1A01892809F4D4CDE41AF50AC701B3
:10393000820D931DAA81BB818A179B0708F0C9CD10
:1039400081010F5F1F4F2FEF3FEFA101BE016F5F9E
:103950007F4F80E20E94A90F1801E9CFDF92CF923A
:103960001F92B6E0BF935F924F9230E1832EA12C5D
:103970006801E12CF12C00E010E020E030E0A10132
:10398000BE016F5F7F4F89EA9FE00E94A8011C0182
:103990000F900F900F900F900F900F90DACD710154
:1039A000EFEFEE1AFE0A2FEF3FEFA101BE016F5FAE
:1039B0007F4F85E20E94A90F170125CCA7FE03C007
:1039C0003182208220CCB0FE08C0C101B0E0A0E06E
:1039D00080839183A283B38316CCB1FEF1CF4101E2
:1039E000208291821282138214821582168217829B
:1039F0000ACCA101EFEF2E163E0611F44EEF5FEF59
:103A00002FEF3FEFBE016F5F7F4F80E00E94A90F55
:103A1000C1012F960FB6F894DEBF0FBECDBFDF9168
:103A2000CF911F910F91FF90EF90DF90CF90BF90BB
:103A3000AF909F908F907F906F905F904F903F904E
:103A40002F90089528E0822EE1CC92E0892EDECCE2
:103A5000EF92FF920F931F93CF93DF93CDB7DEB713
:103A60006E970FB6F894DEBF0FBECDBF69EC71E064
:103A7000CE010D960E94E71760916E0570916F055B
:103A8000CE0107960E949517BE01635F7F4FCE015E
:103A900001960E94CD17BE01695F7F4FCE0101964E
:103AA0000E942E17BC01CE0143960E94CD17CE0175
:103AB00001960E94F616CE0107960E94F6166091B6
:103AC0006C0570916D05CE0107960E949517BE0199
:103AD000635F7F4FCE0101960E94CD17BE01695FE3
:103AE0007F4FCE0101960E942E17BC01CE01499650
:103AF0000E94CD17CE0101960E94F616CE010796C0
:103B00000E94F61688E091E00E94C5148CE796E0CA
:103B10000E944E07162F072FF82EE92E86E696E014
:103B20000E944E07EF92FF920F931F939F938F93E4
:103B30007F936F9380917F068F9380917E068F9302
:103B400086EE91E09F938F930E94E21880E596E0C5
:103B50000E944E07162F072FF82EE92E8AE396E0D3
:103B60000E944E07EF92FF920F931F939F938F93A4
:103B70007F936F93809153068F93809152068F931A
:103B800086E192E09F938F930E94E21880917F06D6
:103B90008F9380917E068F9387E492E09F938F931B
:103BA0000E94E2180FB6F894DEBF0FBECDBF809121
:103BB0006C0590916D0502970CF4C6C08A8D8F93A9
:103BC000898D8F9381E692E09F938F930E94E218F4
:103BD0000F900F900F900F9080916E0590916F0550
:103BE00002970CF4CCC08C898F938B898F9380E7DC
:103BF00092E09F938F930E94E2180F900F900F9086
:103C00000F9080918D068F9380918C068F93809179
:103C10008B068F9380918A068F93809177068F937E
:103C2000809176068F93809175068F9380917406AC
:103C30008F9380917F068F9380917E068F9381E989
:103C400092E09F938F930E94E218809191068F9348
:103C5000809190068F9380918F068F9380918E062E
:103C60008F9380917B068F9380917A068F938091BA
:103C700079068F93809178068F9380917F068F933A
:103C800080917E068F9381EC92E09F938F930E94A8
:103C9000E2188CE796E00E946B18162F072FF82E7B
:103CA000E92E86E696E00E946B18EF92FF920F9342
:103CB0001F939F938F937F936F9380917F068F9332
:103CC00080917E068F9382EF92E09F938F930E9464
:103CD000E2180FB6F894DEBF0FBECDBF8AE396E0C0
:103CE0000E946B189F938F937F936F939F938F93F3
:103CF0007F936F93809153068F93809152068F9399
:103D000083E293E09F938F930E94E218CE0149963D
:103D10000E94F616CE0143960E94F616CE010D962D
:103D20000E94F6160FB6F894DEBF0FBECDBF6E969A
:103D30000FB6F894DEBF0FBECDBFDF91CF911F91BC
:103D40000F91FF90EF90089586E696E00E944E074F
:103D500020E030E04AE754E40E94E7299F938F93E4
:103D60007F936F9387E692E09F938F930E94E21870
:103D70000F900F900F900F900F900F902DCF8CE71A
:103D800096E00E944E0720E030E04AE754E40E94AB
:103D9000E7299F938F937F936F938FE792E09F9391
:103DA0008F930E94E2180F900F900F900F900F903A
:103DB0000F9027CFCF93DF93CDB7DEB76E970FB6B7
:103DC000F894DEBF0FBECDBF69EC71E0CE010D9659
:103DD0000E94E71760919E0470919F04CE010796A0
:103DE0000E949517BE01635F7F4FCE0101960E942E
:103DF000CD17BE01695F7F4FCE0101960E942E173D
:103E0000BC01CE0143960E94CD17CE0101960E94BF
:103E1000F616CE0107960E94F61660919C047091EA
:103E20009D04CE0107960E949517BE01635F7F4FE8
:103E3000CE0101960E94CD17BE01695F7F4FCE0172
:103E400001960E942E17BC01CE0149960E94CD1703
:103E5000CE0101960E94F616CE0107960E94F61634
:103E600084ED90E00E94C5148091B1048F938091FD
:103E7000B0048F938091AF048F938091AE048F93A1
:103E80008091AD048F938091AC048F938091AB04AB
:103E90008F938091AA048F9385E593E09F938F93EE
:103EA0000E94E2188091A3048F938091A2048F93C3
:103EB0008091A1048F938091A0048F938091A90495
:103EC0008F938091A8048F938091A7048F93809102
:103ED000A6048F9384E893E09F938F930E94E21847
:103EE0006BEB70E081E995E00E941D060FB6F89437
:103EF000DEBF0FBECDBF20E030E040E85FE3609161
:103F0000A6047091A7048091A8049091A9040E942E
:103F1000A62787FFB5C0809170058111B1C08A8D39
:103F20008F93898D8F9382E692E09F938F930E9467
:103F3000E2180F900F900F900F9020E030E040E8D3
:103F40005FE36091A0047091A1048091A20490911C
:103F5000A3040E94A62787FF9CC08C898F938B891E
:103F60008F9380E792E09F938F930E94E2180F90C7
:103F70000F900F900F9080917005811123C0809158
:103F80009B048F9380919A048F93809199048F93CF
:103F9000809198048F93809197048F9380919604D9
:103FA0008F93809195048F93809194048F9386EBE7
:103FB00093E09F938F930E94E2180FB6F894DEBFB0
:103FC0000FBECDBF8091A404882381F080917C0531
:103FD0008250990B9F938F9385EE93E09F938F93DD
:103FE0000E94E2180F900F900F900F908091A504FF
:103FF000882381F0809187058250990B9F938F933E
:1040000086E094E09F938F930E94E2180F900F90A8
:104010000F900F90409178055091790560917A0545
:1040200070917B0580917E0590917F05A091800520
:10403000B0918105481759076A077B0740F48091C2
:104040007005811104C086E990E00E94C51488E6DD
:1040500090E00E94C514CE0149960E94F616CE014A
:1040600043960E94F616CE010D960E94F6166E96A5
:104070000FB6F894DEBF0FBECDBFDF91CF9108958C
:1040800087EB91E09F938F930E94E2180F900F901F
:1040900054CF84E492E09F938F930E94E2180F9094
:1040A0000F9069CF85ED8093BC0080913E05909183
:1040B0003F05A0914005B09141050796A11DB11D96
:1040C00023E0B695A795979587952A95D1F72091E6
:1040D000BC0024FD03C010923C05089540913E05AC
:1040E00050913F056091400570914105452B462B4D
:1040F000472B69F30097A105B10541F02AE22A9503
:10410000F1F700C00197A109B109E1CF80913D0508
:104110000C94F70F0C94CA281F920F920FB60F92AF
:1041200011242F933F938F939F93AF93BF938091CD
:10413000890590918A05A0918B05B0918C053091ED
:10414000880523E0230F2D3758F50196A11DB11DD9
:10415000209388058093890590938A05A0938B0509
:10416000B0938C0580918D0590918E05A0918F055F
:10417000B09190050196A11DB11D80938D0590937E
:104180008E05A0938F05B0939005BF91AF919F913D
:104190008F913F912F910F900FBE0F901F90189508
:1041A00026E8230F0296A11DB11DD2CF1F920F92B8
:1041B0000FB60F9211242F933F934F935F936F93FA
:1041C0007F938F939F93AF93BF93EF93FF93E09170
:1041D0000201F09103010995FF91EF91BF91AF9119
:1041E0009F918F917F916F915F914F913F912F910F
:1041F0000F900FBE0F901F9018951F920F920FB641
:104200000F9211242F933F934F935F936F937F935C
:104210008F939F93AF93BF93EF93FF93E091000130
:10422000F09101010995FF91EF91BF91AF919F919D
:104230008F917F916F915F914F913F912F910F904F
:104240000FBE0F901F9018951F920F920FB60F92EE
:1042500011242F933F934F935F936F937F938F938B
:104260009F93AF93BF93EF93FF9381E995E00E94F3
:10427000BF06FF91EF91BF91AF919F918F917F9179
:104280006F915F914F913F912F910F900FBE0F90C3
:104290001F9018951F920F920FB60F9211242F9313
:1042A0008F939F93EF93FF93E091A105F091A20567
:1042B0008081E091A705F091A80582FD1BC0908147
:1042C0008091AA058F5F8F732091AB05821741F013
:1042D000E091AA05F0E0EF56FA4F958F8093AA057A
:1042E000FF91EF919F918F912F910F900FBE0F90A3
:1042F0001F9018958081F4CF1F920F920FB60F92E6
:1043000011242F933F934F935F936F937F938F93DA
:104310009F93AF93BF93EF93FF938091B900887FF2
:10432000803609F44AC0F0F5883209F4A7C018F5C0
:10433000803109F49BC0B8F4882309F4F9C08830AF
:1043400009F494C0FF91EF91BF91AF919F918F912C
:104350007F916F915F914F913F912F910F900FBE81
:104360000F901F901895883109F488C0803251F75A
:1043700080933A0514C0803409F49DC040F4803322
:10438000B9F38833F9F680933A0585ECB0C08035EF
:1043900009F485C0883509F496C0883499F60E94DE
:1043A0005220D0CF883909F48CC038F5883729F0ED
:1043B00050F4883611F0803729F683E080933C056D
:1043C0001092150557C0883809F47BC0803919F060
:1043D000803809F0B7CF80911505803208F071C0A0
:1043E000E091150581E08E0F809315058091BB004B
:1043F000F0E0EB50FB4F80833DC0803B39F0E0F4B0
:10440000803A09F479C0883A09F09CCF84E080931F
:104410003C051092F4041092F304E0916605F091CB
:10442000670509958091F30481110FC081E08093A5
:10443000F3041092D30409C0803C09F4A6CF883C51
:1044400009F4A3CF883B09F07DCFE091F40481E02B
:104450008E0F8093F404F0E0ED52FB4F8081809347
:10446000BB009091F4048091F30429C0809117055A
:104470008093BB0085EC8093BC0064CF909139059C
:1044800080913805981758F5E091390581E08E0F35
:1044900080933905F0E0E85EFA4F8081E9CFE09142
:1044A000390581E08E0F809339058091BB00F0E0E3
:1044B000E85EFA4F8083909139058091380598170E
:1044C000C8F285E8D8CFE091390581E08E0F80935E
:1044D00039058091BB00F0E0E85EFA4F808380915F
:1044E0003B0581115CCF81E08093160584EA8093BF
:1044F000BC0010923C0526CF85EC8093BC00109246
:104500003C0580911505803230F4E0911505F0E00E
:10451000EB50FB4F10826091150570E0E09164054F
:10452000F091650585EF94E00995109215050ACF85
:1045300010923A0534CFE1E9F5E01382128288EE59
:1045400093E0A0E0B0E084839583A683B78322E65E
:1045500031E03183208325EC30E03587248724EC5B
:1045600030E03787268720EC30E0318B208B21EC40
:1045700030E0338B228B22EC30E0358B248B26EC21
:1045800030E0378B268B118E128E138E148EEEE256
:10459000F6E01382128284839583A683B78384E72F
:1045A00091E091838083E2E9F6E01382128286E84B
:1045B00091E09183808387E2848384E1818784E032
:1045C000828713868CE796E00E94171486E696E0B1
:1045D0000E94171480E596E00E9417148AE396E083
:1045E0000C941714789484B5826084BD84B581607E
:1045F00084BD85B5826085BD85B5816085BD8091AE
:104600006E00816080936E00109281008091810025
:10461000826080938100809181008160809381001D
:10462000809180008160809380008091B1008460DF
:104630008093B1008091B00081608093B000809140
:104640007A00846080937A0080917A0082608093FF
:104650007A0080917A00816080937A0080917A005C
:10466000806880937A001092C10060E082E00E942E
:10467000800560E083E00E94800562E08CE00E949B
:10468000800562E08BE00E94800580EA91E19093D2
:10469000010180930001809169008C7F816080938B
:1046A0006900E89A88E891E1909303018093020100
:1046B00080916900837F846080936900E99AE0912A
:1046C000A105F091A20582E08083E0919D05F09123
:1046D0009E051082E0919F05F091A00580E1808306
:1046E0001092A905E091A505F091A60586E08083CA
:1046F000E091A305F091A405808180618083E09121
:10470000A305F091A405808188608083E091A305D2
:10471000F091A405808180688083E091A305F091E9
:10472000A40580818F7D808310926B0510926A05AD
:1047300010926905109268050E94D90F83E196E0F6
:10474000909367058093660584E196E090936505F4
:10475000809364051092970680919C06823018F031
:1047600098E09093970680939A0662E370E080E069
:1047700090E00E94E10560919D0682E996E00E942A
:104780009E1068EE73E080E090E00E94E10560E337
:1047900082E996E00E94A213CBE4D6E4CE01019711
:1047A000F1F760E382E996E00E94A2132197F1F706
:1047B00060E382E996E00E94A21383E592E001970C
:1047C000F1F760E282E996E00E94A21360919706F9
:1047D000606240E082E996E00E94BB1384E080932F
:1047E000980640E06CE082E996E00E94BB130E94CC
:1047F000D21382E08093990640E066E082E996E079
:104800000E94BB1340E062E082E996E00E94BB1385
:104810008BE39FE10197F1F788E080939D0660E0CC
:1048200082E996E00E949E100E94D21384E090E0FC
:104830000E948A20843009F4B9C086E090E00E948A
:104840008A208F3F59F580E480937C0080917A0024
:10485000806480937A0080917A0086FDFCCF60911D
:10486000780070917900072E000C880B990B611568
:1048700071058105910511F00E9468270E94192792
:1048800023EF30E040E050E00E94E028655F7F4F7A
:104890008F4F9F4F86E090E00E94D22886E090E004
:1048A0000E948A20082F10E01F928F9386E294E0E6
:1048B0009F938F930E94E2180E94D21360E080E0E1
:1048C0000E94DD1387E394E00E94C01460E08CE056
:1048D0000E94DD13B80182E996E00E948A1462E02A
:1048E00080E00E94DD1384E494E00E94C0140F90E5
:1048F0000F900F900F90C8016AE070E00E94842B27
:10490000060F171FD0E0C0E08CE00E942905019738
:1049100079F58BE00E942905892BB1F72196CF30DC
:1049200027E2D20711F4D0E0C0E0BE0181E995E0B2
:104930000E948A1460EA71E081E995E00E942F14D8
:1049400062E089E00E94DD1388EB91E00E94C014D0
:1049500062E089E00E94DD13BE0182E996E00E94D8
:104960008A1464E670E080E090E00E94E105CCCF1C
:1049700067E574E00C171D0739F464E084E090E00B
:104980000E94D2286DE474E081E995E00E942F1422
:1049900060EA71E081E995E00E942F1468EB7BE00A
:1049A00080E090E00E94E1050C9400000E94D21388
:1049B00060E080E00E94DD138EE594E00E94C01468
:1049C00062E082E00E94DD1380E794E00E94C01460
:1049D00068EB7BE080E090E00E94E1050E94F81720
:1049E0000E94D21360E080E00E94DD136DE371E06D
:1049F00082E996E00E941D068BE00E942905892B22
:104A000039F582E00E94290561E0892BA9F489E04B
:104A10000E94DD1381E894E00E94C01483E00E94AC
:104A2000290561E0892B71F480E00E94DD1381E8A3
:104A300094E00E94C014E5CF89E00E94DD138AE86B
:104A400094E0EACF80E00E94DD138AE894E0F1CFA1
:104A50000E94BA15C0E0D0E080918705813079F4DA
:104A60000E94BC056093830570938405809385053F
:104A700090938605809187058F5F809387051091BD
:104A80008205113089F40E94BC0560937E05709305
:104A90007F058093800590938105809182058F5FCB
:104AA0008093820510937D0580917C05813079F497
:104AB0000E94BC05609378057093790580937A0510
:104AC00090937B0580917C058F5F80937C0510918E
:104AD0007705113089F40E94BC05609373057093CB
:104AE00074058093750590937605809177058F5FA7
:104AF00080937705109372058CE00E942905892B1D
:104B0000F9F482E591E00E94C5148CE796E00E94DA
:104B1000240886E696E00E94240880E596E00E943C
:104B200024088AE396E00E9424088CE00E9429056C
:104B3000892BD9F36AEF70E080E090E00E94E105F4
:104B40008BE00E942905892B09F0BFC060E080E05E
:104B50000E94DD1365E771E082E996E00E941D0680
:104B600061E080E00E94DD138FEA91E00E94C014B2
:104B700061E089E00E94DD138CE796E00E944E0719
:104B80000E94952A82E996E00E948A1461E080E002
:104B90000E94DD1386E696E00E944E070E94952A49
:104BA00082E996E00E948A1461E082E10E94DD13AE
:104BB00086EC91E00E94C01462E080E00E94DD1368
:104BC0008FEA91E00E94C01462E089E00E94DD1348
:104BD00080916E0590916F0502970CF497C089EC57
:104BE00091E00E94C01460916E0570916F0582E99A
:104BF00096E00E948A1462E080E00E94DD138091BA
:104C00006C0590916D0502970CF48EC089EC91E0D3
:104C10000E94C01460916C0570916D0582E996E068
:104C20000E948A1462E082E10E94DD138CEC91E024
:104C30000E94C01463E080E00E94DD138FEA91E0DF
:104C40000E94C01463E089E00E94DD138FEC91E0C4
:104C50000E94C01480E596E00E944E070E94952AAB
:104C600082E996E00E948A1463E080E00E94DD13EE
:104C700083ED91E00E94C0148AE396E00E944E0703
:104C80000E94952A82E996E00E948A1463E082E1FC
:104C90000E94DD1386EC91E00E94C0148BE00E941C
:104CA0002905892BD9F36AEF70E080E090E00E943B
:104CB000E10560E080E00E94DD1360E671E082E9DA
:104CC00096E00E941D060E94BA1580917D058823FA
:104CD00091F0809172058823A9F10E9473130E94BC
:104CE00026120E94DA1E0E94B5110E94281D0E9401
:104CF000BA150E94F817209709F4AECE0E94AB06B1
:104D0000882309F4A9CE0E940000A6CE8CE796E085
:104D10000E944E0720E030E04AE754E40E94E72971
:104D200042E00E94D81467CF86E696E00E944E07C4
:104D300020E030E04AE754E40E94E72942E00E9484
:104D4000D81470CF809171058111D5CF0E94BC0518
:104D500000917E0510917F0520918005309181059D
:104D6000601B710B820B930B603472448F40910572
:104D700010F281E080937005B0CF8AE396E00E9444
:104D8000FE1680E596E00E94FE1686E696E00E94FA
:104D9000FE168CE796E00C94FE168F929F92AF92CF
:104DA000BF92CF92DF92EF92FF92CF93DF93EC010D
:104DB000688179818A819B816115710581059105E1
:104DC00021F464E279ED8BE597E02DE133EF41E0EA
:104DD00050E00E94E02849015A019B01AC01A7EA7A
:104DE000B1E40E94FF286B017C01ACEEB4EFA50199
:104DF00094010E940D29C60ED71EE81EF91EF7FE6B
:104E000006C081E0C81AD108E10880E8F80AC88223
:104E1000D982EA82FB82C701B6019F77DF91CF91E9
:104E2000FF90EF90DF90CF90BF90AF909F908F90CA
:104E300008958F929F92AF92BF92CF92DF92EF929E
:104E4000FF9260910401709105018091060190919B
:104E50000701611571058105910521F464E279ED81
:104E60008BE597E02DE133EF41E050E00E94E02830
:104E700049015A019B01AC01A7EAB1E40E94FF2855
:104E80006B017C01ACEEB4EFA50194010E940D29E9
:104E9000C60ED71EE81EF91EF7FE06C081E0C81A2E
:104EA000D108E10880E8F80AC0920401D092050117
:104EB000E0920601F0920701C701B6019F77FF90CB
:104EC000EF90DF90CF90BF90AF909F908F9008951C
:104ED000609304017093050180930601909307018C
:104EE0000895BB274A3031F4992322F4BDE290950E
:104EF00081959F4F0C947D27BB27FB015527AA273F
:104F0000880F991FAA1FA41710F0A41B8395505156
:104F1000B9F7A05DAA3308F0A95DA193009779F7CE
:104F2000B111B1931192CB010C949627DC01FC01D5
:104F3000672F71917723E1F7329704C07C916D93CD
:104F400070836291AE17BF07C8F308950E94E827E7
:104F500008F481E00895E89409C097FB3EF4909529
:104F60008095709561957F4F8F4F9F4F9923A9F042
:104F7000F92F96E9BB279395F695879577956795D1
:104F8000B795F111F8CFFAF4BB0F11F460FF1BC015
:104F90006F5F7F4F8F4F9F4F16C0882311F096E9A8
:104FA00011C0772321F09EE8872F762F05C0662356
:104FB00071F096E8862F70E060E02AF09A95660F0F
:104FC000771F881FDAF7880F9695879597F90895C8
:104FD000990F0008550FAA0BE0E8FEEF161617060A
:104FE000E807F907C0F012161306E407F50798F072
:104FF000621B730B840B950B39F40A2661F0232B8B
:10500000242B252B21F408950A2609F4A140A69506
:105010008FEF811D811D08950E941F280C949028F8
:105020000E94822838F00E94892820F0952311F0F0
:105030000C9479280C947F2811240C94C4280E9485
:10504000A12870F3959FC1F3950F50E0551F629F03
:10505000F001729FBB27F00DB11D639FAA27F00DD1
:10506000B11DAA1F649F6627B00DA11D661F829FF8
:105070002227B00DA11D621F739FB00DA11D621FDD
:10508000839FA00D611D221F749F3327A00D611DFA
:10509000231F849F600D211D822F762F6A2F1124DC
:1050A0009F5750409AF0F1F088234AF0EE0FFF1F0F
:1050B000BB1F661F771F881F91505040A9F79E3F66
:1050C000510580F00C9479280C94C4285F3FE4F3D8
:1050D000983ED4F3869577956795B795F795E795BC
:1050E0009F5FC1F7FE2B880F911D9695879597F9C5
:1050F000089597F99F6780E870E060E008959FEF5A
:1051000080EC089500240A9416161706180609065E
:10511000089500240A94121613061406050608952D
:10512000092E0394000C11F4882352F0BB0F40F4B5
:10513000BF2B11F460FF04C06F5F7F4F8F4F9F4FF5
:10514000089557FD9058440F551F59F05F3F71F077
:105150004795880F97FB991F61F09F3F79F08795DE
:105160000895121613061406551FF2CF4695F1DF67
:1051700008C0161617061806991FF1CF86957105F7
:10518000610508940895E894BB2766277727CB012B
:1051900097F90895F999FECF92BD81BDF89A9927A4
:1051A00080B50895262FF999FECF1FBA92BD81BD13
:1051B00020BD0FB6F894FA9AF99A0FBE0196089599
:1051C000052E97FB1EF400940E94F72857FD07D088
:1051D0000E94492907FC03D04EF40C94F7285095FF
:1051E0004095309521953F4F4F4F5F4F08959095D3
:1051F0008095709561957F4F8F4F9F4F08950E94C6
:105200006B29A59F900DB49F900DA49F800D911DBB
:1052100011240895B7FF0C94FF280E94FF28821BD9
:10522000930B08952F923F924F925F926F927F92CD
:105230008F929F92AF92BF92CF92DF92EF92FF92A6
:105240000F931F93CF93DF93CDB7DEB7CA1BDB0B52
:105250000FB6F894DEBF0FBECDBF09942A883988F7
:1052600048885F846E847D848C849B84AA84B984FE
:10527000C884DF80EE80FD800C811B81AA81B9810A
:10528000CE0FD11D0FB6F894DEBF0FBECDBFED011E
:105290000895A1E21A2EAA1BBB1BFD010DC0AA1F77
:1052A000BB1FEE1FFF1FA217B307E407F50720F08F
:1052B000A21BB30BE40BF50B661F771F881F991F0A
:1052C0001A9469F760957095809590959B01AC0153
:1052D000BD01CF010895A29FB001B39FC001A39F5C
:1052E000700D811D1124911DB29F700D811D11241F
:1052F000911D08955058BB27AA270E9492290C940B
:1053000090280E94822838F00E94892820F039F4E1
:105310009F3F19F426F40C947F280EF4E095E7FBE8
:105320000C947928E92F0E94A12858F3BA17620734
:1053300073078407950720F079F4A6F50C94C32829
:105340000EF4E0950B2EBA2FA02D0B01B9019001A0
:105350000C01CA01A0011124FF27591B99F0593FE4
:1053600050F4503E68F11A16F040A22F232F342F2C
:105370004427585FF3CF469537952795A795F0407A
:105380005395C9F77EF41F16BA0B620B730B840B8F
:10539000BAF09150A1F0FF0FBB1F661F771F881F47
:1053A000C2F70EC0BA0F621F731F841F48F487959F
:1053B00077956795B795F7959E3F08F0B0CF939591
:1053C000880F08F09927EE0F9795879508950E940A
:1053D000FB290C9490280E94892858F00E9482286A
:1053E00040F029F45F3F29F00C94792851110C9476
:1053F000C4280C947F280E94A12868F39923B1F354
:10540000552391F3951B550BBB27AA2762177307EA
:10541000840738F09F5F5F4F220F331F441FAA1F7E
:10542000A9F335D00E2E3AF0E0E832D0915050403A
:10543000E695001CCAF72BD0FE2F29D0660F771FE8
:10544000881FBB1F261737074807AB07B0E809F0CE
:10545000BB0B802DBF01FF2793585F4F3AF09E3F53
:10546000510578F00C9479280C94C4285F3FE4F33C
:10547000983ED4F3869577956795B795F7959F5F96
:10548000C9F7880F911D9695879597F90895E1E0E2
:10549000660F771F881FBB1F621773078407BA0741
:1054A00020F0621B730B840BBA0BEE1F88F7E0959C
:1054B0000895BEE304D008F490E80895BFE32227DE
:1054C0003327A9010E94A92860F19F5748F1B91715
:1054D00040F1BFE3B91B9927B8503AF4660F771F24
:1054E000881F991FB395D2F316C0B8504AF0232FE6
:1054F000342F452F562F672F782F8827B850BAF7AB
:10550000B85F49F086957795679557954795379594
:105510002795BA95B9F716F40E940F2B8894089531
:10552000889460E070E0CB0108950E949C2A689402
:10553000B1110C94C42808950E94A92888F09F579F
:1055400098F0B92F9927B751B0F0E1F0660F771FA7
:10555000881F991F1AF0BA95C9F714C0B13091F09D
:105560000E94C328B1E008950C94C328672F782FB8
:105570008827B85F39F0B93FCCF386957795679562
:10558000B395D9F73EF490958095709561957F4FCE
:105590008F4F9F4F089597FB16F40E940F2B0C948A
:1055A000D22AE894F92F96EBFF2381F01216130606
:1055B0001406440B9395F6958795779567955795BF
:1055C0004040FF23B9F71BC099270895882351F461
:1055D0009850D2F7872B762F652F542F432F322FD9
:1055E00020E0B1F3121613061406440B88233AF098
:1055F0009A95440F551F661F771F881FCAF75523BA
:105600004AF4440F551F11F460FF04C06F5F7F4FD1
:105610008F4F9F4F880F9695879597F9089590958E
:1056200080957095609550954095309521953F4FA8
:105630004F4F5F4F6F4F7F4F8F4F9F4F08950E9487
:10564000E82708F48FEF089519F416F40C947F28D6
:105650000C946F2B0E94A928B8F39923C9F3B6F3D1
:105660009F57550B87FF0E947D2B0024A0E640EA40
:10567000900180585695979528F4805C660F771FA7
:10568000881F20F026173707480730F4621B730B7A
:10569000840B202931294A2BA6951794079420259D
:1056A00031254A2758F7660F771F881F20F02617E5
:1056B0003707480730F4620B730B840B200D311D44
:1056C000411DA09581F7B901842F9158880F9695B7
:1056D000879508950E94E827880B990B08959F3FAE
:1056E00031F0915020F4879577956795B795880F9D
:1056F000911D9695879597F9089591505040660FA2
:10570000771F881FD2F7089597FB072E16F4009491
:1057100007D077FD09D00E94762C07FC05D03EF417
:10572000909581959F4F0895709561957F4F08954D
:10573000689401C0E894F92FF12B12F00C94CC2B53
:10574000A0E0B0E0E6EAFBE20C941829092E0594EB
:1057500022F40E94282C112392F4F0E80F26FFEF88
:10576000E094F09400951095B094C094D094A194D6
:10577000BF0ACF0ADF0AEF0AFF0A0F0B1F0B0E94B6
:10578000D72B07FC0E94282CCDB7DEB7ECE00C9499
:105790003429689401C0E8948F929F92CF93DF934D
:1057A0000E94D72BDF91CF919F908F9008958824EE
:1057B0009924F401E401B0E49F93AA279A158B047D
:1057C0009C04ED05FE05CF05D007A10798F4AD2F89
:1057D000DC2FCF2FFE2FE92D982C892E982F872F85
:1057E000762F652F542F432F322F2227B85031F7B1
:1057F000BF9127C01B2EBF91BB27220F331F441F11
:10580000551F661F771F881F991F881C991CEE1F44
:10581000FF1FCC1FDD1FAA1FBB1F8A149B04EC05B2
:10582000FD05CE05DF05A007B10748F08A189B08E3
:10583000EC09FD09CE09DF09A00BB10B21601A9418
:10584000E1F62EF49401AF01BE01CD01000C0895E4
:1058500060957095809590953095409550952195DF
:105860003F4F4F4F5F4F6F4F7F4F8F4F9F4F089569
:1058700097FD1094002E083098F00850232F342FF5
:10588000452F562F672F782F892F912DF4CF159400
:105890009795879577956795579547953795279568
:1058A0000A95AAF71124002D08952A0D3B1D4C1DC1
:1058B0005D1D6E1D7F1D801F911F08950024A7FD93
:1058C00000942A0F301D401D501D601D701D801D4D
:1058D000901D08950024A7FD00942A173005400567
:1058E000500560057005800590050895AA1BBB1B37
:1058F00051E107C0AA1FBB1FA617B70710F0A61BD0
:10590000B70B881F991F5A95A9F780959095BC01F0
:10591000CD010895EE0FFF1F0590F491E02D09943D
:105920000F931F93CF93DF938230910510F482E0A1
:1059300090E0E091A006F091A10630E020E0B0E018
:10594000A0E0309799F42115310509F44AC0281BCD
:10595000390B24303105D8F58A819B816115710599
:1059600089F1FB0193838283FE0111C04081518143
:105970000281138148175907E0F04817590799F435
:10598000109761F012960C93129713961C9332960F
:10599000CF01DF91CF911F910F9108950093A00641
:1059A0001093A106F4CF2115310551F0421753078A
:1059B00038F0A901DB019A01BD01DF01F801C1CF77
:1059C000EF01F9CF9093A1068093A006CDCFFE0101
:1059D000E20FF31F81939193225031093983288379
:1059E000D7CF20919E0630919F06232B41F4209122
:1059F0000A0130910B0130939F0620939E0620915F
:105A00000801309109012115310541F42DB73EB748
:105A100040910C0150910D01241B350BE0919E0625
:105A2000F0919F06E217F307A0F42E1B3F0B2817F7
:105A3000390778F0AC014E5F5F4F2417350748F007
:105A40004E0F5F1F50939F0640939E068193919344
:105A50009FCFF0E0E0E09CCFCF93DF930097E9F099
:105A6000FC01329713821282A091A006B091A10688
:105A7000ED0130E020E01097A1F420813181820F08
:105A8000931F20919E0630919F062817390709F031
:105A900061C0F0939F06E0939E06DF91CF91089539
:105AA000EA01CE17DF07E8F54A815B819E014115C7
:105AB0005105B1F7E901FB83EA8349915991C40F7C
:105AC000D51FEC17FD0761F4808191810296840F48
:105AD000951FE90199838883828193819B838A83BF
