:100000000C948A020C94D3250C94AC250C94B20267
:100010000C94B2020C94B2020C94B2020C94B20290
:100020000C94B2020C94B2020C94B2020C94B20280
:100030000C94B2020C94B2020C94B2020C94B20270
:100040000C9462250C94B2020C9430250C940A2571
:100050000C94B2020C94B2020C94B2020C94B20250
:100060000C94FA250C94B2024572726F72202D2006
:1000700053656E736F72203220466C69636B6572D4
:10008000004572726F72202D2053656E736F72205F
:100090003120466C69636B6572004572726F722025
:1000A0002D2053656E736F722032203E20343073E2
:1000B000004572726F72202D2053656E736F72202F
:1000C00031203E2034307300204572726F72202D33
:1000D0002053687574746572322044726167002021
:1000E0004572726F72202D20536875747465723179
:1000F00020447261670020504152414D45544552A1
:1001000020202020202020202020202020202020EF
:100110002053656E736F7232202020202020202013
:10012000202053656E736F723100204375727461C5
:10013000696E732066756C6C79206F70656E20280F
:100140006265747765656E207468652074776F20CA
:1001500053656E736F72732900203D3D3D3D3D3DFB
:100160003D3D3D3D3D3D3D3D3D3D3D3D3D3D3D3DBF
:100170003D3D3D3D3D3D3D3D3D3D3D3D3D3D3D3DAF
:100180003D3D3D3D3D3D3D3D3D3D3D3D00204156DC
:100190004552414745532020202020202020202068
:1001A000202020202020202053656E736F72322083
:1001B00020202020202020202053656E736F723174
:1001C0000045006D530045727200433220004572B5
:1001D00072004331200020202020202020202020D9
:1001E0002020202020202020002053006D530020BC
:1001F00020202020202020202020202020202020FF
:100200002000420020202000417665726765322080
:100210002041766572616765312020200020202012
:100220005265736574204176657261676520202090
:1002300020005265736574204176657261676500C0
:1002400053656E736F7232202053656E736F723117
:100250002020202000202D2D2D2D2D2D2D2D2D2D3C
:100260002D2D2D2D2D2D2D2D2D2D2D2D2D2D2D2DBE
:100270002D2D2D2D2D2D2D2D2D2D2D2D2D2D2D2DAE
:100280002D2D2D2D2D2D2D2D002053687574746569
:1002900072205370656564202020202020202020BB
:1002A0002020202053656E736F7232202020202082
:1002B000202020202053656E736F7231006D530033
:1002C0004332200043312000202020202020202005
:1002D000202020202020202020200020530020202B
:1002E000202020202020202020202020202020200E
:1002F000006D5300202020202020202020202020BE
:100300002020202020200041766572676532202061
:10031000417665726167653120202000426C6F6311
:100320006B656420002A5365656E2A202000426CAC
:100330006F636B656420002A5365656E2A20200078
:100340002052657475726E20202020202043686141
:100350006E6765200053656E736F7232202053659F
:100360006E736F72310045005200000000002400DF
:1003700027002A0000000000250028002B000000B4
:1003800000002300260029000404040404040404DB
:100390000202020202020303030303030102040830
:1003A00010204080010204081020010204081020DF
:1003B0000000000800020100000304070000000024
:1003C0000000000057524F4E470057726F6E672172
:1003D0000020436F7272656374210020202020206A
:1003E000202020200020456E7465722020202020CF
:1003F00020204368616E67652000506173734B6510
:10040000793A203000204175746820436F6465207C
:100410003A00202020212121202057414954202129
:1004200021212020200053656E736F7232202053EB
:10043000656E736F723120202020003330204A75A2
:100440006E20323032360076657273696F6E2056D8
:10045000322E302E302E35002020205368757474D3
:10046000657220546573746572003330204A756E6E
:1004700020323032360076657273696F6E205632E4
:100480002E302E302E350068747470733A2F2F770B
:1004900077772E70686F7472696F2E636F6D2F6639
:1004A0006F72756D2F746872656164732F62756900
:1004B0006C642D612D736875747465722D74657329
:1004C0007465722D666F722D666F63616C2D706C32
:1004D000616E652D73687574746572732D636865DC
:1004E00061702D656173792D69742D776F726B73EF
:1004F0002E3139373735362F0043616D65726120F3
:100500005368757474657220546573746572000065
:100510001927C12A11241FBECFEFD8E0DEBFCDBFFF
:1005200014E0A0E0B1E0E2EBF5E602C005900D9228
:10053000A03BB107D9F726E0A0EBB4E001C01D92C3
:10054000A43CB207E1F712E0C9E8D2E004C0219769
:10055000FE010E94D430C838D107C9F70E947C2719
:100560000C94CC320C9400002F923F924F925F92E9
:100570006F927F928F929F92AF92BF92CF92DF92B3
:10058000EF92FF920F931F93CF93DF9300D000D091
:10059000CDB7DEB71C014B015A0139012701960185
:1005A000227033273A83298333E0C322DD245C831E
:1005B0004B83CD2851F46801C41AD50A8B819C81E4
:1005C0008C0D9D1D84159505B0F07301E00EF11E94
:1005D0004B815C81E614F704F1F06A01FFEFCF1A5A
:1005E000DF0A2FEF3FEFB401F70182917F01F101A4
:1005F0000995A601EFCFEB80FC808FEFE81AF80A8F
:100600002FEF3FEF4B815C81B40180E2F10109954E
:10061000FC82EB82D3CF8B819C81800F911F29813B
:100620003A81232BA1F09C012A193B092415350599
:1006300070F4FC013196FA83E9832FEF3FEFAC01B0
:10064000B40180E2F101099589819A81ECCF0F9084
:100650000F900F900F90DF91CF911F910F91FF900E
:10066000EF90DF90CF90BF90AF909F908F907F9052
:100670006F905F904F903F902F9008952F923F92F0
:100680004F925F926F927F928F929F92AF92BF92A2
:10069000CF92DF92EF92FF920F931F93CF93DF934E
:1006A000CDB7DEB7AF970FB6F894DEBF0FBECDBFA4
:1006B0009AA789A77CA76BA75EA74DA7CAA2DBA2B2
:1006C000ECA25F2C402E1DA3322E232EA8A689A2B9
:1006D0002A968EAC9FAC2A9796014E2D5F2D602FE7
:1006E000712F832D922DA0E00E94B43009F04CC0F0
:1006F00092FC42C080E38983E89484F86624639482
:10070000712C81FC92C0C4018170992728962EAD6E
:100710003FAD2897232BA9F0009709F486C038A590
:10072000311105C094012C703327232B51F02896EA
:100730004EAD5FAD28974150510928965FAF4EAF3F
:100740002897E1E0F0E0EC0FFD1FE60DF71D8301B7
:1007500020E3009709F46AC028964EAD5FAD289754
:100760000417150708F062C00032110509F45EC0D5
:100770000F5F1F4F2193EDCF29A1203111F4E89491
:1007800084F8712C612CBDCF81E485FE81E6AE0139
:100790004F5F5F4F5FA34EA3712C612C8A508FA7D0
:1007A000A9A0B12CC12CD12CE12CF12C00E010E03F
:1007B0002AA13BA14CA1552D642D7DA1832D922D05
:1007C0000E9413302A3074F5205D8FEF681A780A82
:1007D000EEA1FFA12193FFA3EEA3A9A0B12CC12CF0
:1007E000D12CE12CF12C00E010E02AA13BA14CA17E
:1007F000552D642D7DA1832D922D0E9415302AA3A5
:100800003BA34CA3552E462E7DA3382E292EA0E0C7
:100810000E94B43009F475CFF0E26F16710409F04C
:10082000BFCF6FCF5FA5250FD0CF8301E1E0F0E010
:10083000EC0FFD1FE00FF11F80E326962EAD3FADBC
:1008400026970217130738F40032110520F40F5FC2
:100850001F4F8193F2CF39A1383029F46016710609
:1008600010F4E89484F8C40180719071892B09F424
:1008700047C092FC25C00115110511F126964EAD19
:100880005FAD26974017510739F028968EAD9FAD82
:10089000289708171907A1F46016710608F099C087
:1008A000C801019759F0E9A1E03109F06EC002508A
:1008B00011096816790640F08C0106C010E000E0CE
:1008C000F9A1F03109F062C085FC54C00032110575
:1008D00040F5E1E0F0E0EC0FFD1FE00FF11F88E7CD
:1008E00080830F5F1F4F00321105D8F4E1E0F0E084
:1008F000EC0FFD1FE00FF11F80E380830F5F1F4FA0
:100900000032110570F438A5332309F44EC0E1E03C
:10091000F0E0EC0FFD1FE00FF11F8DE280830F5F11
:100920001F4F64012896EEACFFAC28979E012F5F05
:100930003F4F4DA55EA56BA57CA589A59AA50E94F4
:10094000B402AF960FB6F894DEBF0FBECDBFDF91F5
:10095000CF911F910F91FF90EF90DF90CF90BF90BC
:10096000AF909F908F907F906F905F904F903F904F
:100970002F90089500321105A0F6E1E0F0E0EC0FB1
:10098000FD1FE00FF11F88E5ABCF8C0129A12230BC
:1009900009F0A9CF0032110520F6E1E0F0E0EC0FFC
:1009A000FD1FE00FF11F82E69BCF82FE08C0E1E051
:1009B000F0E0EC0FFD1FE00FF11F8BE2AFCF83FEE5
:1009C000B0CFE1E0F0E0EC0FFD1FE00FF11F80E29F
:1009D000A5CF49A14031D1F677CF2F923F924F92C8
:1009E0005F926F927F928F929F92AF92BF92CF92BF
:1009F000DF92EF92FF920F931F93CF93DF93CDB7C8
:100A0000DEB76E970FB6F894DEBF0FBECDBF098775
:100A10001A872B873C874D875E876F87788B239655
:100A20004EAC5FAC23978C8A9D8AAE8ABF8AC88EF3
:100A3000D98EEA8EFB8E8C8F29AD3AAD232B09F42B
:100A40009EC00A8B1B8B6B847C844A011B01EDAD1D
:100A5000FEADF3FF3EC0E4FD3CC0202F312FA301CB
:100A6000B401C101A0E00E94B43009F00CF49AC0B6
:100A70002AE0A22EB12CC12CD12CE12CF12C00E0CB
:100A800010E02A893B89A301B401C1010E94E22F31
:100A9000A0E00E94B43099F429AD3AAD215031095B
:100AA0003AAF29AF2A893B89A301B401C1010E9451
:100AB000E42F2A8B3B8B3A014B011C01D9CF2A89A9
:100AC0003B89A301B401C101A0E00E94B43009F444
:100AD00069C021968EAD9FAD2197840D951D9E8F87
:100AE0008D8F90E24916510408F096C0E9ADFAAD39
:100AF0003197FAAFE9AFFFEF4F1A5F0A9AE0A92EDC
:100B0000B12CC12CD12CE12CF12C00E010E02A8971
:100B10003B89A301B401C1010E94E22F205DED8D4C
:100B2000FE8D2193FE8FED8F2A893B89A301B401AD
:100B3000C1010E94E42F2A8B3B8B3A014B011C011F
:100B4000A0E00E94B43069F62196EEADFFAD21978A
:100B5000E40DF51D80E320E24216510409F45CC067
:100B60003FEF431A530A29AD3AAD2115310509F477
:100B7000DAC08193215031093AAF29AFECCF3DADB6
:100B800034FF10C080E24816510408F045C0219699
:100B9000EEADFFAD2197E40DF51D8EE28083F201ED
:100BA00031962F0121966EAC7FAC2197640C751C99
:100BB000F0E24F16510480F52FEF421A520A8AE0F4
:100BC000A82EB12CC12CD12CE12CF12C00E010E08E
:100BD0002C893D894E895F89688D798D8A8D9B8DA1
:100BE0000E94E22F205DF30121933F012C893D8972
:100BF0004E895F89688D798D8A8D9B8D0E94E42F47
:100C00002C8B3D8B4E8B5F8B688F798F8A8F9B8F60
:100C1000A0E00E94B43061F6FDADF1FD29C0F0FF07
:100C200027C02BAD3CAD232B19F13C8D311106C0F3
:100C30008DAD9EAD8C709927892B29F08BAD9CAD25
:100C400001979CAF8BAF2196EEADFFAD2197E40DE0
:100C5000F51D80E32BAD3CAD4216530648F430E25F
:100C600043165104C0F49FEF491A590A8193F2CFF9
:100C7000E0E24E16510478F4FC8DFF23B1F1219689
:100C8000EEADFFAD2197E40DF51D8DE2808392015D
:100C90002F5F3F4F2901CDACDEACEBACFCAC820149
:100CA00021962EAD3FAD21974FA958AD6DA97EA9D4
:100CB0008BA99CA90E94B4026E960FB6F894DEBF71
:100CC0000FBECDBFDF91CF911F910F91FF90EF909D
:100CD000DF90CF90BF90AF909F908F907F906F905C
:100CE0005F904F903F902F9008953DAD32FF0CC024
:100CF0002196EEADFFAD2197E40DF51D8BE28083CB
:100D0000C20101962C01C7CF9DAD93FFC4CF2196A0
:100D1000EEADFFAD2197E40DF51D80E28083F20179
:100D200031962F01B8CF8EE280833CCF089508958D
:100D3000DC01ED91FC910190F081E02D0994EF929E
:100D4000FF920F931F93CF93DF938C017B01D0E031
:100D5000C0E0F701EC0FFD1F6491662361F0D8013C
:100D6000ED91FC910190F081E02DC8010995892B4E
:100D700011F02196EECFCE01DF91CF911F910F910F
:100D8000FF90EF900895AF92BF92CF92DF92EF92D3
:100D9000FF920F931F93CF93DF936C017B018B0125
:100DA000040F151FEB015E01AE18BF08C017D10775
:100DB00059F06991D601ED91FC910190F081E02DFF
:100DC000C6010995892B79F7C501DF91CF911F9154
:100DD0000F91FF90EF90DF90CF90BF90AF9008956C
:100DE000FC01448155816081718184EB96E00C9413
:100DF000C306FC01538D448D252F30E0842F90E0F5
:100E0000821B930B541710F0CF9608950197089505
:100E1000FC01918D828D981761F0A28DAE0FBF2FCE
:100E2000B11D5D968C91928D9F5F9F73928F90E024
:100E300008958FEF9FEF0895FC01918D828D981793
:100E400031F0828DE80FF11D858D90E008958FEFD0
:100E50009FEF0895FC01918D228D892F90E0805C99
:100E60009F4F821B91098F739927089587EA95E018
:100E70000E942A0721E0892B09F420E0822F08959F
:100E800080E090E0892B29F00E94360781110C94B4
:100E900000000895FC01A48DA80FB92FB11DA35A1D
:100EA000BF4F2C91848D90E001968F739927848F8A
:100EB000A689B7892C93A089B1898C9183708064AD
:100EC0008C93938D848D981306C00288F389E02D4E
:100ED00080818F7D80830895EF92FF920F931F93FF
:100EE000CF93DF93EC0181E0888F9B8D8C8D9813DD
:100EF0001AC0E889F989808185FF15C09FB7F894E9
:100F0000EE89FF896083E889F98980818370806434
:100F100080839FBF81E090E0DF91CF911F910F917F
:100F2000FF90EF900895F62E0B8D10E00F5F1F4F8E
:100F30000F731127E02E8C8D8E110CC00FB607FC9D
:100F4000FACFE889F989808185FFF5CFCE010E942B
:100F50004A07F1CFEB8DEC0FFD2FF11DE35AFF4F48
:100F6000F0829FB7F8940B8FEA89FB8980818062B9
:100F7000CFCFCF93DF93EC01888D8823B9F0AA8976
:100F8000BB89E889F9898C9185FD03C0808186FD44
:100F90000DC00FB607FCF7CF8C9185FFF2CF808193
:100FA00085FFEDCFCE010E944A07E9CFDF91CF91B7
:100FB0000895833081F028F4813099F08230A9F0CF
:100FC00008958730A9F08830C9F08430B1F4809159
:100FD00080008F7D03C0809180008F778093800098
:100FE000089584B58F7784BD089584B58F7DFBCF38
:100FF0008091B0008F778093B00008958091B00009
:101000008F7DF9CFCF93DF93282F30E0F901E055A2
:10101000FC4F8491F901E456FC4FD491F901E85753
:10102000FC4FC491CC23A1F081110E94D907EC2F71
:10103000F0E0EE0FFF1FE258FC4FA591B491EC9148
:10104000ED2381E090E009F480E0DF91CF910895F5
:1010500080E090E0FACF1F93CF93DF93282F30E00A
:10106000F901E055FC4F8491F901E456FC4FD4910D
:10107000F901E857FC4FC491CC23A9F0162F811138
:101080000E94D907EC2FF0E0EE0FFF1FEC58FC4F49
:10109000A591B4918FB7F894EC91111108C0D09537
:1010A000DE23DC938FBFDF91CF911F910895DE2B5C
:1010B000F8CFCF93DF9390E0FC01E456FC4F2491EE
:1010C00088579C4FFC0184918823C9F090E0880FD9
:1010D000991FFC01E659FC4FA591B491FC01EC5815
:1010E000FC4FC591D49161110DC09FB7F8948C91BC
:1010F000209582238C938881282328839FBFDF91AA
:10110000CF910895623051F49FB7F8943C91822FAB
:10111000809583238C93E8812E2BEFCF8FB7F894A3
:10112000EC912E2B2C938FBFEACF3FB7F894809190
:10113000820590918305A0918405B091850526B51F
:10114000A89B05C02F3F19F00196A11DB11D3FBFFF
:10115000BA2FA92F982F8827BC01CD01620F711DCE
:10116000811D911D42E0660F771F881F991F4A95C8
:10117000D1F708958F929F92AF92BF92CF92DF9254
:10118000EF92FF926B017C010E9495084B015C017C
:10119000C114D104E104F104B9F00E949508681962
:1011A00079098A099B09683E73408105910580F39E
:1011B00021E0C21AD108E108F10888EE880E83E028
:1011C000981EA11CB11CE4CFFF90EF90DF90CF9050
:1011D000BF90AF909F908F9008952FB7F894609133
:1011E0007E0570917F0580918005909181052FBFCC
:1011F00008950895FC014281538141155105E9F09C
:101200002485358521153105C1F064177507A8F4CB
:1012100084819581680F791F6417750710F0641B2E
:10122000750B660F771F660F771F620F731FFB0129
:101230006081718182819381089560E070E080EC2B
:101240009FE708958F929F92AF92BF92CF92DF92C5
:10125000EF92FF920F931F93CF93DF93EC010A81DC
:101260001B8101151105E1F1EC84FD84E114F10409
:10127000B9F1188619861A861B86D12CC12C888450
:101280009984AA84BB840C151D0591F0F701619126
:101290007191819191917F01A50194010E94872D07
:1012A000688779878A879B87FFEFCF1ADF0AE7CFA6
:1012B000B80190E080E00E94B72B9B01AC01C50112
:1012C000B4010E94F32DDF91CF911F910F91FF90F8
:1012D000EF90DF90CF90BF90AF909F908F90089548
:1012E00060E070E080EC9FE7EECFAF92BF92CF92CC
:1012F000DF92EF92FF920F931F93CF93DF93FC0146
:10130000A484B584A114B10409F466C06A017B0108
:10131000EC0104811581C801880F991F880F991F5E
:10132000A80EB91EF5012081318142815381688563
:1013300079858A859B850E94862D688779878A872B
:101340009B87F501C082D182E282F382A7019601D8
:10135000688579858A859B850E94872D688779872E
:101360008A879B870F5F1F4F1D830C83AE80BF80D2
:101370000A151B0511F41D821C820A811B810115AF
:10138000110589F4CA8ADB8AEC8AFD8ACE86DF865B
:10139000E88AF98A0A151B0520F40F5F1F4F1B838B
:1013A0000A8381E01AC0A70196016E857F8588892E
:1013B00099890E942B2F18164CF3A70196016A8970
:1013C0007B898C899D890E94B22B87FFE3CFCA8AD3
:1013D000DB8AEC8AFD8ADECF80E0DF91CF911F911E
:1013E0000F91FF90EF90DF90CF90BF90AF90089556
:1013F000FC011382128215821482108611861286D5
:10140000138680E090E0A0ECBFE786879787A08BEB
:10141000B18B828B938BA48BB58B8485958500973C
:1014200099F020813181F901EE0FFF1FEE0FFF1FB0
:10143000E80FF91F2115310549F0215031091292A9
:10144000129212921292F6CF80E0089581E00895F0
:1014500008952F923F924F925F926F927F928F9258
:101460009F92AF92BF92CF92DF92EF92FF920F9333
:101470001F93CF93DF93CDB7DEB760970FB6F89485
:10148000DEBF0FBECDBF988B8F876A017B013E8781
:101490002D87DB01CA018827B7FD83959927AA27E5
:1014A000BB27282F2170EF85F889208B892B21F00D
:1014B000F7FAF094F7F8F094C701B6010E94652E90
:1014C00029833A834B835C836D837E838F839887E4
:1014D000AF85B8892C9311963C93119712964C9333
:1014E000129713965C93139714966C931497159612
:1014F0007C9315978F8116968C93169798851796DF
:101500009C93ED85FE85EE0FFF1FEE0FFF1FE95E3A
:10151000FE4F80819181A281B38189879A87AB87B1
:10152000BC878F8198850E94D72E9B01AC01C70193
:10153000B6010E94862D29853A854B855C850E94DF
:10154000182C2B013C010E94652E822E232E342E56
:10155000952E5B018C01AF85B88918962C9318974E
:1015600019963C9319971A964C931A971B965C936D
:101570001B971C966C931C971D96BC921D971E96EC
:101580008C931E971F961C930E94D72E9B01AC0133
:10159000C301B2010E94862D2B013C0120E030E006
:1015A00040E05FE30E942B2F18160CF0D0C0282DCE
:1015B000322D432D592DB501C801A1E00E94A8305C
:1015C00039014A015B018C010E94D72E9B01AC01BD
:1015D00069857A858B859C850E94B22B18160CF044
:1015E00087C0EF85F8896086718682869386A48697
:1015F000B58606871787ED85FE85EF2B09F05DC060
:10160000AF85B8891C9111966C90119712967C90B9
:10161000129713968C90139714969C901497159686
:10162000AC9015971696BC90169717960C91212F93
:10163000362D472D582D692D7A2D8B2D902F0E94F8
:10164000D72E9B01AC01C701B6010E94862D6B010C
:101650007C0120E030E040E05FE30E94B22B87FF96
:101660000AC020E030E040E05FE3C701B6010E941D
:101670002B2F181614F5212F217030E040E050E098
:1016800060E070E080E090E0A0E00E94B430A9F05B
:10169000212F362D472D582D692D7A2D8B2D902FEA
:1016A000A1E00E94A830EF85F8892083318342832E
:1016B000538364837583868397838F859889609627
:1016C0000FB6F894DEBF0FBECDBFDF91CF911F9153
:1016D0000F91FF90EF90DF90CF90BF90AF909F90D1
:1016E0008F907F906F905F904F903F902F900895D4
:1016F000AF85B88918961C92189719961C9219975D
:101700001A961C921A971B961C921B971C961C9259
:101710001C971D961C921D971E961C921E971F9635
:101720001C9229813A814B815C816D817E818F8100
:101730009885A1E00E94A830EF85F8892083318345
:1017400042835383648375838683978354CF20E0D9
:1017500030E040E05FE3C301B2010E94B22B81118F
:101760004ACF282D322D432D592DB501C801A0E0B7
:101770000E94B43061F0217030E040E050E060E061
:1017800070E080E090E00E94B43009F434CF282D5E
:10179000322D432D592DB501C801A1E00E94A8307A
:1017A000AF85B88918962C93189719963C9319977A
:1017B0001A964C931A971B965C931B971C966C93E6
:1017C0001C971D967C931D971E968C931E971F96B3
:1017D0009C9311CF2F923F924F925F926F927F9284
:1017E0008F929F92AF92BF92CF92DF92EF92FF9231
:1017F0000F931F93CF93DF93CDB7DEB7E6970FB666
:10180000F894DEBF0FBECDBF9CA78BA76DA77EA7A8
:1018100058AB4FA70A8B1B8B2C8B3D8BFF8EEE8E0C
:10182000DAAAC9AAB9A6A8A68BAA9CAA2C962FADFB
:101830002C972DAB2D963FAD2D973EAB8A899B897A
:10184000AC89BD898827B7FD83959927AA27BB272F
:101850008E8B9F8BA88FB98F0E891F89011511055B
:1018600049F02A893B894C895D8950582A8B3B8BEA
:101870004C8B5D8B20E030E0A9016A897B898C89E3
:101880009D890E94B22B312C212C882309F40FC191
:101890008A899B89AC89BD89E7E1B695A79597951B
:1018A0008795EA95D1F799278F579109BC01990F30
:1018B000880B990B0E94B92B2BE930E24AE95EE3D1
:1018C0000E94182C24E431E544E35EE30E94872D56
:1018D0006B017C016A897B898C899D898F77992727
:1018E00080689F6320E030E040EC5FE30E94862D3B
:1018F0002BE33DE344E95EE30E94182C9B01AC011D
:10190000C701B6010E94872D0E94A12E6A8F7B8F8E
:101910008C8F9D8F2A8C3B8CB101032C000C880B83
:10192000990B0E94B92B6B017C0128E73AE944E549
:1019300050E40E94182C20E030E040E05FE30E9479
:10194000872D0E94A12E4B012EE83DE543E150E496
:10195000C701B6010E94182C6B017C01092C000CF8
:10196000AA08BB08C501B4010E94B92B28E132E7DF
:1019700041E35FE30E94182C9B01AC01C701B60153
:101980000E94862D2B013C01AC019B010E94182C6A
:101990006B017C01A3019201C301B2010E94872D5A
:1019A00068A379A38AA39BA320E030E040E651E43A
:1019B000C701B6010E94F32D20E030E040E251E47F
:1019C0000E94872D9B01AC01C701B6010E94F32D37
:1019D00020E030E040EC50E40E94872D9B01AC01F8
:1019E000C701B6010E94F32D6B017C01A301920196
:1019F00060E070E080E090E40E94862D9B01AC01E5
:101A0000C701B6010E94872D9B01AC0168A179A195
:101A10008AA19BA10E94F32D20E030E040E85FE323
:101A20000E94872D3FE7830E911CA11CB11CA501CC
:101A30009401F7E1220F331F441F551FFA95D1F788
:101A40000E94182C2B013C01AC019B016A897B8907
:101A50008C899D890E94B22B87FF0DC041E0241A1A
:101A6000310820E030E040E251E4C301B2010E94BD
:101A7000F32D2B013C01C101419651E05AA783325D
:101A8000910508F01AA6839790F4C10137FE04C0AF
:101A90008827992782199309880F991F880F991F02
:101AA000FC01E95EFE4F408051806280738088A512
:101AB00099A593FF8DC1AE8DBF8D9D01AB2B11F408
:101AC00021E030E08E8D9F8D0197BCEF2B16BFEF8C
:101AD0003B060CF467C0221633060CF063C0821973
:101AE0009309AA24A3949F8F8E8F97FF02C01F8E05
:101AF0001E8EE8A5F9A5F460F9A7E8A737FE1AA697
:101B0000A110C1C12114310409F475C18E898170FD
:101B1000898BFAA5FF2309F463C1A30192016A89A5
:101B20007B898C899D890E94182C1AA50E94652E9C
:101B30002E8B3A8F48A35CA36DA37EA3882E9FA310
:101B40000E94D72E2AA5A301222371F192010E949F
:101B5000F32D9B01AC016A897B898C899D890E9448
:101B6000862D6B017C01EE8DFF8DEE0FFF1FEE0FBA
:101B7000FF1FE95EFE4F80819181A281B3818A8B34
:101B80009B8BAC8BBD8B112399F0A3019201BC01FF
:101B9000CD010E94182C9B01AC01C701B6010E9427
:101BA000182C3DC0A12C9FCF92010E94182CD1CFA0
:101BB000D301C20157E1B695A795979587955A9598
:101BC000D1F799279C012F57310937FF03C0319571
:101BD000219531098A899B89AC89BD8947E1B695F0
:101BE000A795979587954A95D1F799278F5791098A
:101BF00097FF03C0919581959109821793070CF087
:101C00007DC02A893B894C895D89C301B2010E944C
:101C1000F32D9B01AC01C701B6010E94F32D2B01EE
:101C20003C01AE8DBF8DAB2B09F071C011E020E0FF
:101C300030E040E05FE30E942B2F87FD10E0212F72
:101C400030E040E050E060E070E080E090E0AE889E
:101C5000BA8CC8A0DCA0EDA0FEA0082D1FA10E9498
:101C60009F302E8B3A8F48A35CA36DA37EA3882E52
:101C70009FA320E030E040E05FE3C301B2010E9497
:101C8000B22B811103C0BE89BE7FBE8B10E0B12C88
:101C9000C12C912CD12CE12CF12C00E02E893A8D15
:101CA00048A15CA16DA17EA1882D9FA1A9E00E9401
:101CB000B430A9F0A4F03FEF231A330A10E0B12C9E
:101CC000C12C912CD12CE12CF12C00E041E04E8B69
:101CD0001A8E18A21CA21DA21EA2812C1FA2C10135
:101CE0008D599F4F512C25E0622E712C873C910518
:101CF00008F027C184E0682E712C23C1A301920152
:101D00006A897B898C899D890E94F32D44CF0E942A
:101D1000652E59016A017B01082F992E0E94D72E4A
:101D20009B01AC01C301B2010E94862D2B013C0135
:101D300011E020E030E040E05FE30E942B2F87FDC0
:101D400010E0212F30E040E050E060E070E080E003
:101D500090E0192D0E949F30122FB32EC42E952E85
:101D6000D62EE72EF82E092F20E030E040E05FE38A
:101D7000C301B2010E94B22B811101C01E7F212F2D
:101D80003B2D4C2D592D6D2D7E2D8F2D902F0E948A
:101D9000D72E9B01AC016A897B898C899D890E9421
:101DA000B22B18160CF47ACF2E893A8D48A15CA17B
:101DB0006DA17EA1882D9FA1A1E00E94A8302E8B4D
:101DC0003A8F48A35CA36DA37EA3882E9FA35ECF0A
:101DD00037FC98CE2114310471F08E898170898B83
:101DE000A30192016A897B898C899D890E94F32DC8
:101DF00010E01AA69BCEA12C012B09F046C02E8D17
:101E00003F8D4A895B896C897D89CE0101960E944C
:101E1000290AF981FE8B2A812A8F3B8138A34C81C4
:101E20004CA35D815DA38E818EA38F8098859FA337
:101E30001985BA84CB849C84DD84EE84FF84088970
:101E40002DCF2E8D3F8D4A895B896C897D89CE018E
:101E500001960E94290AA981AE8BBA81BA8FEB81C3
:101E6000E8A3FC81FCA32D812DA33E813EA38F809E
:101E700048854FA31985BA84CB849C84DD84EE8485
:101E8000FF84088927C0012BE1F24A895B896C89AC
:101E90007D8970582E8D3F8DCE0101960E94290AB2
:101EA000E981EE8BFA81FA8F2B8128A33C813CA338
:101EB0004D814DA35E815EA38F8088858FA3198598
:101EC000BA84CB849C84DD84EE84FF840889AA20B4
:101ED00009F4E4CE68A479A4662498E07922A8A540
:101EE000B9A555245394B3FF2CC0BFEF2B163B0666
:101EF00024F13101EFEF6E1A7E0A2E893A8D48A146
:101F00005CA16DA17EA1882D9FA10E94D72EF30117
:101F1000EE0FFF1FEE0FFF1FE95EFE4F20813181A4
:101F2000428153810E94B22B811107C02E8D3F8DBB
:101F3000215031093F8F2E8F130155245394712C5A
:101F4000612C88A599A5827099279B8B8A8B98A56F
:101F500091FF03C06114710441F4A9A9BAA9CD018C
:101F6000861997096A167B0610F090E080E0BE891A
:101F7000B983EA8DEA83F8A1FB832CA12C833DA1D0
:101F80003D834EA14E838F825FA158871987BA8601
:101F9000CB869C86DD86EE86FF86088BAEA9AF9346
:101FA000BDA9BF93ECA9EF93FBA9FF9329A52F939C
:101FB00038A53F939F938F934F8D4F935E8D5F9383
:101FC00088A98F939FA59F93AEA5AF93BDA5BF93FF
:101FD000ECA5EF93FBA5FF9389809A80AB80BC8032
:101FE000CD80DE80EF80F88409851A852B853C85BD
:101FF0004D855E856F85788989890E94ED040FB6CD
:10200000F894DEBF0FBECDBF511067C02C013FEF6B
:10201000431A530A48A5E5E445FFE5E62FEF3FEFF5
:10202000AC016DA57EA58E2FEBA5FCA50995A32C73
:10203000AA1CAA24AA1C6101E32CEE0CEE08FE2CBB
:102040000E2D1E2DFE2DEE2D91014E2D5E2D6E2D91
:102050007E2D8E2D9E2DA0E00E94B4303CF40E9477
:10206000723069017A018B01F82FE92F1F9285E008
:102070008F9321E0621A71087F926F921F921F92D4
:102080009AE0892E2F2F3E2FA2016DA57EA58BA54C
:102090009CA50E943E030F900F900F900F900F9001
:1020A0000F904A895B89452BC1F09C01AFA5B8A967
:1020B0002A1B3B0BE9A9FAA92E173F0770F48C01E4
:1020C0000F5F1F4F2FEF3FEFAC016DA57EA580E2A4
:1020D000EBA5FCA50995C801E8CFE6960FB6F894E4
:1020E000DEBF0FBECDBFDF91CF911F910F91FF904B
:1020F000EF90DF90CF90BF90AF909F908F907F90A8
:102100006F905F904F903F902F9008952F923F9245
:102110004F925F926F927F928F929F92AF92BF92F7
:10212000CF92DF92EF92FF920F931F93CF93DF93A3
:10213000CDB7DEB7E7970FB6F894DEBF0FBECDBFC1
:102140001C016AAB7BAB4CAB5DAB28013901CEAA5D
:10215000DFAA6501B82CA9019801C301B8010E944A
:10216000B22B882331F1EEA8FFA803E010E028E9A4
:1021700031E04CA95DA96AA97BA9C1010E94B40202
:10218000E7960FB6F894DEBF0FBECDBFDF91CF91BB
:102190001F910F91FF90EF90DF90CF90BF90AF9085
:1021A0009F908F907F906F905F904F903F902F9077
:1021B00008952FEF3FEF4FE75FEFC301B8010E9493
:1021C000B22B87FF07C0EEA8FFA804E010E02CE9BF
:1021D00031E0CFCF2FEF3FEF4FE75FE7C301B8010B
:1021E0000E942B2F18166CF404E010E02FE831E069
:1021F000C2FC04C003E010E024E931E0EEA8FFA82F
:10220000B8CF9E012F5F3F4F4901B11025C028E292
:102210003BE64EE65EE4C301B8010E942B2F181680
:1022200054F028E23BE64EE65EECC301B8010E94A2
:10223000B22B87FF11C01F921F925601CEA8DFA8B4
:10224000930182014CA95DA96AA97BA9C1010E94E1
:10225000EA0B0F900F9094CFD2FC03C086E0E82EDB
:10226000F12CF40110E000E080E332E1E316F10428
:1022700048F00F5F1F4F819391E0E91AF108003297
:10228000110599F7BB2019F01F930F93D6CF970133
:10229000B301A201CE0181960E94290A1F930F93D8
:1022A0009F928F92DF92CF922FA92F933EA93F93B7
:1022B000FF92EF928DA98F939CA99F932BA92F93A7
:1022C0003AA93F933F922F9289A09AA0ABA0BCA0BD
:1022D000CDA0DEA0EFA0F8A409A51AA52BA53CA5CA
:1022E0004DA55EA56FA578A989A90E94ED040FB63A
:1022F000F894DEBF0FBECDBF43CF882329F0682FEF
:1023000087EA95E00C9498060895089520910C05AD
:10231000260F3327331F21323105ECF42091550568
:10232000FC0190E080E0243069F082E00895A09103
:102330000C052191AC0144515B4FA40FB52FB11D89
:102340002C930196861798F380910C05680F609383
:102350000C0580E0089581E008951092550581E014
:102360008093540510922F0561E082E10E942B08B2
:1023700061E083E10E942B08E9EBF0E080818E7F31
:10238000808380818D7F808388E48093B80085E49A
:102390008093BC000895CF93DF9391E09093EB047A
:1023A0008823B9F0C091B800D091BA008091BC00E8
:1023B0008A7B8093BC0060E082E10E942B0860E091
:1023C00083E10E942B080E94AD11D093BA00C09304
:1023D000B800DF91CF9108950895E0918D05809127
:1023E0008C05E81730F4F0E0E553FB4F808190E076
:1023F00008958FEF9FEF089590918D0580918C0542
:102400002FEF3FEF981748F4E92FF0E0E553FB4F2B
:10241000208130E09F5F90938D05C90108958091E0
:102420008C0590918D05891B990B0895CF92DF92B1
:10243000EF92FF920F931F93CF93DF937C01CB0119
:102440008A0120915B05222389F0EB016B01C40E08
:10245000D51ECC15DD0569F06991D701ED91FC9190
:102460000190F081E02DC7010995F3CF642F0E9400
:102470008611C801DF91CF911F910F91FF90EF90CE
:10248000DF90CF900895CF93DF931F92CDB7DEB743
:10249000698320915B052223F9F020918A0520327F
:1024A00058F021E030E0FC013383228390E080E0AB
:1024B0000F90DF91CF91089580918B05E82FF0E088
:1024C000E45AFA4F998190838F5F80938B058093B4
:1024D0008A0581E090E0ECCF61E0CE0101960E9498
:1024E0008611F7CFCF92DF92EF92FF920F931F9357
:1024F000CF93DF93FC01C48121E020935B05C0935F
:102500007C0510928B0510928A058385682B84E4E4
:1025100096E00E944312D0918A05D13208F092C011
:102520000E9495086B017C0180915505811165C061
:1025300082E08093550581E0809354058FEF80936E
:10254000530510925205D0935105ACE5B5E0E1E397
:10255000F5E080E0D81385C01092300580913005F9
:10256000CC0FC82BC093300580912F05813009F026
:102570007CC010922F050E9495086B017C01809110
:1025800030058093BB008091570590915805A0912C
:102590005905B0915A05892B8A2B8B2B99F00E94F3
:1025A00095080091570510915805209159053091D3
:1025B0005A056C197D098E099F0906171707280708
:1025C0003907E0F18091BC0083FDD9CF85EC809381
:1025D000BC000E9495086B017C01809155058230FA
:1025E00009F445C0809153058F3F61F180915305F7
:1025F000803241F18091530525C08091570590911B
:102600005805A0915905B0915A05892B8A2B8B2B1F
:1026100009F48ACF0E94950800915705109158053A
:102620002091590530915A056C197D098E099F0931
:10263000061717072807390708F076CF8091560547
:102640000E94CB1110928B0510928A0510925B05A7
:10265000DF91CF911F910F91FF90EF90DF90CF907E
:1026600008959D9191938F5F75CF85EEB0CF809146
:10267000570590915805A0915905B0915A05892B9D
:102680008A2B8B2B09F4A9CF0E949508009157053E
:10269000109158052091590530915A056C197D0902
:1026A0008E099F09061717072807390708F095CFE5
:1026B000C5CF90E080E0089583E00E940208209159
:1026C0008E052817190641F480919B058F5F809332
:1026D0009B0581E08093900583E00E940208209191
:1026E00004012817190629F4809196058F5F8093BD
:1026F0009605089582E00E94020820918E05281711
:10270000190629F48091A6058F5F8093A60582E0C3
:102710000E940208209104012817190629F48091CB
:10272000A1058F5F8093A1050895CF92DF92EF926C
:10273000FF92CF930E94ED086B017C01C1E00E94E3
:10274000ED086C197D098E099F09683E734081056B
:10275000910538F480919B05833088F3C093C004C1
:10276000EECF8091A605833018F081E08093C104FC
:10277000CF91FF90EF90DF90CF9008950F931F932C
:10278000CF938C01C62F0E9472126C2F6460C80117
:102790000E9472126C2F6B7FC8010E94721283EC30
:1027A00090E00197F1F7CF911F910F9108950F934A
:1027B0001F93CF938C01C62F607F61600E94BE1370
:1027C00080E1C89FB00111246160C8010E94BE135E
:1027D00081E090E0CF911F910F910895CF93C82F82
:1027E000682F607F84EB96E00E94BE1380E1C89F53
:1027F000B001112484EB96E0CF910C94BE13CF93DB
:10280000DF93CDB7DEB728970FB6F894DEBF0FBEC3
:10281000CDBF98E0EFE0F1E0DE01119601900D925E
:102820009A95E1F79091BC06961710F46FEF690F37
:1028300070E0660F771F21E030E02C0F3D1F620F24
:10284000731FFB019081890F806828960FB6F8945A
:10285000DEBF0FBECDBFDF91CF910C94EE13E4EB42
:10286000F6E086818E7F868388600C94EE1381E08B
:102870000E94EE138BE39FE10197F1F70895CF9348
:10288000DF93EC018AE090E0998388839F838E83B5
:1028900088E290E00E94DA309D878C87892B11F4C2
:1028A00019821882CE01DF91CF910C94F809FB01B7
:1028B00001900020E9F73197AF01461B570BDC016F
:1028C000ED91FC910280F381E02D0994CF93DF9389
:1028D000BC0187EA95E00E949F06EC0161EA71E085
:1028E00087EA95E00E9457148C0F9D1FDF91CF91CE
:1028F00008958F929F92AF92BF92EF92FF920F93A3
:102900001F93CF93DF93CDB7DEB7A1970FB6F8949F
:10291000DEBF0FBECDBF7C01FA01CB0119A2223070
:1029200008F42AE08E010F5D1F4F822E912CB12CEE
:10293000A12CBF01A50194010E94552DF901CA01E6
:102940006A300CF5605DD8016E938D01232B242B2A
:10295000252B79F790E080E0109721F0BD01C701A9
:102960000E945714A1960FB6F894DEBF0FBECDBFDC
:10297000DF91CF911F910F91FF90EF90BF90AF909B
:102980009F908F900895695CDECFCF92DF92EF9297
:10299000FF920F931F93CF93DF936B01770FEE0896
:1029A000FF08F7FE1BC0EC016DE20E9498068C0147
:1029B00044275527BA014C195D096E097F092AE0A1
:1029C000CE010E947914800F911FDF91CF911F914A
:1029D0000F91FF90EF90DF90CF9008952AE0B7011C
:1029E000A601DF91CF911F910F91FF90EF90DF90A3
:1029F000CF900C9479144F925F926F927F928F9246
:102A00009F92AF92BF92CF92DF92EF92FF920F937D
:102A10001F93CF936B017C01742EAC019B010E942C
:102A2000812F68E971E0811126C046015701E894C1
:102A3000B7F82FEF3FEF4FE75FE7C501B4010E9402
:102A4000812F81110CC02FEF3FEF4FE75FE7C501EA
:102A5000B4010E94B22B64EA71E0181664F02FEF03
:102A60003FEF4FE75FE4C701B6010E942B2F181616
:102A7000ACF468EA71E084EB96E0CF911F910F917E
:102A8000FF90EF90DF90CF90BF90AF909F908F908E
:102A90007F906F905F904F900C9457142FEF3FEF03
:102AA0004FE75FECC701B6010E94B22B87FDE1CF73
:102AB00020E030E0A901C701B6010E94B22B10E06E
:102AC00000E087FF0AC06DE284EB96E00E94980662
:102AD0008C01F7FAF094F7F8F094C0E060E070E051
:102AE00080E09FE37C1641F020E030E040E251E4DA
:102AF0000E94F32DCF5FF6CFA70196010E94872D8C
:102B00002B013C010E94A82E4B015C012AE0BC0174
:102B1000A40184EB96E00E9479147C01E00EF11E82
:102B2000CC23D1F1C501B4010E94B72B9B01AC01AC
:102B3000C301B2010E94862D4B015C016EE284EB61
:102B400096E00E949806E80EF91EC15028F120E098
:102B500030E040E251E4C501B4010E94182C2B0181
:102B60003C010E94A82E4B01B12CA12C2AE0B501FA
:102B7000A40184EB96E00E947914E80EF91EC501C9
:102B8000B4010E94B72B9B01AC01C301B2010E94AA
:102B9000862D4B015C01D9CFC701CF911F910F91B9
:102BA000FF90EF90DF90CF90BF90AF909F908F906D
:102BB0007F906F905F904F9008950E942F1460E077
:102BC00081E10E94FF1364E072E084EB96E00E94D2
:102BD0009F068091C004811104C08091C1048823A4
:102BE00051F060E083E10E94FF1362E072E084EB49
:102BF00096E00E949F0661E080E00E94FF136FEE66
:102C000071E084EB96E00E949F0661E089E00E94FB
:102C1000FF136091BC047091BD048091BE0490913B
:102C2000BF0441E00E94FB1461E080E00E94FF13BA
:102C30006091B8047091B9048091BA049091BB047A
:102C400041E00E94FB1461E082E10E94FF136CEE00
:102C500071E084EB96E00E949F0662E080E00E94B3
:102C6000FF136CEA71E084EB96E00E94571462E077
:102C700089E00E94FF1386E596E00E94F00662E07C
:102C800082E10E94FF1369EE71E084EB96E00E94FE
:102C90009F0662E080E00E94FF1380E596E00E94BC
:102CA000F00663E080E00E94FF1366ED71E084EBC4
:102CB00096E00E949F0663E089E00E94FF132AE9E4
:102CC0003FE34CE156E46091B4047091B504809107
:102CD000B6049091B7040E94B22B18160CF45BC096
:102CE00062ED71E084EB96E00E949F066091B4046F
:102CF0007091B5048091B6049091B70441E00E94B0
:102D0000FB1463E080E00E94FF132AE93FE34CE1FB
:102D100056E46091B0047091B1048091B204909136
:102D2000B3040E94B22B1816ECF16AEC71E084EB4C
:102D300096E00E949F066091B0047091B10480916A
:102D4000B2049091B30441E00E94FB1463E082E17D
:102D50000E94FF1363EC71E084EB96E00E949F06F3
:102D60008091CA04882329F160E082E10E94FF1368
:102D700061EC71E084EB96E00E949F0660E082E1E6
:102D80000E94FF138091BA06982F91609093BA0623
:102D900089600C94EE136EEC71E084EB96E00E9477
:102DA0009F06AFCF66EC71E084EB96E00E949F0631
:102DB000CDCF08950F931F93CF93DF93EC018881BC
:102DC0009981009759F02A813B812617370730F007
:102DD00081E0DF91CF911F910F9108958B016F5F7B
:102DE0007F4F0E94FF31009759F0998388831B839E
:102DF0000A832C813D81232B59F7FC011082E8CFF7
:102E000080E0E7CFCF93DF93EC0188819981009731
:102E100011F00E947631198218821D821C821B8259
:102E20001A82DF91CF910895EF92FF920F931F9333
:102E3000CF93DF93EC01FB01E080F180E114F1041A
:102E400011F10481158101151105A9F08C819D8175
:102E5000080F191FB801CE010E94DA16882399F0D5
:102E6000288139818C819D81B701820F931F0E9437
:102E7000C5321D830C83CE01DF91CF911F910F913D
:102E8000FF90EF900895CE010E940217F4CFEF92C9
:102E9000FF920F931F93CF93DF93EC017B018A0185
:102EA000BA010E94DA1681110BC0CE010E940217EE
:102EB000CE01DF91CF911F910F91FF90EF90089578
:102EC0001D830C83B701888199810E94C532F0CFA0
:102ED000FB0101900020E9F73197AF01461B570B2A
:102EE0000C9447170F931F93CF93DF93CDB7DEB7A3
:102EF00062970FB6F894DEBF0FBECDBF8C01CB0139
:102F0000F8011182108213821282158214824AE023
:102F1000BE016F5F7F4F0E947D2BBE016F5F7F4FB1
:102F2000C8010E94681762960FB6F894DEBF0FBE04
:102F3000CDBFDF91CF911F910F910895CF93DF9374
:102F4000EC01FB018617970749F0608171816115DB
:102F5000710541F0448155810E944717CE01DF91F0
:102F6000CF9108950E940217F9CFFC0111821082BF
:102F70001382128215821482FB0101900020E9F76E
:102F80003197AF01461B570B0C944717FC0180810A
:102F90009181009711F00C9476310895FC0184859D
:102FA0009585009711F00C94763108954F925F92B9
:102FB0006F927F92AF92BF92CF92DF92EF92FF9289
:102FC0000F931F93CF93DF93FC0102811381023093
:102FD000110508F44FC0EC01B80190E080E00E94B8
:102FE000B72B9B01AC01688579858A859B850E94FA
:102FF000F32D2B013C01AC84BD84D0E0C0E0C12C9A
:10300000D12C7601F50161917191819191915F01CE
:10301000A30192010E94862D9B01AC010E94182CF5
:103020009B01AC01C701B6010E94872D6B017C0199
:10303000CE01019608171907D9F4BE0190E080E08F
:103040000E94B72B9B01AC01C701B6010E94F32D72
:10305000DF91CF911F910F91FF90EF90DF90CF9074
:10306000BF90AF907F906F905F904F900C94362FF1
:10307000EC01C8CF60E070E080EC9FE7DF91CF917A
:103080001F910F91FF90EF90DF90CF90BF90AF9086
:103090007F906F905F904F9008952F923F924F9244
:1030A0005F926F927F928F929F92AF92BF92CF92D8
:1030B000DF92EF92FF920F931F93CF93DF93CDB7E1
:1030C000DEB72F970FB6F894DEBF0FBECDBFFE015F
:1030D000B496619071908F01312C212CD3018C9189
:1030E000882309F4F1C3BFEF6B1A7B0A7101EFEF7C
:1030F000EE1AFE0A853209F0C6C0B12CA12C07C019
:103100008D3271F1803361F46894A0F83F01F301CE
:1031100081918B3241F1A4F7803241F1833249F140
:1031200090ED980F9A3040F51B821A82F30181913D
:1031300090ED980F9A3098F54AE02A813B81429FA2
:103140007001439FF00C112490E3E91AF108D701B4
:10315000A80FB11D87FDBA95BB83AA833F01E6CFB7
:103160006894A1F8D3CF6894A2F8D0CF6894A3F85C
:10317000CDCF6894A4F8CACF8A32D9F5C801029697
:10318000D801ED90FC90F7FE31C06894A1F8222799
:1031900033272E193F093B832A838C013F01D3013A
:1031A0008C918E3209F048C0C30101966894B2F840
:1031B00011962C9130ED320F3A30F0F4512C412C15
:1031C000FC01219130ED320F3A3098F5BAE0B49D10
:1031D0007001B59DF00C112430E3E31AF1082701CA
:1031E000420E511C27FD5A94CF01EACFFB82EA829E
:1031F000D4CF1B821A82D3CF2A32E9F4C8010296B7
:10320000D8014D905C9057FE02C0512C412CB2E089
:103210006B0E711C8C0193012F5F3F4FF301808176
:103220008C36A1F064F48836D9F18A3661F09301C6
:1032300012C03C01F0CF3C01512C412CECCF843723
:1032400011F08A37A1F76894B1F805C081818C36F6
:1032500009F16894B0F8D9018D913D01853609F4E2
:10326000EAC10CF0A4C0873409F4E5C114F5853433
:1032700009F4E1C10CF0C1C1853209F4FBC271014E
:10328000BFEFEB1AFB0A2FEF3FEFA101BE016F5F0B
:103290007F4FFBC2B3E0BB2A93012E5F3F4FDBCFD2
:1032A0008181883619F06894A7F8D5CFF0ECAF2A61
:1032B000F3CF823609F434C33CF46894A5F888351A
:1032C000F1F6F0E18F2E0DC0833609F4CBC18436C0
:1032D000B1F6E894A4F8AAE08A2E893621F0843663
:1032E00011F0B3EFAB22B2FE02C0E894A0F8950152
:1032F00022273270893619F0843609F023C1232B36
:1033000009F49CC0F8013896F987E887D801CC9079
:103310001196DC9011971296EC9012971396FC90F0
:10332000139714969C9014971596AC91F801F6811A
:10333000FC83F801F781FA879601A701692D7A2F9E
:103340008C819F2F0FE30E948430B22F092D1A2FFA
:10335000FC81EA859601A701B8018F2F9E2FA0E07E
:103360000E94B4303CF40E94723069017A018B01F2
:10337000F82FE92FBF92AF922B812F933A813F9381
:103380005F924F92AB2E2F2F3E2FA101BE016F5F98
:103390007F4F8DE791E10E943E031C010F900F903B
:1033A0000F900F900F900F900885198597CE8F364C
:1033B00009F4B3C29CF4873609F43DC10CF41DC175
:1033C000893609F486CF8E3609F059CFD801ED91B0
:1033D000FD918D01A6FE5DC2208280CE833709F467
:1033E00090C12CF5803709F04ACF65016894C0F888
:1033F000D4F8F8013296FB83EA83D8010D911C9131
:103400000115110509F015C246E0E42EF12C05E086
:1034100010E026EC31E0A101BE016F5F7F4F8DE728
:1034200091E10E94B4021C010A811B8157CE8537AD
:1034300009F44FCF883709F444CF21CFB0FE48C0FC
:10344000C801049699878887D801CD90DD90ED90CA
:10345000FC90D701C6018827B7FD83959927AA2735
:10346000BB278C879D87AE87BF87D701C601BB0F5F
:10347000880B982FDC018C839D83AE83BF83BC2D8A
:103480009D2CEA86FB860C81102FF02FE02F9601F1
:10349000A7016F2F702F802F9F2FA0E00E94B430C4
:1034A0004CF40E947230B22F932E4A875B878B01B7
:1034B000F82FE92FBF92AF929B819F93AA81AF9380
:1034C0005F924F92AC84CB2ED92CEA84FB845BCFE5
:1034D000F8013296F987E887D801A6FE30C0EC9152
:1034E0000E2E000CFF0BBF2FBB1FBB27BB1FBC83C7
:1034F0006F01EF2EEE0CEE08FE2C0E2D1E2D9E2CD5
:10350000BE2D9F014E2D5E2D6E2D7E2D8E2D9E2D5E
:10351000A0E00E94B4303CF40E94723069017A014C
:103520008B01982EB92FBF92AF92EB81EF93FA8166
:10353000FF935F924F92AC80292D3B2F26CFED91C8
:10354000FC91D1CF232B39F19801285F3F4F398768
:103550002887D801CC901196DC9011971296EC90A8
:1035600012971396FC90139714969C9114971596A6
:103570008C91159716962C91169717963C91BF92A1
:10358000AF92BB81BF93EA81EF935F924F92A12CE0
:10359000092F182FFACE9801B0FE19C02C5F3F4FAB
:1035A00039872887D8010D911D912D913C91BF92AB
:1035B000AF92BB81BF93EA81EF935F924F92A12CB0
:1035C0006801790100E010E020E030E0DECE2E5FFF
:1035D0003F4F39872887D8010D911C91A6FC1127F0
:1035E000BF92AF92BB81BF93EA81EF935F924F92FC
:1035F000A12C6801E12CF12CE5CF863411F46894FC
:10360000A5F898012C5F3F4F3D832C83D8010D9185
:103610001D912D913C91812CCA80DB807201A1010A
:10362000BE016F5F7F4F8DE791E10E9486101C0104
:103630000C811D8153CD982F9F7D973419F4689488
:10364000B3F88D7F853411F46894A5F8F8013496A9
:10365000FD83EC83D8010D911D912D913C9188241F
:103660008394DACF4501B2E08B229924A101CC24C6
:10367000C394D12CA1FC1AC0F12CE12CA1014E0D58
:103680005F1D6701E2E0CE0ED11CFFEFEF1AFF0ACB
:103690002A813B81E216F30648F42FEF3FEFBE018B
:1036A0006F5F7F4F80E20E947D11E8CF1A013FEFEC
:1036B000231A330A780182E0E80EF11C2FEF3FEF66
:1036C000BE016F5F7F4FD8018C910E947D118928C8
:1036D000B1F0EA81FB81CE16DF0688F481010F5F2D
:1036E0001F4F2FEF3FEFA101BE016F5F7F4F80E2C1
:1036F0000E947D11FFEFCF1ADF0A1801EACF870180
:10370000EDCC98012E5F3F4F39872887D8010D9166
:103710001C910115110589F46501EA80FB8006E022
:1037200010E02FEB31E0A101BE016F5F7F4F8DE70D
:1037300091E10E94B4021C0137CE92014114510460
:1037400011F42FEF3FEFF80190E080E0AF014F5F01
:103750005F4F6081662331F08217930719F001965D
:10376000FA01F4CFE01BF10B9501222734703D8361
:103770002C83B2FE04C04E165F0608F4F201450128
:1037800032E0832299247F01A101A1FC18C02E1AE6
:103790003F0AA1014E0F5F1F7F018FEFE81AF80A61
:1037A000AA81BB81EA17FB0750F42FEF3FEFBE0160
:1037B0006F5F7F4F80E20E947D11F701EACF6A01BF
:1037C000C01AD10AA601400F511FF80181918F0143
:1037D000882391F02C813D81232B31F092012150DF
:1037E0003109452849F029012FEF3FEFBE016F5FF6
:1037F0007F4F0E947D11E6CF1A01892809F4D4CDAC
:10380000E41AF50AC701820D931DAA81BB818A17AC
:103810009B0708F0C9CD81010F5F1F4F2FEF3FEFCE
:10382000A101BE016F5F7F4F80E20E947D111801F0
:10383000E9CFDF92CF921F92B6E0BF935F924F9293
:1038400030E1832EA12C6801E12CF12C00E010E086
:1038500020E030E0A101BE016F5F7F4F8DE791E175
:103860000E943E031C010F900F900F900F900F903D
:103870000F90DACD7101EFEFEE1AFE0A2FEF3FEF56
:10388000A101BE016F5F7F4F85E20E947D1117018C
:1038900025CCA7FE03C03182208220CCB0FE08C018
:1038A000C101B0E0A0E080839183A283B38316CCF2
:1038B000B1FEF1CF410120829182128213821482E3
:1038C0001582168217820ACCA101EFEF2E163E0652
:1038D00011F44EEF5FEF2FEF3FEFBE016F5F7F4FB1
:1038E00080E00E947D11C1012F960FB6F894DEBFD3
:1038F0000FBECDBFDF91CF911F910F91FF90EF9041
:10390000DF90CF90BF90AF909F908F907F906F90FF
:103910005F904F903F902F90089528E0822EE1CC49
:1039200092E0892EDECC8091C004882381F08091C2
:103930009B058250990B9F938F938CEC91E09F9302
:103940008F930E944D180F900F900F900F908091C1
:10395000C104882381F08091A6058250990B9F9322
:103960008F9385EF91E09F938F930E944D180F9056
:103970000F900F900F90409197055091980560918E
:10398000990570919A0580919D0590919E05A09151
:103990009F05B091A005481759076A077B0740F4B7
:1039A00080918F05811104C08AE291E00E94661423
:1039B00086EF90E00E9466148091BF048F938091FF
:1039C000BE048F938091BD048F938091BC048F932C
:1039D0008091BB048F938091BA048F938091B90436
:1039E0008F938091B8048F938DE192E09F938F9392
:1039F0000E944D188091C9048F938091C8048F93C1
:103A00008091C7048F938091C6048F938091C504E1
:103A10008F938091C4048F938091C3048F9380917E
:103A2000C2048F938BE492E09F938F930E944D1872
:103A3000809157068F93809156068F9380915106FF
:103A40008F93809150068F938DE792E09F938F9391
:103A50000E944D188DB79EB74A960FB6F8949EBF38
:103A60000FBE8DBF80918F05811127C08091B70453
:103A70008F938091B6048F938091B5048F9380913A
:103A8000B4048F938091B3048F938091B2048F9389
:103A90008091B1048F938091B0048F938BEA92E070
:103AA0009F938F930E944D188DB79EB70A960FB6BD
:103AB000F8949EBF0FBE8DBF089588ED92E09F934E
:103AC0008F930E944D180F900F90089585ED80936D
:103AD000BC008091570590915805A0915905B0916F
:103AE0005A050796A11DB11D23E0B695A795979598
:103AF00087952A95D1F72091BC0024FD03C0109230
:103B00005505089540915705509158056091590504
:103B100070915A05452B462B472B69F30097A10559
:103B2000B10541F02AE22A95F1F700C00197A109F9
:103B3000B109E1CF809156050C94CB110C94DE2C89
:103B4000CF930E942F140E94371460E080E00E94FF
:103B5000FF1365E573E084EB96E00E949F0663E047
:103B600080E00E94FF1360E473E084EB96E00E9423
:103B70009F068CE00E940208892BD9F368EC70E064
:103B800080E090E00E94BA088CE00E940208019751
:103B900009F058C082E00E94020820918E0561E081
:103BA0002817190609F042C089E00E94FF1367E355
:103BB00073E084EB96E00E949F0683E00E94020877
:103BC00020918E0561E028171906B1F580E00E946A
:103BD000FF1365E273E084EB96E00E949F0662E0CB
:103BE00080E00E94FF1380918E056AED72E08823C9
:103BF00011F06CEE72E084EB96E00E9457148BE0BB
:103C00000E940208892B09F0BFCF90918E0521E018
:103C1000922790938E05809104018227809304015E
:103C20008BE00E940208892BD9F3A8CF89E00E947B
:103C3000FF136EE273E0BDCF80E00E94FF136CE1E2
:103C400073E0C9CFC0918E058AE090E00E94D62C27
:103C5000C81729F06C2F8AE090E00E94DE2C8CE0DF
:103C60000E940208892BD9F368EC70E080E090E0B4
:103C70000E94BA08CF910C94DD150C94D62C4F926B
:103C80005F926F927F928F929F92AF92BF92EF92CC
:103C9000FF920F931F93CF93DF93CDB7DEB7689753
:103CA0000FB6F894DEBF0FBECDBF2B013C018A01D9
:103CB0006EEF72E0CE010D960E94B51769ED72E0CD
:103CC000CE0143960E94B517C301B2010E94762F20
:103CD0000E94A12E4B017B01072E000C880B990B33
:103CE0000E94B92B9B01AC01C301B2010E94862D39
:103CF0002B013C0120E030E0A9010E942B2F181677
:103D000024F077FA709477F8709420E030E040E087
:103D10005FE3C301B2010E942B2F87FD8CC020E01E
:103D200030E040E251E4C301B2010E94182C0E942D
:103D3000A12E6530710509F065C061E073E0CE0128
:103D400043960E9468171E141F040CF0A8C0B4010B
:103D5000CE0101960E94721718861F821A86198654
:103D60001C861B86BE016F5F7F4FCE0107960E94A7
:103D70009E17EB84FC848FEFE81AF80AB701CE0196
:103D800007960E94DA16882309F484C02F813885AB
:103D90008B859C856DEB71E0820F931F0E94C5326D
:103DA000FC86EB86BE016D5E7F4FCE0107960E94BA
:103DB0001417BC01C8010E949E17CE0107960E94ED
:103DC000C617CE0101960E94C617CE0143960E94E7
:103DD000C617CE010D960E94C61768960FB6F894C6
:103DE000DEBF0FBECDBFDF91CF911F910F91FF902E
:103DF000EF90BF90AF909F908F907F906F905F906B
:103E00004F9008956630710519F465E073E097CF1F
:103E10006730710519F469E073E091CF683071057E
:103E200019F46EE073E08BCF6930710509F08BCF28
:103E300062E173E084CFA301920160E070E080E86A
:103E40009FE30E94F32D20E030E040E05FE30E941A
:103E5000872D0E94A12ECE0107960E9472176EEF49
:103E600072E0CE0101960E94B517BE01695F7F4FD7
:103E7000CE0101960E941417BC01CE0143960E9408
:103E80009E17CE0101960E94C617CE0107960E948A
:103E9000C61759CFCE0107960E94021783CFBE01E5
:103EA0006D5E7F4FC8010E949E178FCFAF92BF9269
:103EB000CF92DF92EF92FF920F931F93CF93DF93F6
:103EC000CDB7DEB72C970FB6F894DEBF0FBECDBFCF
:103ED0000E942F1460E080E00E94FF1367E073E00F
:103EE00084EB96E00E949F0661E080E00E94FF1351
:103EF00064EF72E084EB96E00E949F0661E089E047
:103F00000E94FF138EE996E00E94220941E00E9480
:103F1000FB1461E080E00E94FF1388E896E00E94B5
:103F2000220941E00E94FB1461E082E10E94FF133C
:103F300061EF72E084EB96E00E949F0669ED72E00B
:103F4000CE0101960E94B51769ED72E0CE01079689
:103F50000E94B5178EE996E00E94220920E030E029
:103F60004AE754E40E94F32DAE014F5F5F4F0E9479
:103F70003F1E88E896E00E94220920E030E04AE7F0
:103F800054E40E94F32DAE01495F5F4F0E943F1E33
:103F900062E080E00E94FF136EED72E084EB96E039
:103FA0000E949F0662E089E00E94FF13CE01019605
:103FB0000E94F00662E080E00E94FF13CE010196AD
:103FC0000E94F00662E082E10E94FF136BED72E056
:103FD00084EB96E00E949F0663E080E00E94FF135E
:103FE00068EC72E084EB96E00E949F0663E089E053
:103FF0000E94FF1364EC72E084EB96E00E949F063F
:1040000082E796E00E94220941E00E94FB1463E0EF
:1040100080E00E94FF1360EC72E084EB96E00E9467
:104020009F068CE596E00E94220941E00E94FB1465
:1040300063E082E10E94FF136DEB72E084EB96E097
:104040000E949F0661EA71E087EA95E00E9457149A
:1040500089E892E00E94661410E000E087E1E82E13
:1040600083E0F82E8091A0069091A1060817190709
:1040700020F5B8018EE996E00E94FA08D62EC72EE8
:10408000B82EA92EB80188E896E00E94FA08AF92EF
:10409000BF92CF92DF929F938F937F936F931F93E3
:1040A0000F93FF92EF920E944D180F5F1F4F0FB6B4
:1040B000F894DEBF0FBECDBFD5CF85E592E00E945C
:1040C00066148BE00E940208892BD9F368EC70E03B
:1040D00080E090E00E94BA088BE00E9402080197FD
:1040E00099F58CE00E940208892BB1F782E392E0F7
:1040F0000E9466148EE996E00E94F80988E896E02E
:104100000E94F80982E796E00E94F8098CE596E0A3
:104110000E94F80960E080E00E94FF136DE172E008
:1041200084EB96E00E949F068CE00E940208892B97
:10413000D9F360E080E00E94FF1368E072E084EB56
:1041400096E00E949F06C2CF8BE00E940208892B56
:10415000D9F368EC70E080E090E00E94BA0860E07B
:1041600080E00E94FF1360E472E084EB96E00E941E
:104170009F060E94DD15CE0107960E94C617CE014C
:1041800001960E94C6172C960FB6F894DEBF0FBE9C
:10419000CDBFDF91CF911F910F91FF90EF90DF90F6
:1041A000CF90BF90AF900895CF92DF92EF92FF92A1
:1041B0000E94ED086B017C010E94ED086C197D09DD
:1041C0008E099F09643F71408105910540F582E0A9
:1041D0000E94020820918E0528171906B9F40E9442
:1041E000ED086B017C018CE00E940208892B31F400
:1041F0000E94A01D0E94ED086B017C018BE00E94D3
:104200000208892BC9F60E94561FD2CF83E00E9474
:10421000020820918E052817190629F7E0CF67E4D8
:1042200073E087EA95E00E94571461EA71E087EA3B
:1042300095E00E9457140E942F1460E081E10E94D3
:10424000FF1368E673E084EB96E00E949F0680917E
:10425000CA048823B9F060E082E10E94FF1366E699
:1042600073E084EB96E00E949F0660E082E10E948A
:10427000FF138091BA06982F91609093BA068960D7
:104280000E94EE131092A2051092A3051092A405AD
:104290001092A50510929D0510929E0510929F0503
:1042A0001092A0051092970510929805109299050A
:1042B00010929A051092920510929305109294050F
:1042C000109295051092C6041092C7041092C8046B
:1042D0001092C9041092C2041092C3041092C40434
:1042E0001092C50410929C051092910510928F05B2
:1042F0001092CA041092A60510929B051092A10577
:1043000010929605109290051092C1041092C0046C
:10431000FF90EF90DF90CF900895AF92BF92CF9231
:10432000DF92EF92FF920F931F93CF93DF93CDB75E
:10433000DEB72C970FB6F894DEBF0FBECDBF8DE869
:1043400091E00E9466148EE996E00E942209162FE1
:10435000072FF82EE92E88E896E00E942209EF92B6
:10436000FF920F931F939F938F937F936F930EE909
:1043700016E0F80183818F9382818F9381E593E02A
:104380009F938F930E944D1882E796E00E94220926
:10439000F62EE72ED82EC92E8CE596E00E94220933
:1043A000CF92DF92EF92FF929F938F937F936F93C1
:1043B00082E7C82E86E0D82EF60183818F93828112
:1043C0008F9380E893E09F938F930E944D1869ED3F
:1043D00072E0CE0101960E94B51769ED72E0CE0140
:1043E00007960E94B517C8010E94220920E030E01C
:1043F0004AE754E40E94F32DAE014F5F5F4F0E94E5
:104400003F1E88E896E00E94220920E030E04AE75B
:1044100054E40E94F32DAE01495F5F4F0E943F1E9E
:104420008A818F9389818F9388858F938F818F93D2
:10443000F60183818F9382818F9380EB93E09F932A
:104440008F930E944D180FB6F894DEBF0FBECDBFFC
:10445000F80181898F9380898F9387858F938685D3
:104460008F9398E8E92E96E0F92EF70181898F93D2
:1044700080898F9387858F9386858F93F8018381B9
:104480008F9382818F938FED93E09F938F930E9400
:104490004D18F80185898F9384898F9383898F9331
:1044A00082898F93F70185898F9384898F9383897C
:1044B0008F9382898F93F80183818F9382818F9369
:1044C0008EE094E09F938F930E944D18C8010E9444
:1044D000D617F62EE72EB82EA92E88E896E00E9471
:1044E000D617AF92BF92EF92FF929F938F937F93D5
:1044F0006F93F80183818F9382818F938EE394E091
:104500009F938F930E944D180FB6F894DEBF0FBE95
:10451000CDBF8CE596E00E94D6179F938F937F9333
:104520006F939F938F937F936F93F60183818F9304
:1045300082818F938EE694E09F938F930E944D1813
:1045400089E591E00E9466140E94DD15CE01079670
:104550000E94C617CE0101960E94C6170FB6F894A6
:10456000DEBF0FBECDBF2C960FB6F894DEBF0FBED8
:10457000CDBFDF91CF911F910F91FF90EF90DF9012
:10458000CF90BF90AF9008954F925F926F927F92BD
:104590008F929F92AF92BF92CF92DF92EF92FF9253
:1045A0001092BC041092BD041092BE041092BF047D
:1045B0001092B8041092B9041092BA041092BB047D
:1045C0001092B4041092B5041092B6041092B7047D
:1045D0001092B0041092B1041092B2041092B3047D
:1045E0006CE073E086E596E00E9468176CE073E08B
:1045F00080E596E00E946817C0909705D0909805D6
:10460000E0909905F0909A054091A2055091A3057C
:104610006091A4057091A50580918F05C416D506FB
:10462000E606F70608F0D7C18111D8C180919D0533
:1046300090919E05A0919F05B091A0058090920554
:1046400090909305A0909405B0909505C092A20516
:10465000D092A305E092A405F092A505409397059A
:10466000509398056093990570939A0580929D05E3
:1046700090929E05A0929F05B092A005809392050E
:1046800090939305A0939405B0939505C0909705DA
:10469000D0909805E0909905F0909A058091A20538
:1046A0009091A305A091A405B091A505C81AD90AB7
:1046B000EA0AFB0A8090920590909305A0909405D9
:1046C000B090950580919D0590919E05A0919F05C4
:1046D000B091A005881A990AAA0ABB0AC701B601B7
:1046E0000E94B72B20E030E04AE754E40E94F32D0B
:1046F0002B013C014092B4045092B5046092B60480
:104700007092B704C501B4010E94B72B20E030E0DD
:104710004AE754E40E94F32D6093B0047093B1040F
:104720008093B2049093B30420E030E04AE754E46D
:10473000C301B2010E942B2F18160CF453C1C701FC
:10474000B60120E230E040E050E00E94EC2C69012C
:104750007A0120E030E04AE754E46091B0047091BF
:10476000B1048091B2049091B3040E942B2F1816CB
:1047700054F488EC90E00E94661481E08093CA04AF
:10478000C12CD12C76016091920570919305809196
:104790009405909195058090970590909805A0902C
:1047A0009905B0909A05681979098A099B096C19CD
:1047B0007D098E099F090E94B92B4B015C0120E005
:1047C00030E04AE754E40E94F32D6093B8047093FC
:1047D000B9048093BA049093BB0420E034E244E728
:1047E00059E4C501B4010E94F32D6093C204709393
:1047F000C3048093C4049093C50440E556E00E942E
:104800003F1E60919D0570919E0580919F0590913E
:10481000A0058090A2059090A305A090A405B0905B
:10482000A505681979098A099B096C197D098E0902
:104830009F090E94B92B6B017C0120E030E04AE720
:1048400054E40E94F32D6093BC047093BD048093E4
:10485000BE049093BF0420E034E244E759E4C7016A
:10486000B6010E94F32D6093C6047093C704809331
:10487000C8049093C90446E556E00E943F1E20E01C
:1048800030E44CE157E46091BC047091BD04809128
:10489000BE049091BF040E942B2F18163CF481EBAC
:1048A00090E00E94661481E08093CA0420E030E426
:1048B0004CE157E46091B8047091B9048091BA0456
:1048C0009091BB040E942B2F18163CF48AE990E0CB
:1048D0000E94661481E08093CA042DEC3CEC4CEC01
:1048E0005DE36091BC047091BD048091BE04909121
:1048F000BF040E94B22B87FF07C081E890E00E94AE
:10490000661481E08093CA042DEC3CEC4CEC5DE332
:104910006091B8047091B9048091BA049091BB047D
:104920000E94B22B87FF0BC080918F05811107C0B9
:1049300088E690E00E94661481E08093CA0480912A
:10494000CA0481115AC04091BC045091BD046091C9
:10495000BE047091BF048EE996E00E9475098091B3
:104960008F05811124C04091B8045091B904609121
:10497000BA047091BB0488E896E00E9475094091E2
:10498000B4045091B5046091B6047091B70482E705
:1049900096E00E9475094091B0045091B104609175
:1049A000B2047091B3048CE596E00E9475098EE91B
:1049B00096E00E94220988E896E0FF90EF90DF9051
:1049C000CF90BF90AF909F908F907F906F905F90AF
:1049D0004F900C942209882309F458CEC12CD12C75
:1049E00076010FCF8FED90E00E94661481E08093F6
:1049F000CA04C12CD12C7601ACCEFF90EF90DF9091
:104A0000CF90BF90AF909F908F907F906F905F906E
:104A10004F9008951F920F920FB60F9211242F936B
:104A20003F934F935F936F937F938F939F93AF9336
:104A3000BF93EF93FF9387EA95E00E944A07FF91A7
:104A4000EF91BF91AF919F918F917F916F915F9106
:104A50004F913F912F910F900FBE0F901F9018957F
:104A60001F920F920FB60F9211242F938F939F9343
:104A7000EF93FF93E091B705F091B8058081E09145
:104A8000BD05F091BE0582FD1BC090818091C005DF
:104A90008F5F8F732091C105821741F0E091C005AF
:104AA000F0E0E955FA4F958F8093C005FF91EF91A3
:104AB0009F918F912F910F900FBE0F901F9018957F
:104AC0008081F4CF1F920F920FB60F9211242F9373
:104AD0003F938F939F93AF93BF9380917E05909167
:104AE0007F05A0918005B091810530917D0523E07F
:104AF000230F2D3758F50196A11DB11D20937D057B
:104B000080937E0590937F05A0938005B0938105E7
:104B10008091820590918305A0918405B0918505CF
:104B20000196A11DB11D8093820590938305A093EA
:104B30008405B0938505BF91AF919F918F913F916F
:104B40002F910F900FBE0F901F90189526E8230FFE
:104B50000296A11DB11DD2CF1F920F920FB60F92D8
:104B600011242F933F934F935F936F937F938F9372
:104B70009F93AF93BF93EF93FF93E0910201F09166
:104B800003010995FF91EF91BF91AF919F918F9193
:104B90007F916F915F914F913F912F910F900FBE39
:104BA0000F901F9018951F920F920FB60F9211241D
:104BB0002F933F934F935F936F937F938F939F9325
:104BC000AF93BF93EF93FF93E0910001F091010148
:104BD0000995FF91EF91BF91AF919F918F917F9137
:104BE0006F915F914F913F912F910F900FBE0F905A
:104BF0001F9018951F920F920FB60F9211242F93AA
:104C00003F934F935F936F937F938F939F93AF9354
:104C1000BF93EF93FF938091B900887F803609F4AA
:104C20004AC0F0F5883209F4A7C018F5803109F4BC
:104C30009BC0B8F4882309F4F9C0883009F494C003
:104C4000FF91EF91BF91AF919F918F917F916F9164
:104C50005F914F913F912F910F900FBE0F901F903A
:104C60001895883109F488C0803251F78093530534
:104C700014C0803409F49DC040F48033B9F3883304
:104C8000F9F68093530585ECB0C0803509F485C0F2
:104C9000883509F496C0883499F60E94661DD0CFF5
:104CA000883909F48CC038F5883729F050F48836F3
:104CB00011F0803729F683E08093550510922E0578
:104CC00057C0883809F47BC0803919F0803809F062
:104CD000B7CF80912E05803208F071C0E0912E058B
:104CE00081E08E0F80932E058091BB00F0E0E25FA3
:104CF000FA4F80833DC0803B39F0E0F4803A09F4FC
:104D000079C0883A09F09CCF84E0809355051092D1
:104D10000D0510920C05E0918805F0918905099523
:104D200080910C0581110FC081E080930C051092D9
:104D3000EC0409C0803C09F4A6CF883C09F4A3CF59
:104D4000883B09F07DCFE0910D0581E08E0F8093C7
:104D50000D05F0E0E451FB4F80818093BB00909102
:104D60000D0580910C0529C0809130058093BB0012
:104D700085EC8093BC0064CF9091520580915105E1
:104D8000981758F5E091520581E08E0F80935205F7
:104D9000F0E0EF5CFA4F8081E9CFE091520581E0CD
:104DA0008E0F809352058091BB00F0E0EF5CFA4FCC
:104DB000808390915205809151059817C8F285E83B
:104DC000D8CFE091520581E08E0F809352058091FB
:104DD000BB00F0E0EF5CFA4F8083809154058111B5
:104DE0005CCF81E080932F0584EA8093BC00109211
:104DF000550526CF85EC8093BC0010925505809117
:104E00002E05803230F4E0912E05F0E0E25FFA4F9B
:104E1000108260912E0570E0E0918605F091870583
:104E20008EE095E0099510922E050ACF1092530559
:104E300034CFE7EAF5E01382128288EE93E0A0E037
:104E4000B0E084839583A683B78323E631E0318382
:104E5000208325EC30E03587248724EC30E0378749
:104E6000268720EC30E0318B208B21EC30E0338B37
:104E7000228B22EC30E0358B248B26EC30E0378B14
:104E8000268B118E128E138E148EE4E4F6E01382BC
:104E9000128284839583A683B78385E791E091830B
:104EA0008083E4EBF6E01382128287E891E091833D
:104EB000808387E2848384E1818784E0828713860C
:104EC0008EE996E00E943F1488E896E00E943F1425
:104ED00082E796E00E943F148CE596E00E943F1422
:104EE0006CE073E086E596E00E94B5176CE073E035
:104EF00080E596E00C94B517789484B5826084BD03
:104F000084B5816084BD85B5826085BD85B58160CD
:104F100085BD80916E00816080936E00109281004B
:104F20008091810082608093810080918100816006
:104F300080938100809180008160809380008091C7
:104F4000B10084608093B1008091B0008160809353
:104F5000B00080917A00846080937A0080917A001A
:104F6000826080937A0080917A00816080937A00D9
:104F700080917A00806880937A001092C10060E08E
:104F800082E00E94590860E083E00E94590862E0D4
:104F90008CE00E94590862E08BE00E9459088AE781
:104FA00093E19093010180930001809169008C7FCF
:104FB000816080936900E89A8CE593E19093030106
:104FC0008093020180916900837F846080936900EF
:104FD000E99A8AE090E00E943D1E823028F060E06D
:104FE0008AE090E00E949E1D8AE090E00E943D1EB3
:104FF00091E0811101C090E090938E0591E08111C4
:1050000090E090930401E091B705F091B80582E03B
:105010008083E091B305F091B4051082E091B5056D
:10502000F091B60580E180831092BF05E091BB0549
:10503000F091BC0586E08083E091B905F091BA0556
:10504000808180618083E091B905F091BA0580810B
:1050500088608083E091B905F091BA05808180680D
:105060008083E091B905F091BA0580818F7D8083BE
:1050700089EF94E00E94661487E894E00E94661429
:1050800086E794E00E9466148AE694E00E94661423
:1050900010928D0510928C0510928B0510928A0546
:1050A0000E94AD1186E996E090938905809388056A
:1050B00087E996E090938705809386051092B9065C
:1050C0008091BE06823018F098E09093B9068093E4
:1050D000BC0662E370E080E090E00E94BA08609154
:1050E000BF0684EB96E00E94721268EE73E080E0E7
:1050F00090E00E94BA0860E384EB96E00E94BE1341
:10510000CBE4D6E4CE010197F1F760E384EB96E0BF
:105110000E94BE132197F1F760E384EB96E00E94B2
:10512000BE1383E592E00197F1F760E284EB96E02D
:105130000E94BE138091B90680620E94EE1384E043
:105140008093BA068CE00E94EE130E94371482E02E
:105150008093BB0686E00E94EE1382E00E94EE136D
:105160008BE39FE10197F1F788E08093BF0660E051
:1051700084EB96E00E9472120E94371484E090E063
:105180000E943D1E843009F406C186E090E00E9432
:105190003D1E8F3F09F058C080E480937C008091D1
:1051A0007A00806480937A0080917A0086FDFCCF3B
:1051B0006091780070917900072E000C880B990B94
:1051C000611571058105910511F00E94742B0E94F3
:1051D000252B23EFC22ED12CE12CF12CA701960117
:1051E0000E94EC2C655F7F4F8F4F9F4F86E090E0D1
:1051F0000E949E1D0E94252BA70196010E94EC2C67
:10520000655F7F4F8F4F9F4F87E090E00E949E1D0C
:105210000E94252BA70196010E94EC2C655F7F4F11
:105220008F4F9F4F88E090E00E949E1D0E94252B8B
:10523000A70196010E94EC2C655F7F4F8F4F9F4F17
:1052400089E090E00E949E1D86E090E00E943D1E55
:10525000E82EF12C1F928F938FE994E09F938F9308
:105260000E944D1860E080E00E94FF138BE090E008
:105270000E943D1E0F900F900F900F908823B9F061
:1052800062E174E084EB96E00E949F068BE090E080
:105290000E943D1E20E137E2829FB001839F700D86
:1052A0001124072E000C880B990B0E94BA0865E0A8
:1052B00074E084EB96E00E949F0660E08CE00E9420
:1052C000FF13B70184EB96E00E94C51462E080E012
:1052D0000E94FF136AEF73E084EB96E00E949F0642
:1052E00063E080E00E94FF1365EE73E084EB96E0DC
:1052F0000E949F06C7016AE070E00E94CE2FE60E72
:10530000F71ED0E0C0E08CE00E9402080197B1F5E2
:105310008BE00E940208892BB1F72196CF3027E25B
:10532000D20711F4D0E0C0E02AE0AE010D2E000C4F
:10533000660B770B87EA95E00E94791461EA71E0C9
:1053400087EA95E00E94571462E089E00E94FF130B
:105350006BED73E084EB96E00E949F0662E089E0CB
:105360000E94FF13BE0184EB96E00E94C51464E620
:1053700070E080E090E00E94BA08C5CFEC16FD0610
:1053800009F0C3C064E084E090E00E949E1D81EDBE
:1053900093E00E9466140E94371460E080E00E944F
:1053A000FF1368E574E084EB96E00E949F0662E0DC
:1053B00082E00E94FF1367E474E084EB96E00E94B1
:1053C0009F0663E083E00E94FF136BE374E084EBCD
:1053D00096E00E949F0668EB7BE080E090E00E94F0
:1053E000BA080E94371460E080E00E94FF1366E272
:1053F00074E084EB96E00E949F060E94DD150E94F7
:10540000D420C0E0D0E011E08091A605813079F48D
:105410000E9495086093A2057093A3058093A4054C
:105420009093A5058091A6058F5F8093A6050091B6
:10543000A105013089F40E94950860939D05709341
:105440009E0580939F059093A0058091A1058F5F95
:105450008093A10500939C0580919B05813079F490
:105460000E9495086093970570939805809399051D
:1054700090939A0580919B058F5F80939B05009187
:105480009605013089F40E94950860939205709307
:1054900093058093940590939505809196058F5F71
:1054A00080939605009391058CE00E940208892B59
:1054B00021F40E94A01D0E94D4208BE00E940208CB
:1054C000892B21F40E94561F0E94D42080919C05B4
:1054D000882381F0809191058823C1F10E94951362
:1054E0000E94C4220E94931C0E948D210E94DD15FF
:1054F0000E94D420209709F487CF0E943607882382
:1055000009F482CF0E9400007FCF8AEC93E00E94D2
:10551000661462E089E00E94FF1364EC73E084EBA0
:1055200096E00E949F068BE090E00E943D1E61E0A5
:10553000680F8BE090E00E949E1D68E873E180E0B8
:1055400090E00E94BA080C94000025CF809190054D
:105550008111D0CF0E949508C0909D05D0909E05E6
:10556000E0909F05F090A0056C197D098E099F09B8
:10557000603472448F40910508F4BCCF10938F05BE
:10558000ADCF80E596E00E94C61786E596E00E94C2
:10559000C6178CE596E00E94CE1782E796E00E943F
:1055A000CE1788E896E00E94CE178EE996E00C941C
:1055B000CE178F929F92AF92BF92CF92DF92EF92CF
:1055C000FF92CF93DF93EC01688179818A819B817F
:1055D000611571058105910521F464E279ED8BE592
:1055E00097E02DE133EF41E050E00E94EC2C4901BF
:1055F0005A019B01AC01A7EAB1E40E940B2D6B019B
:105600007C01ACEEB4EFA50194010E94192DC60EE9
:10561000D71EE81EF91EF7FE06C081E0C81AD108A1
:10562000E10880E8F80AC882D982EA82FB82C701D1
:10563000B6019F77DF91CF91FF90EF90DF90CF90F1
:10564000BF90AF909F908F9008958F929F92AF924E
:10565000BF92CF92DF92EF92FF926091050170911D
:10566000060180910701909108016115710581057E
:10567000910521F464E279ED8BE597E02DE133EFBC
:1056800041E050E00E94EC2C49015A019B01AC0121
:10569000A7EAB1E40E940B2D6B017C01ACEEB4EFE4
:1056A000A50194010E94192DC60ED71EE81EF91EF1
:1056B000F7FE06C081E0C81AD108E10880E8F80AC0
:1056C000C0920501D0920601E0920701F092080114
:1056D000C701B6019F77FF90EF90DF90CF90BF900A
:1056E000AF909F908F90089560930501709306018D
:1056F00080930701909308010895BB274A3031F445
:10570000992322F4BDE2909581959F4F0C94892BAB
:10571000BB27FB015527AA27880F991FAA1FA4178B
:1057200010F0A41B83955051B9F7A05DAA3308F07F
:10573000A95DA193009779F7B111B1931192CB01B3
:105740000C94A22BDC01FC01672F71917723E1F708
:10575000329704C07C916D9370836291AE17BF073E
:10576000C8F308950E94F42B08F481E00895E894AA
:1057700009C097FB3EF490958095709561957F4F99
:105780008F4F9F4F9923A9F0F92F96E9BB27939547
:10579000F695879577956795B795F111F8CFFAF457
:1057A000BB0F11F460FF1BC06F5F7F4F8F4F9F4F88
:1057B00016C0882311F096E911C0772321F09EE8E6
:1057C000872F762F05C0662371F096E8862F70E04C
:1057D00060E02AF09A95660F771F881FDAF7880F26
:1057E0009695879597F90895990F0008550FAA0B7C
:1057F000E0E8FEEF16161706E807F907C0F01216E4
:105800001306E407F50798F0621B730B840B950BE6
:1058100039F40A2661F0232B242B252B21F408953B
:105820000A2609F4A140A6958FEF811D811D0895D8
:105830000E942B2C0C949C2C0E948E2C38F00E94E1
:10584000952C20F0952311F00C94852C0C948B2C26
:1058500011240C94D02C0E94AD2C70F3959FC1F3B1
:10586000950F50E0551F629FF001729FBB27F00D0E
:10587000B11D639FAA27F00DB11DAA1F649F662763
:10588000B00DA11D661F829F2227B00DA11D621FB2
:10589000739FB00DA11D621F839FA00D611D221F6C
:1058A000749F3327A00D611D231F849F600D211D50
:1058B000822F762F6A2F11249F5750409AF0F1F0D3
:1058C00088234AF0EE0FFF1FBB1F661F771F881F3C
:1058D00091505040A9F79E3F510580F00C94852CC3
:1058E0000C94D02C5F3FE4F3983ED4F386957795E3
:1058F0006795B795F795E7959F5FC1F7FE2B880FE2
:10590000911D9695879597F9089597F99F6780E877
:1059100070E060E008959FEF80EC089500240A9401
:105920001616170618060906089500240A9412167A
:105930001306140605060895092E0394000C11F4AD
:10594000882352F0BB0F40F4BF2B11F460FF04C05A
:105950006F5F7F4F8F4F9F4F089557FD9058440FB3
:10596000551F59F05F3F71F04795880F97FB991FBE
:1059700061F09F3F79F0879508951216130614067B
:10598000551FF2CF4695F1DF08C016161706180608
:10599000991FF1CF86957105610508940895E894E3
:1059A000BB2766277727CB0197F90895F999FECF92
:1059B00092BD81BDF89A992780B50895262FF9994F
:1059C000FECF1FBA92BD81BD20BD0FB6F894FA9AE2
:1059D000F99A0FBE01960895052E97FB1EF40094C8
:1059E0000E94032D57FD07D00E94552D07FC03D0C0
:1059F0004EF40C94032D50954095309521953F4FD2
:105A00004F4F5F4F089590958095709561957F4FAA
:105A10008F4F9F4F08950E94772DA59F900DB49FA3
:105A2000900DA49F800D911D11240895B7FF0C9433
:105A30000B2D0E940B2D821B930B08952F923F92EA
:105A40004F925F926F927F928F929F92AF92BF928E
:105A5000CF92DF92EF92FF920F931F93CF93DF933A
:105A6000CDB7DEB7CA1BDB0B0FB6F894DEBF0FBE97
:105A7000CDBF09942A88398848885F846E847D84E4
:105A80008C849B84AA84B984C884DF80EE80FD80E6
:105A90000C811B81AA81B981CE0FD11D0FB6F8945C
:105AA000DEBF0FBECDBFED010895A1E21A2EAA1BE5
:105AB000BB1BFD010DC0AA1FBB1FEE1FFF1FA217BE
:105AC000B307E407F50720F0A21BB30BE40BF50BBB
:105AD000661F771F881F991F1A9469F76095709544
