:100000000C9497020C9486250C945F250C94BF02E7
:100010000C94BF020C94BF020C94BF020C94BF025C
:100020000C94BF020C94BF020C94BF020C94BF024C
:100030000C94BF020C94BF020C94BF020C94BF023C
:100040000C9415250C94BF020C94D3250C94AD256B
:100050000C94BF020C94BF020C94BF020C94BF021C
:100060000C9405260C94BF024572726F72202D20ED
:1000700053656E736F72203220466C69636B6572D4
:10008000004572726F72202D2053656E736F72205F
:100090003120466C69636B6572004572726F722025
:1000A0002D2053656E736F722032203E20343073E2
:1000B000004572726F72202D2053656E736F72202F
:1000C00031203E2034307300204572726F72202D33
:1000D0002053687574746572322044726167002021
:1000E0004572726F72202D20536875747465723179
:1000F00020447261670020504152414D45544552A1
:1001000020202020202020202020202020202020EF
:100110002053656E736F7232202020202020202013
:10012000202053656E736F723100204375727461C5
:10013000696E732066756C6C79206F70656E20280F
:100140006265747765656E207468652074776F20CA
:1001500053656E736F72732900203D3D3D3D3D3DFB
:100160003D3D3D3D3D3D3D3D3D3D3D3D3D3D3D3DBF
:100170003D3D3D3D3D3D3D3D3D3D3D3D3D3D3D3DAF
:100180003D3D3D3D3D3D3D3D3D3D3D3D00204156DC
:100190004552414745532020202020202020202068
:1001A000202020202020202053656E736F72322083
:1001B00020202020202020202053656E736F723174
:1001C0000045006D530045727200433220004572B5
:1001D00072004331200020202020202020202020D9
:1001E0002020202020202020002053006D530020BC
:1001F00020202020202020202020202020202020FF
:100200002000420020202000417665726765322080
:100210002041766572616765312020200020202012
:100220005265736574204176657261676520202090
:1002300020005265736574204176657261676500C0
:1002400053656E736F7232202053656E736F723117
:100250002020202000202D2D2D2D2D2D2D2D2D2D3C
:100260002D2D2D2D2D2D2D2D2D2D2D2D2D2D2D2DBE
:100270002D2D2D2D2D2D2D2D2D2D2D2D2D2D2D2DAE
:100280002D2D2D2D2D2D2D2D002053687574746569
:1002900072205370656564202020202020202020BB
:1002A0002020202053656E736F7232202020202082
:1002B000202020202053656E736F7231006D530033
:1002C0004332200043312000202020202020202005
:1002D000202020202020202020200020530020202B
:1002E000202020202020202020202020202020200E
:1002F000006D5300202020202020202020202020BE
:100300002020202020200041766572676532202061
:10031000417665726167653120202000426C6F6311
:100320006B656420002A5365656E2A202000426CAC
:100330006F636B656420002A5365656E2A20200078
:100340002052657475726E20202020202043686141
:100350006E6765200053656E736F7232202053659F
:100360006E736F7231004500520057524F4E470076
:1003700057726F6E672100434F525245435400201D
:10038000436F72726563742100202020202020209A
:1003900020200020456E746572202020202020201F
:1003A0004368616E67652000506173734B65793AED
:1003B000203000204175746820436F6465203A0046
:1003C0002020202121212020574149542021212172
:1003D0002020200053656E736F7232202053656EAB
:1003E000736F723120202020002020205368757404
:1003F00074657220546573746572003134204A75D7
:100400006C20323032360076657273696F6E20561A
:10041000322E302E302E3600202020536875747412
:10042000657220546573746572003134204A756CAE
:1004300020323032360076657273696F6E20563224
:100440002E302E302E360068747470733A2F2F774A
:1004500077772E70686F7472696F2E636F6D2F6679
:100460006F72756D2F746872656164732F62756940
:100470006C642D612D736875747465722D74657369
:100480007465722D666F722D666F63616C2D706C72
:10049000616E652D73687574746572732D6368651C
:1004A00061702D656173792D69742D776F726B732F
:1004B0002E3139373735362F0043616D6572612033
:1004C00053687574746572205465737465720000A6
:1004D000000000240027002A00000000002500285A
:1004E000002B000000000023002600290004040463
:1004F00004040404040202020202020303030303CD
:1005000003010204081020408001020408102001A9
:10051000020408102000000008000201000003048B
:100520000700000000000000000024272F2B1124EA
:100530001FBECFEFD8E0DEBFCDBF14E0A0E0B1E03A
:10054000EEE8F6E602C005900D92A03BB107D9F7A0
:1005500026E0A0EBB4E001C01D92A43CB207E1F795
:1005600012E0C6E9D2E004C02197FE010E944231A8
:10057000C539D107C9F70E9487270C943A330C94E8
:1005800000002F923F924F925F926F927F928F92D4
:100590009F92AF92BF92CF92DF92EF92FF920F9312
:1005A0001F93CF93DF9300D000D0CDB7DEB71C01EF
:1005B0004B015A01390127019601227033273A83F2
:1005C000298333E0C322DD245C834B83CD2851F49F
:1005D0006801C41AD50A8B819C818C0D9D1D8415E0
:1005E0009505B0F07301E00EF11E4B815C81E614BD
:1005F000F704F1F06A01FFEFCF1ADF0A2FEF3FEFA8
:10060000B401F70182917F01F1010995A601EFCFB5
:10061000EB80FC808FEFE81AF80A2FEF3FEF4B8159
:100620005C81B40180E2F1010995FC82EB82D3CFB9
:100630008B819C81800F911F29813A81232BA1F00E
:100640009C012A193B092415350570F4FC013196EB
:10065000FA83E9832FEF3FEFAC01B40180E2F101AF
:10066000099589819A81ECCF0F900F900F900F9090
:10067000DF91CF911F910F91FF90EF90DF90CF907E
:10068000BF90AF909F908F907F906F905F904F90B2
:100690003F902F9008952F923F924F925F926F92CA
:1006A0007F928F929F92AF92BF92CF92DF92EF9202
:1006B000FF920F931F93CF93DF93CDB7DEB7AF9722
:1006C0000FB6F894DEBF0FBECDBF9AA789A77CA74F
:1006D0006BA75EA74DA7CAA2DBA2ECA25F2C402E9F
:1006E0001DA3322E232EA8A689A22A968EAC9FACDB
:1006F0002A9796014E2D5F2D602F712F832D922DFD
:10070000A0E00E94223109F04CC092FC42C080E37C
:100710008983E89484F866246394712C81FC92C0E8
:10072000C4018170992728962EAD3FAD2897232BC1
:10073000A9F0009709F486C038A5311105C09401CD
:100740002C703327232B51F028964EAD5FAD2897A0
:100750004150510928965FAF4EAF2897E1E0F0E095
:10076000EC0FFD1FE60DF71D830120E3009709F450
:100770006AC028964EAD5FAD28970417150708F09C
:1007800062C00032110509F45EC00F5F1F4F219354
:10079000EDCF29A1203111F4E89484F8712C612C5B
:1007A000BDCF81E485FE81E6AE014F5F5F4F5FA361
:1007B0004EA3712C612C8A508FA7A9A0B12CC12CFB
:1007C000D12CE12CF12C00E010E02AA13BA14CA19E
:1007D000552D642D7DA1832D922D0E9481302A30CC
:1007E00074F5205D8FEF681A780AEEA1FFA12193BE
:1007F000FFA3EEA3A9A0B12CC12CD12CE12CF12C8C
:1008000000E010E02AA13BA14CA1552D642D7DA153
:10081000832D922D0E9483302AA33BA34CA3552EF7
:10082000462E7DA3382E292EA0E00E94223109F405
:1008300075CFF0E26F16710409F0BFCF6FCF5FA5DF
:10084000250FD0CF8301E1E0F0E0EC0FFD1FE00FBA
:10085000F11F80E326962EAD3FAD269702171307B2
:1008600038F40032110520F40F5F1F4F8193F2CF4F
:1008700039A1383029F46016710610F4E89484F830
:10088000C40180719071892B09F447C092FC25C086
:100890000115110511F126964EAD5FAD2697401753
:1008A000510739F028968EAD9FAD28970817190784
:1008B000A1F46016710608F099C0C801019759F0BB
:1008C000E9A1E03109F06EC00250110968167906FD
:1008D00040F08C0106C010E000E0F9A1F03109F011
:1008E00062C085FC54C00032110540F5E1E0F0E043
:1008F000EC0FFD1FE00FF11F88E780830F5F1F4F94
:1009000000321105D8F4E1E0F0E0EC0FFD1FE00F3C
:10091000F11F80E380830F5F1F4F0032110570F4D9
:1009200038A5332309F44EC0E1E0F0E0EC0FFD1FE1
:10093000E00FF11F8DE280830F5F1F4F6401289647
:10094000EEACFFAC28979E012F5F3F4F4DA55EA5F3
:100950006BA57CA589A59AA50E94C102AF960FB68A
:10096000F894DEBF0FBECDBFDF91CF911F910F91E5
:10097000FF90EF90DF90CF90BF90AF909F908F90BF
:100980007F906F905F904F903F902F90089500322E
:100990001105A0F6E1E0F0E0EC0FFD1FE00FF11F04
:1009A00088E5ABCF8C0129A1223009F0A9CF003214
:1009B000110520F6E1E0F0E0EC0FFD1FE00FF11F64
:1009C00082E69BCF82FE08C0E1E0F0E0EC0FFD1F65
:1009D000E00FF11F8BE2AFCF83FEB0CFE1E0F0E09C
:1009E000EC0FFD1FE00FF11F80E2A5CF49A14031C0
:1009F000D1F677CF2F923F924F925F926F927F9274
:100A00008F929F92AF92BF92CF92DF92EF92FF921E
:100A10000F931F93CF93DF93CDB7DEB76E970FB6CB
:100A2000F894DEBF0FBECDBF09871A872B873C879E
:100A30004D875E876F87788B23964EAC5FAC23978C
:100A40008C8A9D8AAE8ABF8AC88ED98EEA8EFB8E2A
:100A50008C8F29AD3AAD232B09F49EC00A8B1B8BDA
:100A60006B847C844A011B01EDADFEADF3FF3EC0FB
:100A7000E4FD3CC0202F312FA301B401C101A0E04F
:100A80000E94223109F00CF49AC02AE0A22EB12C67
:100A9000C12CD12CE12CF12C00E010E02A893B89FB
:100AA000A301B401C1010E945030A0E00E94223194
:100AB00099F429AD3AAD215031093AAF29AF2A89CD
:100AC0003B89A301B401C1010E9452302A8B3B8BA8
:100AD0003A014B011C01D9CF2A893B89A301B401FA
:100AE000C101A0E00E94223109F469C021968EADB7
:100AF0009FAD2197840D951D9E8F8D8F90E2491695
:100B0000510408F096C0E9ADFAAD3197FAAFE9AFFC
:100B1000FFEF4F1A5F0A9AE0A92EB12CC12CD12CFD
:100B2000E12CF12C00E010E02A893B89A301B401FB
:100B3000C1010E945030205DED8DFE8D2193FE8F0E
:100B4000ED8F2A893B89A301B401C1010E94523073
:100B50002A8B3B8B3A014B011C01A0E00E94223101
:100B600069F62196EEADFFAD2197E40DF51D80E30A
:100B700020E24216510409F45CC03FEF431A530AC5
:100B800029AD3AAD2115310509F4DAC08193215020
:100B900031093AAF29AFECCF3DAD34FF10C080E250
:100BA0004816510408F045C02196EEADFFAD2197DF
:100BB000E40DF51D8EE28083F20131962F0121961E
:100BC0006EAC7FAC2197640C751CF0E24F1651049B
:100BD00080F52FEF421A520A8AE0A82EB12CC12CC0
:100BE000D12CE12CF12C00E010E02C893D894E89BC
:100BF0005F89688D798D8A8D9B8D0E945030205D34
:100C0000F30121933F012C893D894E895F89688DCD
:100C1000798D8A8D9B8D0E9452302C8B3D8B4E8B13
:100C20005F8B688F798F8A8F9B8FA0E00E94223123
:100C300061F6FDADF1FD29C0F0FF27C02BAD3CAD45
:100C4000232B19F13C8D311106C08DAD9EAD8C70FA
:100C50009927892B29F08BAD9CAD01979CAF8BAF69
:100C60002196EEADFFAD2197E40DF51D80E32BAD90
:100C70003CAD4216530648F430E243165104C0F42A
:100C80009FEF491A590A8193F2CFE0E24E165104C0
:100C900078F4FC8DFF23B1F12196EEADFFAD2197E5
:100CA000E40DF51D8DE2808392012F5F3F4F2901F6
:100CB000CDACDEACEBACFCAC820121962EAD3FADF1
:100CC00021974FA958AD6DA97EA98BA99CA90E9417
:100CD000C1026E960FB6F894DEBF0FBECDBFDF9196
:100CE000CF911F910F91FF90EF90DF90CF90BF9029
:100CF000AF909F908F907F906F905F904F903F90BC
:100D00002F9008953DAD32FF0CC02196EEADFFADA2
:100D10002197E40DF51D8BE28083C20101962C0121
:100D2000C7CF9DAD93FFC4CF2196EEADFFAD219708
:100D3000E40DF51D80E28083F20131962F01B8CFDA
:100D40008EE280833CCF833081F028F4813099F0AB
:100D50008230A9F008958730A9F08830C9F0843036
:100D6000B1F4809180008F7D03C0809180008F77E7
:100D700080938000089584B58F7784BD089584B5ED
:100D80008F7DFBCF8091B0008F778093B000089566
:100D90008091B0008F7DF9CFCF93DF93282F30E083
:100DA000F901EB5EFA4F8491F901EF5FFA4FD491AC
:100DB000F901E351FB4FC491CC23A1F081110E94B2
:100DC000A306EC2FF0E0EE0FFF1FED51FB4FA591B6
:100DD000B491EC91ED2381E090E009F480E0DF91A3
:100DE000CF91089580E090E0FACF1F93CF93DF93E7
:100DF000282F30E0F901EB5EFA4F8491F901EF5FA3
:100E0000FA4FD491F901E351FB4FC491CC23A9F0DF
:100E1000162F81110E94A306EC2FF0E0EE0FFF1FAA
:100E2000E752FB4FA591B4918FB7F894EC91111153
:100E300008C0D095DE23DC938FBFDF91CF911F9147
:100E40000895DE2BF8CFCF93DF9390E0FC01EF5FA6
:100E5000FA4F249183519B4FFC0184918823C9F060
:100E600090E0880F991FFC01E153FB4FA591B491CD
:100E7000FC01E752FB4FC591D49161110DC09FB7A2
:100E8000F8948C91209582238C9388812823288341
:100E90009FBFDF91CF910895623051F49FB7F894CE
:100EA0003C91822F809583238C93E8812E2BEFCF6A
:100EB0008FB7F894EC912E2B2C938FBFEACF3FB7CE
:100EC000F8948091A3059091A405A091A505B091F7
:100ED000A60526B5A89B05C02F3F19F00196A11DB8
:100EE000B11D3FBFBA2FA92F982F8827BC01CD0174
:100EF000620F711D811D911D42E0660F771F881FD3
:100F0000991F4A95D1F708958F929F92AF92BF9201
:100F1000CF92DF92EF92FF926B017C010E945F07FC
:100F20004B015C01C114D104E104F104B9F00E9449
:100F30005F07681979098A099B09683E7340810532
:100F4000910580F321E0C21AD108E108F10888EE8A
:100F5000880E83E0981EA11CB11CE4CFFF90EF9097
:100F6000DF90CF90BF90AF909F908F9008952FB754
:100F7000F89460919F057091A0058091A1059091D2
:100F8000A2052FBF0895089508950895DC01ED91FD
:100F9000FC910190F081E02D0994EF92FF920F9364
:100FA0001F93CF93DF938C017B01D0E0C0E0F7016A
:100FB000EC0FFD1F6491662361F0D801ED91FC9167
:100FC0000190F081E02DC8010995892B11F021963F
:100FD000EECFCE01DF91CF911F910F91FF90EF9057
:100FE0000895AF92BF92CF92DF92EF92FF920F934C
:100FF0001F93CF93DF936C017B018B01040F151FAF
:10100000EB015E01AE18BF08C017D10759F0699116
:10101000D601ED91FC910190F081E02DC60109957A
:10102000892B79F7C501DF91CF911F910F91FF9027
:10103000EF90DF90CF90BF90AF900895FC01448176
:1010400055816081718184EB96E00C94F107FC017D
:10105000538D448D252F30E0842F90E0821B930B1D
:10106000541710F0CF96089501970895FC01918DC3
:10107000828D981761F0A28DAE0FBF2FB11D5D96C6
:101080008C91928D9F5F9F73928F90E008958FEF68
:101090009FEF0895FC01918D828D981731F0828D1C
:1010A000E80FF11D858D90E008958FEF9FEF089573
:1010B000FC01918D228D892F90E0805C9F4F821BD7
:1010C00091098F739927089587EA95E00E9458083F
:1010D00021E0892B09F420E0822F089580E090E040
:1010E000892B29F00E94640881110C940000089556
:1010F000FC01A48DA80FB92FB11DA35ABF4F2C918D
:10110000848D90E001968F739927848FA689B78983
:101110002C93A089B1898C91837080648C93938D7A
:10112000848D981306C00288F389E02D80818F7D1D
:1011300080830895EF92FF920F931F93CF93DF93D5
:10114000EC0181E0888F9B8D8C8D98131AC0E88903
:10115000F989808185FF15C09FB7F894EE89FF89D2
:101160006083E889F98980818370806480839FBF70
:1011700081E090E0DF91CF911F910F91FF90EF9070
:101180000895F62E0B8D10E00F5F1F4F0F73112780
:10119000E02E8C8D8E110CC00FB607FCFACFE889BB
:1011A000F989808185FFF5CFCE010E947808F1CFC3
:1011B000EB8DEC0FFD2FF11DE35AFF4FF0829FB72F
:1011C000F8940B8FEA89FB8980818062CFCFCF931F
:1011D000DF93EC01888D8823B9F0AA89BB89E8895F
:1011E000F9898C9185FD03C0808186FD0DC00FB605
:1011F00007FCF7CF8C9185FFF2CF808185FFEDCF83
:10120000CE010E947808E9CFDF91CF910895FC01CB
:101210004281538141155105E9F024853585211519
:101220003105C1F064177507A8F484819581680FB2
:10123000791F6417750710F0641B750B660F771F15
:10124000660F771F620F731FFB01608171818281BE
:101250009381089560E070E080EC9FE708958F929D
:101260009F92AF92BF92CF92DF92EF92FF920F9335
:101270001F93CF93DF93EC010A811B8101151105A8
:10128000E1F1EC84FD84E114F104B9F118861986CA
:101290001A861B86D12CC12C88849984AA84BB848D
:1012A0000C151D0591F0F70161917191819191915A
:1012B0007F01A50194010E94F52D688779878A87AF
:1012C0009B87FFEFCF1ADF0AE7CFB80190E080E0FD
:1012D0000E94252C9B01AC01C501B4010E94612E26
:1012E000DF91CF911F910F91FF90EF90DF90CF9002
:1012F000BF90AF909F908F90089560E070E080EC79
:101300009FE7EECFAF92BF92CF92DF92EF92FF9224
:101310000F931F93CF93DF93FC01A484B584A11492
:10132000B10409F466C06A017B01EC0104811581F6
:10133000C801880F991F880F991FA80EB91EF501C3
:101340002081318142815381688579858A859B8599
:101350000E94F42D688779878A879B87F501C08270
:10136000D182E282F382A7019601688579858A8518
:101370009B850E94F52D688779878A879B870F5FF9
:101380001F4F1D830C83AE80BF800A151B0511F40F
:101390001D821C820A811B810115110589F4CA8AEC
:1013A000DB8AEC8AFD8ACE86DF86E88AF98A0A150E
:1013B0001B0520F40F5F1F4F1B830A8381E01AC0B7
:1013C000A70196016E857F85888999890E94992F4A
:1013D00018164CF3A70196016A897B898C899D892F
:1013E0000E94202C87FFE3CFCA8ADB8AEC8AFD8A21
:1013F000DECF80E0DF91CF911F910F91FF90EF90B2
:10140000DF90CF90BF90AF900895FC0113821282BD
:1014100015821482108611861286138680E090E071
:10142000A0ECBFE786879787A08BB18B828B938BCD
:10143000A48BB58B84859585009799F020813181A7
:10144000F901EE0FFF1FEE0FFF1FE80FF91F211527
:10145000310549F0215031091292129212921292E2
:10146000F6CF80E0089581E0089508952F923F928D
:101470004F925F926F927F928F929F92AF92BF92A4
:10148000CF92DF92EF92FF920F931F93CF93DF9350
:10149000CDB7DEB760970FB6F894DEBF0FBECDBFF5
:1014A000988B8F876A017B013E872D87DB01CA01FC
:1014B0008827B7FD83959927AA27BB27282F217056
:1014C000EF85F889208B892B21F0F7FAF094F7F853
:1014D000F094C701B6010E94D32E29833A834B832F
:1014E0005C836D837E838F839887AF85B8892C93C7
:1014F00011963C93119712964C93129713965C9306
:10150000139714966C93149715967C9315978F8167
:1015100016968C931697988517969C93ED85FE8565
:10152000EE0FFF1FEE0FFF1FE95EFE4F80819181DE
:10153000A281B38189879A87AB87BC878F81988581
:101540000E94452F9B01AC01C701B6010E94F42DFA
:1015500029853A854B855C850E94862C2B013C01B0
:101560000E94D32E822E232E342E952E5B018C01C9
:10157000AF85B88918962C93189719963C931997AC
:101580001A964C931A971B965C931B971C966C9318
:101590001C971D96BC921D971E968C931E971F96A6
:1015A0001C930E94452F9B01AC01C301B2010E9414
:1015B000F42D2B013C0120E030E040E05FE30E948D
:1015C000992F18160CF0D0C0282D322D432D592DEF
:1015D000B501C801A1E00E94163139014A015B0141
:1015E0008C010E94452F9B01AC0169857A858B8512
:1015F0009C850E94202C18160CF087C0EF85F88976
:101600006086718682869386A486B586068717874C
:10161000ED85FE85EF2B09F05DC0AF85B8891C9183
:1016200011966C90119712967C90129713968C904D
:10163000139714969C9014971596AC901597169640
:10164000BC90169717960C91212F362D472D582DAB
:10165000692D7A2D8B2D902F0E94452F9B01AC0177
:10166000C701B6010E94F42D6B017C0120E030E03F
:1016700040E05FE30E94202C87FF0AC020E030E0BA
:1016800040E05FE3C701B6010E94992F181614F5D8
:10169000212F217030E040E050E060E070E080E019
:1016A00090E0A0E00E942231A9F0212F362D472D95
:1016B000582D692D7A2D8B2D902FA1E00E94163187
:1016C000EF85F88920833183428353836483758354
:1016D000868397838F85988960960FB6F894DEBFCE
:1016E0000FBECDBFDF91CF911F910F91FF90EF9073
:1016F000DF90CF90BF90AF909F908F907F906F9032
:101700005F904F903F902F900895AF85B8891896BD
:101710001C92189719961C9219971A961C921A9750
:101720001B961C921B971C961C921C971D961C9234
:101730001D971E961C921E971F961C9229813A8116
:101740004B815C816D817E818F819885A1E00E94B3
:101750001631EF85F8892083318342835383648374
:1017600075838683978354CF20E030E040E05FE3C9
:10177000C301B2010E94202C81114ACF282D322DA5
:10178000432D592DB501C801A0E00E94223161F01E
:10179000217030E040E050E060E070E080E090E0F8
:1017A0000E94223109F434CF282D322D432D592D9A
:1017B000B501C801A1E00E941631AF85B88918961D
:1017C0002C93189719963C9319971A964C931A973D
:1017D0001B965C931B971C966C931C971D967C9391
:1017E0001D971E968C931E971F969C9311CF2F9238
:1017F0003F924F925F926F927F928F929F92AF92A1
:10180000BF92CF92DF92EF92FF920F931F93CF93ED
:10181000DF93CDB7DEB7E6970FB6F894DEBF0FBE05
:10182000CDBF9CA78BA76DA77EA758AB4FA70A8BF0
:101830001B8B2C8B3D8BFF8EEE8EDAAAC9AAB9A624
:10184000A8A68BAA9CAA2C962FAD2C972DAB2D96D3
:101850003FAD2D973EAB8A899B89AC89BD8988278E
:10186000B7FD83959927AA27BB278E8B9F8BA88FBF
:10187000B98F0E891F890115110549F02A893B8905
:101880004C895D8950582A8B3B8B4C8B5D8B20E0BB
:1018900030E0A9016A897B898C899D890E94202C6E
:1018A000312C212C882309F40FC18A899B89AC89AA
:1018B000BD89E7E1B695A79597958795EA95D1F704
:1018C00099278F579109BC01990F880B990B0E949A
:1018D000272C2BE930E24AE95EE30E94862C24E4BF
:1018E00031E544E35EE30E94F52D6B017C016A89DA
:1018F0007B898C899D898F77992780689F6320E0F9
:1019000030E040EC5FE30E94F42D2BE33DE344E93B
:101910005EE30E94862C9B01AC01C701B6010E94C8
:10192000F52D0E940F2F6A8F7B8F8C8F9D8F2A8CB5
:101930003B8CB101032C000C880B990B0E94272CC7
:101940006B017C0128E73AE944E550E40E94862CCB
:1019500020E030E040E05FE30E94F52D0E940F2F71
:101960004B012EE83DE543E150E4C701B6010E947A
:10197000862C6B017C01092C000CAA08BB08C50150
:10198000B4010E94272C28E132E741E35FE30E9483
:10199000862C9B01AC01C701B6010E94F42D2B01DE
:1019A0003C01AC019B010E94862C6B017C01A301D0
:1019B0009201C301B2010E94F52D68A379A38AA305
:1019C0009BA320E030E040E651E4C701B6010E944D
:1019D000612E20E030E040E251E40E94F52D9B01B1
:1019E000AC01C701B6010E94612E20E030E040EC5E
:1019F00050E40E94F52D9B01AC01C701B6010E9485
:101A0000612E6B017C01A301920160E070E080E037
:101A100090E40E94F42D9B01AC01C701B6010E9425
:101A2000F52D9B01AC0168A179A18AA19BA10E941F
:101A3000612E20E030E040E85FE30E94F52D3FE7B3
:101A4000830E911CA11CB11CA5019401F7E1220F8A
:101A5000331F441F551FFA95D1F70E94862C2B0186
:101A60003C01AC019B016A897B898C899D890E941C
:101A7000202C87FF0DC041E0241A310820E030E01F
:101A800040E251E4C301B2010E94612E2B013C01EE
:101A9000C101419651E05AA78332910508F01AA678
:101AA000839790F4C10137FE04C0882799278219D3
:101AB0009309880F991F880F991FFC01E95EFE4F5B
:101AC000408051806280738088A599A593FF8DC165
:101AD000AE8DBF8D9D01AB2B11F421E030E08E8DDA
:101AE0009F8D0197BCEF2B16BFEF3B060CF467C030
:101AF000221633060CF063C082199309AA24A3941A
:101B00009F8F8E8F97FF02C01F8E1E8EE8A5F9A5AE
:101B1000F460F9A7E8A737FE1AA6A110C1C12114E5
:101B2000310409F475C18E898170898BFAA5FF2370
:101B300009F463C1A30192016A897B898C899D891B
:101B40000E94862C1AA50E94D32E2E8B3A8F48A372
:101B50005CA36DA37EA3882E9FA30E94452F2AA578
:101B6000A301222371F192010E94612E9B01AC011D
:101B70006A897B898C899D890E94F42D6B017C0187
:101B8000EE8DFF8DEE0FFF1FEE0FFF1FE95EFE4F84
:101B900080819181A281B3818A8B9B8BAC8BBD8B21
:101BA000112399F0A3019201BC01CD010E94862C62
:101BB0009B01AC01C701B6010E94862C3DC0A12C3F
:101BC0009FCF92010E94862CD1CFD301C20157E151
:101BD000B695A795979587955A95D1F799279C0122
:101BE0002F57310937FF03C03195219531098A8973
:101BF0009B89AC89BD8947E1B695A795979587954F
:101C00004A95D1F799278F57910997FF03C091956E
:101C100081959109821793070CF07DC02A893B8931
:101C20004C895D89C301B2010E94612E9B01AC0108
:101C3000C701B6010E94612E2B013C01AE8DBF8D04
:101C4000AB2B09F071C011E020E030E040E05FE331
:101C50000E94992F87FD10E0212F30E040E050E0F6
:101C600060E070E080E090E0AE88BA8CC8A0DCA0B4
:101C7000EDA0FEA0082D1FA10E940D312E8B3A8FE2
:101C800048A35CA36DA37EA3882E9FA320E030E031
:101C900040E05FE3C301B2010E94202C811103C028
:101CA000BE89BE7FBE8B10E0B12CC12C912CD12CF3
:101CB000E12CF12C00E02E893A8D48A15CA16DA1A8
:101CC0007EA1882D9FA1A9E00E942231A9F0A4F055
:101CD0003FEF231A330A10E0B12CC12C912CD12CE8
:101CE000E12CF12C00E041E04E8B1A8E18A21CA2D0
:101CF0001DA21EA2812C1FA2C1018D599F4F512CE4
:101D000025E0622E712C873C910508F027C184E004
:101D1000682E712C23C1A30192016A897B898C8969
:101D20009D890E94612E44CF0E94D32E59016A01E1
:101D30007B01082F992E0E94452F9B01AC01C30106
:101D4000B2010E94F42D2B013C0111E020E030E0B3
:101D500040E05FE30E94992F87FD10E0212F30E0E3
:101D600040E050E060E070E080E090E0192D0E94DB
:101D70000D31122FB32EC42E952ED62EE72EF82E0F
:101D8000092F20E030E040E05FE3C301B2010E9490
:101D9000202C811101C01E7F212F3B2D4C2D592D50
:101DA0006D2D7E2D8F2D902F0E94452F9B01AC0114
:101DB0006A897B898C899D890E94202C18160CF4D5
:101DC0007ACF2E893A8D48A15CA16DA17EA1882D84
:101DD0009FA1A1E00E9416312E8B3A8F48A35CA3ED
:101DE0006DA37EA3882E9FA35ECF37FC98CE2114CF
:101DF000310471F08E898170898BA30192016A8907
:101E00007B898C899D890E94612E10E01AA69BCE49
:101E1000A12C012B09F046C02E8D3F8D4A895B898C
:101E20006C897D89CE0101960E94360AF981FE8B6C
:101E30002A812A8F3B8138A34C814CA35D815DA30D
:101E40008E818EA38F8098859FA31985BA84CB84B9
:101E50009C84DD84EE84FF8408892DCF2E8D3F8DF8
:101E60004A895B896C897D89CE0101960E94360A78
:101E7000A981AE8BBA81BA8FEB81E8A3FC81FCA368
:101E80002D812DA33E813EA38F8048854FA31985C8
:101E9000BA84CB849C84DD84EE84FF84088927C0C7
:101EA000012BE1F24A895B896C897D8970582E8DFE
:101EB0003F8DCE0101960E94360AE981EE8BFA81B0
:101EC000FA8F2B8128A33C813CA34D814DA35E81D9
:101ED0005EA38F8088858FA31985BA84CB849C8468
:101EE000DD84EE84FF840889AA2009F4E4CE68A486
:101EF00079A4662498E07922A8A5B9A5552453941D
:101F0000B3FF2CC0BFEF2B163B0624F13101EFEFDE
:101F10006E1A7E0A2E893A8D48A15CA16DA17EA120
:101F2000882D9FA10E94452FF301EE0FFF1FEE0F9A
:101F3000FF1FE95EFE4F20813181428153810E9463
:101F4000202C811107C02E8D3F8D215031093F8FEC
:101F50002E8F130155245394712C612C88A599A5BB
:101F6000827099279B8B8A8B98A591FF03C061147F
:101F7000710441F4A9A9BAA9CD01861997096A1675
:101F80007B0610F090E080E0BE89B983EA8DEA8399
:101F9000F8A1FB832CA12C833DA13D834EA14E8350
:101FA0008F825FA158871987BA86CB869C86DD868B
:101FB000EE86FF86088BAEA9AF93BDA9BF93ECA9AF
:101FC000EF93FBA9FF9329A52F9338A53F939F93E8
:101FD0008F934F8D4F935E8D5F9388A98F939FA5AD
:101FE0009F93AEA5AF93BDA5BF93ECA5EF93FBA5C3
:101FF000FF9389809A80AB80BC80CD80DE80EF80AB
:10200000F88409851A852B853C854D855E856F850D
:10201000788989890E94FA040FB6F894DEBF0FBE52
:10202000CDBF511067C02C013FEF431A530A48A59A
:10203000E5E445FFE5E62FEF3FEFAC016DA57EA59A
:102040008E2FEBA5FCA50995A32CAA1CAA24AA1CDB
:102050006101E32CEE0CEE08FE2C0E2D1E2DFE2D44
:10206000EE2D91014E2D5E2D6E2D7E2D8E2D9E2DF1
:10207000A0E00E9422313CF40E94E03069017A0124
:102080008B01F82FE92F1F9285E08F9321E0621AD0
:1020900071087F926F921F921F929AE0892E2F2FC4
:1020A0003E2FA2016DA57EA58BA59CA50E944B038A
:1020B0000F900F900F900F900F900F904A895B89AF
:1020C000452BC1F09C01AFA5B8A92A1B3B0BE9A980
:1020D000FAA92E173F0770F48C010F5F1F4F2FEFE7
:1020E0003FEFAC016DA57EA580E2EBA5FCA50995AF
:1020F000C801E8CFE6960FB6F894DEBF0FBECDBF9D
:10210000DF91CF911F910F91FF90EF90DF90CF90D3
:10211000BF90AF909F908F907F906F905F904F9007
:102120003F902F9008952F923F924F925F926F921F
:102130007F928F929F92AF92BF92CF92DF92EF9257
:10214000FF920F931F93CF93DF93CDB7DEB7E7973F
:102150000FB6F894DEBF0FBECDBF1C016AAB7BABE0
:102160004CAB5DAB28013901CEAADFAA6501B82CC2
:10217000A9019801C301B8010E94202C882331F1E4
:10218000EEA8FFA803E010E028E931E04CA95DA922
:102190006AA97BA9C1010E94C102E7960FB6F89413
:1021A000DEBF0FBECDBFDF91CF911F910F91FF908A
:1021B000EF90DF90CF90BF90AF909F908F907F90E7
:1021C0006F905F904F903F902F9008952FEF3FEFCB
:1021D0004FE75FEFC301B8010E94202C87FF07C0C3
:1021E000EEA8FFA804E010E02CE931E0CFCF2FEFFC
:1021F0003FEF4FE75FE7C301B8010E94992F181620
:102200006CF404E010E02FE831E0C2FC04C003E00D
:1022100010E024E931E0EEA8FFA8B8CF9E012F5FBF
:102220003F4F4901B11025C028E23BE64EE65EE48F
:10223000C301B8010E94992F181654F028E23BE61A
:102240004EE65EECC301B8010E94202C87FF11C04E
:102250001F921F925601CEA8DFA8930182014CA9BC
:102260005DA96AA97BA9C1010E94F70B0F900F908D
:1022700094CFD2FC03C086E0E82EF12CF40110E0EC
:1022800000E080E332E1E316F10448F00F5F1F4FF6
:10229000819391E0E91AF1080032110599F7BB200A
:1022A00019F01F930F93D6CF9701B301A201CE016E
:1022B00081960E94360A1F930F939F928F92DF920E
:1022C000CF922FA92F933EA93F93FF92EF928DA912
:1022D0008F939CA99F932BA92F933AA93F933F9249
:1022E0002F9289A09AA0ABA0BCA0CDA0DEA0EFA0A9
:1022F000F8A409A51AA52BA53CA54DA55EA56FA51B
:1023000078A989A90E94FA040FB6F894DEBF0FBE1F
:10231000CDBF43CF882329F0682F87EA95E00C943E
:10232000C6070895089520910C05260F3327331F03
:1023300021323105ECF420915505FC0190E080E05C
:10234000243069F082E00895A0910C052191AC0140
:1023500044515B4FA40FB52FB11D2C9301968617E6
:1023600098F380910C05680F60930C0580E0089548
:1023700081E008951092550581E0809354051092F4
:102380002F0561E082E10E94F50661E083E10E9491
:10239000F506E9EBF0E080818E7F808380818D7F80
:1023A000808388E48093B80085E48093BC0008951E
:1023B000CF93DF9391E09093EB048823B9F0C09121
:1023C000B800D091BA008091BC008A7B8093BC0099
:1023D00060E082E10E94F50660E083E10E94F5067C
:1023E0000E94BA11D093BA00C093B800DF91CF9188
:1023F00008950895E091840580918305E81730F4ED
:10240000F0E0E553FB4F808190E008958FEF9FEF60
:10241000089590918405809183052FEF3FEF9817E1
:1024200048F4E92FF0E0E553FB4F208130E09F5F57
:1024300090938405C9010895809183059091840546
:10244000891B990B0895CF92DF92EF92FF920F9321
:102450001F93CF93DF937C01CB018A0120915B0511
:10246000222389F0EB016B01C40ED51ECC15DD05CE
:1024700069F06991D701ED91FC910190F081E02D17
:10248000C7010995F3CF642F0E949311C801DF9112
:10249000CF911F910F91FF90EF90DF90CF90089513
:1024A000CF93DF931F92CDB7DEB7698320915B0591
:1024B0002223F9F020918105203258F021E030E00C
:1024C000FC013383228390E080E00F90DF91CF9175
:1024D000089580918205E82FF0E0E45AFA4F99813F
:1024E00090838F5F809382058093810581E090E0E7
:1024F000ECCF61E0CE0101960E949311F7CFCF920D
:10250000DF92EF92FF920F931F93CF93DF93FC0123
:10251000C48121E020935B05C0937C051092820565
:10252000109281058385682B84E496E00E94501206
:10253000D0918105D13208F092C00E945F076B01F3
:102540007C0180915505811165C082E0809355051D
:1025500081E0809354058FEF8093530510925205CC
:10256000D0935105ACE5B5E0E1E3F5E080E0D813A8
:1025700085C01092300580913005CC0FC82BC093D8
:10258000300580912F05813009F07CC010922F0515
:102590000E945F076B017C01809130058093BB0036
:1025A0008091570590915805A0915905B0915A0511
:1025B000892B8A2B8B2B99F00E945F07009157057E
:1025C000109158052091590530915A056C197D09D3
:1025D0008E099F090617170728073907E0F1809130
:1025E000BC0083FDD9CF85EC8093BC000E945F07BF
:1025F0006B017C0180915505823009F445C08091C2
:1026000053058F3F61F180915305803241F18091F4
:10261000530525C08091570590915805A091590503
:10262000B0915A05892B8A2B8B2B09F48ACF0E94F3
:102630005F07009157051091580520915905309179
:102640005A056C197D098E099F0906171707280777
:10265000390708F076CF809156050E94D811109264
:1026600082051092810510925B05DF91CF911F9139
:102670000F91FF90EF90DF90CF9008959D919193EF
:102680008F5F75CF85EEB0CF80915705909158053B
:10269000A0915905B0915A05892B8A2B8B2B09F4EF
:1026A000A9CF0E945F07009157051091580520910E
:1026B000590530915A056C197D098E099F09061735
:1026C00017072807390708F095CFC5CF90E080E0BD
:1026D000089583E00E94CC062091850528171906ED
:1026E00041F4809192058F5F8093920581E0809301
:1026F000870583E00E94CC06209104012817190663
:1027000029F480918D058F5F80938D05089582E077
:102710000E94CC06209185052817190629F480917E
:102720009D058F5F80939D0582E00E94CC062091DD
:1027300004012817190629F4809198058F5F80936A
:1027400098050895CF92DF92EF92FF92CF930E9467
:10275000B7076B017C01C1E00E94B7076C197D09C6
:102760008E099F09683E73408105910538F4809178
:102770009205833088F3C093C004EECF80919D050D
:10278000833018F081E08093C104CF91FF90EF90E7
:10279000DF90CF9008950F931F93CF938C01C62F96
:1027A0000E947F126C2F6460C8010E947F126C2F00
:1027B0006B7FC8010E947F1283EC90E00197F1F7D4
:1027C000CF911F910F910895CF93C82F682F607FED
:1027D00084EB96E00E94CB1380E1C89FB0011124E6
:1027E00084EB96E0CF910C94CB13CF93DF93CDB7CE
:1027F000DEB728970FB6F894DEBF0FBECDBF98E0C6
:10280000EFE0F1E0DE01119601900D929A95E1F76B
:102810009091BC06961710F46FEF690F70E0660F89
:10282000771F21E030E02C0F3D1F620F731FFB016B
:102830009081890F806828960FB6F894DEBF0FBE8E
:10284000CDBFDF91CF910C94E41381E00E94E4139B
:102850008BE39FE10197F1F70895E4EBF6E08681C1
:102860008E7F868388600C94E4130F931F93CF931D
:102870008C01C62F607F61600E94CB1380E1C89FEE
:10288000B00111246160C8010E94CB1381E090E087
:10289000CF911F910F910895CF93DF93EC018AE0C0
:1028A00090E0998388839F838E8388E290E00E94E2
:1028B00048319D878C87892B11F419821882CE01AB
:1028C000DF91CF910C94050AFB0101900020E9F7FC
:1028D0003197AF01461B570BDC01ED91FC91028053
:1028E000F381E02D0994CF93DF93BC0187EA95E053
:1028F0000E94CD07EC0161EA71E087EA95E00E9451
:1029000064148C0F9D1FDF91CF9108958F929F9239
:10291000AF92BF92EF92FF920F931F93CF93DF93EB
:10292000CDB7DEB7A1970FB6F894DEBF0FBECDBF0F
:102930007C01FA01CB0119A2223008F42AE08E01B1
:102940000F5D1F4F822E912CB12CA12CBF01A50130
:1029500094010E94C32DF901CA016A300CF5605D33
:10296000D8016E938D01232B242B252B79F790E032
:1029700080E0109721F0BD01C7010E946414A19668
:102980000FB6F894DEBF0FBECDBFDF91CF911F9180
:102990000F91FF90EF90BF90AF909F908F90089510
:1029A000695CDECFCF92DF92EF92FF920F931F937D
:1029B000CF93DF936B01770FEE08FF08F7FE1BC084
:1029C000EC016DE20E94C6078C0144275527BA012D
:1029D0004C195D096E097F092AE0CE010E94861418
:1029E000800F911FDF91CF911F910F91FF90EF907A
:1029F000DF90CF9008952AE0B701A601DF91CF9133
:102A00001F910F91FF90EF90DF90CF900C94861460
:102A10004F925F926F927F928F929F92AF92BF92EE
:102A2000CF92DF92EF92FF920F931F93CF936B01A0
:102A30007C01742EAC019B010E94EF2F68E971E0CC
:102A4000811126C046015701E894B7F82FEF3FEFF8
:102A50004FE75FE7C501B4010E94EF2F81110CC061
:102A60002FEF3FEF4FE75FE7C501B4010E94202C35
:102A700064EA71E0181664F02FEF3FEF4FE75FE470
:102A8000C701B6010E94992F1816ACF468EA71E0EC
:102A900084EB96E0CF911F910F91FF90EF90DF9024
:102AA000CF90BF90AF909F908F907F906F905F90EE
:102AB0004F900C9464142FEF3FEF4FE75FECC7018A
:102AC000B6010E94202C87FDE1CF20E030E0A90173
:102AD000C701B6010E94202C10E000E087FF0AC069
:102AE0006DE284EB96E00E94C6078C01F7FAF09441
:102AF000F7F8F094C0E060E070E080E09FE37C16BF
:102B000041F020E030E040E251E40E94612ECF5FCE
:102B1000F6CFA70196010E94F52D2B013C010E94E2
:102B2000162F4B015C012AE0BC01A40184EB96E066
:102B30000E9486147C01E00EF11ECC23D1F1C50168
:102B4000B4010E94252C9B01AC01C301B2010E947B
:102B5000F42D4B015C016EE284EB96E00E94C60707
:102B6000E80EF91EC15028F120E030E040E251E4C7
:102B7000C501B4010E94862C2B013C010E94162F36
:102B80004B01B12CA12C2AE0B501A40184EB96E005
:102B90000E948614E80EF91EC501B4010E94252C7E
:102BA0009B01AC01C301B2010E94F42D4B015C01F9
:102BB000D9CFC701CF911F910F91FF90EF90DF9078
:102BC000CF90BF90AF909F908F907F906F905F90CD
:102BD0004F9008950E942D1460E081E10E94F5134A
:102BE00064E072E084EB96E00E94CD078091C0041F
:102BF000811104C08091C104882351F060E083E119
:102C00000E94F51362E072E084EB96E00E94CD072B
:102C100061E080E00E94F5136FEE71E084EB96E0D6
:102C20000E94CD0761E089E00E94F5136091BC0429
:102C30007091BD048091BE049091BF0441E00E9458
:102C4000081561E080E00E94F5136091B80470916E
:102C5000B9048091BA049091BB0441E00E94081528
:102C600061E082E10E94F5136CEE71E084EB96E086
:102C70000E94CD0762E080E00E94F5136CEA71E0EB
:102C800084EB96E00E94641462E089E00E94F513F0
:102C900086E596E00E941E0862E082E10E94F5133C
:102CA00069EE71E084EB96E00E94CD0762E080E07F
:102CB0000E94F51380E596E00E941E0863E080E024
:102CC0000E94F51366ED71E084EB96E00E94CD075B
:102CD00063E089E00E94F5132AE93FE34CE156E402
:102CE0006091B4047091B5048091B6049091B704DA
:102CF0000E94202C18160CF45BC062ED71E084EB8E
:102D000096E00E94CD076091B4047091B504809163
:102D1000B6049091B70441E00E94081563E080E09A
:102D20000E94F5132AE93FE34CE156E46091B004B8
:102D30007091B1048091B2049091B3040E94202C50
:102D40001816ECF16AEC71E084EB96E00E94CD0776
:102D50006091B0047091B1048091B2049091B30479
:102D600041E00E94081563E082E10E94F51363ECE4
:102D700071E084EB96E00E94CD078091CA0488231D
:102D800029F160E082E10E94F51361EC71E084EBCF
:102D900096E00E94CD0760E082E10E94F5138091E9
:102DA000BA06982F91609093BA0689600C94E41348
:102DB0006EEC71E084EB96E00E94CD07AFCF66EC3D
:102DC00071E084EB96E00E94CD07CDCF08950F937C
:102DD0001F93CF93DF93EC0188819981009759F07D
:102DE0002A813B812617370730F081E0DF91CF91B0
:102DF0001F910F9108958B016F5F7F4F0E946D327D
:102E0000009759F0998388831B830A832C813D8125
:102E1000232B59F7FC011082E8CF80E0E7CFCF9356
:102E2000DF93EC0188819981009711F00E94E431D1
:102E3000198218821D821C821B821A82DF91CF9117
:102E40000895EF92FF920F931F93CF93DF93EC01BE
:102E5000FB01E080F180E114F10411F1048115819E
:102E600001151105A9F08C819D81080F191FB8016A
:102E7000CE010E94E716882399F0288139818C8140
:102E80009D81B701820F931F0E9433331D830C83F2
:102E9000CE01DF91CF911F910F91FF90EF90089598
:102EA000CE010E940F17F4CFEF92FF920F931F9362
:102EB000CF93DF93EC017B018A01BA010E94E716F0
:102EC00081110BC0CE010E940F17CE01DF91CF916F
:102ED0001F910F91FF90EF9008951D830C83B70110
:102EE000888199810E943333F0CFFB01019000204B
:102EF000E9F73197AF01461B570B0C9454170F930A
:102F00001F93CF93DF93CDB7DEB762970FB6F894D8
:102F1000DEBF0FBECDBF8C01CB01F8011182108244
:102F200013821282158214824AE0BE016F5F7F4FC6
:102F30000E94EB2BBE016F5F7F4FC8010E94751787
:102F400062960FB6F894DEBF0FBECDBFDF91CF9172
:102F50001F910F910895CF93DF93EC01FB0186172A
:102F6000970749F0608171816115710541F04481D5
:102F700055810E945417CE01DF91CF9108950E9490
:102F80000F17F9CFFC011182108213821282158271
:102F90001482FB0101900020E9F73197AF01461B35
:102FA000570B0C945417FC0180819181009711F00C
:102FB0000C94E4310895FC0184859585009711F007
:102FC0000C94E43108954F925F926F927F92AF928A
:102FD000BF92CF92DF92EF92FF920F931F93CF9306
:102FE000DF93FC01028113810230110508F44FC008
:102FF000EC01B80190E080E00E94252C9B01AC011F
:10300000688579858A859B850E94612E2B013C010C
:10301000AC84BD84D0E0C0E0C12CD12C7601F50198
:1030200061917191819191915F01A30192010E943F
:10303000F42D9B01AC010E94862C9B01AC01C701C1
:10304000B6010E94F52D6B017C01CE010196081797
:103050001907D9F4BE0190E080E00E94252C9B0165
:10306000AC01C701B6010E94612EDF91CF911F9183
:103070000F91FF90EF90DF90CF90BF90AF907F9037
:103080006F905F904F900C94A42FEC01C8CF60E03C
:1030900070E080EC9FE7DF91CF911F910F91FF903F
:1030A000EF90DF90CF90BF90AF907F906F905F9048
:1030B0004F9008952F923F924F925F926F927F921E
:1030C0008F929F92AF92BF92CF92DF92EF92FF9238
:1030D0000F931F93CF93DF93CDB7DEB72F970FB624
:1030E000F894DEBF0FBECDBFFE01B4966190719023
:1030F0008F01312C212CD3018C91882309F4F1C349
:10310000BFEF6B1A7B0A7101EFEFEE1AFE0A8532F0
:1031100009F0C6C0B12CA12C07C08D3271F18033EB
:1031200061F46894A0F83F01F30181918B3241F181
:10313000A4F7803241F1833249F190ED980F9A3033
:1031400040F51B821A82F301819190ED980F9A301D
:1031500098F54AE02A813B81429F7001439FF00C21
:10316000112490E3E91AF108D701A80FB11D87FDDA
:10317000BA95BB83AA833F01E6CF6894A1F8D3CF69
:103180006894A2F8D0CF6894A3F8CDCF6894A4F83F
:10319000CACF8A32D9F5C8010296D801ED90FC90C9
:1031A000F7FE31C06894A1F8222733272E193F0972
:1031B0003B832A838C013F01D3018C918E3209F02D
:1031C00048C0C30101966894B2F811962C9130ED75
:1031D000320F3A30F0F4512C412CFC01219130EDAA
:1031E000320F3A3098F5BAE0B49D7001B59DF00CFD
:1031F000112430E3E31AF1082701420E511C27FD88
:103200005A94CF01EACFFB82EA82D4CF1B821A8282
:10321000D3CF2A32E9F4C8010296D8014D905C90D0
:1032200057FE02C0512C412CB2E06B0E711C8C0178
:1032300093012F5F3F4FF30180818C36A1F064F43E
:103240008836D9F18A3661F0930112C03C01F0CF83
:103250003C01512C412CECCF843711F08A37A1F777
:103260006894B1F805C081818C3609F16894B0F892
:10327000D9018D913D01853609F4EAC10CF0A4C055
:10328000873409F4E5C114F5853409F4E1C10CF083
:10329000C1C1853209F4FBC27101BFEFEB1AFB0A11
:1032A0002FEF3FEFA101BE016F5F7F4FFBC2B3E085
:1032B000BB2A93012E5F3F4FDBCF8181883619F007
:1032C0006894A7F8D5CFF0ECAF2AF3CF823609F493
:1032D00034C33CF46894A5F88835F1F6F0E18F2EFC
:1032E0000DC0833609F4CBC18436B1F6E894A4F856
:1032F000AAE08A2E893621F0843611F0B3EFAB2292
:10330000B2FE02C0E894A0F89501222732708936F7
:1033100019F0843609F023C1232B09F49CC0F8016D
:103320003896F987E887D801CC901196DC901197F0
:103330001296EC9012971396FC90139714969C900B
:1033400014971596AC91F801F681FC83F801F7818A
:10335000FA879601A701692D7A2F8C819F2F0FE3A1
:103360000E94F230B22F092D1A2FFC81EA859601B6
:10337000A701B8018F2F9E2FA0E00E9422313CF4BC
:103380000E94E03069017A018B01F82FE92FBF928A
:10339000AF922B812F933A813F935F924F92AB2E46
:1033A0002F2F3E2FA101BE016F5F7F4F8AE891E171
:1033B0000E944B031C010F900F900F900F900F90E5
:1033C0000F900885198597CE8F3609F4B3C29CF407
:1033D000873609F43DC10CF41DC1893609F486CF46
:1033E0008E3609F059CFD801ED91FD918D01A6FEE1
:1033F0005DC2208280CE833709F490C12CF58037DE
:1034000009F04ACF65016894C0F8D4F8F801329603
:10341000FB83EA83D8010D911C910115110509F078
:1034200015C246E0E42EF12C05E010E026EC31E078
:10343000A101BE016F5F7F4F8AE891E10E94C10246
:103440001C010A811B8157CE853709F44FCF88377D
:1034500009F444CF21CFB0FE48C0C8010496998733
:103460008887D801CD90DD90ED90FC90D701C60102
:103470008827B7FD83959927AA27BB278C879D8727
:10348000AE87BF87D701C601BB0F880B982FDC0121
:103490008C839D83AE83BF83BC2D9D2CEA86FB86E7
:1034A0000C81102FF02FE02F9601A7016F2F702FA6
:1034B000802F9F2FA0E00E9422314CF40E94E03028
:1034C000B22F932E4A875B878B01F82FE92FBF928B
:1034D000AF929B819F93AA81AF935F924F92AC84EE
:1034E000CB2ED92CEA84FB845BCFF8013296F98786
:1034F000E887D801A6FE30C0EC910E2E000CFF0B21
:10350000BF2FBB1FBB27BB1FBC836F01EF2EEE0C71
:10351000EE08FE2C0E2D1E2D9E2CBE2D9F014E2D35
:103520005E2D6E2D7E2D8E2D9E2DA0E00E942231CF
:103530003CF40E94E03069017A018B01982EB92F8A
:10354000BF92AF92EB81EF93FA81FF935F924F921C
:10355000AC80292D3B2F26CFED91FC91D1CF232B91
:1035600039F19801285F3F4F39872887D801CC90DF
:103570001196DC9011971296EC9012971396FC908E
:10358000139714969C91149715968C9115971696EF
:103590002C91169717963C91BF92AF92BB81BF9327
:1035A000EA81EF935F924F92A12C092F182FFACE48
:1035B0009801B0FE19C02C5F3F4F39872887D8018A
:1035C0000D911D912D913C91BF92AF92BB81BF9304
:1035D000EA81EF935F924F92A12C6801790100E09C
:1035E00010E020E030E0DECE2E5F3F4F39872887A5
:1035F000D8010D911C91A6FC1127BF92AF92BB81FF
:10360000BF93EA81EF935F924F92A12C6801E12C66
:10361000F12CE5CF863411F46894A5F898012C5F5D
:103620003F4F3D832C83D8010D911D912D913C91ED
:10363000812CCA80DB807201A101BE016F5F7F4FC8
:103640008AE891E10E9493101C010C811D8153CDE9
:10365000982F9F7D973419F46894B3F88D7F853443
:1036600011F46894A5F8F8013496FD83EC83D80131
:103670000D911D912D913C9188248394DACF4501C1
:10368000B2E08B229924A101CC24C394D12CA1FCBB
:103690001AC0F12CE12CA1014E0D5F1D6701E2E083
:1036A000CE0ED11CFFEFEF1AFF0A2A813B81E216F2
:1036B000F30648F42FEF3FEFBE016F5F7F4F80E2CC
:1036C0000E948A11E8CF1A013FEF231A330A7801CA
:1036D00082E0E80EF11C2FEF3FEFBE016F5F7F4FDE
:1036E000D8018C910E948A118928B1F0EA81FB816E
:1036F000CE16DF0688F481010F5F1F4F2FEF3FEFDB
:10370000A101BE016F5F7F4F80E20E948A11FFEF2F
:10371000CF1ADF0A1801EACF8701EDCC98012E5F9E
:103720003F4F39872887D8010D911C91011511054C
:1037300089F46501EA80FB8006E010E02FEB31E0C0
:10374000A101BE016F5F7F4F8AE891E10E94C10233
:103750001C0137CE92014114510411F42FEF3FEFB9
:10376000F80190E080E0AF014F5F5F4F608166231A
:1037700031F08217930719F00196FA01F4CFE01B9C
:10378000F10B9501222734703D832C83B2FE04C0D7
:103790004E165F0608F4F201450132E083229924B7
:1037A0007F01A101A1FC18C02E1A3F0AA1014E0FF2
:1037B0005F1F7F018FEFE81AF80AAA81BB81EA1721
:1037C000FB0750F42FEF3FEFBE016F5F7F4F80E2AA
:1037D0000E948A11F701EACF6A01C01AD10AA60134
:1037E000400F511FF80181918F01882391F02C81A6
:1037F0003D81232B31F0920121503109452849F0B8
:1038000029012FEF3FEFBE016F5F7F4F0E948A11AA
:10381000E6CF1A01892809F4D4CDE41AF50AC701C4
:10382000820D931DAA81BB818A179B0708F0C9CD21
:1038300081010F5F1F4F2FEF3FEFA101BE016F5FAF
:103840007F4F80E20E948A111801E9CFDF92CF9268
:103850001F92B6E0BF935F924F9230E1832EA12C6E
:103860006801E12CF12C00E010E020E030E0A10143
:10387000BE016F5F7F4F8AE891E10E944B031C01FC
:103880000F900F900F900F900F900F90DACD710165
:10389000EFEFEE1AFE0A2FEF3FEFA101BE016F5FBF
:1038A0007F4F85E20E948A11170125CCA7FE03C035
:1038B0003182208220CCB0FE08C0C101B0E0A0E07F
:1038C00080839183A283B38316CCB1FEF1CF4101F3
:1038D00020829182128213821482158216821782AC
:1038E0000ACCA101EFEF2E163E0611F44EEF5FEF6A
:1038F0002FEF3FEFBE016F5F7F4F80E00E948A1184
:10390000C1012F960FB6F894DEBF0FBECDBFDF9179
:10391000CF911F910F91FF90EF90DF90CF90BF90CC
:10392000AF909F908F907F906F905F904F903F905F
:103930002F90089528E0822EE1CC92E0892EDECCF3
:103940008091C004882381F0809192058250990B68
:103950009F938F938CEC91E09F938F930E945A18C2
:103960000F900F900F900F908091C104882381F0E9
:1039700080919D058250990B9F938F9385EF91E0E5
:103980009F938F930E945A180F900F900F900F9053
:1039900040918E0550918F05609190057091910531
:1039A0008091940590919505A0919605B091970509
:1039B000481759076A077B0740F4809186058111F3
:1039C00004C08AE291E00E94731486EF90E00E94A6
:1039D00073148091BF048F938091BE048F93809164
:1039E000BD048F938091BC048F938091BB048F930F
:1039F0008091BA048F938091B9048F938091B80419
:103A00008F938DE192E09F938F930E945A1880913B
:103A1000C9048F938091C8048F938091C7048F93BA
:103A20008091C6048F938091C5048F938091C404C4
:103A30008F938091C3048F938091C2048F938BE402
:103A400092E09F938F930E945A18809157068F930C
:103A5000809156068F93809151068F9380915006E6
:103A60008F938DE792E09F938F930E945A188DB7A2
:103A70009EB74A960FB6F8949EBF0FBE8DBF809139
:103A80008605811127C08091B7048F938091B60479
:103A90008F938091B5048F938091B4048F9380911C
:103AA000B3048F938091B2048F938091B1048F936C
:103AB0008091B0048F938BEA92E09F938F930E9442
:103AC0005A188DB79EB70A960FB6F8949EBF0FBED0
:103AD0008DBF089588ED92E09F938F930E945A18AE
:103AE0000F900F90089585ED8093BC00809157054D
:103AF00090915805A0915905B0915A050796A11DBE
:103B0000B11D23E0B695A795979587952A95D1F78E
:103B10002091BC0024FD03C01092550508954091EA
:103B20005705509158056091590570915A05452BDC
:103B3000462B472B69F30097A105B10541F02AE216
:103B40002A95F1F700C00197A109B109E1CF809151
:103B500056050C94D8110C944C2DCF930E942D1423
:103B60000E94251460E080E00E94F51365E573E093
:103B700084EB96E00E94CD0763E080E00E94F5139D
:103B800060E473E084EB96E00E94CD078CE00E9435
:103B9000CC06892BD9F368EC70E080E090E00E94BD
:103BA00084078CE00E94CC06019709F058C082E09F
:103BB0000E94CC062091850561E02817190609F0BE
:103BC00042C089E00E94F51367E373E084EB96E05E
:103BD0000E94CD0783E00E94CC062091850561E01C
:103BE00028171906B1F580E00E94F51365E273E02D
:103BF00084EB96E00E94CD0762E080E00E94F5131E
:103C0000809185056AED72E0882311F06CEE72E018
:103C100084EB96E00E9464148BE00E94CC06892B12
:103C200009F0BFCF9091850521E0922790938505FB
:103C3000809104018227809304018BE00E94CC06CE
:103C4000892BD9F3A8CF89E00E94F5136EE273E0C7
:103C5000BDCF80E00E94F5136CE173E0C9CFC09145
:103C600085058AE090E00E94442DC81729F06C2F4A
:103C70008AE090E00E944C2D8CE00E94CC06892BBB
:103C8000D9F368EC70E080E090E00E948407CF9167
:103C90000C94EA150C94442D4F925F926F927F9290
:103CA0008F929F92AF92BF92EF92FF920F931F93CA
:103CB000CF93DF93CDB7DEB768970FB6F894DEBF2A
:103CC0000FBECDBF2B013C018A016EEF72E0CE0129
:103CD0000D960E94C21769ED72E0CE0143960E94D4
:103CE000C217C301B2010E94E42F0E940F2F4B01A3
:103CF0007B01072E000C880B990B0E94272C9B013F
:103D0000AC01C301B2010E94F42D2B013C0120E063
:103D100030E0A9010E94992F181624F077FA7094C8
:103D200077F8709420E030E040E05FE3C301B20137
:103D30000E94992F87FD8CC020E030E040E251E4E2
:103D4000C301B2010E94862C0E940F2F65307105BD
:103D500009F065C061E073E0CE0143960E947517DB
:103D60001E141F040CF0A8C0B401CE0101960E94DD
:103D70007F1718861F821A8619861C861B86BE012D
:103D80006F5F7F4FCE0107960E94AB17EB84FC84D8
:103D90008FEFE81AF80AB701CE0107960E94E716DE
:103DA000882309F484C02F8138858B859C856DEB31
:103DB00071E0820F931F0E943333FC86EB86BE01B5
:103DC0006D5E7F4FCE0107960E942117BC01C8018E
:103DD0000E94AB17CE0107960E94D317CE01019621
:103DE0000E94D317CE0143960E94D317CE010D96A1
:103DF0000E94D31768960FB6F894DEBF0FBECDBFF2
:103E0000DF91CF911F910F91FF90EF90BF90AF90F6
:103E10009F908F907F906F905F904F900895663045
:103E2000710519F465E073E097CF6730710519F4F7
:103E300069E073E091CF6830710519F46EE073E0CA
:103E40008BCF6930710509F08BCF62E173E084CFCD
:103E5000A301920160E070E080E89FE30E94612E80
:103E600020E030E040E05FE30E94F52D0E940F2F3C
:103E7000CE0107960E947F176EEF72E0CE01019689
:103E80000E94C217BE01695F7F4FCE0101960E945A
:103E90002117BC01CE0143960E94AB17CE010196BB
:103EA0000E94D317CE0107960E94D31759CFCE0197
:103EB00007960E940F1783CFBE016D5E7F4FC8012A
:103EC0000E94AB178FCFAF92BF92CF92DF92EF924B
:103ED000FF920F931F93CF93DF93CDB7DEB72C974D
:103EE0000FB6F894DEBF0FBECDBF0E942D1460E068
:103EF00080E00E94F51367E073E084EB96E00E9497
:103F0000CD0761E080E00E94F51364EF72E084EB7E
:103F100096E00E94CD0761E089E00E94F5138EE9EA
:103F200096E00E942F0941E00E94081561E080E0C0
:103F30000E94F51388E896E00E942F0941E00E9454
:103F4000081561E082E10E94F51361EF72E084EBF5
:103F500096E00E94CD0769ED72E0CE0101960E94C5
:103F6000C21769ED72E0CE0107960E94C2178EE972
:103F700096E00E942F0920E030E04AE754E40E94D6
:103F8000612EAE014F5F5F4F0E944C1E88E896E0A5
:103F90000E942F0920E030E04AE754E40E94612E9D
:103FA000AE01495F5F4F0E944C1E62E080E00E94BC
:103FB000F5136EED72E084EB96E00E94CD0762E0AF
:103FC00089E00E94F513CE0101960E941E0862E06E
:103FD00080E00E94F513CE0101960E941E0862E067
:103FE00082E10E94F5136BED72E084EB96E00E9493
:103FF000CD0763E080E00E94F51368EC72E084EB8B
:1040000096E00E94CD0763E089E00E94F51364EC1E
:1040100072E084EB96E00E94CD0782E796E00E9472
:104020002F0941E00E94081563E080E00E94F5132B
:1040300060EC72E084EB96E00E94CD078CE596E0A0
:104040000E942F0941E00E94081563E082E10E946E
:10405000F5136DEB72E084EB96E00E94CD0761EA08
:1040600071E087EA95E00E94641489E892E00E947A
:10407000731410E000E087E1E82E83E0F82E8091D1
:10408000A0069091A1060817190720F5B8018EE93E
:1040900096E00E940709D62EC72EB82EA92EB80189
:1040A00088E896E00E940709AF92BF92CF92DF9214
:1040B0009F938F937F936F931F930F93FF92EF9232
:1040C0000E945A180F5F1F4F0FB6F894DEBF0FBE45
:1040D000CDBFD5CF85E592E00E9473148BE00E949E
:1040E000CC06892BD9F368EC70E080E090E00E9468
:1040F00084078BE00E94CC06019799F58CE00E9422
:10410000CC06892BB1F782E392E00E9473148EE90A
:1041100096E00E94050A88E896E00E94050A82E778
:1041200096E00E94050A8CE596E00E94050A60E090
:1041300080E00E94F5136DE172E084EB96E00E944E
:10414000CD078CE00E94CC06892BD9F360E080E09B
:104150000E94F51368E072E084EB96E00E94CD07C0
:10416000C2CF8BE00E94CC06892BD9F368EC70E0BB
:1041700080E090E00E94840760E080E00E94F513F8
:1041800060E472E084EB96E00E94CD070E94EA159D
:10419000CE0107960E94D317CE0101960E94D31735
:1041A0002C960FB6F894DEBF0FBECDBFDF91CF9136
:1041B0001F910F91FF90EF90DF90CF90BF90AF9045
:1041C0000895CF92DF92EF92FF920E94B7076B01A2
:1041D0007C010E94B7076C197D098E099F09643F15
:1041E00071408105910540F582E00E94CC06209146
:1041F000850528171906B9F40E94B7076B017C01E1
:104200008CE00E94CC06892B31F40E94AD1D0E94E7
:10421000B7076B017C018BE00E94CC06892BC9F6A5
:104220000E94631FD2CF83E00E94CC0620918505B7
:104230002817190629F7E0CF67E473E087EA95E0CD
:104240000E94641461EA71E087EA95E00E946414B8
:104250000E942D1460E081E10E94F51368E673E08E
:1042600084EB96E00E94CD078091CA048823B9F0C0
:1042700060E082E10E94F51366E673E084EB96E06D
:104280000E94CD0760E082E10E94F5138091BA069A
:10429000982F91609093BA0689600E94E41310925F
:1042A000990510929A0510929B0510929C05109208
:1042B000940510929505109296051092970510920C
:1042C0008E0510928F051092900510929105109214
:1042D000890510928A0510928B0510928C05109218
:1042E000C6041092C7041092C8041092C904109218
:1042F000C2041092C3041092C4041092C504109218
:10430000930510928805109286051092CA041092A7
:104310009D05109292051092980510928D051092AD
:1043200087051092C1041092C004FF90EF90DF90B7
:10433000CF900895AF92BF92CF92DF92EF92FF920B
:104340000F931F93CF93DF93CDB7DEB72C970FB6A4
:10435000F894DEBF0FBECDBF8DE891E00E947314CC
:104360008EE996E00E942F09162F072FF82EE92ECE
:1043700088E896E00E942F09EF92FF920F931F9317
:104380009F938F937F936F930EE916E0F8018381DB
:104390008F9382818F9381E593E09F938F930E9407
:1043A0005A1882E796E00E942F09F62EE72ED82EA3
:1043B000C92E8CE596E00E942F09CF92DF92EF92F2
:1043C000FF929F938F937F936F9382E7C82E86E02F
:1043D000D82EF60183818F9382818F9380E893E0BA
:1043E0009F938F930E945A1869ED72E0CE01019657
:1043F0000E94C21769ED72E0CE0107960E94C217B3
:10440000C8010E942F0920E030E04AE754E40E94EE
:10441000612EAE014F5F5F4F0E944C1E88E896E010
:104420000E942F0920E030E04AE754E40E94612E08
:10443000AE01495F5F4F0E944C1E8A818F93898134
:104440008F9388858F938F818F93F60183818F93CC
:1044500082818F9380EB93E09F938F930E945A18F1
:104460000FB6F894DEBF0FBECDBFF80181898F93E0
:1044700080898F9387858F9386858F9398E8E92E1F
:1044800096E0F92EF70181898F9380898F93878534
:104490008F9386858F93F80183818F9382818F9389
:1044A0008FED93E09F938F930E945A18F8018589AE
:1044B0008F9384898F9383898F9382898F93F70158
:1044C00085898F9384898F9383898F9382898F9332
:1044D000F80183818F9382818F938EE094E09F9384
:1044E0008F930E945A18C8010E94E317F62EE72EF8
:1044F000B82EA92E88E896E00E94E317AF92BF92EB
:10450000EF92FF929F938F937F936F93F801838134
:104510008F9382818F938EE394E09F938F930E9479
:104520005A180FB6F894DEBF0FBECDBF8CE596E0EB
:104530000E94E3179F938F937F936F939F938F9323
:104540007F936F93F60183818F9382818F938EE6A1
:1045500094E09F938F930E945A1889E591E00E94FE
:1045600073140E94EA15CE0107960E94D317CE015C
:1045700001960E94D3170FB6F894DEBF0FBECDBFD1
:104580002C960FB6F894DEBF0FBECDBFDF91CF9152
:104590001F910F91FF90EF90DF90CF90BF90AF9061
:1045A00008954F925F926F927F928F929F92AF92F7
:1045B000BF92CF92DF92EF92FF921092BC041092C2
:1045C000BD041092BE041092BF041092B804109261
:1045D000B9041092BA041092BB041092B404109261
:1045E000B5041092B6041092B7041092B004109261
:1045F000B1041092B2041092B3046CE073E086E54B
:1046000096E00E9475176CE073E080E596E00E94EA
:104610007517C0908E05D0908F05E0909005F090B2
:1046200091054091990550919A0560919B05709173
:104630009C0580918605C416D506E606F70608F0A7
:10464000D5C18111D6C18091940590919505A09115
:104650009605B09197058090890590908A05A09065
:104660008B05B0908C05C0929905D0929A05E09286
:104670009B05F0929C0540938E0550938F056093A7
:104680009005709391058092940590929505A09263
:104690009605B09297058093890590938A05A0931B
:1046A0008B05B0938C05C0908E05D0908F05E0905F
:1046B0009005F09091058091990590919A05A091AF
:1046C0009B05B0919C05C81AD90AEA0AFB0A80909A
:1046D000890590908A05A0908B05B0908C058091FB
:1046E000940590919505A0919605B0919705881A2B
:1046F000990AAA0ABB0AC701B6010E94252C20E02C
:1047000030E04AE754E40E94612E2B013C014092C4
:10471000B4045092B5046092B6047092B704C50117
:10472000B4010E94252C20E030E04AE754E40E94C6
:10473000612E6093B0047093B1048093B20490939F
:10474000B30420E030E04AE754E4C301B2010E9420
:10475000992F18160CF451C1C701B60120E230E0C0
:1047600040E050E00E945A2D69017A0120E030E0DB
:104770004AE754E46091B0047091B1048091B204AE
:104780009091B3040E94992F181654F488EC90E08D
:104790000E94731481E08093CA04C12CD12C76014D
:1047A0006091890570918A0580918B0590918C05A7
:1047B00080908E0590908F05A0909005B090910507
:1047C000681979098A099B096C197D098E099F0965
:1047D0000E94272C4B015C0120E030E04AE754E4C2
:1047E0000E94612E6093B8047093B9048093BA0458
:1047F0009093BB0420E034E244E759E4C501B401DE
:104800000E94612E6093C2047093C3048093C40419
:104810009093C50440E556E00E944C1E809194059B
:1048200090919505A0919605B09197050097A105E7
:10483000B105C1F18090990590909A05A0909B05D3
:10484000B0909C05BC01CD01681979098A099B09C2
:104850006C197D098E099F090E94272C6B017C0130
:1048600020E030E04AE754E40E94612E6093BC04EB
:104870007093BD048093BE049093BF0420E034E2A3
:1048800044E759E4C701B6010E94612E6093C60453
:104890007093C7048093C8049093C90446E556E01A
:1048A0000E944C1E20E030E44CE157E46091BC04CF
:1048B0007091BD048091BE049091BF040E94992F15
:1048C00018163CF481EB90E00E94731481E0809311
:1048D000CA0420E030E44CE157E46091B8047091E0
:1048E000B9048091BA049091BB040E94992F1816C4
:1048F0003CF48AE990E00E94731481E08093CA043A
:104900002DEC3CEC4CEC5DE36091BC047091BD047B
:104910008091BE049091BF040E94202C87FF07C0A5
:1049200081E890E00E94731481E08093CA042DEC2A
:104930003CEC4CEC5DE36091B8047091B90480915B
:10494000BA049091BB040E94202C87FF0BC0809179
:104950008605811107C088E690E00E94731481E00B
:104960008093CA048091CA04811152C04091BC0452
:104970005091BD046091BE047091BF048EE996E031
:104980000E94820980918605811142C04091B8043D
:104990005091B9046091BA047091BB0488E896E024
:1049A0000E9482094091B4045091B5046091B6040C
:1049B0007091B70482E796E00E9482094091B004AA
:1049C0005091B1046091B2047091B3048CE596E00B
:1049D000FF90EF90DF90CF90BF90AF909F908F901F
:1049E0007F906F905F904F900C948209882309F418
:1049F0005ACEC12CD12C760111CF8FED90E00E94C0
:104A0000731481E08093CA04C12CD12C7601AECE00
:104A1000FF90EF90DF90CF90BF90AF909F908F90DE
:104A20007F906F905F904F9008951F920F920FB6F6
:104A30000F9211242F933F938F939F93AF93BF9324
:104A400080919F059091A005A091A105B091A2052C
:104A500030919E0523E0230F2D3758F50196A11DB7
:104A6000B11D20939E0580939F059093A005A09370
:104A7000A105B093A2058091A3059091A405A091F2
:104A8000A505B091A6050196A11DB11D8093A305B2
:104A90009093A405A093A505B093A605BF91AF91EF
:104AA0009F918F913F912F910F900FBE0F901F906C
:104AB000189526E8230F0296A11DB11DD2CF1F9293
:104AC0000F920FB60F9211242F933F934F935F9342
:104AD0006F937F938F939F93AF93BF93EF93FF93C6
:104AE000E0910201F09103010995FF91EF91BF91CF
:104AF000AF919F918F917F916F915F914F913F9176
:104B00002F910F900FBE0F901F9018951F920F922C
:104B10000FB60F9211242F933F934F935F936F9390
:104B20007F938F939F93AF93BF93EF93FF93E09106
:104B30000001F09101010995FF91EF91BF91AF91B3
:104B40009F918F917F916F915F914F913F912F91A5
:104B50000F900FBE0F901F9018951F920F920FB6D7
:104B60000F9211242F933F934F935F936F937F93F3
:104B70008F939F93AF93BF93EF93FF9387EA95E053
:104B80000E947808FF91EF91BF91AF919F918F9113
:104B90007F916F915F914F913F912F910F900FBE39
:104BA0000F901F9018951F920F920FB60F9211241D
:104BB0002F938F939F93EF93FF93E091B705F0911D
:104BC000B8058081E091BD05F091BE0582FD1BC056
:104BD00090818091C0058F5F8F732091C1058217EE
:104BE00041F0E091C005F0E0E955FA4F958F8093D0
:104BF000C005FF91EF919F918F912F910F900FBE64
:104C00000F901F9018958081F4CF1F920F920FB6CE
:104C10000F9211242F933F934F935F936F937F9342
:104C20008F939F93AF93BF93EF93FF938091B900BE
:104C3000887F803609F44AC0F0F5883209F4A7C0AD
:104C400018F5803109F49BC0B8F4882309F4F9C041
:104C5000883009F494C0FF91EF91BF91AF919F917B
:104C60008F917F916F915F914F913F912F910F9015
:104C70000FBE0F901F901895883109F488C08032BC
:104C800051F78093530514C0803409F49DC040F45B
:104C90008033B9F38833F9F68093530585ECB0C0BF
:104CA000803509F485C0883509F496C0883499F6B2
:104CB0000E94731DD0CF883909F48CC038F588372D
:104CC00029F050F4883611F0803729F683E080937C
:104CD000550510922E0557C0883809F47BC08039DD
:104CE00019F0803809F0B7CF80912E05803208F096
:104CF00071C0E0912E0581E08E0F80932E0580918A
:104D0000BB00F0E0E25FFA4F80833DC0803B39F0AA
:104D1000E0F4803A09F479C0883A09F09CCF84E045
:104D20008093550510920D0510920C05E0917F05BA
:104D3000F0918005099580910C0581110FC081E0EB
:104D400080930C051092EC0409C0803C09F4A6CFB6
:104D5000883C09F4A3CF883B09F07DCFE0910D0595
:104D600081E08E0F80930D05F0E0E451FB4F8081D0
:104D70008093BB0090910D0580910C0529C0809116
:104D800030058093BB0085EC8093BC0064CF90918C
:104D9000520580915105981758F5E091520581E030
:104DA0008E0F80935205F0E0EF5CFA4F8081E9CFDF
:104DB000E091520581E08E0F809352058091BB00F7
:104DC000F0E0EF5CFA4F808390915205809151059D
:104DD0009817C8F285E8D8CFE091520581E08E0F90
:104DE000809352058091BB00F0E0EF5CFA4F808326
:104DF0008091540581115CCF81E080932F0584EA76
:104E00008093BC001092550526CF85EC8093BC00A2
:104E10001092550580912E05803230F4E0912E05D8
:104E2000F0E0E25FFA4F108260912E0570E0E091B1
:104E30007D05F0917E058EE095E0099510922E0596
:104E40000ACF1092530534CFE7EAF5E013821282BD
:104E500088EE93E0A0E0B0E084839583A683B783D7
:104E600023E631E03183208325EC30E03587248749
:104E700024EC30E03787268720EC30E0318B208B24
:104E800021EC30E0338B228B22EC30E0358B248B0D
:104E900026EC30E0378B268B118E128E138E148EFB
:104EA000E4E4F6E01382128284839583A683B783B9
:104EB00085E791E091838083E4EBF6E01382128230
:104EC00087E891E09183808387E2848384E181870E
:104ED00084E0828713868EE996E00E944C1488E86D
:104EE00096E00E944C1482E796E00E944C148CE5F8
:104EF00096E00E944C146CE073E086E596E00E9418
:104F0000C2176CE073E080E596E00C94C2177894C9
:104F100084B5826084BD84B5816084BD85B58260BE
:104F200085BD85B5816085BD80916E00816080936F
:104F30006E001092810080918100826080938100D8
:104F400080918100816080938100809180008160E8
:104F5000809380008091B10084608093B100809143
:104F6000B00081608093B00080917A00846080936B
:104F70007A0080917A00826080937A0080917A0032
:104F8000816080937A0080917A00806880937A00B3
:104F90001092C10060E082E00E94230760E083E09D
:104FA0000E94230762E08CE00E94230762E08BE00E
:104FB0000E94230787E893E1909301018093000109
:104FC000809169008C7F816080936900E89A89E60E
:104FD00093E1909303018093020180916900837FA4
:104FE000846080936900E99A8AE090E00E944A1EFA
:104FF000823028F060E08AE090E00E94AB1D8AE0F9
:1050000090E00E944A1E91E0811101C090E09093CF
:10501000850591E0811190E090930401E091B7053E
:10502000F091B80582E08083E091B305F091B4057A
:105030001082E091B505F091B60580E18083109271
:10504000BF05E091BB05F091BC0586E08083E0914F
:10505000B905F091BA05808180618083E091B9053E
:10506000F091BA05808188608083E091B905F09164
:10507000BA05808180688083E091B905F091BA0516
:1050800080818F7D808389EB94E00E94731487E494
:1050900094E00E94731486E394E00E9473148AE201
:1050A00094E00E947314109284051092830510926C
:1050B0008205109281050E94BA1183EC97E09093CB
:1050C000800580937F0584EC97E090937E05809324
:1050D0007D051092B9068091BE06823018F098E0E6
:1050E0009093B9068093BC0662E370E080E090E0A4
:1050F0000E9484076091BF0684EB96E00E947F12B5
:1051000068EE73E080E090E00E94840760E384EB47
:1051100096E00E94CB13CBE4D6E4CE010197F1F7E1
:1051200060E384EB96E00E94CB132197F1F760E3F4
:1051300084EB96E00E94CB1383E592E00197F1F7B0
:1051400060E284EB96E00E94CB138091B906806206
:105150000E94E41384E08093BA068CE00E94E4137A
:105160000E94251482E08093BB0686E00E94E4132F
:1051700082E00E94E4138BE39FE10197F1F788E05E
:105180008093BF0660E084EB96E00E947F120E944D
:10519000251460E080E00E94F51368E174E084EB80
:1051A00096E00E94CD0762E082E00E94F51367E07E
:1051B00074E084EB96E00E94CD0763E083E00E94F8
:1051C000F5136BEF73E084EB96E00E94CD0768EB7C
:1051D0007BE080E090E00E94840784E090E00E9401
:1051E0004A1E853009F43BC18BE090E00E944A1EC4
:1051F0008F3F29F460E08BE090E00E94AB1D86E0D9
:1052000090E00E944A1E8B50990B843D910508F452
:105210005AC080E480937C0080917A0080648093FF
:105220007A0080917A0086FDFCCF609178007091C1
:105230007900072E000C880B990B6115710581050B
:10524000910511F00E94E22B0E94932B23ED30E098
:1052500040E050E00E945A2D655F7F4F8F4F9F4F77
:1052600086E090E00E94AB1D0E94932B23EFC22E9C
:10527000D12CE12CF12CA70196010E945A2D655FDB
:105280007F4F8F4F9F4F87E090E00E94AB1D0E94A1
:10529000932BA70196010E945A2D655F7F4F8F4F78
:1052A0009F4F88E090E00E94AB1D0E94932BA701C6
:1052B00096010E945A2D655F7F4F8F4F9F4F89E067
:1052C00090E00E94AB1D86E090E00E944A1E082FED
:1052D00010E01F928F938FE994E09F938F930E9429
:1052E0005A188BE090E00E944A1E0F900F900F908A
:1052F0000F908823D9F060E080E00E94F51360EC05
:1053000073E084EB96E00E94CD078BE090E00E9472
:105310004A1E20E137E2829FB001839F700D112465
:10532000072E000C880B990B0E9484070E942514FD
:1053300060E080E00E94F51363EB73E084EB96E09D
:105340000E94CD0760E08CE00E94F513B80184EB69
:1053500096E00E94D21462E080E00E94F51368EAB1
:1053600073E084EB96E00E94CD0763E080E00E944A
:10537000F51363E973E084EB96E00E94CD07C80162
:105380006AE070E00E943C30060F171FD0E0C0E0DA
:105390008CE00E94CC060197B1F58BE00E94CC0610
:1053A000892BB1F72196CF3027E2D20711F4D0E054
:1053B000C0E02AE0AE010D2E000C660B770B87EAE9
:1053C00095E00E94861461EA71E087EA95E00E9408
:1053D000641462E089E00E94F51369E873E084EBED
:1053E00096E00E94CD0762E089E00E94F513BE01BD
:1053F00084EB96E00E94D21464E670E080E090E0D6
:105400000E948407C5CF0C171D0709F0ECC065E0AA
:1054100084E090E00E94AB1D602F8CE090E00E9441
:10542000AB1D60E08BE090E00E94AB1D8FE793E046
:105430000E94731462E089E00E94F51367E773E04D
:1054400084EB96E00E94CD078CE00E94CC06892B6D
:10545000D9F368EE73E080E090E00E9484070E9438
:10546000251460E080E00E94F51369EE73E084EBA0
:1054700096E00E94CD070E94251460E080E00E9423
:10548000F51364ED73E084EB96E00E94CD070E9473
:10549000EA150E94E120C0E0D0E011E080919D0576
:1054A000813079F40E945F076093990570939A05A3
:1054B00080939B0590939C0580919D058F5F8093C1
:1054C0009D0500919805013089F40E945F07609363
:1054D0009405709395058093960590939705809118
:1054E00098058F5F809398050093930580919205AE
:1054F000813079F40E945F0760938E0570938F0569
:105500008093900590939105809192058F5F809391
:10551000920500918D05013089F40E945F07609328
:10552000890570938A0580938B0590938C058091F3
:105530008D058F5F80938D05009388058CE00E9418
:10554000CC06892B21F40E94AD1D0E94E1208BE046
:105550000E94CC06892B21F40E94631F0E94E12047
:1055600080919305882389F080918805882309F428
:105570005BC00E94A2130E94D1220E94A01C0E9424
:105580009A210E94EA150E94E12080919D058230B7
:10559000F8F00E945F07C0909905D0909A05E090BE
:1055A0009B05F0909C056C197D098E099F0960345C
:1055B0007C498147924060F0109386050E94D12279
:1055C0000E94A01C0E949A210E94EA150E94E120DC
:1055D000209709F463CF0E946408882309F45ECF02
:1055E0000E9400005BCF80E793E00E94731462E0AA
:1055F00089E00E94F5136AE673E084EB96E00E946E
:10560000CD078BE090E00E944A1E61E0680F8BE0BE
:1056100090E00E94AB1D68EB7BE080E090E00E9490
:1056200084070C9400001BCF809187058111ADCFBA
:105630000E945F07C0909405D0909505E090960574
:10564000F09097056C197D098E099F0960347244AA
:105650008F40910508F499CF109386058ACF80E595
:1056600096E00E94D31786E596E00E94D3178CE55A
:1056700096E00E94DB1782E796E00E94DB1788E83D
:1056800096E00E94DB178EE996E00C94DB178F9270
:105690009F92AF92BF92CF92DF92EF92FF92CF9301
:1056A000DF93EC01688179818A819B8161157105A5
:1056B0008105910521F464E279ED8BE597E02DE118
:1056C00033EF41E050E00E945A2D49015A019B01FD
:1056D000AC01A7EAB1E40E94792D6B017C01ACEE2C
:1056E000B4EFA50194010E94872DC60ED71EE81EB7
:1056F000F91EF7FE06C081E0C81AD108E10880E86B
:10570000F80AC882D982EA82FB82C701B6019F7774
:10571000DF91CF91FF90EF90DF90CF90BF90AF904F
:105720009F908F9008958F929F92AF92BF92CF9249
:10573000DF92EF92FF9260910501709106018091D6
:10574000070190910801611571058105910521F40A
:1057500064E279ED8BE597E02DE133EF41E050E035
:105760000E945A2D49015A019B01AC01A7EAB1E4FC
:105770000E94792D6B017C01ACEEB4EFA501940180
:105780000E94872DC60ED71EE81EF91EF7FE06C022
:1057900081E0C81AD108E10880E8F80AC092050142
:1057A000D0920601E0920701F0920801C701B6010C
:1057B0009F77FF90EF90DF90CF90BF90AF909F903A
:1057C0008F900895609305017093060180930701FF
:1057D000909308010895BB274A3031F4992322F4AD
:1057E000BDE2909581959F4F0C94F72BBB27FB0151
:1057F0005527AA27880F991FAA1FA41710F0A41BCA
:1058000083955051B9F7A05DAA3308F0A95DA19323
:10581000009779F7B111B1931192CB010C94102C30
:10582000DC01FC01672F71917723E1F7329704C007
:105830007C916D9370836291AE17BF07C8F3089592
:105840000E94622C08F481E00895E89409C097FB57
:105850003EF490958095709561957F4F8F4F9F4F47
:105860009923A9F0F92F96E9BB279395F69587958B
:1058700077956795B795F111F8CFFAF4BB0F11F44E
:1058800060FF1BC06F5F7F4F8F4F9F4F16C08823F5
:1058900011F096E911C0772321F09EE8872F762F2B
:1058A00005C0662371F096E8862F70E060E02AF06C
:1058B0009A95660F771F881FDAF7880F9695879558
:1058C00097F90895990F0008550FAA0BE0E8FEEF2D
:1058D00016161706E807F907C0F012161306E407B4
:1058E000F50798F0621B730B840B950B39F40A26AD
:1058F00061F0232B242B252B21F408950A2609F48B
:10590000A140A6958FEF811D811D08950E94992CBD
:105910000C940A2D0E94FC2C38F00E94032D20F0DC
:10592000952311F00C94F32C0C94F92C11240C9465
:105930003E2D0E941B2D70F3959FC1F3950F50E0F3
:10594000551F629FF001729FBB27F00DB11D639F31
:10595000AA27F00DB11DAA1F649F6627B00DA11DD7
:10596000661F829F2227B00DA11D621F739FB00D7D
:10597000A11D621F839FA00D611D221F749F3327ED
:10598000A00D611D231F849F600D211D822F762F86
:105990006A2F11249F5750409AF0F1F088234AF063
:1059A000EE0FFF1FBB1F661F771F881F91505040CF
:1059B000A9F79E3F510580F00C94F32C0C943E2DDA
:1059C0005F3FE4F3983ED4F3869577956795B79556
:1059D000F795E7959F5FC1F7FE2B880F911D969570
:1059E000879597F9089597F99F6780E870E060E0E0
:1059F00008959FEF80EC089500240A941616170668
:105A000018060906089500240A94121613061406AF
:105A100005060895092E0394000C11F4882352F012
:105A2000BB0F40F4BF2B11F460FF04C06F5F7F4FCA
:105A30008F4F9F4F089557FD9058440F551F59F0B1
:105A40005F3F71F04795880F97FB991F61F09F3F6B
:105A500079F087950895121613061406551FF2CF94
:105A60004695F1DF08C0161617061806991FF1CFE4
:105A700086957105610508940895E894BB2766270B
:105A80007727CB0197F90895F999FECF92BD81BD93
:105A9000F89A992780B50895262FF999FECF1FBA55
:105AA00092BD81BD20BD0FB6F894FA9AF99A0FBE47
:105AB00001960895052E97FB1EF400940E94712D07
:105AC00057FD07D00E94C32D07FC03D04EF40C9461
:105AD000712D50954095309521953F4F4F4F5F4F19
