:100000000C941B020C94BB230C9494230C94430279
:100010000C9443020C9443020C9443020C9443024C
:100020000C9443020C9443020C9443020C9443023C
:100030000C9443020C9443020C9443020C9443022C
:100040000C944A230C9443020C9408240C94E2234D
:100050000C9443020C9443020C9443020C9443020C
:100060000C943A240C9443024572726F72202D2036
:100070004C45443220466C69636B65720045727270
:100080006F72202D204C45443120466C69636B65AE
:10009000720053656E736F722032203E20343073CD
:1000A0000053656E736F722031203E203430730030
:1000B00020466C6173682053796E632028626574F2
:1000C0007765656E207468652074776F2053656E60
:1000D000736F7273290020536875747465722053AE
:1000E00070656564204672616374696F6E200020DC
:1000F000504152414D45544552202020202020207F
:100100002020202020202020202053656E736F7235
:10011000322020202020202020202053656E736F65
:10012000723100203D3D3D3D3D3D3D3D3D3D3D3D30
:100130003D3D3D3D3D3D3D3D3D3D3D3D3D3D3D3DEF
:100140003D3D3D3D3D3D3D3D3D3D3D3D3D3D3D3DDF
:100150003D3D3D3D3D3D00204156455241474553C3
:10016000202020202020202020202020202020208F
:10017000202053656E736F723220202020202020B3
:1001800020202053656E736F7231006D53004572ED
:10019000720043322000457272004331200020205B
:1001A000202020202020202020202020202020204F
:1001B00000312F00205300312F006D5300202020EC
:1001C000202020202020202020202020202020004F
:1001D00020202000202042005200426C6F636B659B
:1001E0006420002A2A5365656E2A2A00426C6F63D8
:1001F0006B656420002A2A5365656E2A2A005365C0
:100200006E736F7232202053656E736F72312020CF
:10021000202000203036204E6F76203230323400DD
:1002200076657273696F6E2056322E302E302E3204
:1002300000202020536875747465722054657374AF
:100240006572003036204E6F7620323032340076C0
:10025000657273696F6E2056322E302E302E32004A
:1002600068747470733A2F2F7777772E70686F7475
:1002700072696F2E636F6D2F666F72756D2F746864
:1002800072656164732F6275696C642D612D73688A
:1002900075747465722D7465737465722D666F72F2
:1002A0002D666F63616C2D706C616E652D73687562
:1002B00074746572732D63686561702D65617379FF
:1002C0002D69742D776F726B732E31393737353650
:1002D0002F0043616D657261205368757474657297
:1002E000205465737465720052657365742041769D
:1002F000657261676500202D2D2D2D2D2D2D2D2D45
:100300002D2D2D2D2D2D2D2D2D2D2D2D2D2D2D2D1D
:100310002D2D2D2D2D2D2D2D2D2D2D2D2D2D2D2D0D
:100320002D2D2D2D2D2D2D2D2D0020536875747400
:1003300065722053706565642020202020202020D5
:10034000202020202053656E736F723220202020E1
:1003500020202020202053656E736F72310053657A
:100360006E736F7232202053656E736F723120206E
:100370002020006D53004332200043312000202014
:10038000202020202020202020202020202020206D
:1003900000205300312F00312F002020202020206A
:1003A000202020202020202020202020006D53000D
:1003B000202020202020202020202020202020203D
:1003C0002020004176657267653220204176657293
:1003D0006167653120202000000000002400270014
:1003E0002A0000000000250028002B00000000006B
:1003F0002300260029000404040404040404020267
:100400000202020203030303030301020408102093
:10041000408001020408102001020408102000009E
:1004200000080002010000030407000000000000B3
:1004300000005925302A11241FBECFEFD8E0DEBFBF
:10044000CDBF14E0A0E0B1E0E4E0F4E602C0059026
:100450000D92A038B107D9F726E0A0E8B4E001C0BA
:100460001D92AF38B207E1F712E0CAE1D2E004C052
:100470002197FE010E94FD2FC931D107C9F70E94C3
:10048000B0250C94F5310C9400002F923F924F92BE
:100490005F926F927F928F929F92AF92BF92CF9214
:1004A000DF92EF92FF920F931F93CF93DF9300D0D1
:1004B00000D0CDB7DEB71C014B015A01390127012D
:1004C0009601227033273A83298333E0C322DD2447
:1004D0005C834B83CD2851F46801C41AD50A8B8103
:1004E0009C818C0D9D1D84159505B0F07301E00E67
:1004F000F11E4B815C81E614F704F1F06A01FFEF15
:10050000CF1ADF0A2FEF3FEFB401F70182917F018D
:10051000F1010995A601EFCFEB80FC808FEFE81A7F
:10052000F80A2FEF3FEF4B815C81B40180E2F101CB
:100530000995FC82EB82D3CF8B819C81800F911F28
:1005400029813A81232BA1F09C012A193B0924150A
:10055000350570F4FC013196FA83E9832FEF3FEF04
:10056000AC01B40180E2F101099589819A81ECCF57
:100570000F900F900F900F90DF91CF911F910F91DF
:10058000FF90EF90DF90CF90BF90AF909F908F90B3
:100590007F906F905F904F903F902F9008952F9293
:1005A0003F924F925F926F927F928F929F92AF9203
:1005B000BF92CF92DF92EF92FF920F931F93CF9350
:1005C000DF93CDB7DEB7AF970FB6F894DEBF0FBE9F
:1005D000CDBF9AA789A77CA76BA75EA74DA7CAA284
:1005E000DBA2ECA25F2C402E1DA3322E232EA8A648
:1005F00089A22A968EAC9FAC2A9796014E2D5F2D2C
:10060000602F712F832D922DA0E00E94DD2F09F025
:100610004CC092FC42C080E38983E89484F866244D
:100620006394712C81FC92C0C40181709927289633
:100630002EAD3FAD2897232BA9F0009709F486C073
:1006400038A5311105C094012C703327232B51F0AC
:1006500028964EAD5FAD28974150510928965FAF5F
:100660004EAF2897E1E0F0E0EC0FFD1FE60DF71D1F
:10067000830120E3009709F46AC028964EAD5FAD70
:1006800028970417150708F062C00032110509F415
:100690005EC00F5F1F4F2193EDCF29A1203111F4D0
:1006A000E89484F8712C612CBDCF81E485FE81E64D
:1006B000AE014F5F5F4F5FA34EA3712C612C8A5038
:1006C0008FA7A9A0B12CC12CD12CE12CF12C00E0DA
:1006D00010E02AA13BA14CA1552D642D7DA1832DB5
:1006E000922D0E943C2F2A3074F5205D8FEF681AFE
:1006F000780AEEA1FFA12193FFA3EEA3A9A0B12C3C
:10070000C12CD12CE12CF12C00E010E02AA13BA15E
:100710004CA1552D642D7DA1832D922D0E943E2F3D
:100720002AA33BA34CA3552E462E7DA3382E292E5B
:10073000A0E00E94DD2F09F475CFF0E26F1671047E
:1007400009F0BFCF6FCF5FA5250FD0CF8301E1E0C8
:10075000F0E0EC0FFD1FE00FF11F80E326962EADB9
:100760003FAD26970217130738F40032110520F425
:100770000F5F1F4F8193F2CF39A1383029F46016F3
:10078000710610F4E89484F8C40180719071892B8B
:1007900009F447C092FC25C00115110511F12696F8
:1007A0004EAD5FAD26974017510739F028968EADB4
:1007B0009FAD289708171907A1F46016710608F075
:1007C00099C0C801019759F0E9A1E03109F06EC064
:1007D000025011096816790640F08C0106C010E03D
:1007E00000E0F9A1F03109F062C085FC54C000328C
:1007F000110540F5E1E0F0E0EC0FFD1FE00FF11F07
:1008000088E780830F5F1F4F00321105D8F4E1E0C5
:10081000F0E0EC0FFD1FE00FF11F80E380830F5F1E
:100820001F4F0032110570F438A5332309F44EC070
:10083000E1E0F0E0EC0FFD1FE00FF11F8DE280839F
:100840000F5F1F4F64012896EEACFFAC28979E0106
:100850002F5F3F4F4DA55EA56BA57CA589A59AA5E9
:100860000E944502AF960FB6F894DEBF0FBECDBF13
:10087000DF91CF911F910F91FF90EF90DF90CF907C
:10088000BF90AF909F908F907F906F905F904F90B0
:100890003F902F90089500321105A0F6E1E0F0E0BE
:1008A000EC0FFD1FE00FF11F88E5ABCF8C0129A1F4
:1008B000223009F0A9CF0032110520F6E1E0F0E086
:1008C000EC0FFD1FE00FF11F82E69BCF82FE08C0F8
:1008D000E1E0F0E0EC0FFD1FE00FF11F8BE2AFCF86
:1008E00083FEB0CFE1E0F0E0EC0FFD1FE00FF11F61
:1008F00080E2A5CF49A14031D1F677CF2F923F9228
:100900004F925F926F927F928F929F92AF92BF921F
:10091000CF92DF92EF92FF920F931F93CF93DF93CB
:10092000CDB7DEB76E970FB6F894DEBF0FBECDBF62
:1009300009871A872B873C874D875E876F87788B5F
:1009400023964EAC5FAC23978C8A9D8AAE8ABF8A71
:10095000C88ED98EEA8EFB8E8C8F29AD3AAD232BB3
:1009600009F49EC00A8B1B8B6B847C844A011B019B
:10097000EDADFEADF3FF3EC0E4FD3CC0202F312FB6
:10098000A301B401C101A0E00E94DD2F09F00CF425
:100990009AC02AE0A22EB12CC12CD12CE12CF12C32
:1009A00000E010E02A893B89A301B401C1010E9443
:1009B0000B2FA0E00E94DD2F99F429AD3AAD215014
:1009C00031093AAF29AF2A893B89A301B401C1019A
:1009D0000E940D2F2A8B3B8B3A014B011C01D9CF72
:1009E0002A893B89A301B401C101A0E00E94DD2F47
:1009F00009F469C021968EAD9FAD2197840D951D98
:100A00009E8F8D8F90E24916510408F096C0E9AD93
:100A1000FAAD3197FAAFE9AFFFEF4F1A5F0A9AE0EC
:100A2000A92EB12CC12CD12CE12CF12C00E010E02E
:100A30002A893B89A301B401C1010E940B2F205DCB
:100A4000ED8DFE8D2193FE8FED8F2A893B89A301C9
:100A5000B401C1010E940D2F2A8B3B8B3A014B013F
:100A60001C01A0E00E94DD2F69F62196EEADFFADDE
:100A70002197E40DF51D80E320E24216510409F4AC
:100A80005CC03FEF431A530A29AD3AAD2115310539
:100A900009F4DAC08193215031093AAF29AFECCF84
:100AA0003DAD34FF10C080E24816510408F045C047
:100AB0002196EEADFFAD2197E40DF51D8EE280830A
:100AC000F20131962F0121966EAC7FAC2197640C18
:100AD000751CF0E24F16510480F52FEF421A520AAE
:100AE0008AE0A82EB12CC12CD12CE12CF12C00E0F5
:100AF00010E02C893D894E895F89688D798D8A8DBA
:100B00009B8D0E940B2F205DF30121933F012C89C7
:100B10003D894E895F89688D798D8A8D9B8D0E9474
:100B20000D2F2C8B3D8B4E8B5F8B688F798F8A8F2F
:100B30009B8FA0E00E94DD2F61F6FDADF1FD29C085
:100B4000F0FF27C02BAD3CAD232B19F13C8D3111AB
:100B500006C08DAD9EAD8C709927892B29F08BAD89
:100B60009CAD01979CAF8BAF2196EEADFFAD219769
:100B7000E40DF51D80E32BAD3CAD4216530648F461
:100B800030E243165104C0F49FEF491A590A819389
:100B9000F2CFE0E24E16510478F4FC8DFF23B1F160
:100BA0002196EEADFFAD2197E40DF51D8DE280831A
:100BB00092012F5F3F4F2901CDACDEACEBACFCAC1A
:100BC000820121962EAD3FAD21974FA958AD6DA959
:100BD0007EA98BA99CA90E9445026E960FB6F89437
:100BE000DEBF0FBECDBFDF91CF911F910F91FF9060
:100BF000EF90DF90CF90BF90AF909F908F907F90BD
:100C00006F905F904F903F902F9008953DAD32FFD1
:100C10000CC02196EEADFFAD2197E40DF51D8BE2E2
:100C20008083C20101962C01C7CF9DAD93FFC4CF35
:100C30002196EEADFFAD2197E40DF51D80E2808396
:100C4000F20131962F01B8CF8EE280833CCF833002
:100C500081F028F4813099F08230A9F0089587302E
:100C6000A9F08830C9F08430B1F4809180008F7D84
:100C700003C0809180008F7780938000089584B5B1
:100C80008F7784BD089584B58F7DFBCF8091B000B0
:100C90008F778093B00008958091B0008F7DF9CF59
:100CA000CF93DF93282F30E0F901E25EFB4F849170
:100CB000F901E65FFB4FD491F901EA50FC4FC49172
:100CC000CC23A1F081110E942706EC2FF0E0EE0F5B
:100CD000FF1FE451FC4FA591B491EC91ED2381E00D
:100CE00090E009F480E0DF91CF91089580E090E0FA
:100CF000FACF1F93CF93DF93282F30E0F901E25E04
:100D0000FB4F8491F901E65FFB4FD491F901EA5062
:100D1000FC4FC491CC23A9F0162F81110E94270605
:100D2000EC2FF0E0EE0FFF1FEE51FC4FA591B491B8
:100D30008FB7F894EC91111108C0D095DE23DC93A5
:100D40008FBFDF91CF911F910895DE2BF8CFCF9306
:100D5000DF9390E0FC01E65FFB4F24918A509C4FAB
:100D6000FC0184918823C9F090E0880F991FFC0151
:100D7000E852FC4FA591B491FC01EE51FC4FC59196
:100D8000D49161110DC09FB7F8948C912095822366
:100D90008C938881282328839FBFDF91CF9108956A
:100DA000623051F49FB7F8943C91822F8095832351
:100DB0008C93E8812E2BEFCF8FB7F894EC912E2BEC
:100DC0002C938FBFEACF3FB7F89480917A0590912A
:100DD0007B05A0917C05B0917D0526B5A89B05C03B
:100DE0002F3F19F00196A11DB11D3FBFBA2FA92FAA
:100DF000982F8827BC01CD01620F711D811D911DA7
:100E000042E0660F771F881F991F4A95D1F7089512
:100E10008F929F92AF92BF92CF92DF92EF92FF920A
:100E20004B015C010E94E3066B017C010E94E3061A
:100E30006C197D098E099F09683E734081059105F3
:100E4000A8F321E0821A9108A108B10888EEC80E23
:100E500083E0D81EE11CF11C81149104A104B104AB
:100E600029F7FF90EF90DF90CF90BF90AF909F90C9
:100E70008F9008952FB7F89460917605709177055B
:100E800080917805909179052FBF08950895089570
:100E90000895DC01ED91FC910190F081E02D099421
:100EA000EF92FF920F931F93CF93DF938C017B01FF
:100EB000D0E0C0E0F701EC0FFD1F6491662361F004
:100EC000D801ED91FC910190F081E02DC8010995C8
:100ED000892B11F02196EECFCE01DF91CF911F919A
:100EE0000F91FF90EF900895AF92BF92CF92DF9253
:100EF000EF92FF920F931F93CF93DF936C017B01CF
:100F00008B01040F151FEB015E01AE18BF08C0175F
:100F1000D10759F06991D601ED91FC910190F081D2
:100F2000E02DC6010995892B79F7C501DF91CF9195
:100F30001F910F91FF90EF90DF90CF90BF90AF90F7
:100F40000895FC01538D448D252F30E0842F90E0CF
:100F5000821B930B541710F0CF96089501970895B4
:100F6000FC01918D828D981761F0A28DAE0FBF2F7D
:100F7000B11D5D968C91928D9F5F9F73928F90E0D3
:100F800008958FEF9FEF0895FC01918D828D981742
:100F900031F0828DE80FF11D858D90E008958FEF7F
:100FA0009FEF0895FC01918D228D892F90E0805C48
:100FB0009F4F821B91098F73992708958EE795E0C3
:100FC0000E94D20721E0892B09F420E0822F0895A6
:100FD00080E090E0892B29F00E94DE0781110C94BB
:100FE00000000895FC01A48DA80FB92FB11DA35ACC
:100FF000BF4F2C91848D90E001968F739927848F39
:10100000A689B7892C93A089B1898C91837080645B
:101010008C93938D848D981306C00288F389E02DFC
:1010200080818F7D80830895EF92FF920F931F93AD
:10103000CF93DF93EC0181E0888F9B8D8C8D98138B
:101040001AC0E889F989808185FF15C09FB7F89497
:10105000EE89FF896083E889F989808183708064E3
:1010600080839FBF81E090E0DF91CF911F910F912E
:10107000FF90EF900895F62E0B8D10E00F5F1F4F3D
:101080000F731127E02E8C8D8E110CC00FB607FC4C
:10109000FACFE889F989808185FFF5CFCE010E94DA
:1010A000F207F1CFEB8DEC0FFD2FF11DE35AFF4F4F
:1010B000F0829FB7F8940B8FEA89FB898081806268
:1010C000CFCFCF93DF93EC01888D8823B9F0AA8925
:1010D000BB89E889F9898C9185FD03C0808186FDF3
:1010E0000DC00FB607FCF7CF8C9185FFF2CF808142
:1010F00085FFEDCFCE010E94F207E9CFDF91CF91BE
:101100000895FC014281538141155105E9F0248580
:10111000358521153105C1F064177507A8F4848160
:101120009581680F791F6417750710F0641B750BA4
:10113000660F771F660F771F620F731FFB016081B9
:10114000718182819381089560E070E080EC9FE777
:1011500008958F929F92AF92BF92CF92DF92EF92BB
:10116000FF920F931F93CF93DF93EC010A811B81B2
:1011700001151105E1F1EC84FD84E114F104B9F1EC
:10118000188619861A861B86D12CC12C88849984CE
:10119000AA84BB840C151D0591F0F7016191719132
:1011A000819191917F01A50194010E94EE2C6887A5
:1011B00079878A879B87FFEFCF1ADF0AE7CFB801CD
:1011C00090E080E00E941E2B9B01AC01C501B401A0
:1011D0000E945A2DDF91CF911F910F91FF90EF90B8
:1011E000DF90CF90BF90AF909F908F90089560E078
:1011F00070E080EC9FE7EECFAF92BF92CF92DF928C
:10120000EF92FF920F931F93CF93DF93FC01A4847F
:10121000B584A114B10409F466C06A017B01EC0134
:1012200004811581C801880F991F880F991FA80E86
:10123000B91EF5012081318142815381688579850C
:101240008A859B850E94ED2C688779878A879B8792
:10125000F501C082D182E282F382A70196016885FE
:1012600079858A859B850E94EE2C688779878A8795
:101270009B870F5F1F4F1D830C83AE80BF800A15B5
:101280001B0511F41D821C820A811B8101151105A9
:1012900089F4CA8ADB8AEC8AFD8ACE86DF86E88AF0
:1012A000F98A0A151B0520F40F5F1F4F1B830A8361
:1012B00081E01AC0A70196016E857F85888999898A
:1012C0000E94922E18164CF3A70196016A897B8919
:1012D0008C899D890E94192B87FFE3CFCA8ADB8AFC
:1012E000EC8AFD8ADECF80E0DF91CF911F910F91D4
:1012F000FF90EF90DF90CF90BF90AF900895FC01EA
:101300001382128215821482108611861286138629
:1013100080E090E0A0ECBFE786879787A08BB18B39
:10132000828B938BA48BB58B84859585009799F0E0
:1013300020813181F901EE0FFF1FEE0FFF1FE80F33
:10134000F91F2115310549F02150310912921292ED
:1013500012921292F6CF80E0089581E008950895E8
:101360002F923F924F925F926F927F928F929F92B5
:10137000AF92BF92CF92DF92EF92FF920F931F93A3
:10138000CF93DF93CDB7DEB760970FB6F894DEBF8B
:101390000FBECDBF988B8F876A017B013E872D875B
:1013A000DB01CA018827B7FD83959927AA27BB27A8
:1013B000282F2170EF85F889208B892B21F0F7FAEF
:1013C000F094F7F8F094C701B6010E94CC2D298360
:1013D0003A834B835C836D837E838F839887AF854D
:1013E000B8892C9311963C93119712964C931297AF
:1013F00013965C93139714966C93149715967C939D
:1014000015978F8116968C931697988517969C93AF
:10141000ED85FE85EE0FFF1FEE0FFF1FEA5EFE4F0C
:1014200080819181A281B38189879A87AB87BC87AC
:101430008F8198850E943E2E9B01AC01C701B601A9
:101440000E94ED2C29853A854B855C850E947F2B77
:101450002B013C010E94CC2D822E232E342E952E62
:101460005B018C01AF85B88918962C931897199653
:101470003C9319971A964C931A971B965C931B975B
:101480001C966C931C971D96BC921D971E968C9370
:101490001E971F961C930E943E2E9B01AC01C30118
:1014A000B2010E94ED2C2B013C0120E030E040E035
:1014B0005FE30E94922E18160CF0D0C0282D322D1A
:1014C000432D592DB501C801A1E00E94D12F39014A
:1014D0004A015B018C010E943E2E9B01AC01698593
:1014E0007A858B859C850E94192B18160CF087C075
:1014F000EF85F8896086718682869386A486B58694
:1015000006871787ED85FE85EF2B09F05DC0AF8557
:10151000B8891C9111966C90119712967C90129735
:1015200013968C90139714969C9014971596AC90E4
:1015300015971696BC90169717960C91212F362D5D
:10154000472D582D692D7A2D8B2D902F0E943E2EE0
:101550009B01AC01C701B6010E94ED2C6B017C011F
:1015600020E030E040E05FE30E94192B87FF0AC0D3
:1015700020E030E040E05FE3C701B6010E94922E18
:10158000181614F5212F217030E040E050E060E0A3
:1015900070E080E090E0A0E00E94DD2FA9F0212F14
:1015A000362D472D582D692D7A2D8B2D902FA1E0AA
:1015B0000E94D12FEF85F8892083318342835383A2
:1015C00064837583868397838F85988960960FB629
:1015D000F894DEBF0FBECDBFDF91CF911F910F9169
:1015E000FF90EF90DF90CF90BF90AF909F908F9043
:1015F0007F906F905F904F903F902F900895AF85B0
:10160000B88918961C92189719961C9219971A96D1
:101610001C921A971B961C921B971C961C921C9747
:101620001D961C921D971E961C921E971F961C922B
:1016300029813A814B815C816D817E818F81988582
:10164000A1E00E94D12FEF85F88920833183428366
:101650005383648375838683978354CF20E030E07F
:1016600040E05FE3C301B2010E94192B81114ACF10
:10167000282D322D432D592DB501C801A0E00E941F
:10168000DD2F61F0217030E040E050E060E070E07C
:1016900080E090E00E94DD2F09F434CF282D322D18
:1016A000432D592DB501C801A1E00E94D12FAF856E
:1016B000B88918962C93189719963C9319971A96EF
:1016C0004C931A971B965C931B971C966C931C97D4
:1016D0001D967C931D971E968C931E971F969C9328
:1016E00011CF2F923F924F925F926F927F928F9283
:1016F0009F92AF92BF92CF92DF92EF92FF920F93A1
:101700001F93CF93DF93CDB7DEB7E6970FB6F8946C
:10171000DEBF0FBECDBF9CA78BA76DA77EA758AB22
:101720004FA70A8B1B8B2C8B3D8BFF8EEE8EDAAA7C
:10173000C9AAB9A6A8A68BAA9CAA2C962FAD2C97AD
:101740002DAB2D963FAD2D973EAB8A899B89AC89F9
:10175000BD898827B7FD83959927AA27BB278E8B3C
:101760009F8BA88FB98F0E891F890115110549F02C
:101770002A893B894C895D8950582A8B3B8B4C8B3D
:101780005D8B20E030E0A9016A897B898C899D8985
:101790000E94192B312C212C882309F40FC18A892E
:1017A0009B89AC89BD89E7E1B695A7959795879503
:1017B000EA95D1F799278F579109BC01990F880BAA
:1017C000990B0E94202B2BE930E24AE95EE30E944C
:1017D0007F2B24E431E544E35EE30E94EE2C6B01B1
:1017E0007C016A897B898C899D898F77992780689C
:1017F0009F6320E030E040EC5FE30E94ED2C2BE3A0
:101800003DE344E95EE30E947F2B9B01AC01C701ED
:10181000B6010E94EE2C0E94082E6A8F7B8F8C8F5F
:101820009D8F2A8C3B8CB101032C000C880B990BEB
:101830000E94202B6B017C0128E73AE944E550E443
:101840000E947F2B20E030E040E05FE30E94EE2C1E
:101850000E94082E4B012EE83DE543E150E4C7010C
:10186000B6010E947F2B6B017C01092C000CAA0899
:10187000BB08C501B4010E94202B28E132E741E3F7
:101880005FE30E947F2B9B01AC01C701B6010E9460
:10189000ED2C2B013C01AC019B010E947F2B6B01C5
:1018A0007C01A3019201C301B2010E94EE2C68A346
:1018B00079A38AA39BA320E030E040E651E4C7016E
:1018C000B6010E945A2D20E030E040E251E40E942F
:1018D000EE2C9B01AC01C701B6010E945A2D20E0FD
:1018E00030E040EC50E40E94EE2C9B01AC01C701BB
:1018F000B6010E945A2D6B017C01A301920160E0A8
:1019000070E080E090E40E94ED2C9B01AC01C701E7
:10191000B6010E94EE2C9B01AC0168A179A18AA1BD
:101920009BA10E945A2D20E030E040E85FE30E9436
:10193000EE2C3FE7830E911CA11CB11CA501940164
:10194000F7E1220F331F441F551FFA95D1F70E946C
:101950007F2B2B013C01AC019B016A897B898C891F
:101960009D890E94192B87FF0DC041E0241A310880
:1019700020E030E040E251E4C301B2010E945A2D60
:101980002B013C01C101419651E05AA783329105D8
:1019900008F01AA6839790F4C10137FE04C0882787
:1019A000992782199309880F991F880F991FFC01A5
:1019B000EA5EFE4F408051806280738088A599A5C1
:1019C00093FF8DC1AE8DBF8D9D01AB2B11F421E036
:1019D00030E08E8D9F8D0197BCEF2B16BFEF3B063D
:1019E0000CF467C0221633060CF063C08219930909
:1019F000AA24A3949F8F8E8F97FF02C01F8E1E8EE6
:101A0000E8A5F9A5F460F9A7E8A737FE1AA6A11082
:101A1000C1C12114310409F475C18E898170898B8B
:101A2000FAA5FF2309F463C1A30192016A897B89A6
:101A30008C899D890E947F2B1AA50E94CC2D2E8B0C
:101A40003A8F48A35CA36DA37EA3882E9FA30E9418
:101A50003E2E2AA5A301222371F192010E945A2D44
:101A60009B01AC016A897B898C899D890E94ED2C40
:101A70006B017C01EE8DFF8DEE0FFF1FEE0FFF1F40
:101A8000EA5EFE4F80819181A281B3818A8B9B8B1C
:101A9000AC8BBD8B112399F0A3019201BC01CD0148
:101AA0000E947F2B9B01AC01C701B6010E947F2BD6
:101AB0003DC0A12C9FCF92010E947F2BD1CFD3019B
:101AC000C20157E1B695A795979587955A95D1F795
:101AD00099279C012F57310937FF03C03195219574
:101AE00031098A899B89AC89BD8947E1B695A7955B
:101AF000979587954A95D1F799278F57910997FF21
:101B000003C0919581959109821793070CF07DC0D0
:101B10002A893B894C895D89C301B2010E945A2DF3
:101B20009B01AC01C701B6010E945A2D2B013C015B
:101B3000AE8DBF8DAB2B09F071C011E020E030E01D
:101B400040E05FE30E94922E87FD10E0212F30E0FD
:101B500040E050E060E070E080E090E0AE88BA8C59
:101B6000C8A0DCA0EDA0FEA0082D1FA10E94C82FD8
:101B70002E8B3A8F48A35CA36DA37EA3882E9FA3D0
:101B800020E030E040E05FE3C301B2010E94192B86
:101B9000811103C0BE89BE7FBE8B10E0B12CC12C69
:101BA000912CD12CE12CF12C00E02E893A8D48A10A
:101BB0005CA16DA17EA1882D9FA1A9E00E94DD2FCF
:101BC000A9F0A4F03FEF231A330A10E0B12CC12C86
:101BD000912CD12CE12CF12C00E041E04E8B1A8E9F
:101BE00018A21CA21DA21EA2812C1FA2C1018D59E8
:101BF0009F4F512C25E0622E712C873C910508F0F7
:101C000027C184E0682E712C23C1A30192016A8947
:101C10007B898C899D890E945A2D44CF0E94CC2DAE
:101C200059016A017B01082F992E0E943E2E9B01CB
:101C3000AC01C301B2010E94ED2C2B013C0111E06B
:101C400020E030E040E05FE30E94922E87FD10E04C
:101C5000212F30E040E050E060E070E080E090E074
:101C6000192D0E94C82F122FB32EC42E952ED62EBA
:101C7000E72EF82E092F20E030E040E05FE3C301BB
:101C8000B2010E94192B811101C01E7F212F3B2D13
:101C90004C2D592D6D2D7E2D8F2D902F0E943E2E77
:101CA0009B01AC016A897B898C899D890E94192BD3
:101CB00018160CF47ACF2E893A8D48A15CA16DA13B
:101CC0007EA1882D9FA1A1E00E94D12F2E8B3A8F5B
:101CD00048A35CA36DA37EA3882E9FA35ECF37FC91
:101CE00098CE2114310471F08E898170898BA30103
:101CF00092016A897B898C899D890E945A2D10E006
:101D00001AA69BCEA12C012B09F046C02E8D3F8D2B
:101D10004A895B896C897D89CE0101960E94B00950
:101D2000F981FE8B2A812A8F3B8138A34C814CA3F9
:101D30005D815DA38E818EA38F8098859FA3198579
:101D4000BA84CB849C84DD84EE84FF8408892DCF03
:101D50002E8D3F8D4A895B896C897D89CE010196E4
:101D60000E94B009A981AE8BBA81BA8FEB81E8A33A
:101D7000FC81FCA32D812DA33E813EA38F8048854D
:101D80004FA31985BA84CB849C84DD84EE84FF84C0
:101D9000088927C0012BE1F24A895B896C897D891A
:101DA00070582E8D3F8DCE0101960E94B009E981B9
:101DB000EE8BFA81FA8F2B8128A33C813CA34D81C5
:101DC0004DA35E815EA38F8088858FA31985BA8419
:101DD000CB849C84DD84EE84FF840889AA2009F4E6
:101DE000E4CE68A479A4662498E07922A8A5B9A5D0
:101DF00055245394B3FF2CC0BFEF2B163B0624F1A0
:101E00003101EFEF6E1A7E0A2E893A8D48A15CA14E
:101E10006DA17EA1882D9FA10E943E2EF301EE0FA1
:101E2000FF1FEE0FFF1FEA5EFE4F208131814281CE
:101E300053810E94192B811107C02E8D3F8D215097
:101E400031093F8F2E8F130155245394712C612C2F
:101E500088A599A5827099279B8B8A8B98A591FF5D
:101E600003C06114710441F4A9A9BAA9CD0186196E
:101E700097096A167B0610F090E080E0BE89B9836E
:101E8000EA8DEA83F8A1FB832CA12C833DA13D833D
:101E90004EA14E838F825FA158871987BA86CB8661
:101EA0009C86DD86EE86FF86088BAEA9AF93BDA922
:101EB000BF93ECA9EF93FBA9FF9329A52F9338A516
:101EC0003F939F938F934F8D4F935E8D5F9388A920
:101ED0008F939FA59F93AEA5AF93BDA5BF93ECA590
:101EE000EF93FBA5FF9389809A80AB80BC80CD8067
:101EF000DE80EF80F88409851A852B853C854D8529
:101F00005E856F85788989890E947E040FB6F89472
:101F1000DEBF0FBECDBF511067C02C013FEF431A8B
:101F2000530A48A5E5E445FFE5E62FEF3FEFAC0196
:101F30006DA57EA58E2FEBA5FCA50995A32CAA1C4B
:101F4000AA24AA1C6101E32CEE0CEE08FE2C0E2D37
:101F50001E2DFE2DEE2D91014E2D5E2D6E2D7E2D12
:101F60008E2D9E2DA0E00E94DD2F3CF40E949B2F21
:101F700069017A018B01F82FE92F1F9285E08F9379
:101F800021E0621A71087F926F921F921F929AE06D
:101F9000892E2F2F3E2FA2016DA57EA58BA59CA576
:101FA0000E94CF020F900F900F900F900F900F9004
:101FB0004A895B89452BC1F09C01AFA5B8A92A1BB2
:101FC0003B0BE9A9FAA92E173F0770F48C010F5FAC
:101FD0001F4F2FEF3FEFAC016DA57EA580E2EBA573
:101FE000FCA50995C801E8CFE6960FB6F894DEBFC8
:101FF0000FBECDBFDF91CF911F910F91FF90EF905A
:10200000DF90CF90BF90AF909F908F907F906F9018
:102010005F904F903F902F9008952F923F924F9254
:102020005F926F927F928F929F92AF92BF92CF9268
:10203000DF92EF92FF920F931F93CF93DF93CDB771
:10204000DEB7E7970FB6F894DEBF0FBECDBF1C0119
:102050006AAB7BAB4CAB5DAB28013901CEAADFAAE2
:102060006501B82CA9019801C301B8010E94192B80
:10207000882331F1EEA8FFA803E010E027E931E062
:102080004CA95DA96AA97BA9C1010E944502E796F6
:102090000FB6F894DEBF0FBECDBFDF91CF911F9179
:1020A0000F91FF90EF90DF90CF90BF90AF909F90F7
:1020B0008F907F906F905F904F903F902F900895FA
:1020C0002FEF3FEF4FE75FEFC301B8010E94192BDD
:1020D00087FF07C0EEA8FFA804E010E02BE931E07D
:1020E000CFCF2FEF3FEF4FE75FE7C301B8010E946B
:1020F000922E18166CF404E010E02EE831E0C2FCD9
:1021000004C003E010E023E931E0EEA8FFA8B8CF57
:102110009E012F5F3F4F4901B11025C028E23BE6E9
:102120004EE65EE4C301B8010E94922E181654F0E8
:1021300028E23BE64EE65EECC301B8010E94192B93
:1021400087FF11C01F921F925601CEA8DFA89301EE
:1021500082014CA95DA96AA97BA9C1010E94710BEA
:102160000F900F9094CFD2FC03C086E0E82EF12CA4
:10217000F40110E000E080E332E1E316F10448F0FE
:102180000F5F1F4F819391E0E91AF10800321105AA
:1021900099F7BB2019F01F930F93D6CF9701B30186
:1021A000A201CE0181960E94B0091F930F939F92C6
:1021B0008F92DF92CF922FA92F933EA93F93FF9248
:1021C000EF928DA98F939CA99F932BA92F933AA946
:1021D0003F933F922F9289A09AA0ABA0BCA0CDA024
:1021E000DEA0EFA0F8A409A51AA52BA53CA54DA536
:1021F0005EA56FA578A989A90E947E040FB6F89400
:10220000DEBF0FBECDBF43CF882329F0682F8EE7F6
:1022100095E00C944907089508952091E004260F55
:102220003327331F21323105ECF420912905FC01BD
:1022300090E080E0243069F082E00895A091E0040D
:102240002191AC0140545B4FA40FB52FB11D2C93CD
:102250000196861798F38091E004680F6093E0047C
:1022600080E0089581E008951092290581E080932F
:1022700028051092030561E082E10E94790661E081
:1022800083E10E947906E9EBF0E080818E7F808314
:1022900080818D7F808388E48093B80085E480937B
:1022A000BC000895CF93DF9391E09093BF048823FF
:1022B000B9F0C091B800D091BA008091BC008A7B7F
:1022C0008093BC0060E082E10E94790660E083E1D7
:1022D0000E9479060E943411D093BA00C093B800CE
:1022E000DF91CF9108950895E091580580915705A9
:1022F000E81730F4F0E0E156FB4F808190E008955C
:102300008FEF9FEF089590915805809157052FEF1B
:102310003FEF981748F4E92FF0E0E156FB4F20819A
:1023200030E09F5F90935805C9010895809157054B
:1023300090915805891B990B0895CF92DF92EF92E7
:10234000FF920F931F93CF93DF937C01CB018A0100
:1023500020912F05222389F0EB016B01C40ED51EBD
:10236000CC15DD0569F06991D701ED91FC910190E3
:10237000F081E02DC7010995F3CF642F0E940D1164
:10238000C801DF91CF911F910F91FF90EF90DF90E7
:10239000CF900895CF93DF931F92CDB7DEB76983B7
:1023A00020912F052223F9F020915505203258F075
:1023B00021E030E0FC013383228390E080E00F9045
:1023C000DF91CF91089580915605E82FF0E0E05D10
:1023D000FA4F998190838F5F8093560580935505BE
:1023E00081E090E0ECCF61E0CE0101960E940D11FA
:1023F000F7CFCF92DF92EF92FF920F931F93CF937D
:10240000DF93FC01C48121E020932F05C093500588
:1024100010925605109255058385682B8BE196E046
:102420000E94CA11D0915505D13208F092C00E9485
:10243000E3066B017C0180912905811165C082E072
:102440008093290581E0809328058FEF80932705ED
:1024500010922605D0932505A0E3B5E0E5E0F5E070
:1024600080E0D81385C01092040580910405CC0F3C
:10247000C82BC093040580910305813009F07CC00E
:10248000109203050E94E3066B017C018091040514
:102490008093BB0080912B0590912C05A0912D0578
:1024A000B0912E05892B8A2B8B2B99F00E94E30685
:1024B00000912B0510912C0520912D0530912E05B2
:1024C0006C197D098E099F09061717072807390718
:1024D000E0F18091BC0083FDD9CF85EC8093BC00F6
:1024E0000E94E3066B017C0180912905823009F48A
:1024F00045C0809127058F3F61F18091270580328B
:1025000041F18091270525C080912B0590912C05E4
:10251000A0912D05B0912E05892B8A2B8B2B09F4C8
:102520008ACF0E94E30600912B0510912C05209183
:102530002D0530912E056C197D098E099F0906170E
:1025400017072807390708F076CF80912A050E94DF
:102550005211109256051092550510922F05DF91D9
:10256000CF911F910F91FF90EF90DF90CF90089542
:102570009D9191938F5F75CF85EEB0CF80912B05A4
:1025800090912C05A0912D05B0912E05892B8A2BB9
:102590008B2B09F4A9CF0E94E30600912B05109123
:1025A0002C0520912D0530912E056C197D098E0981
:1025B0009F09061717072807390708F095CFC5CFD9
:1025C00090E080E0089583E00E945006892B41F45A
:1025D000809169058F5F8093690581E080935E0536
:1025E00083E00E945006019729F4809164058F5F73
:1025F00080936405089582E00E945006892B29F497
:10260000809174058F5F8093740582E00E9450066C
:10261000019729F480916F058F5F80936F0508956E
:10262000CF92DF92EF92FF92CF930E943A076B0115
:102630007C01C1E00E943A076C197D098E099F094F
:10264000683E73408105910538F4809169058330B7
:1026500088F3C0939004EECF80917405833018F016
:1026600081E080939104CF91FF90EF90DF90CF9025
:1026700008950F931F93CF938C01C62F0E94F911D9
:102680006C2F6460C8010E94F9116C2F6B7FC80128
:102690000E94F91183EC90E00197F1F7CF911F911F
:1026A0000F9108950F931F93CF93DF938C01D62F33
:1026B000C42F607F642B0E94391380E1D89FB00142
:1026C00011246C2BC801DF91CF911F910F910C94B5
:1026D000391340E061E08FE796E00E9452138BE3EC
:1026E0009FE10197F1F70895CF93DF93CDB7DEB760
:1026F00028970FB6F894DEBF0FBECDBF98E0EEE08E
:10270000F1E0DE01119601900D929A95E1F790911A
:102710008706961710F46FEF690F262F30E0220F0F
:10272000331F41E050E04C0F5D1F240F351FF901AE
:102730006081680F606840E08FE796E028960FB6EA
:10274000F894DEBF0FBECDBFDF91CF910C94521332
:1027500041E00E94521381E090E00895CF93DF930F
:10276000EC018AE090E0998388839F838E8388E2DE
:1027700090E00E9403309D878C87892B11F4198289
:102780001882CE01DF91CF910C947F09FB0101905B
:102790000020E9F73197AF01461B570BDC01ED91A3
:1027A000FC910280F381E02D09948F929F92AF9269
:1027B000BF92EF92FF920F931F93CF93DF93CDB70A
:1027C000DEB7A1970FB6F894DEBF0FBECDBF7C0178
:1027D000FA01CB0119A2223008F42AE08E010F5D24
:1027E0001F4F822E912CB12CA12CBF01A501940169
:1027F0000E94BC2CF901CA016A300CF5605DD80159
:102800006E938D01232B242B252B79F790E080E00C
:10281000109721F0BD01C7010E94C613A1960FB603
:10282000F894DEBF0FBECDBFDF91CF911F910F9106
:10283000FF90EF90BF90AF909F908F900895695C4C
:10284000DECFCF92DF92EF92FF920F931F93CF9341
:10285000DF936B01770FEE08FF08F7FE1BC0EC015A
:102860006DE20E9449078C0144275527BA014C1993
:102870005D096E097F092AE0CE010E94D513800F01
:10288000911FDF91CF911F910F91FF90EF90DF90FB
:10289000CF9008952AE0B701A601DF91CF911F9153
:1028A0000F91FF90EF90DF90CF900C94D513CF93C2
:1028B000DF93BC018EE795E00E94C613EC0160EA4D
:1028C00071E08EE795E00E94C6138C0F9D1FDF918B
:1028D000CF910895CF93DF93BC018EE795E00E94DE
:1028E0005007EC0160EA71E08EE795E00E94C613A4
:1028F0008C0F9D1FDF91CF9108954F925F926F9241
:102900007F928F929F92AF92BF92CF92DF92EF927F
:10291000FF92CF93DF9300D000D01F92CDB7DEB7E8
:102920004091650550916605609167057091680555
:102930008091700590917105A0917205B091730519
:1029400020915D052D83481759076A077B0790F58D
:10295000211130C0C0906B05D0906C05E0906D05E2
:10296000F0906E058090600590906105A0906205E2
:10297000B0906305409370055093710560937205A4
:10298000709373058093650590936605A093670522
:10299000B093680580926B0590926C05A0926D05CE
:1029A000B0926E05C0926005D0926105E09262051A
:1029B000F09263058091700590917105A091720568
:1029C000B091730589839A83AB83BC83C0906B05F8
:1029D000D0906C05E0906D05F0906E059D81812C86
:1029E000912C540191114AC0809065059090660524
:1029F000A0906705B090680589819A81AB81BC8100
:102A0000881A990AAA0ABB0A40906005509061058D
:102A100060906205709063054C185D086E087F0831
:102A2000C501B4010E941E2B20E030E04AE754E4C7
:102A30000E945A2D609384047093850480938604C9
:102A400090938704C301B2010E941E2B20E030E066
:102A50004AE754E40E945A2D6093800470938104E5
:102A60008093820490938304C501B40120E230E096
:102A700040E050E00E94532C49015A0189819A811B
:102A8000AB81BC81C81AD90AEA0AFB0AC701B601A0
:102A9000681979098A099B090E94202B2B013C01A6
:102AA00020E030E04AE754E40E945A2D6B017C019B
:102AB000C0929B04D0929C04E0929D04F0929E04EC
:102AC00020E034E244E759E4C301B2010E945A2DE8
:102AD0009B01AC0120938C0430938D0440938E04B1
:102AE00050938F0460E070E080E89FE30E945A2DCD
:102AF00020E030E040E05FE30E94EE2C0E94082ED0
:102B000070938B0460938A049D8191114EC06091F3
:102B10006005709161058091620590916305409018
:102B200065055090660560906705709068056419AA
:102B3000750986099709681979098A099B090E940C
:102B4000202B4B015C0120E030E04AE754E40E9476
:102B50005A2D6093970470939804809399049093EE
:102B60009A0420E034E244E759E4C501B4010E942C
:102B70005A2D9B01AC01209393043093940440930D
:102B800095045093960460E070E080E89FE30E9413
:102B90005A2D20E030E040E05FE30E94EE2C0E94DE
:102BA000082E709389046093880420E030E44CE19F
:102BB00057E4C701B6010E94922E18165CF51092D8
:102BC0009B0410929C0410929D0410929E041092FB
:102BD0008B0410928A0410928C0410928D0410922F
:102BE0008E0410928F041092840410928504109227
:102BF000860410928704109280041092810410922F
:102C000082041092830481EA90E00E946A1481E0B9
:102C10008093920420E030E44CE157E46091970403
:102C2000709198048091990490919A040E94922E38
:102C300018165CF51092970410929804109299045B
:102C400010929A04109289041092880410929304AE
:102C50001092940410929504109296041092840499
:102C600010928504109286041092870410928004BA
:102C700010928104109282041092830482E990E001
:102C80000E946A1481E0809392042DEC3CEC4CECA1
:102C90005DE360919B0470919C0480919D049091F0
:102CA0009E040E94192B87FF3BC010929B04109238
:102CB0009C0410929D0410929E041092970410920E
:102CC00098041092990410929A0410928B04109216
:102CD0008A0410928C0410928D0410928E0410922B
:102CE0008F04109293041092940410929504109201
:102CF0009604109284041092850410928604109217
:102D00008704109280041092810410928204109221
:102D100083048DE790E00E946A1481E0809392041E
:102D20002DEC3CEC4CEC5DE36091970470919804C1
:102D30008091990490919A040E94192B87FF43C0B7
:102D400080915D0581113FC010929B0410929C04FC
:102D500010929D0410929E04109297041092980471
:102D60001092990410929A0410928B0410928A0483
:102D7000109289041092880410928C0410928D0491
:102D800010928E0410928F04109293041092940467
:102D90001092950410929604109284041092850467
:102DA000109286041092870410928004109281047D
:102DB000109282041092830488E690E00E946A14C4
:102DC00081E08093920480919204811170C04091BF
:102DD0009B0450919C0460919D0470919E0489E62F
:102DE00096E00E94FC0880915D05811124C040910D
:102DF0009704509198046091990470919A0483E526
:102E000096E00E94FC0840918404509185046091F2
:102E10008604709187048DE396E00E94FC0840913F
:102E2000800450918104609182047091830487E250
:102E300096E00E94FC0889E696E00E94A90820E03E
:102E400030E04AE754E40E945A2D9B01AC0160E057
:102E500070E080E89FE30E945A2D20E030E040E0DF
:102E60005FE30E94EE2C0E94082E70935C05609335
:102E70005B0583E596E00E94A90820E030E04AE780
:102E800054E40E945A2D9B01AC0160E070E080E8A0
:102E90009FE30E945A2D20E030E040E05FE30E9473
:102EA000EE2C0E94082E70935A05609359050F90DE
:102EB0000F900F900F900F90DF91CF91FF90EF90B8
:102EC000DF90CF90BF90AF909F908F907F906F904A
:102ED0005F904F9008954F925F926F927F928F9282
:102EE0009F92AF92BF92CF92DF92EF92FF920F9399
:102EF0001F93CF936B017C01742EAC019B010E9448
:102F0000DD2E67E971E0811126C046015701E89482
:102F1000B7F82FEF3FEF4FE75FE7C501B4010E941D
:102F2000DD2E81110CC02FEF3FEF4FE75FE7C501AA
:102F3000B4010E94192B63EA71E0181664F02FEFB8
:102F40003FEF4FE75FE4C701B6010E94922E1816CB
:102F5000ACF467EA71E08FE796E0CF911F910F9193
:102F6000FF90EF90DF90CF90BF90AF909F908F90A9
:102F70007F906F905F904F900C94C6132FEF3FEFB0
:102F80004FE75FECC701B6010E94192B87FDE1CF27
:102F900020E030E0A901C701B6010E94192B10E022
:102FA00000E087FF0AC06DE28FE796E00E944907C4
:102FB0008C01F7FAF094F7F8F094C0E060E070E06C
:102FC00080E09FE37C1641F020E030E040E251E4F5
:102FD0000E945A2DCF5FF6CFA70196010E94EE2CDA
:102FE0002B013C010E940F2E4B015C012AE0BC0129
:102FF000A4018FE796E00E94D5137C01E00EF11E3C
:10300000CC23D1F1C501B4010E941E2B9B01AC0160
:10301000C301B2010E94ED2C4B015C016EE28FE70F
:1030200096E00E944907E80EF91EC15028F120E001
:1030300030E040E251E4C501B4010E947F2B2B0136
:103040003C010E940F2E4B01B12CA12C2AE0B501AE
:10305000A4018FE796E00E94D513E80EF91EC50182
:10306000B4010E941E2B9B01AC01C301B2010E945E
:10307000ED2C4B015C01D9CFC701CF911F910F916E
:10308000FF90EF90DF90CF90BF90AF909F908F9088
:103090007F906F905F904F900895CF92DF92EF9264
:1030A000FF928091900460E0811105C080919104AD
:1030B000882309F4FDC081E10E94741364ED71E07E
:1030C0008FE796E00E94500761E080E00E94741351
:1030D0006DEB71E08FE796E00E94500761E089E0B8
:1030E0000E94741360919B0470919C0480919D04D4
:1030F00090919E0441E00E946B1761E080E00E9485
:103100007413609197047091980480919904909140
:103110009A0441E00E946B1761E082E10E947413FF
:103120006AEB71E08FE796E00E94500762E080E072
:103130000E9474136BEA71E08FE796E00E94C61359
:10314000C0908C04D0908D04E0908E04F0908F0499
:1031500020E030E040E85FE3C701B6010E94192B90
:1031600062E087FFABC089E00E94741367EB71E0F7
:103170008FE796E00E94500760918A0470918B045B
:103180008FE796E00E94211462E082E10E947413AE
:1031900064EB71E08FE796E00E945007C0909304C3
:1031A000D0909404E0909504F090960420E030E0F4
:1031B00040E85FE3C701B6010E94192B62E087FF78
:1031C00086C080915D05811182C00E94741361EBFD
:1031D00071E08FE796E00E9450076091880470913B
:1031E00089048FE796E00E94211463E080E00E944A
:1031F00074136EE971E08FE796E00E94500763E078
:1032000089E00E9474132AE93FE34CE156E460919F
:1032100084047091850480918604909187040E94B3
:10322000192B18160CF45CC06AE971E08FE796E080
:103230000E945007609184047091850480918604F7
:103240009091870441E00E946B1763E080E00E9448
:1032500074132AE93FE34CE156E4609180047091D5
:10326000810480918204909183040E94192B181686
:10327000F4F162E971E08FE796E00E9450076091F7
:10328000800470918104809182049091830441E0D4
:103290000E946B1763E082E10E9474136BE871E097
:1032A0008FE796E0FF90EF90DF90CF900C9450075F
:1032B00081E10E94741360ED71E002CF89E00E9409
:1032C000741342E0C701B6010E946B175DCF80E026
:1032D0000E94741342E0C701B6010E946B1785CFAC
:1032E00066E971E08FE796E00E945007AECF6EE886
:1032F00071E08FE796E00E945007CCCFFC018081FF
:103300009181009711F00C949F300895FC01848501
:103310009585009711F00C949F3008950F931F939B
:10332000CF93DF93EC0188819981009759F02A812E
:103330003B812617370730F081E0DF91CF911F9155
:103340000F9108958B016F5F7F4F0E942831009786
:1033500059F0998388831B830A832C813D81232B19
:1033600059F7FC011082E8CF80E0E7CFEF92FF929F
:103370000F931F93CF93DF93EC01FB01E080F1806B
:10338000E114F10411F10481158101151105A9F071
:103390008C819D81080F191FB801CE010E948E19E2
:1033A000882399F0288139818C819D81B701820F12
:1033B000931F0E94EE311D830C83CE01DF91CF91CC
:1033C0001F910F91FF90EF90089588819981009748
:1033D00011F00E949F30198218821D821C821B826C
:1033E0001A82EBCFEF92FF920F931F93CF93DF934D
:1033F000EC017B018A01BA010E948E192881398172
:10340000811114C02115310519F0C9010E949F30A6
:10341000198218821D821C821B821A82CE01DF91C2
:10342000CF911F910F91FF90EF9008951D830C8312
:10343000B701C9010E94EE31F1CFEF92FF920F93D5
:103440001F93CF93DF93CDB7DEB762970FB6F89493
:10345000DEBF0FBECDBF8C01CB01F80111821082FF
:1034600013821282158214824AE09E012F5F3F4F21
:103470007901B9010E94E42AF70101900020E9F7DF
:103480003197AF014E195F09B701C8010E94F219C7
:1034900062960FB6F894DEBF0FBECDBFDF91CF911D
:1034A0001F910F91FF90EF900895FB01DC011196A1
:1034B0001C921E9213961C921E92129715961C92A5
:1034C0001E9214978617970749F0608171816115E4
:1034D000710521F0448155810C94F2190895FC0185
:1034E000118210821382128215821482FB010190D4
:1034F0000020E9F73197AF01461B570B0C94F219E6
:10350000CF93DF93CDB7DEB72C970FB6F894DEBF1D
:103510000FBECDBF1092700510927105109272050A
:103520001092730510926B0510926C0510926D0548
:1035300010926E051092650510926605109267054F
:103540001092680510926005109261051092620554
:103550001092630510929B0410929C0410929D049B
:1035600010929E041092970410929804109299045D
:1035700010929A041092930410929404109295045D
:10358000109296046EEB71E0CE0101960E946F1AC4
:103590006EEB71E0CE0107960E946F1A10926A05D9
:1035A00010925F0510925D051092920410927405BE
:1035B0001092690510926F051092640510925E05D5
:1035C0001092910410929004CE0107960E947E19E9
:1035D000CE0101960E947E192C960FB6F894DEBF9C
:1035E0000FBECDBFDF91CF910895CF92DF92EF92C2
:1035F000FF920E943A076B017C010E943A076C1906
:103600007D098E099F09643F71408105910558F439
:1036100082E00E945006892B61F383E00E945006ED
:10362000892B39F3EACF80EC91E00E94571460E0D7
:1036300081E10E94741368ED71E08FE796E00E94CB
:103640005007FF90EF90DF90CF900C94801A4F922C
:103650005F926F927F92AF92BF92CF92DF92EF9282
:10366000FF920F931F93CF93DF93FC01028113818D
:103670000230110508F44FC0EC01B80190E080E081
:103680000E941E2B9B01AC01688579858A859B85EC
:103690000E945A2D2B013C01AC84BD84D0E0C0E0D7
:1036A000C12CD12C7601F50161917191819191919B
:1036B0005F01A30192010E94ED2C9B01AC010E94CD
:1036C0007F2B9B01AC01C701B6010E94EE2C6B0160
:1036D0007C01CE01019608171907D9F4BE0190E0CC
:1036E00080E00E941E2B9B01AC01C701B6010E9425
:1036F0005A2DDF91CF911F910F91FF90EF90DF90A6
:10370000CF90BF90AF907F906F905F904F900C9450
:103710009D2EEC01C8CF60E070E080EC9FE7DF9168
:10372000CF911F910F91FF90EF90DF90CF90BF90BE
:10373000AF907F906F905F904F9008952F923F923F
:103740004F925F926F927F928F929F92AF92BF92B1
:10375000CF92DF92EF92FF920F931F93CF93DF935D
:10376000CDB7DEB72F970FB6F894DEBF0FBECDBF33
:10377000FE01B496619071908F01312C212CD30100
:103780008C91882309F4F1C3BFEF6B1A7B0A710196
:10379000EFEFEE1AFE0A853209F0C6C0B12CA12C5B
:1037A00007C08D3271F1803361F46894A0F83F0155
:1037B000F30181918B3241F1A4F7803241F18332E0
:1037C00049F190ED980F9A3040F51B821A82F3016F
:1037D000819190ED980F9A3098F54AE02A813B81CB
:1037E000429F7001439FF00C112490E3E91AF10805
:1037F000D701A80FB11D87FDBA95BB83AA833F01EE
:10380000E6CF6894A1F8D3CF6894A2F8D0CF68949B
:10381000A3F8CDCF6894A4F8CACF8A32D9F5C801ED
:103820000296D801ED90FC90F7FE31C06894A1F8A3
:10383000222733272E193F093B832A838C013F011E
:10384000D3018C918E3209F048C0C301019668946F
:10385000B2F811962C9130ED320F3A30F0F4512C31
:10386000412CFC01219130ED320F3A3098F5BAE04D
:10387000B49D7001B59DF00C112430E3E31AF108FA
:103880002701420E511C27FD5A94CF01EACFFB823B
:10389000EA82D4CF1B821A82D3CF2A32E9F4C8013C
:1038A0000296D8014D905C9057FE02C0512C412CDD
:1038B000B2E06B0E711C8C0193012F5F3F4FF3013F
:1038C00080818C36A1F064F48836D9F18A3661F0B3
:1038D000930112C03C01F0CF3C01512C412CECCFA4
:1038E000843711F08A37A1F76894B1F805C0818157
:1038F0008C3609F16894B0F8D9018D913D01853677
:1039000009F4EAC10CF0A4C0873409F4E5C114F548
:10391000853409F4E1C10CF0C1C1853209F4FBC260
:103920007101BFEFEB1AFB0A2FEF3FEFA101BE01C0
:103930006F5F7F4FFBC2B3E0BB2A93012E5F3F4F07
:10394000DBCF8181883619F06894A7F8D5CFF0ECE9
:10395000AF2AF3CF823609F434C33CF46894A5F857
:103960008835F1F6F0E18F2E0DC0833609F4CBC116
:103970008436B1F6E894A4F8AAE08A2E893621F0BC
:10398000843611F0B3EFAB22B2FE02C0E894A0F887
:10399000950122273270893619F0843609F023C147
:1039A000232B09F49CC0F8013896F987E887D801E1
:1039B000CC901196DC9011971296EC90129713967A
:1039C000FC90139714969C9014971596AC91F8015F
:1039D000F681FC83F801F781FA879601A701692D2A
:1039E0007A2F8C819F2F0FE30E94AD2FB22F092DCC
:1039F0001A2FFC81EA859601A701B8018F2F9E2F0F
:103A0000A0E00E94DD2F3CF40E949B2F69017A0107
:103A10008B01F82FE92FBF92AF922B812F933A8120
:103A20003F935F924F92AB2E2F2F3E2FA101BE01ED
:103A30006F5F7F4F84E091E10E94CF021C010F90E5
:103A40000F900F900F900F900F900885198597CECB
:103A50008F3609F4B3C29CF4873609F43DC10CF4E7
:103A60001DC1893609F486CF8E3609F059CFD801A9
:103A7000ED91FD918D01A6FE5DC2208280CE83373F
:103A800009F490C12CF5803709F04ACF650168949C
:103A9000C0F8D4F8F8013296FB83EA83D8010D917F
:103AA0001C910115110509F015C246E0E42EF12C18
:103AB00005E010E021ED31E0A101BE016F5F7F4F15
:103AC00084E091E10E9445021C010A811B8157CECE
:103AD000853709F44FCF883709F444CF21CFB0FEA2
:103AE00048C0C801049699878887D801CD90DD9099
:103AF000ED90FC90D701C6018827B7FD83959927E3
:103B0000AA27BB278C879D87AE87BF87D701C601B1
:103B1000BB0F880B982FDC018C839D83AE83BF8302
:103B2000BC2D9D2CEA86FB860C81102FF02FE02FF8
:103B30009601A7016F2F702F802F9F2FA0E00E946A
:103B4000DD2F4CF40E949B2FB22F932E4A875B8768
:103B50008B01F82FE92FBF92AF929B819F93AA818F
:103B6000AF935F924F92AC84CB2ED92CEA84FB8426
:103B70005BCFF8013296F987E887D801A6FE30C0FE
:103B8000EC910E2E000CFF0BBF2FBB1FBB27BB1FE2
:103B9000BC836F01EF2EEE0CEE08FE2C0E2D1E2DB9
:103BA0009E2CBE2D9F014E2D5E2D6E2D7E2D8E2DB9
:103BB0009E2DA0E00E94DD2F3CF40E949B2F690106
:103BC0007A018B01982EB92FBF92AF92EB81EF93C0
:103BD000FA81FF935F924F92AC80292D3B2F26CF25
:103BE000ED91FC91D1CF232B39F19801285F3F4F04
:103BF00039872887D801CC901196DC9011971296BE
:103C0000EC9012971396FC90139714969C9114972E
:103C100015968C91159716962C91169717963C91A0
:103C2000BF92AF92BB81BF93EA81EF935F924F92B5
:103C3000A12C092F182FFACE9801B0FE19C02C5FC5
:103C40003F4F39872887D8010D911D912D913C91C7
:103C5000BF92AF92BB81BF93EA81EF935F924F9285
:103C6000A12C6801790100E010E020E030E0DECE18
:103C70002E5F3F4F39872887D8010D911C91A6FCF4
:103C80001127BF92AF92BB81BF93EA81EF935F92FE
:103C90004F92A12C6801E12CF12CE5CF863411F470
:103CA0006894A5F898012C5F3F4F3D832C83D80181
:103CB0000D911D912D913C91812CCA80DB80720168
:103CC000A101BE016F5F7F4F84E091E10E940D1062
:103CD0001C010C811D8153CD982F9F7D973419F4C1
:103CE0006894B3F88D7F853411F46894A5F8F801D1
:103CF0003496FD83EC83D8010D911D912D913C915B
:103D000088248394DACF4501B2E08B229924A10163
:103D1000CC24C394D12CA1FC1AC0F12CE12CA1011C
:103D20004E0D5F1D6701E2E0CE0ED11CFFEFEF1AD2
:103D3000FF0A2A813B81E216F30648F42FEF3FEF9A
:103D4000BE016F5F7F4F80E20E940411E8CF1A012D
:103D50003FEF231A330A780182E0E80EF11C2FEFBF
:103D60003FEFBE016F5F7F4FD8018C910E9404111D
:103D70008928B1F0EA81FB81CE16DF0688F4810143
:103D80000F5F1F4F2FEF3FEFA101BE016F5F7F4F0E
:103D900080E20E940411FFEFCF1ADF0A1801EACF78
:103DA0008701EDCC98012E5F3F4F39872887D801D6
:103DB0000D911C910115110589F46501EA80FB80C4
:103DC00006E010E02AEC31E0A101BE016F5F7F4FF9
:103DD00084E091E10E9445021C0137CE920141141A
:103DE000510411F42FEF3FEFF80190E080E0AF01B4
:103DF0004F5F5F4F6081662331F08217930719F0A0
:103E00000196FA01F4CFE01BF10B950122273470E3
:103E10003D832C83B2FE04C04E165F0608F4F20107
:103E2000450132E0832299247F01A101A1FC18C041
:103E30002E1A3F0AA1014E0F5F1F7F018FEFE81A74
:103E4000F80AAA81BB81EA17FB0750F42FEF3FEF76
:103E5000BE016F5F7F4F80E20E940411F701EACF3D
:103E60006A01C01AD10AA601400F511FF8018191C1
:103E70008F01882391F02C813D81232B31F0920119
:103E800021503109452849F029012FEF3FEFBE01AC
:103E90006F5F7F4F0E940411E6CF1A01892809F451
:103EA000D4CDE41AF50AC701820D931DAA81BB8106
:103EB0008A179B0708F0C9CD81010F5F1F4F2FEFB5
:103EC0003FEFA101BE016F5F7F4F80E20E940411AE
:103ED0001801E9CFDF92CF921F92B6E0BF935F92B5
:103EE0004F9230E1832EA12C6801E12CF12C00E0EF
:103EF00010E020E030E0A101BE016F5F7F4F84E061
:103F000091E10E94CF021C010F900F900F900F9033
:103F10000F900F90DACD7101EFEFEE1AFE0A2FEF3E
:103F20003FEFA101BE016F5F7F4F85E20E94041148
:103F3000170125CCA7FE03C03182208220CCB0FE21
:103F400008C0C101B0E0A0E080839183A283B38365
:103F500016CCB1FEF1CF41012082918212821382F0
:103F600014821582168217820ACCA101EFEF2E1659
:103F70003E0611F44EEF5FEF2FEF3FEFBE016F5F94
:103F80007F4F80E00E940411C1012F960FB6F89474
:103F9000DEBF0FBECDBFDF91CF911F910F91FF907C
:103FA000EF90DF90CF90BF90AF909F908F907F90D9
:103FB0006F905F904F903F902F90089528E0822E51
:103FC000E1CC92E0892EDECCEF92FF920F931F930B
:103FD000CF93DF93CDB7DEB76E970FB6F894DEBF01
:103FE0000FBECDBF67ED71E0CE010D960E946F1A36
:103FF00060915B0570915C05CE0107960E941D1AC9
:10400000BE01635F7F4FCE0101960E94551ABE012B
:10401000695F7F4FCE0101960E94B619BC01CE01A7
:1040200043960E94551ACE0101960E947E19CE0138
:1040300007960E947E196091590570915A05CE012C
:1040400007960E941D1ABE01635F7F4FCE01019645
:104050000E94551ABE01695F7F4FCE0101960E94F2
:10406000B619BC01CE0149960E94551ACE0101969F
:104070000E947E19CE0107960E947E1987E591E085
:104080000E946A1489E696E00E94A908162F072F5D
:10409000F82EE92E83E596E00E94A908EF92FF92A0
:1040A0000F931F939F938F937F936F9380916C06D1
:1040B0008F9380916B068F938AED91E09F938F93FE
:1040C0000E949E1B8DE396E00E94A908162F072FE1
:1040D000F82EE92E87E296E00E94A908EF92FF925F
:1040E0000F931F939F938F937F936F9380914006BD
:1040F0008F9380913F068F9389E092E09F938F93F7
:104100000E949E1B80916C068F9380916B068F930B
:1041100089E392E09F938F930E949E1B0FB6F894C1
:10412000DEBF0FBECDBF8091590590915A05029711
:104130000CF4CAC08A8D8F93898D8F9383E592E0AA
:104140009F938F930E949E1B0F900F900F900F9044
:1041500080915B0590915C0502970CF4D0C08C892E
:104160008F938B898F9381E692E09F938F930E9428
:104170009E1B0F900F900F900F9080917A068F9357
:10418000809179068F93809178068F93809177063E
:104190008F93809164068F93809163068F938091B3
:1041A00062068F93809161068F9380916C068F9346
:1041B00080916B068F9382E892E09F938F930E9489
:1041C0009E1B80917E068F9380917D068F938091B8
:1041D0007C068F9380917B068F93809168068F93E6
:1041E000809167068F93809166068F938091650614
:1041F0008F9380916C068F9380916B068F9381EBE8
:1042000092E09F938F930E949E1B89E696E00E9406
:10421000271B162F072FF82EE92E83E596E00E9424
:10422000271BEF92FF920F931F939F938F937F9380
:104230006F9380916C068F9380916B068F9381EEC4
:1042400092E09F938F930E949E1B0FB6F894DEBF5F
:104250000FBECDBF87E296E00E94271B9F938F93EE
:104260007F936F939F938F937F936F93809140067B
:104270008F9380913F068F9381E193E09F938F937B
:104280000E949E1B83E291E00E946A14CE0149962F
:104290000E947E19CE0143960E947E19CE010D9692
:1042A0000E947E190FB6F894DEBF0FBECDBF6E968A
:1042B0000FB6F894DEBF0FBECDBFDF91CF911F9137
:1042C0000F91FF90EF90089583E596E00E94A90872
:1042D00020E030E04AE754E40E945A2D9F938F93E8
:1042E0007F936F9388E592E09F938F930E949E1B2C
:1042F0000F900F900F900F900F900F9029CF89E69D
:1043000096E00E94A90820E030E04AE754E40E94C9
:104310005A2D9F938F937F936F9380E792E09F93A3
:104320008F930E949E1B0F900F900F900F900F90F5
:104330000F9023CFCF93DF93CDB7DEB76E970FB635
:10434000F894DEBF0FBECDBF67ED71E0CE010D96D4
:104350000E946F1A60918A0470918B04CE010796B7
:104360000E941D1ABE01635F7F4FCE0101960E941D
:10437000551ABE01695F7F4FCE0101960E94B619A2
:10438000BC01CE0143960E94551ACE0101960E94AF
:104390007E19CE0107960E947E1960918804709163
:1043A0008904CE0107960E941D1ABE01635F7F4FEC
:1043B000CE0101960E94551ABE01695F7F4FCE0162
:1043C00001960E94B619BC01CE0149960E94551A69
:1043D000CE0101960E947E19CE0107960E947E1999
:1043E0008FEE90E00E946A1480919E048F938091DA
:1043F0009D048F9380919C048F9380919B048F9355
:1044000080919A048F93809199048F93809198045E
:104410008F93809197048F9382E493E09F938F937F
:104420000E949E1B80918F048F9380918E048F93A6
:1044300080918D048F9380918C048F93809196044A
:104440008F93809195048F93809194048F938091A2
:1044500093048F9381E793E09F938F930E949E1B19
:1044600066ED70E08EE795E00E9450070FB6F89475
:10447000DEBF0FBECDBF20E030E040E85FE36091DB
:1044800093047091940480919504909196040E94F5
:10449000192B87FFB1C080915D058111ADC08A8D58
:1044A0008F93898D8F9383EA93E09F938F930E94DC
:1044B0009E1B0F900F900F900F9020E030E040E88F
:1044C0005FE360918C0470918D0480918E049091D3
:1044D0008F040E94192B87FF98C08C898F938B893A
:1044E0008F9381E692E09F938F930E949E1B0F9083
:1044F0000F900F900F9080915D05811123C08091E6
:1045000087048F93809186048F93809185048F9385
:10451000809184048F93809183048F93809182048F
:104520008F93809181048F93809180048F9388EA88
:1045300093E09F938F930E949E1B0FB6F894DEBF6B
:104540000FBECDBF80919004882381F080916905D2
:104550008250990B9F938F9387ED93E09F938F9356
:104560000E949E1B0F900F900F900F9080919104CE
:10457000882381F0809174058250990B9F938F93CB
:1045800088EF93E09F938F930E949E1B0F900F9054
:104590000F900F90409165055091660560916705F9
:1045A0007091680580916B0590916C05A0916D05E7
:1045B000B0916E05481759076A077B0740F4809150
:1045C0005D05811104C080EB90E00E946A14CE0169
:1045D00049960E947E19CE0143960E947E19CE0113
:1045E0000D960E947E196E960FB6F894DEBF0FBE30
:1045F000CDBFDF91CF91089583EB91E09F938F938F
:104600000E949E1B0F900F9058CF8EED92E09F93CB
:104610008F930E949E1B0F900F906DCF85ED80931E
:10462000BC0080912B0590912C05A0912D05B09197
:104630002E050796A11DB11D23E0B695A795979568
:1046400087952A95D1F72091BC0024FD03C01092D4
:104650002905089540912B0550912C0560912D0559
:1046600070912E05452B462B472B69F30097A1052A
:10467000B10541F02AE22A95F1F700C00197A1099E
:10468000B109E1CF80912A050C9452110C94452C6C
:104690000C943D2C1F920F920FB60F9211242F9362
:1046A0003F938F939F93AF93BF93809176059091A3
:1046B0007705A0917805B09179053091750523E0D3
:1046C000230F2D3758F50196A11DB11D20937505B7
:1046D0008093760590937705A0937805B09379053C
:1046E00080917A0590917B05A0917C05B0917D0524
:1046F0000196A11DB11D80937A0590937B05A0932F
:104700007C05B0937D05BF91AF919F918F913F91B3
:104710002F910F900FBE0F901F90189526E8230F32
:104720000296A11DB11DD2CF1F920F920FB60F920C
:1047300011242F933F934F935F936F937F938F93A6
:104740009F93AF93BF93EF93FF93E0910201F0919A
:1047500003010995FF91EF91BF91AF919F918F91C7
:104760007F916F915F914F913F912F910F900FBE6D
:104770000F901F9018951F920F920FB60F92112451
:104780002F933F934F935F936F937F938F939F9359
:10479000AF93BF93EF93FF93E0910001F09101017C
:1047A0000995FF91EF91BF91AF919F918F917F916B
:1047B0006F915F914F913F912F910F900FBE0F908E
:1047C0001F9018951F920F920FB60F9211242F93DE
:1047D0003F934F935F936F937F938F939F93AF9389
:1047E000BF93EF93FF938EE795E00E94F207FF914E
:1047F000EF91BF91AF919F918F917F916F915F9159
:104800004F913F912F910F900FBE0F901F901895D1
:104810001F920F920FB60F9211242F938F939F9395
:10482000EF93FF93E0918E05F0918F058081E091E9
:104830009405F091950582FD1BC0908180919705AC
:104840008F5F8F7320919805821741F0E091970553
:10485000F0E0E258FA4F958F80939705FF91EF9122
:104860009F918F912F910F900FBE0F901F901895D1
:104870008081F4CF1F920F920FB60F9211242F93C5
:104880003F934F935F936F937F938F939F93AF93D8
:10489000BF93EF93FF938091B900887F803609F42E
:1048A0004AC0F0F5883209F4A7C018F5803109F440
:1048B0009BC0B8F4882309F4F9C0883009F494C087
:1048C000FF91EF91BF91AF919F918F917F916F91E8
:1048D0005F914F913F912F910F900FBE0F901F90BE
:1048E0001895883109F488C0803251F780932705E4
:1048F00014C0803409F49DC040F48033B9F3883388
:10490000F9F68093270585ECB0C0803509F485C0A1
:10491000883509F496C0883499F60E940E23D0CFCA
:10492000883909F48CC038F5883729F050F4883676
:1049300011F0803729F683E0809329051092020553
:1049400057C0883809F47BC0803919F0803809F0E5
:10495000B7CF80910205803208F071C0E091020566
:1049600081E08E0F809302058091BB00F0E0EE5154
:10497000FB4F80833DC0803B39F0E0F4803A09F47E
:1049800079C0883A09F09CCF84E080932905109281
:10499000E1041092E004E0915305F091540509956B
:1049A0008091E00481110FC081E08093E0041092B7
:1049B000C00409C0803C09F4A6CF883C09F4A3CF09
:1049C000883B09F07DCFE091E10481E08E0F809378
:1049D000E104F0E0E054FB4F80818093BB009091B4
:1049E000E1048091E00429C0809104058093BB001C
:1049F00085EC8093BC0064CF9091260580912505BD
:104A0000981758F5E091260581E08E0F80932605D2
:104A1000F0E0EB5FFA4F8081E9CFE091260581E07D
:104A20008E0F809326058091BB00F0E0EB5FFA4F7C
:104A3000808390912605809125059817C8F285E816
:104A4000D8CFE091260581E08E0F809326058091D6
:104A5000BB00F0E0EB5FFA4F808380912805811165
:104A60005CCF81E08093030584EA8093BC001092C0
:104A7000290526CF85EC8093BC00109229058091F2
:104A80000205803230F4E0910205F0E0EE51FB4F78
:104A900010826091020570E0E0915105F09152059D
:104AA00082EE94E00995109202050ACF1092270534
:104AB00034CFEEE7F5E01382128288EE93E0A0E0B7
:104AC000B0E084839583A683B78322E631E0318307
:104AD000208325EC30E03587248724EC30E03787CD
:104AE000268720EC30E0318B208B21EC30E0338BBB
:104AF000228B22EC30E0358B248B26EC30E0378B98
:104B0000268B118E128E138E148EEBE1F6E013823B
:104B1000128284839583A683B78384E791E091838F
:104B20008083EFE7F6E01382128286E891E09183BA
:104B3000808387E2848384E1818784E0828713868F
:104B400089E696E00E94AE1383E596E00E94AE13DC
:104B50008DE396E00E94AE1387E296E00C94AE13CC
:104B6000789484B5826084BD84B5816084BD85B548
:104B7000826085BD85B5816085BD80916E00816054
:104B800080936E00109281008091810082608093FA
:104B900081008091810081608093810080918000FC
:104BA0008160809380008091B10084608093B10027
:104BB0008091B00081608093B00080917A00846021
:104BC00080937A0080917A00826080937A0080914D
:104BD0007A00816080937A0080917A008068809367
:104BE0007A001092C10060E082E00E94A70660E0B7
:104BF00083E00E94A70662E08CE00E94A70662E0C4
:104C00008BE00E94A7068BEF92E1909301018093C5
:104C10000001809169008C7F816080936900E89A2F
:104C200083EE92E1909303018093020180916900E9
:104C3000837F846080936900E99AE0918E05F0910A
:104C40008F0582E08083E0918A05F0918B051082C8
:104C5000E0918C05F0918D0580E18083109296059E
:104C6000E0919205F091930586E08083E0919005B4
:104C7000F0919105808180618083E0919005F091B1
:104C80009105808188608083E0919005F091910585
:104C9000808180688083E0919005F091910580810A
:104CA0008F7D808382ED92E00E946A1480E692E01C
:104CB0000E946A148FE492E00E946A1483E492E0F6
:104CC0000E946A14109258051092570510925605CA
:104CD000109255050E94341186E497E09093540594
:104CE0008093530587E497E0909352058093510594
:104CF0001092840680918906823018F098E0909393
:104D000084068093870662E370E080E090E00E9472
:104D1000080760918A068FE796E00E94F91168EE15
:104D200073E080E090E00E94080760E38FE796E080
:104D30000E943913CBE4D6E4CE010197F1F760E38A
:104D40008FE796E00E9439132197F1F760E38FE730
:104D500096E00E94391383E592E00197F1F760E253
:104D60008FE796E00E94391360918406606240E00C
:104D70008FE796E00E94521384E08093850640E01E
:104D80006CE08FE796E00E9452130E94691382E064
:104D90008093860640E066E08FE796E00E9452131B
:104DA00040E062E08FE796E00E9452138BE39FE1C0
:104DB0000197F1F788E080938A0660E08FE796E03C
:104DC0000E94F9110E94691384E090E00E94482338
:104DD000843009F4E5C086E090E00E9448238F3FCC
:104DE00009F058C080E480937C0080917A00806450
:104DF00080937A0080917A0086FDFCCF60917800E4
:104E000070917900072E000C880B990B61157105C4
:104E10008105910511F00E94DB2A0E948C2A23EF64
:104E2000C22ED12CE12CF12CA70196010E94532C0B
:104E3000655F7F4F8F4F9F4F86E090E00E94462333
:104E40000E948C2AA70196010E94532C655F7F4F18
:104E50008F4F9F4F87E090E00E9446230E948C2A4C
:104E6000A70196010E94532C655F7F4F8F4F9F4F84
:104E700088E090E00E9446230E948C2AA7019601B8
:104E80000E94532C655F7F4F8F4F9F4F89E090E0CA
:104E90000E94462386E090E00E944823082F10E0FD
:104EA0001F928F9388E194E09F938F930E949E1BA3
:104EB0000E94691360E080E00E94741369E274E06C
:104EC0008FE796E00E94C61360E08CE00E947413A6
:104ED000B8018FE796E00E94211462E080E00E9412
:104EE000741366E374E08FE796E00E94C6130F9098
:104EF0000F900F900F90C8016AE070E00E94F72EAB
:104F0000060F171FD0E0C0E08CE00E94500601970A
:104F100089F58BE00E945006892BB1F72196CF309E
:104F200027E2D20711F4D0E0C0E0BE018EE795E0A1
:104F30000E94211460EA71E08EE795E00E94C6139A
:104F400062E089E00E94741364EB71E08FE796E001
:104F50000E94C61362E089E00E947413BE018FE7CD
:104F600096E00E94211464E670E080E090E00E94E8
:104F70000807CACF89E494E00C171D0739F464E0F0
:104F800084E090E00E9446238FE394E00E9457144F
:104F900068EB7BE080E090E00E9408070C94000042
:104FA0000E94691360E080E00E94741361E372E084
:104FB0008FE796E00E94500762E082E00E9474133F
:104FC00060E272E08FE796E00E94500763E083E0C2
:104FD0000E94741363E172E08FE796E00E9450072D
:104FE00068EB7BE080E090E00E9408070E94801A56
:104FF0000E94691360E080E00E9474136EEF71E01C
:105000008FE796E00E9450078BE00E945006892BA4
:1050100081F58CE00E945006019759F582E00E94CC
:10502000500661E0892BC9F489E00E94741365EF92
:1050300071E08FE796E00E94500783E00E945006DF
:1050400061E0892B81F480E00E94741363EE71E0CB
:105050008FE796E00E945007DCCF89E00E9474132E
:105060006CEE71E0E6CF80E00E9474136AED71E0AF
:10507000EFCF0E944D180E94F51A00E514E080E081
:10508000E82E80E0F82E80917405813079F40E943A
:10509000E306609370057093710580937205909399
:1050A0007305809174058F5F80937405C0916F05BF
:1050B000C13089F40E94E30660936B0570936C0520
:1050C00080936D0590936E0580916F058F5F80933F
:1050D0006F05C0936A0580916905813079F40E945B
:1050E000E30660936505709366058093670590936A
:1050F0006805809169058F5F80936905C09164059B
:10510000C13089F40E94E3066093600570936105E5
:105110008093620590936305809164058F5F80930F
:105120006405C0935F058CE00E945006892B49F509
:1051300088EE92E00E946A1489E696E00E947F0958
:1051400083E596E00E947F098DE396E00E947F0947
:1051500087E296E00E947F0910925C0510925B0541
:1051600010925A05109259058CE00E945006892B26
:10517000D9F36AEF70E080E090E00E9408070E9497
:10518000F51A8BE00E945006EC01892B09F02DC125
:1051900060E080E00E94741363EC73E08FE796E0B8
:1051A0000E94500761E080E00E94741360EB73E09E
:1051B0008FE796E00E94500761E089E00E94741337
:1051C00089E696E00E94A9080E94082E8FE796E0E3
:1051D0000E94211461E080E00E94741383E596E050
:1051E0000E94A9080E94082E8FE796E00E942114D1
:1051F00061E082E10E9474136DEA73E08FE796E04C
:105200000E94500762E080E00E9474136AE973E034
:105210008FE796E00E94500762E089E00E947413D5
:1052200080915B0590915C0502970CF4BAC067E928
:1052300073E08FE796E00E94500760915B057091E4
:105240005C058FE796E00E94211462E080E00E94F6
:1052500074138091590590915A0502970CF4AFC0D0
:1052600064E973E08FE796E00E945007609159056A
:1052700070915A058FE796E00E94211462E082E166
:105280000E94741361E973E08FE796E00E94500773
:1052900063E080E00E9474136EE773E08FE796E0AE
:1052A0000E94500763E089E00E9474136AE773E08C
:1052B0008FE796E00E9450078DE396E00E94A908D0
:1052C0000E94082E8FE796E00E94211463E080E0A0
:1052D0000E94741366E773E08FE796E00E94500720
:1052E00087E296E00E94A9080E94082E8FE796E0C8
:1052F0000E94211463E082E10E94741363E773E06B
:105300008FE796E00E9450078BE00E945006892BA1
:10531000D9F36AEF70E080E090E00E94080760E057
:1053200080E00E9474136EE573E08FE796E00E94C0
:10533000500760EA71E08EE795E00E94C6138AE2AA
:1053400093E00E946A1480916B0690916C06C817D6
:10535000D90708F042C0BE0189E696E00E948108A4
:10536000D62EC72EB82EA92EBE0183E596E00E9448
:105370008108AF92BF92CF92DF929F938F937F93DA
:105380006F93DF93CF931F930F930E949E1B2196E1
:105390008DB79EB70C960FB6F8949EBF0FBE8DBF0B
:1053A000D2CF89E696E00E94A90820E030E04AE7E3
:1053B00054E40E945A2D42E00E946B1746CF83E5C9
:1053C00096E00E94A90820E030E04AE754E40E94F9
:1053D0005A2D42E00E946B1751CF86EF92E00E9457
:1053E0006A140E944D180E94F51A80916A0588235C
:1053F00081F080915F058823C1F00E9410130E9404
:105400007D140E949A210E94E41F0E944D180E9460
:10541000F51AE114F10409F436CE0E94DE07882360
:1054200009F431CE0E9400002ECE80915E058111DC
:10543000F0CF0E94E30680906B0590906C05A090E1
:105440006D05B0906E05681979098A099B09603469
:1054500072448F409105E8F281E080935D05CDCFE5
:1054600087E296E00E9486198DE396E00E948619F5
:1054700083E596E00E94861989E696E00C948619E9
:105480008F929F92AF92BF92CF92DF92EF92FF9254
:10549000CF93DF93EC01688179818A819B816115CB
:1054A00071058105910521F464E279ED8BE597E0C2
:1054B0002DE133EF41E050E00E94532C49015A01A5
:1054C0009B01AC01A7EAB1E40E94722C6B017C0144
:1054D000ACEEB4EFA50194010E94802CC60ED71E3D
:1054E000E81EF91EF7FE06C081E0C81AD108E108DF
:1054F00080E8F80AC882D982EA82FB82C701B60135
:105500009F77DF91CF91FF90EF90DF90CF90BF908A
:10551000AF909F908F9008958F929F92AF92BF927D
:10552000CF92DF92EF92FF9260910401709105019A
:105530008091060190910701611571058105910522
:1055400021F464E279ED8BE597E02DE133EF41E062
:1055500050E00E94532C49015A019B01AC01A7EA7B
:10556000B1E40E94722C6B017C01ACEEB4EFA5019A
:1055700094010E94802CC60ED71EE81EF91EF7FE6D
:1055800006C081E0C81AD108E10880E8F80AC09294
:105590000401D0920501E0920601F0920701C701D3
:1055A000B6019F77FF90EF90DF90CF90BF90AF90C4
:1055B0009F908F90089560930401709305018093EC
:1055C0000601909307010895BB274A3031F49923CF
:1055D00022F4BDE2909581959F4F0C94F02ABB2751
:1055E000FB015527AA27880F991FAA1FA41710F09F
:1055F000A41B83955051B9F7A05DAA3308F0A95DAB
:10560000A193009779F7B111B1931192CB010C944A
:10561000092BDC01FC01672F71917723E1F73297A9
:1056200004C07C916D9370836291AE17BF07C8F37D
:1056300008950E945B2B08F481E00895E89409C066
:1056400097FB3EF490958095709561957F4F8F4FB5
:105650009F4F9923A9F0F92F96E9BB279395F695CB
:10566000879577956795B795F111F8CFFAF4BB0F49
:1056700011F460FF1BC06F5F7F4F8F4F9F4F16C0AD
:10568000882311F096E911C0772321F09EE8872F37
:10569000762F05C0662371F096E8862F70E060E0F3
:1056A0002AF09A95660F771F881FDAF7880F96956C
:1056B000879597F90895990F0008550FAA0BE0E810
:1056C000FEEF16161706E807F907C0F012161306C4
:1056D000E407F50798F0621B730B840B950B39F404
:1056E0000A2661F0232B242B252B21F408950A266A
:1056F00009F4A140A6958FEF811D811D08950E9498
:10570000922B0C94032C0E94F52B38F00E94FC2B5A
:1057100020F0952311F00C94EC2B0C94F22B112417
:105720000C94372C0E94142C70F3959FC1F3950FA5
:1057300050E0551F629FF001729FBB27F00DB11D15
:10574000639FAA27F00DB11DAA1F649F6627B00DA5
:10575000A11D661F829F2227B00DA11D621F739F8E
:10576000B00DA11D621F839FA00D611D221F749F9C
:105770003327A00D611D231F849F600D211D822FE3
:10578000762F6A2F11249F5750409AF0F1F088230A
:105790004AF0EE0FFF1FBB1F661F771F881F915037
:1057A0005040A9F79E3F510580F00C94EC2B0C94CF
:1057B000372C5F3FE4F3983ED4F386957795679551
:1057C000B795F795E7959F5FC1F7FE2B880F911D61
:1057D0009695879597F9089597F99F6780E870E007
:1057E00060E008959FEF80EC089500240A94161657
:1057F000170618060906089500240A9412161306BF
:10580000140605060895092E0394000C11F488234C
:1058100052F0BB0F40F4BF2B11F460FF04C06F5F68
:105820007F4F8F4F9F4F089557FD9058440F551F3E
:1058300059F05F3F71F04795880F97FB991F61F012
:105840009F3F79F087950895121613061406551F89
:10585000F2CF4695F1DF08C0161617061806991FF5
:10586000F1CF86957105610508940895E894BB27EA
:1058700066277727CB0197F90895F999FECF92BD56
:1058800081BDF89A992780B50895262FF999FECF02
:105890001FBA92BD81BD20BD0FB6F894FA9AF99A4D
:1058A0000FBE01960895052E97FB1EF400940E94EA
:1058B0006A2C57FD07D00E94BC2C07FC03D04EF485
:1058C0000C946A2C50954095309521953F4F4F4F41
:1058D0005F4F089590958095709561957F4F8F4F9C
:1058E0009F4F08950E94DE2CA59F900DB49F900DB0
:1058F000A49F800D911D11240895B7FF0C94722C64
:105900000E94722C821B930B08952F923F924F920C
:105910005F926F927F928F929F92AF92BF92CF923F
:10592000DF92EF92FF920F931F93CF93DF93CDB748
:10593000DEB7CA1BDB0B0FB6F894DEBF0FBECDBFC0
:1059400009942A88398848885F846E847D848C8491
:105950009B84AA84B984C884DF80EE80FD800C819A
:105960001B81AA81B981CE0FD11D0FB6F894DEBF7D
:105970000FBECDBFED010895A1E21A2EAA1BBB1BDD
:10598000FD010DC0AA1FBB1FEE1FFF1FA217B3070B
:10599000E407F50720F0A21BB30BE40BF50B661F21
:1059A000771F881F991F1A9469F7609570958095E5
:1059B00090959B01AC01BD01CF010895A29FB0015C
:1059C000B39FC001A39F700D811D1124911DB29F33
:1059D000700D811D1124911D08955058BB27AA27D1
:1059E0000E94052D0C94032C0E94F52B38F00E9488
:1059F000FC2B20F039F49F3F19F426F40C94F22B81
:105A00000EF4E095E7FB0C94EC2BE92F0E94142C8C
:105A100058F3BA17620773078407950720F079F4E3
:105A2000A6F50C94362C0EF4E0950B2EBA2FA02D73
:105A30000B01B90190010C01CA01A0011124FF273B
:105A4000591B99F0593F50F4503E68F11A16F04036
:105A5000A22F232F342F4427585FF3CF4695379535
:105A60002795A795F0405395C9F77EF41F16BA0BFA
:105A7000620B730B840BBAF09150A1F0FF0FBB1FA8
:105A8000661F771F881FC2F70EC0BA0F621F731FF1
:105A9000841F48F4879577956795B795F7959E3F4E
:105AA00008F0B0CF9395880F08F09927EE0F9795DF
:105AB000879508950E946E2D0C94032C0E94FC2B58
:105AC00058F00E94F52B40F029F45F3F29F00C9428
:105AD000EC2B51110C94372C0C94F22B0E94142CAB
